{
	"contracts/Bank.sol": {
		"Bank": {
			"abi": [
				{
					"inputs": [],
					"stateMutability": "nonpayable",
					"type": "constructor"
				},
				{
					"anonymous": false,
					"inputs": [
						{
							"indexed": false,
							"internalType": "address",
							"name": "",
							"type": "address"
						},
						{
							"indexed": false,
							"internalType": "uint256",
							"name": "",
							"type": "uint256"
						}
					],
					"name": "Received",
					"type": "event"
				},
				{
					"inputs": [],
					"name": "getOwner",
					"outputs": [
						{
							"internalType": "address",
							"name": "",
							"type": "address"
						}
					],
					"stateMutability": "view",
					"type": "function"
				},
				{
					"inputs": [],
					"name": "getTop3User",
					"outputs": [
						{
							"internalType": "address[3]",
							"name": "",
							"type": "address[3]"
						}
					],
					"stateMutability": "view",
					"type": "function"
				},
				{
					"inputs": [],
					"name": "saveMoney",
					"outputs": [],
					"stateMutability": "payable",
					"type": "function"
				},
				{
					"inputs": [
						{
							"internalType": "address",
							"name": "",
							"type": "address"
						}
					],
					"name": "savePrice",
					"outputs": [
						{
							"internalType": "uint256",
							"name": "",
							"type": "uint256"
						}
					],
					"stateMutability": "view",
					"type": "function"
				},
				{
					"inputs": [
						{
							"internalType": "uint256",
							"name": "",
							"type": "uint256"
						}
					],
					"name": "top3User",
					"outputs": [
						{
							"internalType": "address",
							"name": "",
							"type": "address"
						}
					],
					"stateMutability": "view",
					"type": "function"
				},
				{
					"inputs": [],
					"name": "withdraw",
					"outputs": [],
					"stateMutability": "nonpayable",
					"type": "function"
				},
				{
					"stateMutability": "payable",
					"type": "receive"
				}
			],
			"devdoc": {
				"kind": "dev",
				"methods": {},
				"version": 1
			},
			"evm": {
				"assembly": "    /* \"contracts/Bank.sol\":61:2065  contract Bank{... */\n  mstore(0x40, 0x80)\n    /* \"contracts/Bank.sol\":252:315  address[3] public top3User = [address(0),address(0),address(0)] */\n  mload(0x40)\n  dup1\n  0x60\n  add\n  0x40\n  mstore\n  dup1\n    /* \"contracts/Bank.sol\":290:291  0 */\n  0x00\n    /* \"contracts/Bank.sol\":252:315  address[3] public top3User = [address(0),address(0),address(0)] */\n  0xffffffffffffffffffffffffffffffffffffffff\n  and\n  0xffffffffffffffffffffffffffffffffffffffff\n  and\n  dup2\n  mstore\n  0x20\n  add\n    /* \"contracts/Bank.sol\":301:302  0 */\n  0x00\n    /* \"contracts/Bank.sol\":252:315  address[3] public top3User = [address(0),address(0),address(0)] */\n  0xffffffffffffffffffffffffffffffffffffffff\n  and\n  0xffffffffffffffffffffffffffffffffffffffff\n  and\n  dup2\n  mstore\n  0x20\n  add\n    /* \"contracts/Bank.sol\":312:313  0 */\n  0x00\n    /* \"contracts/Bank.sol\":252:315  address[3] public top3User = [address(0),address(0),address(0)] */\n  0xffffffffffffffffffffffffffffffffffffffff\n  and\n  0xffffffffffffffffffffffffffffffffffffffff\n  and\n  dup2\n  mstore\n  pop\n  0x02\n  swap1\n  dup2\n  tag_1\n  swap2\n  swap1\n  tag_2\n  jump\t// in\ntag_1:\n  pop\n    /* \"contracts/Bank.sol\":368:418  constructor(){... */\n  callvalue\n  dup1\n  iszero\n  tag_3\n  jumpi\n  revert(0x00, 0x00)\ntag_3:\n  pop\n    /* \"contracts/Bank.sol\":400:410  msg.sender */\n  caller\n    /* \"contracts/Bank.sol\":392:397  owner */\n  0x01\n  0x00\n    /* \"contracts/Bank.sol\":392:410  owner = msg.sender */\n  0x0100\n  exp\n  dup2\n  sload\n  dup2\n  0xffffffffffffffffffffffffffffffffffffffff\n  mul\n  not\n  and\n  swap1\n  dup4\n  0xffffffffffffffffffffffffffffffffffffffff\n  and\n  mul\n  or\n  swap1\n  sstore\n  pop\n    /* \"contracts/Bank.sol\":61:2065  contract Bank{... */\n  jump(tag_6)\n    /* \"#utility.yul\":7:187   */\ntag_7:\n    /* \"#utility.yul\":55:132   */\n  0x4e487b7100000000000000000000000000000000000000000000000000000000\n    /* \"#utility.yul\":52:53   */\n  0x00\n    /* \"#utility.yul\":45:133   */\n  mstore\n    /* \"#utility.yul\":152:156   */\n  0x41\n    /* \"#utility.yul\":149:150   */\n  0x04\n    /* \"#utility.yul\":142:157   */\n  mstore\n    /* \"#utility.yul\":176:180   */\n  0x24\n    /* \"#utility.yul\":173:174   */\n  0x00\n    /* \"#utility.yul\":166:181   */\n  revert\n    /* \"#utility.yul\":193:294   */\ntag_8:\n    /* \"#utility.yul\":255:261   */\n  0x00\n    /* \"#utility.yul\":283:287   */\n  0x03\n    /* \"#utility.yul\":273:287   */\n  swap1\n  pop\n    /* \"#utility.yul\":193:294   */\n  swap2\n  swap1\n  pop\n  jump\t// out\n    /* \"#utility.yul\":300:377   */\ntag_9:\n    /* \"#utility.yul\":337:344   */\n  0x00\n    /* \"#utility.yul\":366:371   */\n  dup2\n    /* \"#utility.yul\":355:371   */\n  swap1\n  pop\n    /* \"#utility.yul\":300:377   */\n  swap2\n  swap1\n  pop\n  jump\t// out\n    /* \"#utility.yul\":985:1186   */\ntag_12:\n    /* \"#utility.yul\":1064:1068   */\n  0x00\n    /* \"#utility.yul\":1087:1093   */\n  dup2\n    /* \"#utility.yul\":1079:1093   */\n  swap1\n  pop\n    /* \"#utility.yul\":1177:1178   */\n  0x01\n    /* \"#utility.yul\":1172:1173   */\n  dup1\n    /* \"#utility.yul\":1169:1170   */\n  0x01\n    /* \"#utility.yul\":1165:1174   */\n  sub\n    /* \"#utility.yul\":1157:1163   */\n  dup4\n    /* \"#utility.yul\":1153:1175   */\n  add\n    /* \"#utility.yul\":1149:1179   */\n  div\n    /* \"#utility.yul\":1141:1179   */\n  swap1\n  pop\n    /* \"#utility.yul\":985:1186   */\n  swap2\n  swap1\n  pop\n  jump\t// out\n    /* \"#utility.yul\":1191:1286   */\ntag_13:\n    /* \"#utility.yul\":1253:1257   */\n  0x00\n    /* \"#utility.yul\":1276:1279   */\n  dup2\n    /* \"#utility.yul\":1268:1279   */\n  swap1\n  pop\n    /* \"#utility.yul\":1191:1286   */\n  swap2\n  swap1\n  pop\n  jump\t// out\n    /* \"#utility.yul\":1292:1399   */\ntag_14:\n    /* \"#utility.yul\":1336:1344   */\n  0x00\n    /* \"#utility.yul\":1386:1391   */\n  dup3\n    /* \"#utility.yul\":1380:1384   */\n  dup3\n    /* \"#utility.yul\":1376:1392   */\n  shl\n    /* \"#utility.yul\":1355:1392   */\n  swap1\n  pop\n    /* \"#utility.yul\":1292:1399   */\n  swap3\n  swap2\n  pop\n  pop\n  jump\t// out\n    /* \"#utility.yul\":1405:1798   */\ntag_15:\n    /* \"#utility.yul\":1474:1480   */\n  0x00\n    /* \"#utility.yul\":1524:1525   */\n  0x08\n    /* \"#utility.yul\":1512:1522   */\n  dup4\n    /* \"#utility.yul\":1508:1526   */\n  mul\n    /* \"#utility.yul\":1547:1644   */\n  tag_54\n    /* \"#utility.yul\":1577:1643   */\n  0xffffffffffffffffffffffffffffffffffffffffffffffffffffffffffffffff\n    /* \"#utility.yul\":1566:1575   */\n  dup3\n    /* \"#utility.yul\":1547:1644   */\n  tag_14\n  jump\t// in\ntag_54:\n    /* \"#utility.yul\":1665:1704   */\n  tag_55\n    /* \"#utility.yul\":1695:1703   */\n  dup7\n    /* \"#utility.yul\":1684:1693   */\n  dup4\n    /* \"#utility.yul\":1665:1704   */\n  tag_14\n  jump\t// in\ntag_55:\n    /* \"#utility.yul\":1653:1704   */\n  swap6\n  pop\n    /* \"#utility.yul\":1737:1741   */\n  dup1\n    /* \"#utility.yul\":1733:1742   */\n  not\n    /* \"#utility.yul\":1726:1731   */\n  dup5\n    /* \"#utility.yul\":1722:1743   */\n  and\n    /* \"#utility.yul\":1713:1743   */\n  swap4\n  pop\n    /* \"#utility.yul\":1786:1790   */\n  dup1\n    /* \"#utility.yul\":1776:1784   */\n  dup7\n    /* \"#utility.yul\":1772:1791   */\n  and\n    /* \"#utility.yul\":1765:1770   */\n  dup5\n    /* \"#utility.yul\":1762:1792   */\n  or\n    /* \"#utility.yul\":1752:1792   */\n  swap3\n  pop\n    /* \"#utility.yul\":1481:1798   */\n  pop\n  pop\n    /* \"#utility.yul\":1405:1798   */\n  swap4\n  swap3\n  pop\n  pop\n  pop\n  jump\t// out\n    /* \"#utility.yul\":1804:1864   */\ntag_16:\n    /* \"#utility.yul\":1832:1835   */\n  0x00\n    /* \"#utility.yul\":1853:1858   */\n  dup2\n    /* \"#utility.yul\":1846:1858   */\n  swap1\n  pop\n    /* \"#utility.yul\":1804:1864   */\n  swap2\n  swap1\n  pop\n  jump\t// out\n    /* \"#utility.yul\":1870:2012   */\ntag_17:\n    /* \"#utility.yul\":1920:1929   */\n  0x00\n    /* \"#utility.yul\":1953:2006   */\n  tag_58\n    /* \"#utility.yul\":1971:2005   */\n  tag_59\n    /* \"#utility.yul\":1980:2004   */\n  tag_60\n    /* \"#utility.yul\":1998:2003   */\n  dup5\n    /* \"#utility.yul\":1980:2004   */\n  tag_9\n  jump\t// in\ntag_60:\n    /* \"#utility.yul\":1971:2005   */\n  tag_16\n  jump\t// in\ntag_59:\n    /* \"#utility.yul\":1953:2006   */\n  tag_9\n  jump\t// in\ntag_58:\n    /* \"#utility.yul\":1940:2006   */\n  swap1\n  pop\n    /* \"#utility.yul\":1870:2012   */\n  swap2\n  swap1\n  pop\n  jump\t// out\n    /* \"#utility.yul\":2018:2093   */\ntag_18:\n    /* \"#utility.yul\":2061:2064   */\n  0x00\n    /* \"#utility.yul\":2082:2087   */\n  dup2\n    /* \"#utility.yul\":2075:2087   */\n  swap1\n  pop\n    /* \"#utility.yul\":2018:2093   */\n  swap2\n  swap1\n  pop\n  jump\t// out\n    /* \"#utility.yul\":2099:2368   */\ntag_19:\n    /* \"#utility.yul\":2209:2248   */\n  tag_63\n    /* \"#utility.yul\":2240:2247   */\n  dup4\n    /* \"#utility.yul\":2209:2248   */\n  tag_17\n  jump\t// in\ntag_63:\n    /* \"#utility.yul\":2270:2361   */\n  tag_64\n    /* \"#utility.yul\":2319:2360   */\n  tag_65\n    /* \"#utility.yul\":2343:2359   */\n  dup3\n    /* \"#utility.yul\":2319:2360   */\n  tag_18\n  jump\t// in\ntag_65:\n    /* \"#utility.yul\":2311:2317   */\n  dup5\n    /* \"#utility.yul\":2304:2308   */\n  dup5\n    /* \"#utility.yul\":2298:2309   */\n  sload\n    /* \"#utility.yul\":2270:2361   */\n  tag_15\n  jump\t// in\ntag_64:\n    /* \"#utility.yul\":2264:2268   */\n  dup3\n    /* \"#utility.yul\":2257:2362   */\n  sstore\n    /* \"#utility.yul\":2175:2368   */\n  pop\n    /* \"#utility.yul\":2099:2368   */\n  pop\n  pop\n  pop\n  jump\t// out\n    /* \"#utility.yul\":2374:2447   */\ntag_20:\n    /* \"#utility.yul\":2419:2422   */\n  0x00\n    /* \"#utility.yul\":2440:2441   */\n  0x00\n    /* \"#utility.yul\":2433:2441   */\n  swap1\n  pop\n    /* \"#utility.yul\":2374:2447   */\n  swap1\n  jump\t// out\n    /* \"#utility.yul\":2453:2642   */\ntag_21:\n    /* \"#utility.yul\":2530:2562   */\n  tag_68\n  tag_20\n  jump\t// in\ntag_68:\n    /* \"#utility.yul\":2571:2636   */\n  tag_69\n    /* \"#utility.yul\":2629:2635   */\n  dup2\n    /* \"#utility.yul\":2621:2627   */\n  dup5\n    /* \"#utility.yul\":2615:2619   */\n  dup5\n    /* \"#utility.yul\":2571:2636   */\n  tag_19\n  jump\t// in\ntag_69:\n    /* \"#utility.yul\":2506:2642   */\n  pop\n    /* \"#utility.yul\":2453:2642   */\n  pop\n  pop\n  jump\t// out\n    /* \"#utility.yul\":2648:2863   */\ntag_22:\n    /* \"#utility.yul\":2734:2735   */\n  0x00\n    /* \"#utility.yul\":2719:2857   */\ntag_71:\n    /* \"#utility.yul\":2744:2753   */\n  dup3\n    /* \"#utility.yul\":2741:2742   */\n  dup2\n    /* \"#utility.yul\":2738:2754   */\n  lt\n    /* \"#utility.yul\":2719:2857   */\n  iszero\n  tag_73\n  jumpi\n    /* \"#utility.yul\":2796:2847   */\n  tag_74\n    /* \"#utility.yul\":2845:2846   */\n  0x00\n    /* \"#utility.yul\":2841:2842   */\n  dup3\n    /* \"#utility.yul\":2830:2839   */\n  dup5\n    /* \"#utility.yul\":2826:2843   */\n  add\n    /* \"#utility.yul\":2796:2847   */\n  tag_21\n  jump\t// in\ntag_74:\n    /* \"#utility.yul\":2769:2770   */\n  0x01\n    /* \"#utility.yul\":2766:2767   */\n  dup2\n    /* \"#utility.yul\":2762:2771   */\n  add\n    /* \"#utility.yul\":2757:2771   */\n  swap1\n  pop\n    /* \"#utility.yul\":2719:2857   */\n  jump(tag_71)\ntag_73:\n    /* \"#utility.yul\":2723:2737   */\n  pop\n    /* \"#utility.yul\":2648:2863   */\n  pop\n  pop\n  jump\t// out\n    /* \"#utility.yul\":3242:3874   */\ntag_25:\n    /* \"#utility.yul\":3360:3363   */\n  dup2\n    /* \"#utility.yul\":3348:3358   */\n  dup4\n    /* \"#utility.yul\":3345:3364   */\n  lt\n    /* \"#utility.yul\":3342:3867   */\n  iszero\n  tag_79\n  jumpi\n    /* \"#utility.yul\":3451:3514   */\n  tag_80\n    /* \"#utility.yul\":3510:3513   */\n  dup3\n    /* \"#utility.yul\":3451:3514   */\n  tag_12\n  jump\t// in\ntag_80:\n    /* \"#utility.yul\":3547:3617   */\n  tag_81\n    /* \"#utility.yul\":3606:3616   */\n  dup5\n    /* \"#utility.yul\":3547:3617   */\n  tag_12\n  jump\t// in\ntag_81:\n    /* \"#utility.yul\":3652:3703   */\n  tag_82\n    /* \"#utility.yul\":3697:3702   */\n  dup4\n    /* \"#utility.yul\":3652:3703   */\n  tag_13\n  jump\t// in\ntag_82:\n    /* \"#utility.yul\":3755:3767   */\n  dup2\n    /* \"#utility.yul\":3739:3753   */\n  dup2\n    /* \"#utility.yul\":3735:3768   */\n  add\n    /* \"#utility.yul\":3782:3857   */\n  tag_83\n    /* \"#utility.yul\":3843:3855   */\n  dup4\n    /* \"#utility.yul\":3829:3841   */\n  dup6\n    /* \"#utility.yul\":3825:3856   */\n  sub\n    /* \"#utility.yul\":3812:3823   */\n  dup3\n    /* \"#utility.yul\":3782:3857   */\n  tag_22\n  jump\t// in\ntag_83:\n    /* \"#utility.yul\":3365:3867   */\n  pop\n  pop\n  pop\n  pop\n    /* \"#utility.yul\":3342:3867   */\ntag_79:\n    /* \"#utility.yul\":3242:3874   */\n  pop\n  pop\n  pop\n  jump\t// out\n    /* \"#utility.yul\":3880:4203   */\ntag_26:\n    /* \"#utility.yul\":3971:3991   */\n  0x010000000000000000\n    /* \"#utility.yul\":3963:3969   */\n  dup3\n    /* \"#utility.yul\":3960:3992   */\n  gt\n    /* \"#utility.yul\":3957:4035   */\n  iszero\n  tag_85\n  jumpi\n    /* \"#utility.yul\":4007:4025   */\n  tag_86\n  tag_7\n  jump\t// in\ntag_86:\n    /* \"#utility.yul\":3957:4035   */\ntag_85:\n    /* \"#utility.yul\":4059:4108   */\n  tag_87\n    /* \"#utility.yul\":4102:4107   */\n  dup2\n    /* \"#utility.yul\":4059:4108   */\n  tag_8\n  jump\t// in\ntag_87:\n    /* \"#utility.yul\":4118:4196   */\n  tag_88\n    /* \"#utility.yul\":4189:4195   */\n  dup4\n    /* \"#utility.yul\":4181:4187   */\n  dup3\n    /* \"#utility.yul\":4174:4179   */\n  dup5\n    /* \"#utility.yul\":4118:4196   */\n  tag_25\n  jump\t// in\ntag_88:\n    /* \"#utility.yul\":3947:4203   */\n  pop\n    /* \"#utility.yul\":3880:4203   */\n  pop\n  pop\n  jump\t// out\n    /* \"#utility.yul\":4208:4312   */\ntag_27:\n    /* \"#utility.yul\":4273:4279   */\n  0x00\n    /* \"#utility.yul\":4301:4305   */\n  0x03\n    /* \"#utility.yul\":4291:4305   */\n  swap1\n  pop\n    /* \"#utility.yul\":4208:4312   */\n  swap2\n  swap1\n  pop\n  jump\t// out\n    /* \"#utility.yul\":4318:4444   */\ntag_28:\n    /* \"#utility.yul\":4355:4362   */\n  0x00\n    /* \"#utility.yul\":4395:4437   */\n  0xffffffffffffffffffffffffffffffffffffffff\n    /* \"#utility.yul\":4388:4393   */\n  dup3\n    /* \"#utility.yul\":4384:4438   */\n  and\n    /* \"#utility.yul\":4373:4438   */\n  swap1\n  pop\n    /* \"#utility.yul\":4318:4444   */\n  swap2\n  swap1\n  pop\n  jump\t// out\n    /* \"#utility.yul\":4450:4546   */\ntag_29:\n    /* \"#utility.yul\":4487:4494   */\n  0x00\n    /* \"#utility.yul\":4516:4540   */\n  tag_92\n    /* \"#utility.yul\":4534:4539   */\n  dup3\n    /* \"#utility.yul\":4516:4540   */\n  tag_28\n  jump\t// in\ntag_92:\n    /* \"#utility.yul\":4505:4540   */\n  swap1\n  pop\n    /* \"#utility.yul\":4450:4546   */\n  swap2\n  swap1\n  pop\n  jump\t// out\n    /* \"#utility.yul\":4552:4706   */\ntag_30:\n    /* \"#utility.yul\":4595:4606   */\n  0x00\n    /* \"#utility.yul\":4631:4660   */\n  tag_94\n    /* \"#utility.yul\":4655:4658   */\n  dup3\n    /* \"#utility.yul\":4649:4659   */\n  mload\n    /* \"#utility.yul\":4631:4660   */\n  tag_29\n  jump\t// in\ntag_94:\n    /* \"#utility.yul\":4694:4699   */\n  dup1\n    /* \"#utility.yul\":4670:4699   */\n  swap2\n  pop\n    /* \"#utility.yul\":4607:4706   */\n  pop\n    /* \"#utility.yul\":4552:4706   */\n  swap2\n  swap1\n  pop\n  jump\t// out\n    /* \"#utility.yul\":4712:4810   */\ntag_31:\n    /* \"#utility.yul\":4777:4781   */\n  0x00\n    /* \"#utility.yul\":4800:4803   */\n  dup2\n    /* \"#utility.yul\":4792:4803   */\n  swap1\n  pop\n    /* \"#utility.yul\":4712:4810   */\n  swap2\n  swap1\n  pop\n  jump\t// out\n    /* \"#utility.yul\":5949:6024   */\ntag_38:\n    /* \"#utility.yul\":5992:5995   */\n  0x00\n    /* \"#utility.yul\":6013:6018   */\n  dup2\n    /* \"#utility.yul\":6006:6018   */\n  swap1\n  pop\n    /* \"#utility.yul\":5949:6024   */\n  swap2\n  swap1\n  pop\n  jump\t// out\n    /* \"#utility.yul\":6030:7019   */\ntag_2:\n    /* \"#utility.yul\":6167:6217   */\n  tag_113\n    /* \"#utility.yul\":6213:6216   */\n  dup3\n    /* \"#utility.yul\":6167:6217   */\n  tag_27\n  jump\t// in\ntag_113:\n    /* \"#utility.yul\":6282:6300   */\n  0xffffffffffffffff\n    /* \"#utility.yul\":6274:6280   */\n  dup2\n    /* \"#utility.yul\":6271:6301   */\n  gt\n    /* \"#utility.yul\":6268:6324   */\n  iszero\n  tag_114\n  jumpi\n    /* \"#utility.yul\":6304:6322   */\n  tag_115\n  tag_7\n  jump\t// in\ntag_115:\n    /* \"#utility.yul\":6268:6324   */\ntag_114:\n    /* \"#utility.yul\":6333:6388   */\n  tag_116\n    /* \"#utility.yul\":6381:6387   */\n  dup2\n    /* \"#utility.yul\":6376:6379   */\n  dup4\n    /* \"#utility.yul\":6333:6388   */\n  tag_26\n  jump\t// in\ntag_116:\n    /* \"#utility.yul\":6412:6464   */\n  tag_117\n    /* \"#utility.yul\":6460:6463   */\n  dup4\n    /* \"#utility.yul\":6412:6464   */\n  tag_31\n  jump\t// in\ntag_117:\n    /* \"#utility.yul\":6488:6537   */\n  tag_118\n    /* \"#utility.yul\":6533:6536   */\n  dup4\n    /* \"#utility.yul\":6488:6537   */\n  tag_13\n  jump\t// in\ntag_118:\n    /* \"#utility.yul\":6576:6577   */\n  0x01\n    /* \"#utility.yul\":6568:6574   */\n  dup4\n    /* \"#utility.yul\":6564:6578   */\n  div\n    /* \"#utility.yul\":6603:6604   */\n  0x00\n    /* \"#utility.yul\":6588:7012   */\ntag_119:\n    /* \"#utility.yul\":6613:6622   */\n  dup2\n    /* \"#utility.yul\":6610:6611   */\n  dup2\n    /* \"#utility.yul\":6607:6623   */\n  lt\n    /* \"#utility.yul\":6588:7012   */\n  iszero\n  tag_121\n  jumpi\n    /* \"#utility.yul\":6677:6678   */\n  0x00\n    /* \"#utility.yul\":6730:6763   */\n  tag_122\n    /* \"#utility.yul\":6756:6762   */\n  dup6\n    /* \"#utility.yul\":6730:6763   */\n  tag_30\n  jump\t// in\ntag_122:\n    /* \"#utility.yul\":6798:6834   */\n  tag_123\n    /* \"#utility.yul\":6822:6833   */\n  dup2\n    /* \"#utility.yul\":6798:6834   */\n  tag_38\n  jump\t// in\ntag_123:\n    /* \"#utility.yul\":6884:6893   */\n  dup1\n    /* \"#utility.yul\":6851:6893   */\n  swap3\n  pop\n    /* \"#utility.yul\":6933:6935   */\n  0x20\n    /* \"#utility.yul\":6925:6931   */\n  dup8\n    /* \"#utility.yul\":6921:6936   */\n  add\n    /* \"#utility.yul\":6911:6936   */\n  swap7\n  pop\n    /* \"#utility.yul\":6692:6951   */\n  pop\n  pop\n    /* \"#utility.yul\":6989:7001   */\n  dup1\n    /* \"#utility.yul\":6985:6986   */\n  dup3\n    /* \"#utility.yul\":6976:6983   */\n  dup6\n    /* \"#utility.yul\":6972:6987   */\n  add\n    /* \"#utility.yul\":6965:7002   */\n  sstore\n    /* \"#utility.yul\":6643:7012   */\n  pop\n    /* \"#utility.yul\":6638:6639   */\n  0x01\n    /* \"#utility.yul\":6635:6636   */\n  dup2\n    /* \"#utility.yul\":6631:6640   */\n  add\n    /* \"#utility.yul\":6626:6640   */\n  swap1\n  pop\n    /* \"#utility.yul\":6588:7012   */\n  jump(tag_119)\ntag_121:\n    /* \"#utility.yul\":6592:6606   */\n  pop\n    /* \"#utility.yul\":6142:7019   */\n  pop\n  pop\n  pop\n  pop\n    /* \"#utility.yul\":6030:7019   */\n  pop\n  pop\n  jump\t// out\n    /* \"contracts/Bank.sol\":61:2065  contract Bank{... */\ntag_6:\n  dataSize(sub_0)\n  dup1\n  dataOffset(sub_0)\n  0x00\n  codecopy\n  0x00\n  return\nstop\n\nsub_0: assembly {\n        /* \"contracts/Bank.sol\":61:2065  contract Bank{... */\n      mstore(0x40, 0x80)\n      jumpi(tag_1, lt(calldatasize, 0x04))\n      shr(0xe0, calldataload(0x00))\n      dup1\n      0x2466de24\n      eq\n      tag_3\n      jumpi\n      dup1\n      0x392da8ae\n      eq\n      tag_4\n      jumpi\n      dup1\n      0x3ccfd60b\n      eq\n      tag_5\n      jumpi\n      dup1\n      0x893d20e8\n      eq\n      tag_6\n      jumpi\n      dup1\n      0xdbaa0468\n      eq\n      tag_7\n      jumpi\n      dup1\n      0xf9080ca4\n      eq\n      tag_8\n      jumpi\n      jump(tag_2)\n    tag_1:\n      jumpi(tag_2, calldatasize)\n        /* \"contracts/Bank.sol\":2021:2052  Received(msg.sender, msg.value) */\n      0x88a5966d370b9919b20f3e2c13ff65706f196a4e32cc2c12bf57088f88525874\n        /* \"contracts/Bank.sol\":2030:2040  msg.sender */\n      caller\n        /* \"contracts/Bank.sol\":2042:2051  msg.value */\n      callvalue\n        /* \"contracts/Bank.sol\":2021:2052  Received(msg.sender, msg.value) */\n      mload(0x40)\n      tag_11\n      swap3\n      swap2\n      swap1\n      tag_12\n      jump\t// in\n    tag_11:\n      mload(0x40)\n      dup1\n      swap2\n      sub\n      swap1\n      log1\n        /* \"contracts/Bank.sol\":61:2065  contract Bank{... */\n      stop\n    tag_2:\n      revert(0x00, 0x00)\n        /* \"contracts/Bank.sol\":886:1969  function saveMoney()payable public  {... */\n    tag_3:\n      tag_13\n      tag_14\n      jump\t// in\n    tag_13:\n      stop\n        /* \"contracts/Bank.sol\":252:315  address[3] public top3User = [address(0),address(0),address(0)] */\n    tag_4:\n      callvalue\n      dup1\n      iszero\n      tag_15\n      jumpi\n      revert(0x00, 0x00)\n    tag_15:\n      pop\n      tag_16\n      0x04\n      dup1\n      calldatasize\n      sub\n      dup2\n      add\n      swap1\n      tag_17\n      swap2\n      swap1\n      tag_18\n      jump\t// in\n    tag_17:\n      tag_19\n      jump\t// in\n    tag_16:\n      mload(0x40)\n      tag_20\n      swap2\n      swap1\n      tag_21\n      jump\t// in\n    tag_20:\n      mload(0x40)\n      dup1\n      swap2\n      sub\n      swap1\n      return\n        /* \"contracts/Bank.sol\":677:878  function withdraw()public {... */\n    tag_5:\n      callvalue\n      dup1\n      iszero\n      tag_22\n      jumpi\n      revert(0x00, 0x00)\n    tag_22:\n      pop\n      tag_23\n      tag_24\n      jump\t// in\n    tag_23:\n      stop\n        /* \"contracts/Bank.sol\":529:611  function getOwner() view external returns (address){... */\n    tag_6:\n      callvalue\n      dup1\n      iszero\n      tag_25\n      jumpi\n      revert(0x00, 0x00)\n    tag_25:\n      pop\n      tag_26\n      tag_27\n      jump\t// in\n    tag_26:\n      mload(0x40)\n      tag_28\n      swap2\n      swap1\n      tag_21\n      jump\t// in\n    tag_28:\n      mload(0x40)\n      dup1\n      swap2\n      sub\n      swap1\n      return\n        /* \"contracts/Bank.sol\":175:214  mapping (address=>uint)public savePrice */\n    tag_7:\n      callvalue\n      dup1\n      iszero\n      tag_29\n      jumpi\n      revert(0x00, 0x00)\n    tag_29:\n      pop\n      tag_30\n      0x04\n      dup1\n      calldatasize\n      sub\n      dup2\n      add\n      swap1\n      tag_31\n      swap2\n      swap1\n      tag_32\n      jump\t// in\n    tag_31:\n      tag_33\n      jump\t// in\n    tag_30:\n      mload(0x40)\n      tag_34\n      swap2\n      swap1\n      tag_35\n      jump\t// in\n    tag_34:\n      mload(0x40)\n      dup1\n      swap2\n      sub\n      swap1\n      return\n        /* \"contracts/Bank.sol\":426:521  function getTop3User()public view returns (address[3] memory){... */\n    tag_8:\n      callvalue\n      dup1\n      iszero\n      tag_36\n      jumpi\n      revert(0x00, 0x00)\n    tag_36:\n      pop\n      tag_37\n      tag_38\n      jump\t// in\n    tag_37:\n      mload(0x40)\n      tag_39\n      swap2\n      swap1\n      tag_40\n      jump\t// in\n    tag_39:\n      mload(0x40)\n      dup1\n      swap2\n      sub\n      swap1\n      return\n        /* \"contracts/Bank.sol\":886:1969  function saveMoney()payable public  {... */\n    tag_14:\n        /* \"contracts/Bank.sol\":1012:1021  msg.value */\n      callvalue\n        /* \"contracts/Bank.sol\":987:996  savePrice */\n      0x00\n        /* \"contracts/Bank.sol\":987:1008  savePrice[msg.sender] */\n      0x00\n        /* \"contracts/Bank.sol\":997:1007  msg.sender */\n      caller\n        /* \"contracts/Bank.sol\":987:1008  savePrice[msg.sender] */\n      0xffffffffffffffffffffffffffffffffffffffff\n      and\n      0xffffffffffffffffffffffffffffffffffffffff\n      and\n      dup2\n      mstore\n      0x20\n      add\n      swap1\n      dup2\n      mstore\n      0x20\n      add\n      0x00\n      keccak256\n      0x00\n        /* \"contracts/Bank.sol\":987:1021  savePrice[msg.sender] += msg.value */\n      dup3\n      dup3\n      sload\n      tag_42\n      swap2\n      swap1\n      tag_43\n      jump\t// in\n    tag_42:\n      swap3\n      pop\n      pop\n      dup2\n      swap1\n      sstore\n      pop\n        /* \"contracts/Bank.sol\":1037:1044  uint8 i */\n      0x00\n        /* \"contracts/Bank.sol\":1047:1048  0 */\n      0x00\n        /* \"contracts/Bank.sol\":1037:1048  uint8 i = 0 */\n      swap1\n      pop\n        /* \"contracts/Bank.sol\":1032:1196  for (uint8 i = 0;i<3;i++){... */\n    tag_44:\n        /* \"contracts/Bank.sol\":1051:1052  3 */\n      0x03\n        /* \"contracts/Bank.sol\":1049:1050  i */\n      dup2\n        /* \"contracts/Bank.sol\":1049:1052  i<3 */\n      0xff\n      and\n      lt\n        /* \"contracts/Bank.sol\":1032:1196  for (uint8 i = 0;i<3;i++){... */\n      iszero\n      tag_45\n      jumpi\n        /* \"contracts/Bank.sol\":1099:1100  0 */\n      0x00\n        /* \"contracts/Bank.sol\":1076:1101  top3User[i] == address(0) */\n      0xffffffffffffffffffffffffffffffffffffffff\n      and\n        /* \"contracts/Bank.sol\":1076:1084  top3User */\n      0x02\n        /* \"contracts/Bank.sol\":1085:1086  i */\n      dup3\n        /* \"contracts/Bank.sol\":1076:1087  top3User[i] */\n      0xff\n      and\n      0x03\n      dup2\n      lt\n      tag_47\n      jumpi\n      tag_48\n      tag_49\n      jump\t// in\n    tag_48:\n    tag_47:\n      add\n      0x00\n      swap1\n      sload\n      swap1\n      0x0100\n      exp\n      swap1\n      div\n      0xffffffffffffffffffffffffffffffffffffffff\n      and\n        /* \"contracts/Bank.sol\":1076:1101  top3User[i] == address(0) */\n      0xffffffffffffffffffffffffffffffffffffffff\n      and\n      sub\n        /* \"contracts/Bank.sol\":1072:1185  if (top3User[i] == address(0)){... */\n      tag_51\n      jumpi\n        /* \"contracts/Bank.sol\":1135:1145  msg.sender */\n      caller\n        /* \"contracts/Bank.sol\":1121:1129  top3User */\n      0x02\n        /* \"contracts/Bank.sol\":1130:1131  i */\n      dup3\n        /* \"contracts/Bank.sol\":1121:1132  top3User[i] */\n      0xff\n      and\n      0x03\n      dup2\n      lt\n      tag_52\n      jumpi\n      tag_53\n      tag_49\n      jump\t// in\n    tag_53:\n    tag_52:\n      add\n      0x00\n        /* \"contracts/Bank.sol\":1121:1145  top3User[i] = msg.sender */\n      0x0100\n      exp\n      dup2\n      sload\n      dup2\n      0xffffffffffffffffffffffffffffffffffffffff\n      mul\n      not\n      and\n      swap1\n      dup4\n      0xffffffffffffffffffffffffffffffffffffffff\n      and\n      mul\n      or\n      swap1\n      sstore\n      pop\n        /* \"contracts/Bank.sol\":1164:1169  break */\n      jump(tag_45)\n        /* \"contracts/Bank.sol\":1072:1185  if (top3User[i] == address(0)){... */\n    tag_51:\n        /* \"contracts/Bank.sol\":1053:1056  i++ */\n      dup1\n      dup1\n      0x01\n      add\n      swap2\n      pop\n      pop\n        /* \"contracts/Bank.sol\":1032:1196  for (uint8 i = 0;i<3;i++){... */\n      jump(tag_44)\n    tag_45:\n      pop\n        /* \"contracts/Bank.sol\":1267:1275  top3User */\n      0x02\n        /* \"contracts/Bank.sol\":1276:1277  0 */\n      0x00\n        /* \"contracts/Bank.sol\":1267:1278  top3User[0] */\n      0x03\n      dup2\n      lt\n      tag_55\n      jumpi\n      tag_56\n      tag_49\n      jump\t// in\n    tag_56:\n    tag_55:\n      add\n      0x00\n      swap1\n      sload\n      swap1\n      0x0100\n      exp\n      swap1\n      div\n      0xffffffffffffffffffffffffffffffffffffffff\n      and\n        /* \"contracts/Bank.sol\":1253:1278  msg.sender == top3User[0] */\n      0xffffffffffffffffffffffffffffffffffffffff\n      and\n        /* \"contracts/Bank.sol\":1253:1263  msg.sender */\n      caller\n        /* \"contracts/Bank.sol\":1253:1278  msg.sender == top3User[0] */\n      0xffffffffffffffffffffffffffffffffffffffff\n      and\n      eq\n        /* \"contracts/Bank.sol\":1253:1307  msg.sender == top3User[0] || msg.sender == top3User[1] */\n      dup1\n      tag_58\n      jumpi\n      pop\n        /* \"contracts/Bank.sol\":1296:1304  top3User */\n      0x02\n        /* \"contracts/Bank.sol\":1305:1306  1 */\n      0x01\n        /* \"contracts/Bank.sol\":1296:1307  top3User[1] */\n      0x03\n      dup2\n      lt\n      tag_59\n      jumpi\n      tag_60\n      tag_49\n      jump\t// in\n    tag_60:\n    tag_59:\n      add\n      0x00\n      swap1\n      sload\n      swap1\n      0x0100\n      exp\n      swap1\n      div\n      0xffffffffffffffffffffffffffffffffffffffff\n      and\n        /* \"contracts/Bank.sol\":1282:1307  msg.sender == top3User[1] */\n      0xffffffffffffffffffffffffffffffffffffffff\n      and\n        /* \"contracts/Bank.sol\":1282:1292  msg.sender */\n      caller\n        /* \"contracts/Bank.sol\":1282:1307  msg.sender == top3User[1] */\n      0xffffffffffffffffffffffffffffffffffffffff\n      and\n      eq\n        /* \"contracts/Bank.sol\":1253:1307  msg.sender == top3User[0] || msg.sender == top3User[1] */\n    tag_58:\n        /* \"contracts/Bank.sol\":1253:1336  msg.sender == top3User[0] || msg.sender == top3User[1] || msg.sender == top3User[2] */\n      dup1\n      tag_62\n      jumpi\n      pop\n        /* \"contracts/Bank.sol\":1325:1333  top3User */\n      0x02\n        /* \"contracts/Bank.sol\":1334:1335  2 */\n      dup1\n        /* \"contracts/Bank.sol\":1325:1336  top3User[2] */\n      0x03\n      dup2\n      lt\n      tag_63\n      jumpi\n      tag_64\n      tag_49\n      jump\t// in\n    tag_64:\n    tag_63:\n      add\n      0x00\n      swap1\n      sload\n      swap1\n      0x0100\n      exp\n      swap1\n      div\n      0xffffffffffffffffffffffffffffffffffffffff\n      and\n        /* \"contracts/Bank.sol\":1311:1336  msg.sender == top3User[2] */\n      0xffffffffffffffffffffffffffffffffffffffff\n      and\n        /* \"contracts/Bank.sol\":1311:1321  msg.sender */\n      caller\n        /* \"contracts/Bank.sol\":1311:1336  msg.sender == top3User[2] */\n      0xffffffffffffffffffffffffffffffffffffffff\n      and\n      eq\n        /* \"contracts/Bank.sol\":1253:1336  msg.sender == top3User[0] || msg.sender == top3User[1] || msg.sender == top3User[2] */\n    tag_62:\n        /* \"contracts/Bank.sol\":1249:1627  if (msg.sender == top3User[0] || msg.sender == top3User[1] || msg.sender == top3User[2]){... */\n      tag_67\n      jumpi\n        /* \"contracts/Bank.sol\":1533:1542  savePrice */\n      0x00\n        /* \"contracts/Bank.sol\":1533:1555  savePrice[top3User[2]] */\n      0x00\n        /* \"contracts/Bank.sol\":1543:1551  top3User */\n      0x02\n        /* \"contracts/Bank.sol\":1552:1553  2 */\n      dup1\n        /* \"contracts/Bank.sol\":1543:1554  top3User[2] */\n      0x03\n      dup2\n      lt\n      tag_68\n      jumpi\n      tag_69\n      tag_49\n      jump\t// in\n    tag_69:\n    tag_68:\n      add\n      0x00\n      swap1\n      sload\n      swap1\n      0x0100\n      exp\n      swap1\n      div\n      0xffffffffffffffffffffffffffffffffffffffff\n      and\n        /* \"contracts/Bank.sol\":1533:1555  savePrice[top3User[2]] */\n      0xffffffffffffffffffffffffffffffffffffffff\n      and\n      0xffffffffffffffffffffffffffffffffffffffff\n      and\n      dup2\n      mstore\n      0x20\n      add\n      swap1\n      dup2\n      mstore\n      0x20\n      add\n      0x00\n      keccak256\n      sload\n        /* \"contracts/Bank.sol\":1509:1518  savePrice */\n      0x00\n        /* \"contracts/Bank.sol\":1509:1530  savePrice[msg.sender] */\n      0x00\n        /* \"contracts/Bank.sol\":1519:1529  msg.sender */\n      caller\n        /* \"contracts/Bank.sol\":1509:1530  savePrice[msg.sender] */\n      0xffffffffffffffffffffffffffffffffffffffff\n      and\n      0xffffffffffffffffffffffffffffffffffffffff\n      and\n      dup2\n      mstore\n      0x20\n      add\n      swap1\n      dup2\n      mstore\n      0x20\n      add\n      0x00\n      keccak256\n      sload\n        /* \"contracts/Bank.sol\":1509:1555  savePrice[msg.sender] > savePrice[top3User[2]] */\n      gt\n        /* \"contracts/Bank.sol\":1505:1616  if (savePrice[msg.sender] > savePrice[top3User[2]]) {... */\n      iszero\n      tag_71\n      jumpi\n        /* \"contracts/Bank.sol\":1590:1600  msg.sender */\n      caller\n        /* \"contracts/Bank.sol\":1576:1584  top3User */\n      0x02\n        /* \"contracts/Bank.sol\":1585:1586  2 */\n      dup1\n        /* \"contracts/Bank.sol\":1576:1587  top3User[2] */\n      0x03\n      dup2\n      lt\n      tag_72\n      jumpi\n      tag_73\n      tag_49\n      jump\t// in\n    tag_73:\n    tag_72:\n      add\n      0x00\n        /* \"contracts/Bank.sol\":1576:1600  top3User[2] = msg.sender */\n      0x0100\n      exp\n      dup2\n      sload\n      dup2\n      0xffffffffffffffffffffffffffffffffffffffff\n      mul\n      not\n      and\n      swap1\n      dup4\n      0xffffffffffffffffffffffffffffffffffffffff\n      and\n      mul\n      or\n      swap1\n      sstore\n      pop\n        /* \"contracts/Bank.sol\":1505:1616  if (savePrice[msg.sender] > savePrice[top3User[2]]) {... */\n    tag_71:\n        /* \"contracts/Bank.sol\":1249:1627  if (msg.sender == top3User[0] || msg.sender == top3User[1] || msg.sender == top3User[2]){... */\n    tag_67:\n        /* \"contracts/Bank.sol\":1689:1698  savePrice */\n      0x00\n        /* \"contracts/Bank.sol\":1689:1711  savePrice[top3User[1]] */\n      0x00\n        /* \"contracts/Bank.sol\":1699:1707  top3User */\n      0x02\n        /* \"contracts/Bank.sol\":1708:1709  1 */\n      0x01\n        /* \"contracts/Bank.sol\":1699:1710  top3User[1] */\n      0x03\n      dup2\n      lt\n      tag_75\n      jumpi\n      tag_76\n      tag_49\n      jump\t// in\n    tag_76:\n    tag_75:\n      add\n      0x00\n      swap1\n      sload\n      swap1\n      0x0100\n      exp\n      swap1\n      div\n      0xffffffffffffffffffffffffffffffffffffffff\n      and\n        /* \"contracts/Bank.sol\":1689:1711  savePrice[top3User[1]] */\n      0xffffffffffffffffffffffffffffffffffffffff\n      and\n      0xffffffffffffffffffffffffffffffffffffffff\n      and\n      dup2\n      mstore\n      0x20\n      add\n      swap1\n      dup2\n      mstore\n      0x20\n      add\n      0x00\n      keccak256\n      sload\n        /* \"contracts/Bank.sol\":1664:1673  savePrice */\n      0x00\n        /* \"contracts/Bank.sol\":1664:1686  savePrice[top3User[2]] */\n      0x00\n        /* \"contracts/Bank.sol\":1674:1682  top3User */\n      0x02\n        /* \"contracts/Bank.sol\":1683:1684  2 */\n      dup1\n        /* \"contracts/Bank.sol\":1674:1685  top3User[2] */\n      0x03\n      dup2\n      lt\n      tag_78\n      jumpi\n      tag_79\n      tag_49\n      jump\t// in\n    tag_79:\n    tag_78:\n      add\n      0x00\n      swap1\n      sload\n      swap1\n      0x0100\n      exp\n      swap1\n      div\n      0xffffffffffffffffffffffffffffffffffffffff\n      and\n        /* \"contracts/Bank.sol\":1664:1686  savePrice[top3User[2]] */\n      0xffffffffffffffffffffffffffffffffffffffff\n      and\n      0xffffffffffffffffffffffffffffffffffffffff\n      and\n      dup2\n      mstore\n      0x20\n      add\n      swap1\n      dup2\n      mstore\n      0x20\n      add\n      0x00\n      keccak256\n      sload\n        /* \"contracts/Bank.sol\":1664:1711  savePrice[top3User[2]] > savePrice[top3User[1]] */\n      gt\n        /* \"contracts/Bank.sol\":1660:1803  if (savePrice[top3User[2]] > savePrice[top3User[1]]) {... */\n      iszero\n      tag_81\n      jumpi\n        /* \"contracts/Bank.sol\":1762:1770  top3User */\n      0x02\n        /* \"contracts/Bank.sol\":1771:1772  1 */\n      0x01\n        /* \"contracts/Bank.sol\":1762:1773  top3User[1] */\n      0x03\n      dup2\n      lt\n      tag_82\n      jumpi\n      tag_83\n      tag_49\n      jump\t// in\n    tag_83:\n    tag_82:\n      add\n      0x00\n      swap1\n      sload\n      swap1\n      0x0100\n      exp\n      swap1\n      div\n      0xffffffffffffffffffffffffffffffffffffffff\n      and\n        /* \"contracts/Bank.sol\":1775:1783  top3User */\n      0x02\n        /* \"contracts/Bank.sol\":1784:1785  2 */\n      dup1\n        /* \"contracts/Bank.sol\":1775:1786  top3User[2] */\n      0x03\n      dup2\n      lt\n      tag_85\n      jumpi\n      tag_86\n      tag_49\n      jump\t// in\n    tag_86:\n    tag_85:\n      add\n      0x00\n      swap1\n      sload\n      swap1\n      0x0100\n      exp\n      swap1\n      div\n      0xffffffffffffffffffffffffffffffffffffffff\n      and\n        /* \"contracts/Bank.sol\":1733:1741  top3User */\n      0x02\n        /* \"contracts/Bank.sol\":1742:1743  2 */\n      dup1\n        /* \"contracts/Bank.sol\":1733:1744  top3User[2] */\n      0x03\n      dup2\n      lt\n      tag_88\n      jumpi\n      tag_89\n      tag_49\n      jump\t// in\n    tag_89:\n    tag_88:\n      add\n      0x00\n        /* \"contracts/Bank.sol\":1746:1754  top3User */\n      0x02\n        /* \"contracts/Bank.sol\":1755:1756  1 */\n      0x01\n        /* \"contracts/Bank.sol\":1746:1757  top3User[1] */\n      0x03\n      dup2\n      lt\n      tag_91\n      jumpi\n      tag_92\n      tag_49\n      jump\t// in\n    tag_92:\n    tag_91:\n      add\n      0x00\n        /* \"contracts/Bank.sol\":1732:1787  (top3User[2], top3User[1]) = (top3User[1], top3User[2]) */\n      dup5\n      swap2\n      swap1\n      0x0100\n      exp\n      dup2\n      sload\n      dup2\n      0xffffffffffffffffffffffffffffffffffffffff\n      mul\n      not\n      and\n      swap1\n      dup4\n      0xffffffffffffffffffffffffffffffffffffffff\n      and\n      mul\n      or\n      swap1\n      sstore\n      pop\n      dup4\n      swap2\n      swap1\n      0x0100\n      exp\n      dup2\n      sload\n      dup2\n      0xffffffffffffffffffffffffffffffffffffffff\n      mul\n      not\n      and\n      swap1\n      dup4\n      0xffffffffffffffffffffffffffffffffffffffff\n      and\n      mul\n      or\n      swap1\n      sstore\n      pop\n      pop\n      pop\n        /* \"contracts/Bank.sol\":1660:1803  if (savePrice[top3User[2]] > savePrice[top3User[1]]) {... */\n    tag_81:\n        /* \"contracts/Bank.sol\":1846:1855  savePrice */\n      0x00\n        /* \"contracts/Bank.sol\":1846:1868  savePrice[top3User[0]] */\n      0x00\n        /* \"contracts/Bank.sol\":1856:1864  top3User */\n      0x02\n        /* \"contracts/Bank.sol\":1865:1866  0 */\n      0x00\n        /* \"contracts/Bank.sol\":1856:1867  top3User[0] */\n      0x03\n      dup2\n      lt\n      tag_94\n      jumpi\n      tag_95\n      tag_49\n      jump\t// in\n    tag_95:\n    tag_94:\n      add\n      0x00\n      swap1\n      sload\n      swap1\n      0x0100\n      exp\n      swap1\n      div\n      0xffffffffffffffffffffffffffffffffffffffff\n      and\n        /* \"contracts/Bank.sol\":1846:1868  savePrice[top3User[0]] */\n      0xffffffffffffffffffffffffffffffffffffffff\n      and\n      0xffffffffffffffffffffffffffffffffffffffff\n      and\n      dup2\n      mstore\n      0x20\n      add\n      swap1\n      dup2\n      mstore\n      0x20\n      add\n      0x00\n      keccak256\n      sload\n        /* \"contracts/Bank.sol\":1821:1830  savePrice */\n      0x00\n        /* \"contracts/Bank.sol\":1821:1843  savePrice[top3User[1]] */\n      0x00\n        /* \"contracts/Bank.sol\":1831:1839  top3User */\n      0x02\n        /* \"contracts/Bank.sol\":1840:1841  1 */\n      0x01\n        /* \"contracts/Bank.sol\":1831:1842  top3User[1] */\n      0x03\n      dup2\n      lt\n      tag_97\n      jumpi\n      tag_98\n      tag_49\n      jump\t// in\n    tag_98:\n    tag_97:\n      add\n      0x00\n      swap1\n      sload\n      swap1\n      0x0100\n      exp\n      swap1\n      div\n      0xffffffffffffffffffffffffffffffffffffffff\n      and\n        /* \"contracts/Bank.sol\":1821:1843  savePrice[top3User[1]] */\n      0xffffffffffffffffffffffffffffffffffffffff\n      and\n      0xffffffffffffffffffffffffffffffffffffffff\n      and\n      dup2\n      mstore\n      0x20\n      add\n      swap1\n      dup2\n      mstore\n      0x20\n      add\n      0x00\n      keccak256\n      sload\n        /* \"contracts/Bank.sol\":1821:1868  savePrice[top3User[1]] > savePrice[top3User[0]] */\n      gt\n        /* \"contracts/Bank.sol\":1817:1960  if (savePrice[top3User[1]] > savePrice[top3User[0]]) {... */\n      iszero\n      tag_100\n      jumpi\n        /* \"contracts/Bank.sol\":1919:1927  top3User */\n      0x02\n        /* \"contracts/Bank.sol\":1928:1929  0 */\n      0x00\n        /* \"contracts/Bank.sol\":1919:1930  top3User[0] */\n      0x03\n      dup2\n      lt\n      tag_101\n      jumpi\n      tag_102\n      tag_49\n      jump\t// in\n    tag_102:\n    tag_101:\n      add\n      0x00\n      swap1\n      sload\n      swap1\n      0x0100\n      exp\n      swap1\n      div\n      0xffffffffffffffffffffffffffffffffffffffff\n      and\n        /* \"contracts/Bank.sol\":1932:1940  top3User */\n      0x02\n        /* \"contracts/Bank.sol\":1941:1942  1 */\n      0x01\n        /* \"contracts/Bank.sol\":1932:1943  top3User[1] */\n      0x03\n      dup2\n      lt\n      tag_104\n      jumpi\n      tag_105\n      tag_49\n      jump\t// in\n    tag_105:\n    tag_104:\n      add\n      0x00\n      swap1\n      sload\n      swap1\n      0x0100\n      exp\n      swap1\n      div\n      0xffffffffffffffffffffffffffffffffffffffff\n      and\n        /* \"contracts/Bank.sol\":1890:1898  top3User */\n      0x02\n        /* \"contracts/Bank.sol\":1899:1900  1 */\n      0x01\n        /* \"contracts/Bank.sol\":1890:1901  top3User[1] */\n      0x03\n      dup2\n      lt\n      tag_107\n      jumpi\n      tag_108\n      tag_49\n      jump\t// in\n    tag_108:\n    tag_107:\n      add\n      0x00\n        /* \"contracts/Bank.sol\":1903:1911  top3User */\n      0x02\n        /* \"contracts/Bank.sol\":1912:1913  0 */\n      0x00\n        /* \"contracts/Bank.sol\":1903:1914  top3User[0] */\n      0x03\n      dup2\n      lt\n      tag_110\n      jumpi\n      tag_111\n      tag_49\n      jump\t// in\n    tag_111:\n    tag_110:\n      add\n      0x00\n        /* \"contracts/Bank.sol\":1889:1944  (top3User[1], top3User[0]) = (top3User[0], top3User[1]) */\n      dup5\n      swap2\n      swap1\n      0x0100\n      exp\n      dup2\n      sload\n      dup2\n      0xffffffffffffffffffffffffffffffffffffffff\n      mul\n      not\n      and\n      swap1\n      dup4\n      0xffffffffffffffffffffffffffffffffffffffff\n      and\n      mul\n      or\n      swap1\n      sstore\n      pop\n      dup4\n      swap2\n      swap1\n      0x0100\n      exp\n      dup2\n      sload\n      dup2\n      0xffffffffffffffffffffffffffffffffffffffff\n      mul\n      not\n      and\n      swap1\n      dup4\n      0xffffffffffffffffffffffffffffffffffffffff\n      and\n      mul\n      or\n      swap1\n      sstore\n      pop\n      pop\n      pop\n        /* \"contracts/Bank.sol\":1817:1960  if (savePrice[top3User[1]] > savePrice[top3User[0]]) {... */\n    tag_100:\n        /* \"contracts/Bank.sol\":886:1969  function saveMoney()payable public  {... */\n      jump\t// out\n        /* \"contracts/Bank.sol\":252:315  address[3] public top3User = [address(0),address(0),address(0)] */\n    tag_19:\n      0x02\n      dup2\n      0x03\n      dup2\n      lt\n      tag_113\n      jumpi\n      0x00\n      dup1\n      revert\n    tag_113:\n      add\n      0x00\n      swap2\n      pop\n      sload\n      swap1\n      0x0100\n      exp\n      swap1\n      div\n      0xffffffffffffffffffffffffffffffffffffffff\n      and\n      dup2\n      jump\t// out\n        /* \"contracts/Bank.sol\":677:878  function withdraw()public {... */\n    tag_24:\n        /* \"contracts/Bank.sol\":736:741  owner */\n      0x01\n      0x00\n      swap1\n      sload\n      swap1\n      0x0100\n      exp\n      swap1\n      div\n      0xffffffffffffffffffffffffffffffffffffffff\n      and\n        /* \"contracts/Bank.sol\":722:741  msg.sender == owner */\n      0xffffffffffffffffffffffffffffffffffffffff\n      and\n        /* \"contracts/Bank.sol\":722:732  msg.sender */\n      caller\n        /* \"contracts/Bank.sol\":722:741  msg.sender == owner */\n      0xffffffffffffffffffffffffffffffffffffffff\n      and\n      eq\n        /* \"contracts/Bank.sol\":714:742  require(msg.sender == owner) */\n      tag_116\n      jumpi\n      revert(0x00, 0x00)\n    tag_116:\n        /* \"contracts/Bank.sol\":754:766  bool success */\n      0x00\n        /* \"contracts/Bank.sol\":780:785  owner */\n      0x01\n      0x00\n      swap1\n      sload\n      swap1\n      0x0100\n      exp\n      swap1\n      div\n      0xffffffffffffffffffffffffffffffffffffffff\n      and\n        /* \"contracts/Bank.sol\":772:791  payable(owner).call */\n      0xffffffffffffffffffffffffffffffffffffffff\n      and\n        /* \"contracts/Bank.sol\":798:819  address(this).balance */\n      selfbalance\n        /* \"contracts/Bank.sol\":772:824  payable(owner).call{value:address(this).balance}(\"\") */\n      mload(0x40)\n      tag_117\n      swap1\n      tag_118\n      jump\t// in\n    tag_117:\n      0x00\n      mload(0x40)\n      dup1\n      dup4\n      sub\n      dup2\n      dup6\n      dup8\n      gas\n      call\n      swap3\n      pop\n      pop\n      pop\n      returndatasize\n      dup1\n      0x00\n      dup2\n      eq\n      tag_121\n      jumpi\n      mload(0x40)\n      swap2\n      pop\n      and(add(returndatasize, 0x3f), not(0x1f))\n      dup3\n      add\n      0x40\n      mstore\n      returndatasize\n      dup3\n      mstore\n      returndatasize\n      0x00\n      0x20\n      dup5\n      add\n      returndatacopy\n      jump(tag_120)\n    tag_121:\n      0x60\n      swap2\n      pop\n    tag_120:\n      pop\n        /* \"contracts/Bank.sol\":753:824  (bool success, ) = payable(owner).call{value:address(this).balance}(\"\") */\n      pop\n      swap1\n      pop\n        /* \"contracts/Bank.sol\":843:850  success */\n      dup1\n        /* \"contracts/Bank.sol\":835:870  require(success, \"Withdraw failed\") */\n      tag_122\n      jumpi\n      mload(0x40)\n      0x08c379a000000000000000000000000000000000000000000000000000000000\n      dup2\n      mstore\n      0x04\n      add\n      tag_123\n      swap1\n      tag_124\n      jump\t// in\n    tag_123:\n      mload(0x40)\n      dup1\n      swap2\n      sub\n      swap1\n      revert\n    tag_122:\n        /* \"contracts/Bank.sol\":703:878  {... */\n      pop\n        /* \"contracts/Bank.sol\":677:878  function withdraw()public {... */\n      jump\t// out\n        /* \"contracts/Bank.sol\":529:611  function getOwner() view external returns (address){... */\n    tag_27:\n        /* \"contracts/Bank.sol\":572:579  address */\n      0x00\n        /* \"contracts/Bank.sol\":598:603  owner */\n      0x01\n      0x00\n      swap1\n      sload\n      swap1\n      0x0100\n      exp\n      swap1\n      div\n      0xffffffffffffffffffffffffffffffffffffffff\n      and\n        /* \"contracts/Bank.sol\":591:603  return owner */\n      swap1\n      pop\n        /* \"contracts/Bank.sol\":529:611  function getOwner() view external returns (address){... */\n      swap1\n      jump\t// out\n        /* \"contracts/Bank.sol\":175:214  mapping (address=>uint)public savePrice */\n    tag_33:\n      mstore(0x20, 0x00)\n      dup1\n      0x00\n      mstore\n      keccak256(0x00, 0x40)\n      0x00\n      swap2\n      pop\n      swap1\n      pop\n      sload\n      dup2\n      jump\t// out\n        /* \"contracts/Bank.sol\":426:521  function getTop3User()public view returns (address[3] memory){... */\n    tag_38:\n        /* \"contracts/Bank.sol\":469:486  address[3] memory */\n      tag_126\n      tag_127\n      jump\t// in\n    tag_126:\n        /* \"contracts/Bank.sol\":505:513  top3User */\n      0x02\n        /* \"contracts/Bank.sol\":498:513  return top3User */\n      0x03\n      dup1\n      0x20\n      mul\n      mload(0x40)\n      swap1\n      dup2\n      add\n      0x40\n      mstore\n      dup1\n      swap3\n      swap2\n      swap1\n      dup3\n      0x03\n      dup1\n      iszero\n      tag_129\n      jumpi\n      0x20\n      mul\n      dup3\n      add\n      swap2\n    tag_130:\n      dup2\n      0x00\n      swap1\n      sload\n      swap1\n      0x0100\n      exp\n      swap1\n      div\n      0xffffffffffffffffffffffffffffffffffffffff\n      and\n      0xffffffffffffffffffffffffffffffffffffffff\n      and\n      dup2\n      mstore\n      0x20\n      add\n      swap1\n      0x01\n      add\n      swap1\n      dup1\n      dup4\n      gt\n      tag_130\n      jumpi\n    tag_129:\n      pop\n      pop\n      pop\n      pop\n      pop\n      swap1\n      pop\n        /* \"contracts/Bank.sol\":426:521  function getTop3User()public view returns (address[3] memory){... */\n      swap1\n      jump\t// out\n    tag_127:\n      mload(0x40)\n      dup1\n      0x60\n      add\n      0x40\n      mstore\n      dup1\n      0x03\n      swap1\n      0x20\n      dup3\n      mul\n      dup1\n      calldatasize\n      dup4\n      calldatacopy\n      dup1\n      dup3\n      add\n      swap2\n      pop\n      pop\n      swap1\n      pop\n      pop\n      swap1\n      jump\t// out\n        /* \"#utility.yul\":7:133   */\n    tag_131:\n        /* \"#utility.yul\":44:51   */\n      0x00\n        /* \"#utility.yul\":84:126   */\n      0xffffffffffffffffffffffffffffffffffffffff\n        /* \"#utility.yul\":77:82   */\n      dup3\n        /* \"#utility.yul\":73:127   */\n      and\n        /* \"#utility.yul\":62:127   */\n      swap1\n      pop\n        /* \"#utility.yul\":7:133   */\n      swap2\n      swap1\n      pop\n      jump\t// out\n        /* \"#utility.yul\":139:235   */\n    tag_132:\n        /* \"#utility.yul\":176:183   */\n      0x00\n        /* \"#utility.yul\":205:229   */\n      tag_160\n        /* \"#utility.yul\":223:228   */\n      dup3\n        /* \"#utility.yul\":205:229   */\n      tag_131\n      jump\t// in\n    tag_160:\n        /* \"#utility.yul\":194:229   */\n      swap1\n      pop\n        /* \"#utility.yul\":139:235   */\n      swap2\n      swap1\n      pop\n      jump\t// out\n        /* \"#utility.yul\":241:359   */\n    tag_133:\n        /* \"#utility.yul\":328:352   */\n      tag_162\n        /* \"#utility.yul\":346:351   */\n      dup2\n        /* \"#utility.yul\":328:352   */\n      tag_132\n      jump\t// in\n    tag_162:\n        /* \"#utility.yul\":323:326   */\n      dup3\n        /* \"#utility.yul\":316:353   */\n      mstore\n        /* \"#utility.yul\":241:359   */\n      pop\n      pop\n      jump\t// out\n        /* \"#utility.yul\":365:442   */\n    tag_134:\n        /* \"#utility.yul\":402:409   */\n      0x00\n        /* \"#utility.yul\":431:436   */\n      dup2\n        /* \"#utility.yul\":420:436   */\n      swap1\n      pop\n        /* \"#utility.yul\":365:442   */\n      swap2\n      swap1\n      pop\n      jump\t// out\n        /* \"#utility.yul\":448:566   */\n    tag_135:\n        /* \"#utility.yul\":535:559   */\n      tag_165\n        /* \"#utility.yul\":553:558   */\n      dup2\n        /* \"#utility.yul\":535:559   */\n      tag_134\n      jump\t// in\n    tag_165:\n        /* \"#utility.yul\":530:533   */\n      dup3\n        /* \"#utility.yul\":523:560   */\n      mstore\n        /* \"#utility.yul\":448:566   */\n      pop\n      pop\n      jump\t// out\n        /* \"#utility.yul\":572:904   */\n    tag_12:\n        /* \"#utility.yul\":693:697   */\n      0x00\n        /* \"#utility.yul\":731:733   */\n      0x40\n        /* \"#utility.yul\":720:729   */\n      dup3\n        /* \"#utility.yul\":716:734   */\n      add\n        /* \"#utility.yul\":708:734   */\n      swap1\n      pop\n        /* \"#utility.yul\":744:815   */\n      tag_167\n        /* \"#utility.yul\":812:813   */\n      0x00\n        /* \"#utility.yul\":801:810   */\n      dup4\n        /* \"#utility.yul\":797:814   */\n      add\n        /* \"#utility.yul\":788:794   */\n      dup6\n        /* \"#utility.yul\":744:815   */\n      tag_133\n      jump\t// in\n    tag_167:\n        /* \"#utility.yul\":825:897   */\n      tag_168\n        /* \"#utility.yul\":893:895   */\n      0x20\n        /* \"#utility.yul\":882:891   */\n      dup4\n        /* \"#utility.yul\":878:896   */\n      add\n        /* \"#utility.yul\":869:875   */\n      dup5\n        /* \"#utility.yul\":825:897   */\n      tag_135\n      jump\t// in\n    tag_168:\n        /* \"#utility.yul\":572:904   */\n      swap4\n      swap3\n      pop\n      pop\n      pop\n      jump\t// out\n        /* \"#utility.yul\":991:1108   */\n    tag_137:\n        /* \"#utility.yul\":1100:1101   */\n      0x00\n        /* \"#utility.yul\":1097:1098   */\n      0x00\n        /* \"#utility.yul\":1090:1102   */\n      revert\n        /* \"#utility.yul\":1237:1359   */\n    tag_139:\n        /* \"#utility.yul\":1310:1334   */\n      tag_173\n        /* \"#utility.yul\":1328:1333   */\n      dup2\n        /* \"#utility.yul\":1310:1334   */\n      tag_134\n      jump\t// in\n    tag_173:\n        /* \"#utility.yul\":1303:1308   */\n      dup2\n        /* \"#utility.yul\":1300:1335   */\n      eq\n        /* \"#utility.yul\":1290:1353   */\n      tag_174\n      jumpi\n        /* \"#utility.yul\":1349:1350   */\n      0x00\n        /* \"#utility.yul\":1346:1347   */\n      0x00\n        /* \"#utility.yul\":1339:1351   */\n      revert\n        /* \"#utility.yul\":1290:1353   */\n    tag_174:\n        /* \"#utility.yul\":1237:1359   */\n      pop\n      jump\t// out\n        /* \"#utility.yul\":1365:1504   */\n    tag_140:\n        /* \"#utility.yul\":1411:1416   */\n      0x00\n        /* \"#utility.yul\":1449:1455   */\n      dup2\n        /* \"#utility.yul\":1436:1456   */\n      calldataload\n        /* \"#utility.yul\":1427:1456   */\n      swap1\n      pop\n        /* \"#utility.yul\":1465:1498   */\n      tag_176\n        /* \"#utility.yul\":1492:1497   */\n      dup2\n        /* \"#utility.yul\":1465:1498   */\n      tag_139\n      jump\t// in\n    tag_176:\n        /* \"#utility.yul\":1365:1504   */\n      swap3\n      swap2\n      pop\n      pop\n      jump\t// out\n        /* \"#utility.yul\":1510:1839   */\n    tag_18:\n        /* \"#utility.yul\":1569:1575   */\n      0x00\n        /* \"#utility.yul\":1618:1620   */\n      0x20\n        /* \"#utility.yul\":1606:1615   */\n      dup3\n        /* \"#utility.yul\":1597:1604   */\n      dup5\n        /* \"#utility.yul\":1593:1616   */\n      sub\n        /* \"#utility.yul\":1589:1621   */\n      slt\n        /* \"#utility.yul\":1586:1705   */\n      iszero\n      tag_178\n      jumpi\n        /* \"#utility.yul\":1624:1703   */\n      tag_179\n      tag_137\n      jump\t// in\n    tag_179:\n        /* \"#utility.yul\":1586:1705   */\n    tag_178:\n        /* \"#utility.yul\":1744:1745   */\n      0x00\n        /* \"#utility.yul\":1769:1822   */\n      tag_180\n        /* \"#utility.yul\":1814:1821   */\n      dup5\n        /* \"#utility.yul\":1805:1811   */\n      dup3\n        /* \"#utility.yul\":1794:1803   */\n      dup6\n        /* \"#utility.yul\":1790:1812   */\n      add\n        /* \"#utility.yul\":1769:1822   */\n      tag_140\n      jump\t// in\n    tag_180:\n        /* \"#utility.yul\":1759:1822   */\n      swap2\n      pop\n        /* \"#utility.yul\":1715:1832   */\n      pop\n        /* \"#utility.yul\":1510:1839   */\n      swap3\n      swap2\n      pop\n      pop\n      jump\t// out\n        /* \"#utility.yul\":1845:2067   */\n    tag_21:\n        /* \"#utility.yul\":1938:1942   */\n      0x00\n        /* \"#utility.yul\":1976:1978   */\n      0x20\n        /* \"#utility.yul\":1965:1974   */\n      dup3\n        /* \"#utility.yul\":1961:1979   */\n      add\n        /* \"#utility.yul\":1953:1979   */\n      swap1\n      pop\n        /* \"#utility.yul\":1989:2060   */\n      tag_182\n        /* \"#utility.yul\":2057:2058   */\n      0x00\n        /* \"#utility.yul\":2046:2055   */\n      dup4\n        /* \"#utility.yul\":2042:2059   */\n      add\n        /* \"#utility.yul\":2033:2039   */\n      dup5\n        /* \"#utility.yul\":1989:2060   */\n      tag_133\n      jump\t// in\n    tag_182:\n        /* \"#utility.yul\":1845:2067   */\n      swap3\n      swap2\n      pop\n      pop\n      jump\t// out\n        /* \"#utility.yul\":2073:2195   */\n    tag_141:\n        /* \"#utility.yul\":2146:2170   */\n      tag_184\n        /* \"#utility.yul\":2164:2169   */\n      dup2\n        /* \"#utility.yul\":2146:2170   */\n      tag_132\n      jump\t// in\n    tag_184:\n        /* \"#utility.yul\":2139:2144   */\n      dup2\n        /* \"#utility.yul\":2136:2171   */\n      eq\n        /* \"#utility.yul\":2126:2189   */\n      tag_185\n      jumpi\n        /* \"#utility.yul\":2185:2186   */\n      0x00\n        /* \"#utility.yul\":2182:2183   */\n      0x00\n        /* \"#utility.yul\":2175:2187   */\n      revert\n        /* \"#utility.yul\":2126:2189   */\n    tag_185:\n        /* \"#utility.yul\":2073:2195   */\n      pop\n      jump\t// out\n        /* \"#utility.yul\":2201:2340   */\n    tag_142:\n        /* \"#utility.yul\":2247:2252   */\n      0x00\n        /* \"#utility.yul\":2285:2291   */\n      dup2\n        /* \"#utility.yul\":2272:2292   */\n      calldataload\n        /* \"#utility.yul\":2263:2292   */\n      swap1\n      pop\n        /* \"#utility.yul\":2301:2334   */\n      tag_187\n        /* \"#utility.yul\":2328:2333   */\n      dup2\n        /* \"#utility.yul\":2301:2334   */\n      tag_141\n      jump\t// in\n    tag_187:\n        /* \"#utility.yul\":2201:2340   */\n      swap3\n      swap2\n      pop\n      pop\n      jump\t// out\n        /* \"#utility.yul\":2346:2675   */\n    tag_32:\n        /* \"#utility.yul\":2405:2411   */\n      0x00\n        /* \"#utility.yul\":2454:2456   */\n      0x20\n        /* \"#utility.yul\":2442:2451   */\n      dup3\n        /* \"#utility.yul\":2433:2440   */\n      dup5\n        /* \"#utility.yul\":2429:2452   */\n      sub\n        /* \"#utility.yul\":2425:2457   */\n      slt\n        /* \"#utility.yul\":2422:2541   */\n      iszero\n      tag_189\n      jumpi\n        /* \"#utility.yul\":2460:2539   */\n      tag_190\n      tag_137\n      jump\t// in\n    tag_190:\n        /* \"#utility.yul\":2422:2541   */\n    tag_189:\n        /* \"#utility.yul\":2580:2581   */\n      0x00\n        /* \"#utility.yul\":2605:2658   */\n      tag_191\n        /* \"#utility.yul\":2650:2657   */\n      dup5\n        /* \"#utility.yul\":2641:2647   */\n      dup3\n        /* \"#utility.yul\":2630:2639   */\n      dup6\n        /* \"#utility.yul\":2626:2648   */\n      add\n        /* \"#utility.yul\":2605:2658   */\n      tag_142\n      jump\t// in\n    tag_191:\n        /* \"#utility.yul\":2595:2658   */\n      swap2\n      pop\n        /* \"#utility.yul\":2551:2668   */\n      pop\n        /* \"#utility.yul\":2346:2675   */\n      swap3\n      swap2\n      pop\n      pop\n      jump\t// out\n        /* \"#utility.yul\":2681:2903   */\n    tag_35:\n        /* \"#utility.yul\":2774:2778   */\n      0x00\n        /* \"#utility.yul\":2812:2814   */\n      0x20\n        /* \"#utility.yul\":2801:2810   */\n      dup3\n        /* \"#utility.yul\":2797:2815   */\n      add\n        /* \"#utility.yul\":2789:2815   */\n      swap1\n      pop\n        /* \"#utility.yul\":2825:2896   */\n      tag_193\n        /* \"#utility.yul\":2893:2894   */\n      0x00\n        /* \"#utility.yul\":2882:2891   */\n      dup4\n        /* \"#utility.yul\":2878:2895   */\n      add\n        /* \"#utility.yul\":2869:2875   */\n      dup5\n        /* \"#utility.yul\":2825:2896   */\n      tag_135\n      jump\t// in\n    tag_193:\n        /* \"#utility.yul\":2681:2903   */\n      swap3\n      swap2\n      pop\n      pop\n      jump\t// out\n        /* \"#utility.yul\":2909:3013   */\n    tag_143:\n        /* \"#utility.yul\":2974:2980   */\n      0x00\n        /* \"#utility.yul\":3002:3006   */\n      0x03\n        /* \"#utility.yul\":2992:3006   */\n      swap1\n      pop\n        /* \"#utility.yul\":2909:3013   */\n      swap2\n      swap1\n      pop\n      jump\t// out\n        /* \"#utility.yul\":3019:3162   */\n    tag_144:\n        /* \"#utility.yul\":3116:3127   */\n      0x00\n        /* \"#utility.yul\":3153:3156   */\n      dup2\n        /* \"#utility.yul\":3138:3156   */\n      swap1\n      pop\n        /* \"#utility.yul\":3019:3162   */\n      swap3\n      swap2\n      pop\n      pop\n      jump\t// out\n        /* \"#utility.yul\":3168:3266   */\n    tag_145:\n        /* \"#utility.yul\":3233:3237   */\n      0x00\n        /* \"#utility.yul\":3256:3259   */\n      dup2\n        /* \"#utility.yul\":3248:3259   */\n      swap1\n      pop\n        /* \"#utility.yul\":3168:3266   */\n      swap2\n      swap1\n      pop\n      jump\t// out\n        /* \"#utility.yul\":3272:3380   */\n    tag_146:\n        /* \"#utility.yul\":3349:3373   */\n      tag_198\n        /* \"#utility.yul\":3367:3372   */\n      dup2\n        /* \"#utility.yul\":3349:3373   */\n      tag_132\n      jump\t// in\n    tag_198:\n        /* \"#utility.yul\":3344:3347   */\n      dup3\n        /* \"#utility.yul\":3337:3374   */\n      mstore\n        /* \"#utility.yul\":3272:3380   */\n      pop\n      pop\n      jump\t// out\n        /* \"#utility.yul\":3386:3565   */\n    tag_147:\n        /* \"#utility.yul\":3455:3465   */\n      0x00\n        /* \"#utility.yul\":3476:3522   */\n      tag_200\n        /* \"#utility.yul\":3518:3521   */\n      dup4\n        /* \"#utility.yul\":3510:3516   */\n      dup4\n        /* \"#utility.yul\":3476:3522   */\n      tag_146\n      jump\t// in\n    tag_200:\n        /* \"#utility.yul\":3554:3558   */\n      0x20\n        /* \"#utility.yul\":3549:3552   */\n      dup4\n        /* \"#utility.yul\":3545:3559   */\n      add\n        /* \"#utility.yul\":3531:3559   */\n      swap1\n      pop\n        /* \"#utility.yul\":3386:3565   */\n      swap3\n      swap2\n      pop\n      pop\n      jump\t// out\n        /* \"#utility.yul\":3571:3682   */\n    tag_148:\n        /* \"#utility.yul\":3639:3643   */\n      0x00\n        /* \"#utility.yul\":3671:3675   */\n      0x20\n        /* \"#utility.yul\":3666:3669   */\n      dup3\n        /* \"#utility.yul\":3662:3676   */\n      add\n        /* \"#utility.yul\":3654:3676   */\n      swap1\n      pop\n        /* \"#utility.yul\":3571:3682   */\n      swap2\n      swap1\n      pop\n      jump\t// out\n        /* \"#utility.yul\":3720:4414   */\n    tag_149:\n        /* \"#utility.yul\":3856:3908   */\n      tag_203\n        /* \"#utility.yul\":3902:3907   */\n      dup2\n        /* \"#utility.yul\":3856:3908   */\n      tag_143\n      jump\t// in\n    tag_203:\n        /* \"#utility.yul\":3924:4008   */\n      tag_204\n        /* \"#utility.yul\":4001:4007   */\n      dup2\n        /* \"#utility.yul\":3996:3999   */\n      dup5\n        /* \"#utility.yul\":3924:4008   */\n      tag_144\n      jump\t// in\n    tag_204:\n        /* \"#utility.yul\":3917:4008   */\n      swap3\n      pop\n        /* \"#utility.yul\":4032:4086   */\n      tag_205\n        /* \"#utility.yul\":4080:4085   */\n      dup3\n        /* \"#utility.yul\":4032:4086   */\n      tag_145\n      jump\t// in\n    tag_205:\n        /* \"#utility.yul\":4109:4116   */\n      dup1\n        /* \"#utility.yul\":4140:4141   */\n      0x00\n        /* \"#utility.yul\":4125:4407   */\n    tag_206:\n        /* \"#utility.yul\":4150:4156   */\n      dup4\n        /* \"#utility.yul\":4147:4148   */\n      dup2\n        /* \"#utility.yul\":4144:4157   */\n      lt\n        /* \"#utility.yul\":4125:4407   */\n      iszero\n      tag_208\n      jumpi\n        /* \"#utility.yul\":4226:4232   */\n      dup2\n        /* \"#utility.yul\":4220:4233   */\n      mload\n        /* \"#utility.yul\":4253:4316   */\n      tag_209\n        /* \"#utility.yul\":4312:4315   */\n      dup8\n        /* \"#utility.yul\":4297:4310   */\n      dup3\n        /* \"#utility.yul\":4253:4316   */\n      tag_147\n      jump\t// in\n    tag_209:\n        /* \"#utility.yul\":4246:4316   */\n      swap7\n      pop\n        /* \"#utility.yul\":4339:4397   */\n      tag_210\n        /* \"#utility.yul\":4390:4396   */\n      dup4\n        /* \"#utility.yul\":4339:4397   */\n      tag_148\n      jump\t// in\n    tag_210:\n        /* \"#utility.yul\":4329:4397   */\n      swap3\n      pop\n        /* \"#utility.yul\":4185:4407   */\n      pop\n        /* \"#utility.yul\":4172:4173   */\n      0x01\n        /* \"#utility.yul\":4169:4170   */\n      dup2\n        /* \"#utility.yul\":4165:4174   */\n      add\n        /* \"#utility.yul\":4160:4174   */\n      swap1\n      pop\n        /* \"#utility.yul\":4125:4407   */\n      jump(tag_206)\n    tag_208:\n        /* \"#utility.yul\":4129:4143   */\n      pop\n        /* \"#utility.yul\":3832:4414   */\n      pop\n      pop\n      pop\n        /* \"#utility.yul\":3720:4414   */\n      pop\n      pop\n      jump\t// out\n        /* \"#utility.yul\":4420:4734   */\n    tag_40:\n        /* \"#utility.yul\":4559:4563   */\n      0x00\n        /* \"#utility.yul\":4597:4599   */\n      0x60\n        /* \"#utility.yul\":4586:4595   */\n      dup3\n        /* \"#utility.yul\":4582:4600   */\n      add\n        /* \"#utility.yul\":4574:4600   */\n      swap1\n      pop\n        /* \"#utility.yul\":4610:4727   */\n      tag_212\n        /* \"#utility.yul\":4724:4725   */\n      0x00\n        /* \"#utility.yul\":4713:4722   */\n      dup4\n        /* \"#utility.yul\":4709:4726   */\n      add\n        /* \"#utility.yul\":4700:4706   */\n      dup5\n        /* \"#utility.yul\":4610:4727   */\n      tag_149\n      jump\t// in\n    tag_212:\n        /* \"#utility.yul\":4420:4734   */\n      swap3\n      swap2\n      pop\n      pop\n      jump\t// out\n        /* \"#utility.yul\":4740:4920   */\n    tag_150:\n        /* \"#utility.yul\":4788:4865   */\n      0x4e487b7100000000000000000000000000000000000000000000000000000000\n        /* \"#utility.yul\":4785:4786   */\n      0x00\n        /* \"#utility.yul\":4778:4866   */\n      mstore\n        /* \"#utility.yul\":4885:4889   */\n      0x11\n        /* \"#utility.yul\":4882:4883   */\n      0x04\n        /* \"#utility.yul\":4875:4890   */\n      mstore\n        /* \"#utility.yul\":4909:4913   */\n      0x24\n        /* \"#utility.yul\":4906:4907   */\n      0x00\n        /* \"#utility.yul\":4899:4914   */\n      revert\n        /* \"#utility.yul\":4926:5117   */\n    tag_43:\n        /* \"#utility.yul\":4966:4969   */\n      0x00\n        /* \"#utility.yul\":4985:5005   */\n      tag_215\n        /* \"#utility.yul\":5003:5004   */\n      dup3\n        /* \"#utility.yul\":4985:5005   */\n      tag_134\n      jump\t// in\n    tag_215:\n        /* \"#utility.yul\":4980:5005   */\n      swap2\n      pop\n        /* \"#utility.yul\":5019:5039   */\n      tag_216\n        /* \"#utility.yul\":5037:5038   */\n      dup4\n        /* \"#utility.yul\":5019:5039   */\n      tag_134\n      jump\t// in\n    tag_216:\n        /* \"#utility.yul\":5014:5039   */\n      swap3\n      pop\n        /* \"#utility.yul\":5062:5063   */\n      dup3\n        /* \"#utility.yul\":5059:5060   */\n      dup3\n        /* \"#utility.yul\":5055:5064   */\n      add\n        /* \"#utility.yul\":5048:5064   */\n      swap1\n      pop\n        /* \"#utility.yul\":5083:5086   */\n      dup1\n        /* \"#utility.yul\":5080:5081   */\n      dup3\n        /* \"#utility.yul\":5077:5087   */\n      gt\n        /* \"#utility.yul\":5074:5110   */\n      iszero\n      tag_217\n      jumpi\n        /* \"#utility.yul\":5090:5108   */\n      tag_218\n      tag_150\n      jump\t// in\n    tag_218:\n        /* \"#utility.yul\":5074:5110   */\n    tag_217:\n        /* \"#utility.yul\":4926:5117   */\n      swap3\n      swap2\n      pop\n      pop\n      jump\t// out\n        /* \"#utility.yul\":5123:5303   */\n    tag_49:\n        /* \"#utility.yul\":5171:5248   */\n      0x4e487b7100000000000000000000000000000000000000000000000000000000\n        /* \"#utility.yul\":5168:5169   */\n      0x00\n        /* \"#utility.yul\":5161:5249   */\n      mstore\n        /* \"#utility.yul\":5268:5272   */\n      0x32\n        /* \"#utility.yul\":5265:5266   */\n      0x04\n        /* \"#utility.yul\":5258:5273   */\n      mstore\n        /* \"#utility.yul\":5292:5296   */\n      0x24\n        /* \"#utility.yul\":5289:5290   */\n      0x00\n        /* \"#utility.yul\":5282:5297   */\n      revert\n        /* \"#utility.yul\":5309:5456   */\n    tag_151:\n        /* \"#utility.yul\":5410:5421   */\n      0x00\n        /* \"#utility.yul\":5447:5450   */\n      dup2\n        /* \"#utility.yul\":5432:5450   */\n      swap1\n      pop\n        /* \"#utility.yul\":5309:5456   */\n      swap3\n      swap2\n      pop\n      pop\n      jump\t// out\n        /* \"#utility.yul\":5462:5576   */\n    tag_152:\n      pop\n      jump\t// out\n        /* \"#utility.yul\":5582:5980   */\n    tag_153:\n        /* \"#utility.yul\":5741:5744   */\n      0x00\n        /* \"#utility.yul\":5762:5845   */\n      tag_223\n        /* \"#utility.yul\":5843:5844   */\n      0x00\n        /* \"#utility.yul\":5838:5841   */\n      dup4\n        /* \"#utility.yul\":5762:5845   */\n      tag_151\n      jump\t// in\n    tag_223:\n        /* \"#utility.yul\":5755:5845   */\n      swap2\n      pop\n        /* \"#utility.yul\":5854:5947   */\n      tag_224\n        /* \"#utility.yul\":5943:5946   */\n      dup3\n        /* \"#utility.yul\":5854:5947   */\n      tag_152\n      jump\t// in\n    tag_224:\n        /* \"#utility.yul\":5972:5973   */\n      0x00\n        /* \"#utility.yul\":5967:5970   */\n      dup3\n        /* \"#utility.yul\":5963:5974   */\n      add\n        /* \"#utility.yul\":5956:5974   */\n      swap1\n      pop\n        /* \"#utility.yul\":5582:5980   */\n      swap2\n      swap1\n      pop\n      jump\t// out\n        /* \"#utility.yul\":5986:6365   */\n    tag_118:\n        /* \"#utility.yul\":6170:6173   */\n      0x00\n        /* \"#utility.yul\":6192:6339   */\n      tag_226\n        /* \"#utility.yul\":6335:6338   */\n      dup3\n        /* \"#utility.yul\":6192:6339   */\n      tag_153\n      jump\t// in\n    tag_226:\n        /* \"#utility.yul\":6185:6339   */\n      swap2\n      pop\n        /* \"#utility.yul\":6356:6359   */\n      dup2\n        /* \"#utility.yul\":6349:6359   */\n      swap1\n      pop\n        /* \"#utility.yul\":5986:6365   */\n      swap2\n      swap1\n      pop\n      jump\t// out\n        /* \"#utility.yul\":6371:6540   */\n    tag_154:\n        /* \"#utility.yul\":6455:6466   */\n      0x00\n        /* \"#utility.yul\":6489:6495   */\n      dup3\n        /* \"#utility.yul\":6484:6487   */\n      dup3\n        /* \"#utility.yul\":6477:6496   */\n      mstore\n        /* \"#utility.yul\":6529:6533   */\n      0x20\n        /* \"#utility.yul\":6524:6527   */\n      dup3\n        /* \"#utility.yul\":6520:6534   */\n      add\n        /* \"#utility.yul\":6505:6534   */\n      swap1\n      pop\n        /* \"#utility.yul\":6371:6540   */\n      swap3\n      swap2\n      pop\n      pop\n      jump\t// out\n        /* \"#utility.yul\":6546:6711   */\n    tag_155:\n        /* \"#utility.yul\":6686:6703   */\n      0x5769746864726177206661696c65640000000000000000000000000000000000\n        /* \"#utility.yul\":6682:6683   */\n      0x00\n        /* \"#utility.yul\":6674:6680   */\n      dup3\n        /* \"#utility.yul\":6670:6684   */\n      add\n        /* \"#utility.yul\":6663:6704   */\n      mstore\n        /* \"#utility.yul\":6546:6711   */\n      pop\n      jump\t// out\n        /* \"#utility.yul\":6717:7083   */\n    tag_156:\n        /* \"#utility.yul\":6859:6862   */\n      0x00\n        /* \"#utility.yul\":6880:6947   */\n      tag_230\n        /* \"#utility.yul\":6944:6946   */\n      0x0f\n        /* \"#utility.yul\":6939:6942   */\n      dup4\n        /* \"#utility.yul\":6880:6947   */\n      tag_154\n      jump\t// in\n    tag_230:\n        /* \"#utility.yul\":6873:6947   */\n      swap2\n      pop\n        /* \"#utility.yul\":6956:7049   */\n      tag_231\n        /* \"#utility.yul\":7045:7048   */\n      dup3\n        /* \"#utility.yul\":6956:7049   */\n      tag_155\n      jump\t// in\n    tag_231:\n        /* \"#utility.yul\":7074:7076   */\n      0x20\n        /* \"#utility.yul\":7069:7072   */\n      dup3\n        /* \"#utility.yul\":7065:7077   */\n      add\n        /* \"#utility.yul\":7058:7077   */\n      swap1\n      pop\n        /* \"#utility.yul\":6717:7083   */\n      swap2\n      swap1\n      pop\n      jump\t// out\n        /* \"#utility.yul\":7089:7508   */\n    tag_124:\n        /* \"#utility.yul\":7255:7259   */\n      0x00\n        /* \"#utility.yul\":7293:7295   */\n      0x20\n        /* \"#utility.yul\":7282:7291   */\n      dup3\n        /* \"#utility.yul\":7278:7296   */\n      add\n        /* \"#utility.yul\":7270:7296   */\n      swap1\n      pop\n        /* \"#utility.yul\":7342:7351   */\n      dup2\n        /* \"#utility.yul\":7336:7340   */\n      dup2\n        /* \"#utility.yul\":7332:7352   */\n      sub\n        /* \"#utility.yul\":7328:7329   */\n      0x00\n        /* \"#utility.yul\":7317:7326   */\n      dup4\n        /* \"#utility.yul\":7313:7330   */\n      add\n        /* \"#utility.yul\":7306:7353   */\n      mstore\n        /* \"#utility.yul\":7370:7501   */\n      tag_233\n        /* \"#utility.yul\":7496:7500   */\n      dup2\n        /* \"#utility.yul\":7370:7501   */\n      tag_156\n      jump\t// in\n    tag_233:\n        /* \"#utility.yul\":7362:7501   */\n      swap1\n      pop\n        /* \"#utility.yul\":7089:7508   */\n      swap2\n      swap1\n      pop\n      jump\t// out\n\n    auxdata: 0xa2646970667358221220e3de417fcf3ceae63ecc7e0d8dfdf0c4620252d65b262638860a3f51986b493a64736f6c63430008220033\n}\n",
				"bytecode": {
					"linkReferences": {},
					"object": "608060405260405180606001604052805f73ffffffffffffffffffffffffffffffffffffffff1673ffffffffffffffffffffffffffffffffffffffff1681526020015f73ffffffffffffffffffffffffffffffffffffffff1673ffffffffffffffffffffffffffffffffffffffff1681526020015f73ffffffffffffffffffffffffffffffffffffffff1673ffffffffffffffffffffffffffffffffffffffff16815250600290816100b19190610329565b503480156100bd575f5ffd5b503360015f6101000a81548173ffffffffffffffffffffffffffffffffffffffff021916908373ffffffffffffffffffffffffffffffffffffffff1602179055506103ad565b7f4e487b71000000000000000000000000000000000000000000000000000000005f52604160045260245ffd5b5f60039050919050565b5f819050919050565b5f8190506001806001038301049050919050565b5f819050919050565b5f82821b905092915050565b5f6008830261019b7fffffffffffffffffffffffffffffffffffffffffffffffffffffffffffffffff82610160565b6101a58683610160565b95508019841693508086168417925050509392505050565b5f819050919050565b5f6101e06101db6101d68461013a565b6101bd565b61013a565b9050919050565b5f819050919050565b6101f9836101c6565b61020d610205826101e7565b84845461016c565b825550505050565b5f5f905090565b610224610215565b61022f8184846101f0565b505050565b5f5b828110156102555761024a5f82840161021c565b600181019050610236565b505050565b818310156102915761026b82610143565b61027484610143565b61027d83610157565b81810161028c83850382610234565b505050505b505050565b680100000000000000008211156102b0576102af610103565b5b6102b981610130565b6102c483828461025a565b505050565b5f60039050919050565b5f73ffffffffffffffffffffffffffffffffffffffff82169050919050565b5f6102fc826102d3565b9050919050565b5f61030e82516102f2565b80915050919050565b5f819050919050565b5f819050919050565b610332826102c9565b67ffffffffffffffff81111561034b5761034a610103565b5b6103558183610296565b61035e83610317565b61036783610157565b600183045f5b818110156103a4575f61037f85610303565b61038881610320565b809250602087019650505080828501555060018101905061036d565b50505050505050565b610ed7806103ba5f395ff3fe608060405260043610610058575f3560e01c80632466de241461009c578063392da8ae146100a65780633ccfd60b146100e2578063893d20e8146100f8578063dbaa046814610122578063f9080ca41461015e57610098565b36610098577f88a5966d370b9919b20f3e2c13ff65706f196a4e32cc2c12bf57088f88525874333460405161008e929190610b96565b60405180910390a1005b5f5ffd5b6100a4610188565b005b3480156100b1575f5ffd5b506100cc60048036038101906100c79190610beb565b610909565b6040516100d99190610c16565b60405180910390f35b3480156100ed575f5ffd5b506100f661093d565b005b348015610103575f5ffd5b5061010c610a61565b6040516101199190610c16565b60405180910390f35b34801561012d575f5ffd5b5061014860048036038101906101439190610c59565b610a89565b6040516101559190610c84565b60405180910390f35b348015610169575f5ffd5b50610172610a9d565b60405161017f9190610d42565b60405180910390f35b345f5f3373ffffffffffffffffffffffffffffffffffffffff1673ffffffffffffffffffffffffffffffffffffffff1681526020019081526020015f205f8282546101d39190610d88565b925050819055505f5f90505b60038160ff1610156102bd575f73ffffffffffffffffffffffffffffffffffffffff1660028260ff166003811061021957610218610dbb565b5b015f9054906101000a900473ffffffffffffffffffffffffffffffffffffffff1673ffffffffffffffffffffffffffffffffffffffff16036102b0573360028260ff166003811061026d5761026c610dbb565b5b015f6101000a81548173ffffffffffffffffffffffffffffffffffffffff021916908373ffffffffffffffffffffffffffffffffffffffff1602179055506102bd565b80806001019150506101df565b5060025f600381106102d2576102d1610dbb565b5b015f9054906101000a900473ffffffffffffffffffffffffffffffffffffffff1673ffffffffffffffffffffffffffffffffffffffff163373ffffffffffffffffffffffffffffffffffffffff16148061038c5750600260016003811061033c5761033b610dbb565b5b015f9054906101000a900473ffffffffffffffffffffffffffffffffffffffff1673ffffffffffffffffffffffffffffffffffffffff163373ffffffffffffffffffffffffffffffffffffffff16145b806103f65750600280600381106103a6576103a5610dbb565b5b015f9054906101000a900473ffffffffffffffffffffffffffffffffffffffff1673ffffffffffffffffffffffffffffffffffffffff163373ffffffffffffffffffffffffffffffffffffffff16145b610503575f5f600280600381106104105761040f610dbb565b5b015f9054906101000a900473ffffffffffffffffffffffffffffffffffffffff1673ffffffffffffffffffffffffffffffffffffffff1673ffffffffffffffffffffffffffffffffffffffff1681526020019081526020015f20545f5f3373ffffffffffffffffffffffffffffffffffffffff1673ffffffffffffffffffffffffffffffffffffffff1681526020019081526020015f205411156105025733600280600381106104c3576104c2610dbb565b5b015f6101000a81548173ffffffffffffffffffffffffffffffffffffffff021916908373ffffffffffffffffffffffffffffffffffffffff1602179055505b5b5f5f600260016003811061051a57610519610dbb565b5b015f9054906101000a900473ffffffffffffffffffffffffffffffffffffffff1673ffffffffffffffffffffffffffffffffffffffff1673ffffffffffffffffffffffffffffffffffffffff1681526020019081526020015f20545f5f6002806003811061058b5761058a610dbb565b5b015f9054906101000a900473ffffffffffffffffffffffffffffffffffffffff1673ffffffffffffffffffffffffffffffffffffffff1673ffffffffffffffffffffffffffffffffffffffff1681526020019081526020015f2054111561070557600260016003811061060157610600610dbb565b5b015f9054906101000a900473ffffffffffffffffffffffffffffffffffffffff166002806003811061063657610635610dbb565b5b015f9054906101000a900473ffffffffffffffffffffffffffffffffffffffff166002806003811061066b5761066a610dbb565b5b015f600260016003811061068257610681610dbb565b5b015f8491906101000a81548173ffffffffffffffffffffffffffffffffffffffff021916908373ffffffffffffffffffffffffffffffffffffffff1602179055508391906101000a81548173ffffffffffffffffffffffffffffffffffffffff021916908373ffffffffffffffffffffffffffffffffffffffff16021790555050505b5f5f60025f6003811061071b5761071a610dbb565b5b015f9054906101000a900473ffffffffffffffffffffffffffffffffffffffff1673ffffffffffffffffffffffffffffffffffffffff1673ffffffffffffffffffffffffffffffffffffffff1681526020019081526020015f20545f5f600260016003811061078d5761078c610dbb565b5b015f9054906101000a900473ffffffffffffffffffffffffffffffffffffffff1673ffffffffffffffffffffffffffffffffffffffff1673ffffffffffffffffffffffffffffffffffffffff1681526020019081526020015f205411156109075760025f6003811061080257610801610dbb565b5b015f9054906101000a900473ffffffffffffffffffffffffffffffffffffffff16600260016003811061083857610837610dbb565b5b015f9054906101000a900473ffffffffffffffffffffffffffffffffffffffff16600260016003811061086e5761086d610dbb565b5b015f60025f6003811061088457610883610dbb565b5b015f8491906101000a81548173ffffffffffffffffffffffffffffffffffffffff021916908373ffffffffffffffffffffffffffffffffffffffff1602179055508391906101000a81548173ffffffffffffffffffffffffffffffffffffffff021916908373ffffffffffffffffffffffffffffffffffffffff16021790555050505b565b60028160038110610918575f80fd5b015f915054906101000a900473ffffffffffffffffffffffffffffffffffffffff1681565b60015f9054906101000a900473ffffffffffffffffffffffffffffffffffffffff1673ffffffffffffffffffffffffffffffffffffffff163373ffffffffffffffffffffffffffffffffffffffff1614610995575f5ffd5b5f60015f9054906101000a900473ffffffffffffffffffffffffffffffffffffffff1673ffffffffffffffffffffffffffffffffffffffff16476040516109db90610e15565b5f6040518083038185875af1925050503d805f8114610a15576040519150601f19603f3d011682016040523d82523d5f602084013e610a1a565b606091505b5050905080610a5e576040517f08c379a0000000000000000000000000000000000000000000000000000000008152600401610a5590610e83565b60405180910390fd5b50565b5f60015f9054906101000a900473ffffffffffffffffffffffffffffffffffffffff16905090565b5f602052805f5260405f205f915090505481565b610aa5610b1d565b6002600380602002604051908101604052809291908260038015610b13576020028201915b815f9054906101000a900473ffffffffffffffffffffffffffffffffffffffff1673ffffffffffffffffffffffffffffffffffffffff1681526020019060010190808311610aca575b5050505050905090565b6040518060600160405280600390602082028036833780820191505090505090565b5f73ffffffffffffffffffffffffffffffffffffffff82169050919050565b5f610b6882610b3f565b9050919050565b610b7881610b5e565b82525050565b5f819050919050565b610b9081610b7e565b82525050565b5f604082019050610ba95f830185610b6f565b610bb66020830184610b87565b9392505050565b5f5ffd5b610bca81610b7e565b8114610bd4575f5ffd5b50565b5f81359050610be581610bc1565b92915050565b5f60208284031215610c0057610bff610bbd565b5b5f610c0d84828501610bd7565b91505092915050565b5f602082019050610c295f830184610b6f565b92915050565b610c3881610b5e565b8114610c42575f5ffd5b50565b5f81359050610c5381610c2f565b92915050565b5f60208284031215610c6e57610c6d610bbd565b5b5f610c7b84828501610c45565b91505092915050565b5f602082019050610c975f830184610b87565b92915050565b5f60039050919050565b5f81905092915050565b5f819050919050565b610cc381610b5e565b82525050565b5f610cd48383610cba565b60208301905092915050565b5f602082019050919050565b610cf581610c9d565b610cff8184610ca7565b9250610d0a82610cb1565b805f5b83811015610d3a578151610d218782610cc9565b9650610d2c83610ce0565b925050600181019050610d0d565b505050505050565b5f606082019050610d555f830184610cec565b92915050565b7f4e487b71000000000000000000000000000000000000000000000000000000005f52601160045260245ffd5b5f610d9282610b7e565b9150610d9d83610b7e565b9250828201905080821115610db557610db4610d5b565b5b92915050565b7f4e487b71000000000000000000000000000000000000000000000000000000005f52603260045260245ffd5b5f81905092915050565b50565b5f610e005f83610de8565b9150610e0b82610df2565b5f82019050919050565b5f610e1f82610df5565b9150819050919050565b5f82825260208201905092915050565b7f5769746864726177206661696c656400000000000000000000000000000000005f82015250565b5f610e6d600f83610e29565b9150610e7882610e39565b602082019050919050565b5f6020820190508181035f830152610e9a81610e61565b905091905056fea2646970667358221220e3de417fcf3ceae63ecc7e0d8dfdf0c4620252d65b262638860a3f51986b493a64736f6c63430008220033",
					"opcodes": "PUSH1 0x80 PUSH1 0x40 MSTORE PUSH1 0x40 MLOAD DUP1 PUSH1 0x60 ADD PUSH1 0x40 MSTORE DUP1 PUSH0 PUSH20 0xFFFFFFFFFFFFFFFFFFFFFFFFFFFFFFFFFFFFFFFF AND PUSH20 0xFFFFFFFFFFFFFFFFFFFFFFFFFFFFFFFFFFFFFFFF AND DUP2 MSTORE PUSH1 0x20 ADD PUSH0 PUSH20 0xFFFFFFFFFFFFFFFFFFFFFFFFFFFFFFFFFFFFFFFF AND PUSH20 0xFFFFFFFFFFFFFFFFFFFFFFFFFFFFFFFFFFFFFFFF AND DUP2 MSTORE PUSH1 0x20 ADD PUSH0 PUSH20 0xFFFFFFFFFFFFFFFFFFFFFFFFFFFFFFFFFFFFFFFF AND PUSH20 0xFFFFFFFFFFFFFFFFFFFFFFFFFFFFFFFFFFFFFFFF AND DUP2 MSTORE POP PUSH1 0x2 SWAP1 DUP2 PUSH2 0xB1 SWAP2 SWAP1 PUSH2 0x329 JUMP JUMPDEST POP CALLVALUE DUP1 ISZERO PUSH2 0xBD JUMPI PUSH0 PUSH0 REVERT JUMPDEST POP CALLER PUSH1 0x1 PUSH0 PUSH2 0x100 EXP DUP2 SLOAD DUP2 PUSH20 0xFFFFFFFFFFFFFFFFFFFFFFFFFFFFFFFFFFFFFFFF MUL NOT AND SWAP1 DUP4 PUSH20 0xFFFFFFFFFFFFFFFFFFFFFFFFFFFFFFFFFFFFFFFF AND MUL OR SWAP1 SSTORE POP PUSH2 0x3AD JUMP JUMPDEST PUSH32 0x4E487B7100000000000000000000000000000000000000000000000000000000 PUSH0 MSTORE PUSH1 0x41 PUSH1 0x4 MSTORE PUSH1 0x24 PUSH0 REVERT JUMPDEST PUSH0 PUSH1 0x3 SWAP1 POP SWAP2 SWAP1 POP JUMP JUMPDEST PUSH0 DUP2 SWAP1 POP SWAP2 SWAP1 POP JUMP JUMPDEST PUSH0 DUP2 SWAP1 POP PUSH1 0x1 DUP1 PUSH1 0x1 SUB DUP4 ADD DIV SWAP1 POP SWAP2 SWAP1 POP JUMP JUMPDEST PUSH0 DUP2 SWAP1 POP SWAP2 SWAP1 POP JUMP JUMPDEST PUSH0 DUP3 DUP3 SHL SWAP1 POP SWAP3 SWAP2 POP POP JUMP JUMPDEST PUSH0 PUSH1 0x8 DUP4 MUL PUSH2 0x19B PUSH32 0xFFFFFFFFFFFFFFFFFFFFFFFFFFFFFFFFFFFFFFFFFFFFFFFFFFFFFFFFFFFFFFFF DUP3 PUSH2 0x160 JUMP JUMPDEST PUSH2 0x1A5 DUP7 DUP4 PUSH2 0x160 JUMP JUMPDEST SWAP6 POP DUP1 NOT DUP5 AND SWAP4 POP DUP1 DUP7 AND DUP5 OR SWAP3 POP POP POP SWAP4 SWAP3 POP POP POP JUMP JUMPDEST PUSH0 DUP2 SWAP1 POP SWAP2 SWAP1 POP JUMP JUMPDEST PUSH0 PUSH2 0x1E0 PUSH2 0x1DB PUSH2 0x1D6 DUP5 PUSH2 0x13A JUMP JUMPDEST PUSH2 0x1BD JUMP JUMPDEST PUSH2 0x13A JUMP JUMPDEST SWAP1 POP SWAP2 SWAP1 POP JUMP JUMPDEST PUSH0 DUP2 SWAP1 POP SWAP2 SWAP1 POP JUMP JUMPDEST PUSH2 0x1F9 DUP4 PUSH2 0x1C6 JUMP JUMPDEST PUSH2 0x20D PUSH2 0x205 DUP3 PUSH2 0x1E7 JUMP JUMPDEST DUP5 DUP5 SLOAD PUSH2 0x16C JUMP JUMPDEST DUP3 SSTORE POP POP POP POP JUMP JUMPDEST PUSH0 PUSH0 SWAP1 POP SWAP1 JUMP JUMPDEST PUSH2 0x224 PUSH2 0x215 JUMP JUMPDEST PUSH2 0x22F DUP2 DUP5 DUP5 PUSH2 0x1F0 JUMP JUMPDEST POP POP POP JUMP JUMPDEST PUSH0 JUMPDEST DUP3 DUP2 LT ISZERO PUSH2 0x255 JUMPI PUSH2 0x24A PUSH0 DUP3 DUP5 ADD PUSH2 0x21C JUMP JUMPDEST PUSH1 0x1 DUP2 ADD SWAP1 POP PUSH2 0x236 JUMP JUMPDEST POP POP POP JUMP JUMPDEST DUP2 DUP4 LT ISZERO PUSH2 0x291 JUMPI PUSH2 0x26B DUP3 PUSH2 0x143 JUMP JUMPDEST PUSH2 0x274 DUP5 PUSH2 0x143 JUMP JUMPDEST PUSH2 0x27D DUP4 PUSH2 0x157 JUMP JUMPDEST DUP2 DUP2 ADD PUSH2 0x28C DUP4 DUP6 SUB DUP3 PUSH2 0x234 JUMP JUMPDEST POP POP POP POP JUMPDEST POP POP POP JUMP JUMPDEST PUSH9 0x10000000000000000 DUP3 GT ISZERO PUSH2 0x2B0 JUMPI PUSH2 0x2AF PUSH2 0x103 JUMP JUMPDEST JUMPDEST PUSH2 0x2B9 DUP2 PUSH2 0x130 JUMP JUMPDEST PUSH2 0x2C4 DUP4 DUP3 DUP5 PUSH2 0x25A JUMP JUMPDEST POP POP POP JUMP JUMPDEST PUSH0 PUSH1 0x3 SWAP1 POP SWAP2 SWAP1 POP JUMP JUMPDEST PUSH0 PUSH20 0xFFFFFFFFFFFFFFFFFFFFFFFFFFFFFFFFFFFFFFFF DUP3 AND SWAP1 POP SWAP2 SWAP1 POP JUMP JUMPDEST PUSH0 PUSH2 0x2FC DUP3 PUSH2 0x2D3 JUMP JUMPDEST SWAP1 POP SWAP2 SWAP1 POP JUMP JUMPDEST PUSH0 PUSH2 0x30E DUP3 MLOAD PUSH2 0x2F2 JUMP JUMPDEST DUP1 SWAP2 POP POP SWAP2 SWAP1 POP JUMP JUMPDEST PUSH0 DUP2 SWAP1 POP SWAP2 SWAP1 POP JUMP JUMPDEST PUSH0 DUP2 SWAP1 POP SWAP2 SWAP1 POP JUMP JUMPDEST PUSH2 0x332 DUP3 PUSH2 0x2C9 JUMP JUMPDEST PUSH8 0xFFFFFFFFFFFFFFFF DUP2 GT ISZERO PUSH2 0x34B JUMPI PUSH2 0x34A PUSH2 0x103 JUMP JUMPDEST JUMPDEST PUSH2 0x355 DUP2 DUP4 PUSH2 0x296 JUMP JUMPDEST PUSH2 0x35E DUP4 PUSH2 0x317 JUMP JUMPDEST PUSH2 0x367 DUP4 PUSH2 0x157 JUMP JUMPDEST PUSH1 0x1 DUP4 DIV PUSH0 JUMPDEST DUP2 DUP2 LT ISZERO PUSH2 0x3A4 JUMPI PUSH0 PUSH2 0x37F DUP6 PUSH2 0x303 JUMP JUMPDEST PUSH2 0x388 DUP2 PUSH2 0x320 JUMP JUMPDEST DUP1 SWAP3 POP PUSH1 0x20 DUP8 ADD SWAP7 POP POP POP DUP1 DUP3 DUP6 ADD SSTORE POP PUSH1 0x1 DUP2 ADD SWAP1 POP PUSH2 0x36D JUMP JUMPDEST POP POP POP POP POP POP POP JUMP JUMPDEST PUSH2 0xED7 DUP1 PUSH2 0x3BA PUSH0 CODECOPY PUSH0 RETURN INVALID PUSH1 0x80 PUSH1 0x40 MSTORE PUSH1 0x4 CALLDATASIZE LT PUSH2 0x58 JUMPI PUSH0 CALLDATALOAD PUSH1 0xE0 SHR DUP1 PUSH4 0x2466DE24 EQ PUSH2 0x9C JUMPI DUP1 PUSH4 0x392DA8AE EQ PUSH2 0xA6 JUMPI DUP1 PUSH4 0x3CCFD60B EQ PUSH2 0xE2 JUMPI DUP1 PUSH4 0x893D20E8 EQ PUSH2 0xF8 JUMPI DUP1 PUSH4 0xDBAA0468 EQ PUSH2 0x122 JUMPI DUP1 PUSH4 0xF9080CA4 EQ PUSH2 0x15E JUMPI PUSH2 0x98 JUMP JUMPDEST CALLDATASIZE PUSH2 0x98 JUMPI PUSH32 0x88A5966D370B9919B20F3E2C13FF65706F196A4E32CC2C12BF57088F88525874 CALLER CALLVALUE PUSH1 0x40 MLOAD PUSH2 0x8E SWAP3 SWAP2 SWAP1 PUSH2 0xB96 JUMP JUMPDEST PUSH1 0x40 MLOAD DUP1 SWAP2 SUB SWAP1 LOG1 STOP JUMPDEST PUSH0 PUSH0 REVERT JUMPDEST PUSH2 0xA4 PUSH2 0x188 JUMP JUMPDEST STOP JUMPDEST CALLVALUE DUP1 ISZERO PUSH2 0xB1 JUMPI PUSH0 PUSH0 REVERT JUMPDEST POP PUSH2 0xCC PUSH1 0x4 DUP1 CALLDATASIZE SUB DUP2 ADD SWAP1 PUSH2 0xC7 SWAP2 SWAP1 PUSH2 0xBEB JUMP JUMPDEST PUSH2 0x909 JUMP JUMPDEST PUSH1 0x40 MLOAD PUSH2 0xD9 SWAP2 SWAP1 PUSH2 0xC16 JUMP JUMPDEST PUSH1 0x40 MLOAD DUP1 SWAP2 SUB SWAP1 RETURN JUMPDEST CALLVALUE DUP1 ISZERO PUSH2 0xED JUMPI PUSH0 PUSH0 REVERT JUMPDEST POP PUSH2 0xF6 PUSH2 0x93D JUMP JUMPDEST STOP JUMPDEST CALLVALUE DUP1 ISZERO PUSH2 0x103 JUMPI PUSH0 PUSH0 REVERT JUMPDEST POP PUSH2 0x10C PUSH2 0xA61 JUMP JUMPDEST PUSH1 0x40 MLOAD PUSH2 0x119 SWAP2 SWAP1 PUSH2 0xC16 JUMP JUMPDEST PUSH1 0x40 MLOAD DUP1 SWAP2 SUB SWAP1 RETURN JUMPDEST CALLVALUE DUP1 ISZERO PUSH2 0x12D JUMPI PUSH0 PUSH0 REVERT JUMPDEST POP PUSH2 0x148 PUSH1 0x4 DUP1 CALLDATASIZE SUB DUP2 ADD SWAP1 PUSH2 0x143 SWAP2 SWAP1 PUSH2 0xC59 JUMP JUMPDEST PUSH2 0xA89 JUMP JUMPDEST PUSH1 0x40 MLOAD PUSH2 0x155 SWAP2 SWAP1 PUSH2 0xC84 JUMP JUMPDEST PUSH1 0x40 MLOAD DUP1 SWAP2 SUB SWAP1 RETURN JUMPDEST CALLVALUE DUP1 ISZERO PUSH2 0x169 JUMPI PUSH0 PUSH0 REVERT JUMPDEST POP PUSH2 0x172 PUSH2 0xA9D JUMP JUMPDEST PUSH1 0x40 MLOAD PUSH2 0x17F SWAP2 SWAP1 PUSH2 0xD42 JUMP JUMPDEST PUSH1 0x40 MLOAD DUP1 SWAP2 SUB SWAP1 RETURN JUMPDEST CALLVALUE PUSH0 PUSH0 CALLER PUSH20 0xFFFFFFFFFFFFFFFFFFFFFFFFFFFFFFFFFFFFFFFF AND PUSH20 0xFFFFFFFFFFFFFFFFFFFFFFFFFFFFFFFFFFFFFFFF AND DUP2 MSTORE PUSH1 0x20 ADD SWAP1 DUP2 MSTORE PUSH1 0x20 ADD PUSH0 KECCAK256 PUSH0 DUP3 DUP3 SLOAD PUSH2 0x1D3 SWAP2 SWAP1 PUSH2 0xD88 JUMP JUMPDEST SWAP3 POP POP DUP2 SWAP1 SSTORE POP PUSH0 PUSH0 SWAP1 POP JUMPDEST PUSH1 0x3 DUP2 PUSH1 0xFF AND LT ISZERO PUSH2 0x2BD JUMPI PUSH0 PUSH20 0xFFFFFFFFFFFFFFFFFFFFFFFFFFFFFFFFFFFFFFFF AND PUSH1 0x2 DUP3 PUSH1 0xFF AND PUSH1 0x3 DUP2 LT PUSH2 0x219 JUMPI PUSH2 0x218 PUSH2 0xDBB JUMP JUMPDEST JUMPDEST ADD PUSH0 SWAP1 SLOAD SWAP1 PUSH2 0x100 EXP SWAP1 DIV PUSH20 0xFFFFFFFFFFFFFFFFFFFFFFFFFFFFFFFFFFFFFFFF AND PUSH20 0xFFFFFFFFFFFFFFFFFFFFFFFFFFFFFFFFFFFFFFFF AND SUB PUSH2 0x2B0 JUMPI CALLER PUSH1 0x2 DUP3 PUSH1 0xFF AND PUSH1 0x3 DUP2 LT PUSH2 0x26D JUMPI PUSH2 0x26C PUSH2 0xDBB JUMP JUMPDEST JUMPDEST ADD PUSH0 PUSH2 0x100 EXP DUP2 SLOAD DUP2 PUSH20 0xFFFFFFFFFFFFFFFFFFFFFFFFFFFFFFFFFFFFFFFF MUL NOT AND SWAP1 DUP4 PUSH20 0xFFFFFFFFFFFFFFFFFFFFFFFFFFFFFFFFFFFFFFFF AND MUL OR SWAP1 SSTORE POP PUSH2 0x2BD JUMP JUMPDEST DUP1 DUP1 PUSH1 0x1 ADD SWAP2 POP POP PUSH2 0x1DF JUMP JUMPDEST POP PUSH1 0x2 PUSH0 PUSH1 0x3 DUP2 LT PUSH2 0x2D2 JUMPI PUSH2 0x2D1 PUSH2 0xDBB JUMP JUMPDEST JUMPDEST ADD PUSH0 SWAP1 SLOAD SWAP1 PUSH2 0x100 EXP SWAP1 DIV PUSH20 0xFFFFFFFFFFFFFFFFFFFFFFFFFFFFFFFFFFFFFFFF AND PUSH20 0xFFFFFFFFFFFFFFFFFFFFFFFFFFFFFFFFFFFFFFFF AND CALLER PUSH20 0xFFFFFFFFFFFFFFFFFFFFFFFFFFFFFFFFFFFFFFFF AND EQ DUP1 PUSH2 0x38C JUMPI POP PUSH1 0x2 PUSH1 0x1 PUSH1 0x3 DUP2 LT PUSH2 0x33C JUMPI PUSH2 0x33B PUSH2 0xDBB JUMP JUMPDEST JUMPDEST ADD PUSH0 SWAP1 SLOAD SWAP1 PUSH2 0x100 EXP SWAP1 DIV PUSH20 0xFFFFFFFFFFFFFFFFFFFFFFFFFFFFFFFFFFFFFFFF AND PUSH20 0xFFFFFFFFFFFFFFFFFFFFFFFFFFFFFFFFFFFFFFFF AND CALLER PUSH20 0xFFFFFFFFFFFFFFFFFFFFFFFFFFFFFFFFFFFFFFFF AND EQ JUMPDEST DUP1 PUSH2 0x3F6 JUMPI POP PUSH1 0x2 DUP1 PUSH1 0x3 DUP2 LT PUSH2 0x3A6 JUMPI PUSH2 0x3A5 PUSH2 0xDBB JUMP JUMPDEST JUMPDEST ADD PUSH0 SWAP1 SLOAD SWAP1 PUSH2 0x100 EXP SWAP1 DIV PUSH20 0xFFFFFFFFFFFFFFFFFFFFFFFFFFFFFFFFFFFFFFFF AND PUSH20 0xFFFFFFFFFFFFFFFFFFFFFFFFFFFFFFFFFFFFFFFF AND CALLER PUSH20 0xFFFFFFFFFFFFFFFFFFFFFFFFFFFFFFFFFFFFFFFF AND EQ JUMPDEST PUSH2 0x503 JUMPI PUSH0 PUSH0 PUSH1 0x2 DUP1 PUSH1 0x3 DUP2 LT PUSH2 0x410 JUMPI PUSH2 0x40F PUSH2 0xDBB JUMP JUMPDEST JUMPDEST ADD PUSH0 SWAP1 SLOAD SWAP1 PUSH2 0x100 EXP SWAP1 DIV PUSH20 0xFFFFFFFFFFFFFFFFFFFFFFFFFFFFFFFFFFFFFFFF AND PUSH20 0xFFFFFFFFFFFFFFFFFFFFFFFFFFFFFFFFFFFFFFFF AND PUSH20 0xFFFFFFFFFFFFFFFFFFFFFFFFFFFFFFFFFFFFFFFF AND DUP2 MSTORE PUSH1 0x20 ADD SWAP1 DUP2 MSTORE PUSH1 0x20 ADD PUSH0 KECCAK256 SLOAD PUSH0 PUSH0 CALLER PUSH20 0xFFFFFFFFFFFFFFFFFFFFFFFFFFFFFFFFFFFFFFFF AND PUSH20 0xFFFFFFFFFFFFFFFFFFFFFFFFFFFFFFFFFFFFFFFF AND DUP2 MSTORE PUSH1 0x20 ADD SWAP1 DUP2 MSTORE PUSH1 0x20 ADD PUSH0 KECCAK256 SLOAD GT ISZERO PUSH2 0x502 JUMPI CALLER PUSH1 0x2 DUP1 PUSH1 0x3 DUP2 LT PUSH2 0x4C3 JUMPI PUSH2 0x4C2 PUSH2 0xDBB JUMP JUMPDEST JUMPDEST ADD PUSH0 PUSH2 0x100 EXP DUP2 SLOAD DUP2 PUSH20 0xFFFFFFFFFFFFFFFFFFFFFFFFFFFFFFFFFFFFFFFF MUL NOT AND SWAP1 DUP4 PUSH20 0xFFFFFFFFFFFFFFFFFFFFFFFFFFFFFFFFFFFFFFFF AND MUL OR SWAP1 SSTORE POP JUMPDEST JUMPDEST PUSH0 PUSH0 PUSH1 0x2 PUSH1 0x1 PUSH1 0x3 DUP2 LT PUSH2 0x51A JUMPI PUSH2 0x519 PUSH2 0xDBB JUMP JUMPDEST JUMPDEST ADD PUSH0 SWAP1 SLOAD SWAP1 PUSH2 0x100 EXP SWAP1 DIV PUSH20 0xFFFFFFFFFFFFFFFFFFFFFFFFFFFFFFFFFFFFFFFF AND PUSH20 0xFFFFFFFFFFFFFFFFFFFFFFFFFFFFFFFFFFFFFFFF AND PUSH20 0xFFFFFFFFFFFFFFFFFFFFFFFFFFFFFFFFFFFFFFFF AND DUP2 MSTORE PUSH1 0x20 ADD SWAP1 DUP2 MSTORE PUSH1 0x20 ADD PUSH0 KECCAK256 SLOAD PUSH0 PUSH0 PUSH1 0x2 DUP1 PUSH1 0x3 DUP2 LT PUSH2 0x58B JUMPI PUSH2 0x58A PUSH2 0xDBB JUMP JUMPDEST JUMPDEST ADD PUSH0 SWAP1 SLOAD SWAP1 PUSH2 0x100 EXP SWAP1 DIV PUSH20 0xFFFFFFFFFFFFFFFFFFFFFFFFFFFFFFFFFFFFFFFF AND PUSH20 0xFFFFFFFFFFFFFFFFFFFFFFFFFFFFFFFFFFFFFFFF AND PUSH20 0xFFFFFFFFFFFFFFFFFFFFFFFFFFFFFFFFFFFFFFFF AND DUP2 MSTORE PUSH1 0x20 ADD SWAP1 DUP2 MSTORE PUSH1 0x20 ADD PUSH0 KECCAK256 SLOAD GT ISZERO PUSH2 0x705 JUMPI PUSH1 0x2 PUSH1 0x1 PUSH1 0x3 DUP2 LT PUSH2 0x601 JUMPI PUSH2 0x600 PUSH2 0xDBB JUMP JUMPDEST JUMPDEST ADD PUSH0 SWAP1 SLOAD SWAP1 PUSH2 0x100 EXP SWAP1 DIV PUSH20 0xFFFFFFFFFFFFFFFFFFFFFFFFFFFFFFFFFFFFFFFF AND PUSH1 0x2 DUP1 PUSH1 0x3 DUP2 LT PUSH2 0x636 JUMPI PUSH2 0x635 PUSH2 0xDBB JUMP JUMPDEST JUMPDEST ADD PUSH0 SWAP1 SLOAD SWAP1 PUSH2 0x100 EXP SWAP1 DIV PUSH20 0xFFFFFFFFFFFFFFFFFFFFFFFFFFFFFFFFFFFFFFFF AND PUSH1 0x2 DUP1 PUSH1 0x3 DUP2 LT PUSH2 0x66B JUMPI PUSH2 0x66A PUSH2 0xDBB JUMP JUMPDEST JUMPDEST ADD PUSH0 PUSH1 0x2 PUSH1 0x1 PUSH1 0x3 DUP2 LT PUSH2 0x682 JUMPI PUSH2 0x681 PUSH2 0xDBB JUMP JUMPDEST JUMPDEST ADD PUSH0 DUP5 SWAP2 SWAP1 PUSH2 0x100 EXP DUP2 SLOAD DUP2 PUSH20 0xFFFFFFFFFFFFFFFFFFFFFFFFFFFFFFFFFFFFFFFF MUL NOT AND SWAP1 DUP4 PUSH20 0xFFFFFFFFFFFFFFFFFFFFFFFFFFFFFFFFFFFFFFFF AND MUL OR SWAP1 SSTORE POP DUP4 SWAP2 SWAP1 PUSH2 0x100 EXP DUP2 SLOAD DUP2 PUSH20 0xFFFFFFFFFFFFFFFFFFFFFFFFFFFFFFFFFFFFFFFF MUL NOT AND SWAP1 DUP4 PUSH20 0xFFFFFFFFFFFFFFFFFFFFFFFFFFFFFFFFFFFFFFFF AND MUL OR SWAP1 SSTORE POP POP POP JUMPDEST PUSH0 PUSH0 PUSH1 0x2 PUSH0 PUSH1 0x3 DUP2 LT PUSH2 0x71B JUMPI PUSH2 0x71A PUSH2 0xDBB JUMP JUMPDEST JUMPDEST ADD PUSH0 SWAP1 SLOAD SWAP1 PUSH2 0x100 EXP SWAP1 DIV PUSH20 0xFFFFFFFFFFFFFFFFFFFFFFFFFFFFFFFFFFFFFFFF AND PUSH20 0xFFFFFFFFFFFFFFFFFFFFFFFFFFFFFFFFFFFFFFFF AND PUSH20 0xFFFFFFFFFFFFFFFFFFFFFFFFFFFFFFFFFFFFFFFF AND DUP2 MSTORE PUSH1 0x20 ADD SWAP1 DUP2 MSTORE PUSH1 0x20 ADD PUSH0 KECCAK256 SLOAD PUSH0 PUSH0 PUSH1 0x2 PUSH1 0x1 PUSH1 0x3 DUP2 LT PUSH2 0x78D JUMPI PUSH2 0x78C PUSH2 0xDBB JUMP JUMPDEST JUMPDEST ADD PUSH0 SWAP1 SLOAD SWAP1 PUSH2 0x100 EXP SWAP1 DIV PUSH20 0xFFFFFFFFFFFFFFFFFFFFFFFFFFFFFFFFFFFFFFFF AND PUSH20 0xFFFFFFFFFFFFFFFFFFFFFFFFFFFFFFFFFFFFFFFF AND PUSH20 0xFFFFFFFFFFFFFFFFFFFFFFFFFFFFFFFFFFFFFFFF AND DUP2 MSTORE PUSH1 0x20 ADD SWAP1 DUP2 MSTORE PUSH1 0x20 ADD PUSH0 KECCAK256 SLOAD GT ISZERO PUSH2 0x907 JUMPI PUSH1 0x2 PUSH0 PUSH1 0x3 DUP2 LT PUSH2 0x802 JUMPI PUSH2 0x801 PUSH2 0xDBB JUMP JUMPDEST JUMPDEST ADD PUSH0 SWAP1 SLOAD SWAP1 PUSH2 0x100 EXP SWAP1 DIV PUSH20 0xFFFFFFFFFFFFFFFFFFFFFFFFFFFFFFFFFFFFFFFF AND PUSH1 0x2 PUSH1 0x1 PUSH1 0x3 DUP2 LT PUSH2 0x838 JUMPI PUSH2 0x837 PUSH2 0xDBB JUMP JUMPDEST JUMPDEST ADD PUSH0 SWAP1 SLOAD SWAP1 PUSH2 0x100 EXP SWAP1 DIV PUSH20 0xFFFFFFFFFFFFFFFFFFFFFFFFFFFFFFFFFFFFFFFF AND PUSH1 0x2 PUSH1 0x1 PUSH1 0x3 DUP2 LT PUSH2 0x86E JUMPI PUSH2 0x86D PUSH2 0xDBB JUMP JUMPDEST JUMPDEST ADD PUSH0 PUSH1 0x2 PUSH0 PUSH1 0x3 DUP2 LT PUSH2 0x884 JUMPI PUSH2 0x883 PUSH2 0xDBB JUMP JUMPDEST JUMPDEST ADD PUSH0 DUP5 SWAP2 SWAP1 PUSH2 0x100 EXP DUP2 SLOAD DUP2 PUSH20 0xFFFFFFFFFFFFFFFFFFFFFFFFFFFFFFFFFFFFFFFF MUL NOT AND SWAP1 DUP4 PUSH20 0xFFFFFFFFFFFFFFFFFFFFFFFFFFFFFFFFFFFFFFFF AND MUL OR SWAP1 SSTORE POP DUP4 SWAP2 SWAP1 PUSH2 0x100 EXP DUP2 SLOAD DUP2 PUSH20 0xFFFFFFFFFFFFFFFFFFFFFFFFFFFFFFFFFFFFFFFF MUL NOT AND SWAP1 DUP4 PUSH20 0xFFFFFFFFFFFFFFFFFFFFFFFFFFFFFFFFFFFFFFFF AND MUL OR SWAP1 SSTORE POP POP POP JUMPDEST JUMP JUMPDEST PUSH1 0x2 DUP2 PUSH1 0x3 DUP2 LT PUSH2 0x918 JUMPI PUSH0 DUP1 REVERT JUMPDEST ADD PUSH0 SWAP2 POP SLOAD SWAP1 PUSH2 0x100 EXP SWAP1 DIV PUSH20 0xFFFFFFFFFFFFFFFFFFFFFFFFFFFFFFFFFFFFFFFF AND DUP2 JUMP JUMPDEST PUSH1 0x1 PUSH0 SWAP1 SLOAD SWAP1 PUSH2 0x100 EXP SWAP1 DIV PUSH20 0xFFFFFFFFFFFFFFFFFFFFFFFFFFFFFFFFFFFFFFFF AND PUSH20 0xFFFFFFFFFFFFFFFFFFFFFFFFFFFFFFFFFFFFFFFF AND CALLER PUSH20 0xFFFFFFFFFFFFFFFFFFFFFFFFFFFFFFFFFFFFFFFF AND EQ PUSH2 0x995 JUMPI PUSH0 PUSH0 REVERT JUMPDEST PUSH0 PUSH1 0x1 PUSH0 SWAP1 SLOAD SWAP1 PUSH2 0x100 EXP SWAP1 DIV PUSH20 0xFFFFFFFFFFFFFFFFFFFFFFFFFFFFFFFFFFFFFFFF AND PUSH20 0xFFFFFFFFFFFFFFFFFFFFFFFFFFFFFFFFFFFFFFFF AND SELFBALANCE PUSH1 0x40 MLOAD PUSH2 0x9DB SWAP1 PUSH2 0xE15 JUMP JUMPDEST PUSH0 PUSH1 0x40 MLOAD DUP1 DUP4 SUB DUP2 DUP6 DUP8 GAS CALL SWAP3 POP POP POP RETURNDATASIZE DUP1 PUSH0 DUP2 EQ PUSH2 0xA15 JUMPI PUSH1 0x40 MLOAD SWAP2 POP PUSH1 0x1F NOT PUSH1 0x3F RETURNDATASIZE ADD AND DUP3 ADD PUSH1 0x40 MSTORE RETURNDATASIZE DUP3 MSTORE RETURNDATASIZE PUSH0 PUSH1 0x20 DUP5 ADD RETURNDATACOPY PUSH2 0xA1A JUMP JUMPDEST PUSH1 0x60 SWAP2 POP JUMPDEST POP POP SWAP1 POP DUP1 PUSH2 0xA5E JUMPI PUSH1 0x40 MLOAD PUSH32 0x8C379A000000000000000000000000000000000000000000000000000000000 DUP2 MSTORE PUSH1 0x4 ADD PUSH2 0xA55 SWAP1 PUSH2 0xE83 JUMP JUMPDEST PUSH1 0x40 MLOAD DUP1 SWAP2 SUB SWAP1 REVERT JUMPDEST POP JUMP JUMPDEST PUSH0 PUSH1 0x1 PUSH0 SWAP1 SLOAD SWAP1 PUSH2 0x100 EXP SWAP1 DIV PUSH20 0xFFFFFFFFFFFFFFFFFFFFFFFFFFFFFFFFFFFFFFFF AND SWAP1 POP SWAP1 JUMP JUMPDEST PUSH0 PUSH1 0x20 MSTORE DUP1 PUSH0 MSTORE PUSH1 0x40 PUSH0 KECCAK256 PUSH0 SWAP2 POP SWAP1 POP SLOAD DUP2 JUMP JUMPDEST PUSH2 0xAA5 PUSH2 0xB1D JUMP JUMPDEST PUSH1 0x2 PUSH1 0x3 DUP1 PUSH1 0x20 MUL PUSH1 0x40 MLOAD SWAP1 DUP2 ADD PUSH1 0x40 MSTORE DUP1 SWAP3 SWAP2 SWAP1 DUP3 PUSH1 0x3 DUP1 ISZERO PUSH2 0xB13 JUMPI PUSH1 0x20 MUL DUP3 ADD SWAP2 JUMPDEST DUP2 PUSH0 SWAP1 SLOAD SWAP1 PUSH2 0x100 EXP SWAP1 DIV PUSH20 0xFFFFFFFFFFFFFFFFFFFFFFFFFFFFFFFFFFFFFFFF AND PUSH20 0xFFFFFFFFFFFFFFFFFFFFFFFFFFFFFFFFFFFFFFFF AND DUP2 MSTORE PUSH1 0x20 ADD SWAP1 PUSH1 0x1 ADD SWAP1 DUP1 DUP4 GT PUSH2 0xACA JUMPI JUMPDEST POP POP POP POP POP SWAP1 POP SWAP1 JUMP JUMPDEST PUSH1 0x40 MLOAD DUP1 PUSH1 0x60 ADD PUSH1 0x40 MSTORE DUP1 PUSH1 0x3 SWAP1 PUSH1 0x20 DUP3 MUL DUP1 CALLDATASIZE DUP4 CALLDATACOPY DUP1 DUP3 ADD SWAP2 POP POP SWAP1 POP POP SWAP1 JUMP JUMPDEST PUSH0 PUSH20 0xFFFFFFFFFFFFFFFFFFFFFFFFFFFFFFFFFFFFFFFF DUP3 AND SWAP1 POP SWAP2 SWAP1 POP JUMP JUMPDEST PUSH0 PUSH2 0xB68 DUP3 PUSH2 0xB3F JUMP JUMPDEST SWAP1 POP SWAP2 SWAP1 POP JUMP JUMPDEST PUSH2 0xB78 DUP2 PUSH2 0xB5E JUMP JUMPDEST DUP3 MSTORE POP POP JUMP JUMPDEST PUSH0 DUP2 SWAP1 POP SWAP2 SWAP1 POP JUMP JUMPDEST PUSH2 0xB90 DUP2 PUSH2 0xB7E JUMP JUMPDEST DUP3 MSTORE POP POP JUMP JUMPDEST PUSH0 PUSH1 0x40 DUP3 ADD SWAP1 POP PUSH2 0xBA9 PUSH0 DUP4 ADD DUP6 PUSH2 0xB6F JUMP JUMPDEST PUSH2 0xBB6 PUSH1 0x20 DUP4 ADD DUP5 PUSH2 0xB87 JUMP JUMPDEST SWAP4 SWAP3 POP POP POP JUMP JUMPDEST PUSH0 PUSH0 REVERT JUMPDEST PUSH2 0xBCA DUP2 PUSH2 0xB7E JUMP JUMPDEST DUP2 EQ PUSH2 0xBD4 JUMPI PUSH0 PUSH0 REVERT JUMPDEST POP JUMP JUMPDEST PUSH0 DUP2 CALLDATALOAD SWAP1 POP PUSH2 0xBE5 DUP2 PUSH2 0xBC1 JUMP JUMPDEST SWAP3 SWAP2 POP POP JUMP JUMPDEST PUSH0 PUSH1 0x20 DUP3 DUP5 SUB SLT ISZERO PUSH2 0xC00 JUMPI PUSH2 0xBFF PUSH2 0xBBD JUMP JUMPDEST JUMPDEST PUSH0 PUSH2 0xC0D DUP5 DUP3 DUP6 ADD PUSH2 0xBD7 JUMP JUMPDEST SWAP2 POP POP SWAP3 SWAP2 POP POP JUMP JUMPDEST PUSH0 PUSH1 0x20 DUP3 ADD SWAP1 POP PUSH2 0xC29 PUSH0 DUP4 ADD DUP5 PUSH2 0xB6F JUMP JUMPDEST SWAP3 SWAP2 POP POP JUMP JUMPDEST PUSH2 0xC38 DUP2 PUSH2 0xB5E JUMP JUMPDEST DUP2 EQ PUSH2 0xC42 JUMPI PUSH0 PUSH0 REVERT JUMPDEST POP JUMP JUMPDEST PUSH0 DUP2 CALLDATALOAD SWAP1 POP PUSH2 0xC53 DUP2 PUSH2 0xC2F JUMP JUMPDEST SWAP3 SWAP2 POP POP JUMP JUMPDEST PUSH0 PUSH1 0x20 DUP3 DUP5 SUB SLT ISZERO PUSH2 0xC6E JUMPI PUSH2 0xC6D PUSH2 0xBBD JUMP JUMPDEST JUMPDEST PUSH0 PUSH2 0xC7B DUP5 DUP3 DUP6 ADD PUSH2 0xC45 JUMP JUMPDEST SWAP2 POP POP SWAP3 SWAP2 POP POP JUMP JUMPDEST PUSH0 PUSH1 0x20 DUP3 ADD SWAP1 POP PUSH2 0xC97 PUSH0 DUP4 ADD DUP5 PUSH2 0xB87 JUMP JUMPDEST SWAP3 SWAP2 POP POP JUMP JUMPDEST PUSH0 PUSH1 0x3 SWAP1 POP SWAP2 SWAP1 POP JUMP JUMPDEST PUSH0 DUP2 SWAP1 POP SWAP3 SWAP2 POP POP JUMP JUMPDEST PUSH0 DUP2 SWAP1 POP SWAP2 SWAP1 POP JUMP JUMPDEST PUSH2 0xCC3 DUP2 PUSH2 0xB5E JUMP JUMPDEST DUP3 MSTORE POP POP JUMP JUMPDEST PUSH0 PUSH2 0xCD4 DUP4 DUP4 PUSH2 0xCBA JUMP JUMPDEST PUSH1 0x20 DUP4 ADD SWAP1 POP SWAP3 SWAP2 POP POP JUMP JUMPDEST PUSH0 PUSH1 0x20 DUP3 ADD SWAP1 POP SWAP2 SWAP1 POP JUMP JUMPDEST PUSH2 0xCF5 DUP2 PUSH2 0xC9D JUMP JUMPDEST PUSH2 0xCFF DUP2 DUP5 PUSH2 0xCA7 JUMP JUMPDEST SWAP3 POP PUSH2 0xD0A DUP3 PUSH2 0xCB1 JUMP JUMPDEST DUP1 PUSH0 JUMPDEST DUP4 DUP2 LT ISZERO PUSH2 0xD3A JUMPI DUP2 MLOAD PUSH2 0xD21 DUP8 DUP3 PUSH2 0xCC9 JUMP JUMPDEST SWAP7 POP PUSH2 0xD2C DUP4 PUSH2 0xCE0 JUMP JUMPDEST SWAP3 POP POP PUSH1 0x1 DUP2 ADD SWAP1 POP PUSH2 0xD0D JUMP JUMPDEST POP POP POP POP POP POP JUMP JUMPDEST PUSH0 PUSH1 0x60 DUP3 ADD SWAP1 POP PUSH2 0xD55 PUSH0 DUP4 ADD DUP5 PUSH2 0xCEC JUMP JUMPDEST SWAP3 SWAP2 POP POP JUMP JUMPDEST PUSH32 0x4E487B7100000000000000000000000000000000000000000000000000000000 PUSH0 MSTORE PUSH1 0x11 PUSH1 0x4 MSTORE PUSH1 0x24 PUSH0 REVERT JUMPDEST PUSH0 PUSH2 0xD92 DUP3 PUSH2 0xB7E JUMP JUMPDEST SWAP2 POP PUSH2 0xD9D DUP4 PUSH2 0xB7E JUMP JUMPDEST SWAP3 POP DUP3 DUP3 ADD SWAP1 POP DUP1 DUP3 GT ISZERO PUSH2 0xDB5 JUMPI PUSH2 0xDB4 PUSH2 0xD5B JUMP JUMPDEST JUMPDEST SWAP3 SWAP2 POP POP JUMP JUMPDEST PUSH32 0x4E487B7100000000000000000000000000000000000000000000000000000000 PUSH0 MSTORE PUSH1 0x32 PUSH1 0x4 MSTORE PUSH1 0x24 PUSH0 REVERT JUMPDEST PUSH0 DUP2 SWAP1 POP SWAP3 SWAP2 POP POP JUMP JUMPDEST POP JUMP JUMPDEST PUSH0 PUSH2 0xE00 PUSH0 DUP4 PUSH2 0xDE8 JUMP JUMPDEST SWAP2 POP PUSH2 0xE0B DUP3 PUSH2 0xDF2 JUMP JUMPDEST PUSH0 DUP3 ADD SWAP1 POP SWAP2 SWAP1 POP JUMP JUMPDEST PUSH0 PUSH2 0xE1F DUP3 PUSH2 0xDF5 JUMP JUMPDEST SWAP2 POP DUP2 SWAP1 POP SWAP2 SWAP1 POP JUMP JUMPDEST PUSH0 DUP3 DUP3 MSTORE PUSH1 0x20 DUP3 ADD SWAP1 POP SWAP3 SWAP2 POP POP JUMP JUMPDEST PUSH32 0x5769746864726177206661696C65640000000000000000000000000000000000 PUSH0 DUP3 ADD MSTORE POP JUMP JUMPDEST PUSH0 PUSH2 0xE6D PUSH1 0xF DUP4 PUSH2 0xE29 JUMP JUMPDEST SWAP2 POP PUSH2 0xE78 DUP3 PUSH2 0xE39 JUMP JUMPDEST PUSH1 0x20 DUP3 ADD SWAP1 POP SWAP2 SWAP1 POP JUMP JUMPDEST PUSH0 PUSH1 0x20 DUP3 ADD SWAP1 POP DUP2 DUP2 SUB PUSH0 DUP4 ADD MSTORE PUSH2 0xE9A DUP2 PUSH2 0xE61 JUMP JUMPDEST SWAP1 POP SWAP2 SWAP1 POP JUMP INVALID LOG2 PUSH5 0x6970667358 0x22 SLT KECCAK256 CALLF 0xDE41 PUSH32 0xCF3CEAE63ECC7E0D8DFDF0C4620252D65B262638860A3F51986B493A64736F6C PUSH4 0x43000822 STOP CALLER "
				},
				"gasEstimates": {
					"creation": {
						"codeDepositCost": "759800",
						"executionCost": "infinite",
						"totalCost": "infinite"
					},
					"external": {
						"getOwner()": "2559",
						"getTop3User()": "infinite",
						"saveMoney()": "infinite",
						"savePrice(address)": "2867",
						"top3User(uint256)": "2795",
						"withdraw()": "infinite"
					}
				},
				"methodIdentifiers": {
					"getOwner()": "893d20e8",
					"getTop3User()": "f9080ca4",
					"saveMoney()": "2466de24",
					"savePrice(address)": "dbaa0468",
					"top3User(uint256)": "392da8ae",
					"withdraw()": "3ccfd60b"
				}
			},
			"storageLayout": {
				"storage": [
					{
						"astId": 11,
						"contract": "contracts/Bank.sol:Bank",
						"label": "savePrice",
						"offset": 0,
						"slot": "0",
						"type": "t_mapping(t_address,t_uint256)"
					},
					{
						"astId": 13,
						"contract": "contracts/Bank.sol:Bank",
						"label": "owner",
						"offset": 0,
						"slot": "1",
						"type": "t_address"
					},
					{
						"astId": 30,
						"contract": "contracts/Bank.sol:Bank",
						"label": "top3User",
						"offset": 0,
						"slot": "2",
						"type": "t_array(t_address)3_storage"
					}
				],
				"types": {
					"t_address": {
						"encoding": "inplace",
						"label": "address",
						"numberOfBytes": "20"
					},
					"t_array(t_address)3_storage": {
						"base": "t_address",
						"encoding": "inplace",
						"label": "address[3]",
						"numberOfBytes": "96"
					},
					"t_mapping(t_address,t_uint256)": {
						"encoding": "mapping",
						"key": "t_address",
						"label": "mapping(address => uint256)",
						"numberOfBytes": "32",
						"value": "t_uint256"
					},
					"t_uint256": {
						"encoding": "inplace",
						"label": "uint256",
						"numberOfBytes": "32"
					}
				}
			},
			"userdoc": {
				"kind": "user",
				"methods": {},
				"version": 1
			}
		}
	}
}