{
	"contracts/BasdERC20.sol": {
		"BaseERC20": {
			"abi": [
				{
					"inputs": [],
					"stateMutability": "nonpayable",
					"type": "constructor"
				},
				{
					"anonymous": false,
					"inputs": [
						{
							"indexed": true,
							"internalType": "address",
							"name": "owner",
							"type": "address"
						},
						{
							"indexed": true,
							"internalType": "address",
							"name": "spender",
							"type": "address"
						},
						{
							"indexed": false,
							"internalType": "uint256",
							"name": "value",
							"type": "uint256"
						}
					],
					"name": "Approval",
					"type": "event"
				},
				{
					"anonymous": false,
					"inputs": [
						{
							"indexed": true,
							"internalType": "address",
							"name": "from",
							"type": "address"
						},
						{
							"indexed": true,
							"internalType": "address",
							"name": "to",
							"type": "address"
						},
						{
							"indexed": false,
							"internalType": "uint256",
							"name": "value",
							"type": "uint256"
						}
					],
					"name": "Transfer",
					"type": "event"
				},
				{
					"inputs": [
						{
							"internalType": "address",
							"name": "_owner",
							"type": "address"
						},
						{
							"internalType": "address",
							"name": "_spender",
							"type": "address"
						}
					],
					"name": "allowance",
					"outputs": [
						{
							"internalType": "uint256",
							"name": "remaining",
							"type": "uint256"
						}
					],
					"stateMutability": "view",
					"type": "function"
				},
				{
					"inputs": [
						{
							"internalType": "address",
							"name": "_spender",
							"type": "address"
						},
						{
							"internalType": "uint256",
							"name": "_value",
							"type": "uint256"
						}
					],
					"name": "approve",
					"outputs": [
						{
							"internalType": "bool",
							"name": "success",
							"type": "bool"
						}
					],
					"stateMutability": "nonpayable",
					"type": "function"
				},
				{
					"inputs": [
						{
							"internalType": "address",
							"name": "_owner",
							"type": "address"
						}
					],
					"name": "balanceOf",
					"outputs": [
						{
							"internalType": "uint256",
							"name": "balance",
							"type": "uint256"
						}
					],
					"stateMutability": "view",
					"type": "function"
				},
				{
					"inputs": [],
					"name": "decimals",
					"outputs": [
						{
							"internalType": "uint8",
							"name": "",
							"type": "uint8"
						}
					],
					"stateMutability": "view",
					"type": "function"
				},
				{
					"inputs": [],
					"name": "name",
					"outputs": [
						{
							"internalType": "string",
							"name": "",
							"type": "string"
						}
					],
					"stateMutability": "view",
					"type": "function"
				},
				{
					"inputs": [],
					"name": "symbol",
					"outputs": [
						{
							"internalType": "string",
							"name": "",
							"type": "string"
						}
					],
					"stateMutability": "view",
					"type": "function"
				},
				{
					"inputs": [],
					"name": "totalSupply",
					"outputs": [
						{
							"internalType": "uint256",
							"name": "",
							"type": "uint256"
						}
					],
					"stateMutability": "view",
					"type": "function"
				},
				{
					"inputs": [
						{
							"internalType": "address",
							"name": "_to",
							"type": "address"
						},
						{
							"internalType": "uint256",
							"name": "_value",
							"type": "uint256"
						}
					],
					"name": "transfer",
					"outputs": [
						{
							"internalType": "bool",
							"name": "success",
							"type": "bool"
						}
					],
					"stateMutability": "nonpayable",
					"type": "function"
				},
				{
					"inputs": [
						{
							"internalType": "address",
							"name": "_from",
							"type": "address"
						},
						{
							"internalType": "address",
							"name": "_to",
							"type": "address"
						},
						{
							"internalType": "uint256",
							"name": "_value",
							"type": "uint256"
						}
					],
					"name": "transferFrom",
					"outputs": [
						{
							"internalType": "bool",
							"name": "success",
							"type": "bool"
						}
					],
					"stateMutability": "nonpayable",
					"type": "function"
				},
				{
					"inputs": [
						{
							"internalType": "address",
							"name": "to",
							"type": "address"
						},
						{
							"internalType": "uint256",
							"name": "value",
							"type": "uint256"
						}
					],
					"name": "transferWithCallback",
					"outputs": [
						{
							"internalType": "bool",
							"name": "",
							"type": "bool"
						}
					],
					"stateMutability": "nonpayable",
					"type": "function"
				}
			],
			"devdoc": {
				"kind": "dev",
				"methods": {},
				"version": 1
			},
			"evm": {
				"assembly": "    /* \"contracts/BasdERC20.sol\":212:3272  contract BaseERC20 {... */\n  mstore(0x40, 0x80)\n    /* \"contracts/BasdERC20.sol\":692:974  constructor() { ... */\n  callvalue\n  dup1\n  iszero\n  tag_1\n  jumpi\n  revert(0x00, 0x00)\ntag_1:\n  pop\n    /* \"contracts/BasdERC20.sol\":800:818  name = \"BaseERC20\" */\n  mload(0x40)\n  dup1\n  0x40\n  add\n  0x40\n  mstore\n  dup1\n  0x09\n  dup2\n  mstore\n  0x20\n  add\n  0x4261736545524332300000000000000000000000000000000000000000000000\n  dup2\n  mstore\n  pop\n    /* \"contracts/BasdERC20.sol\":800:804  name */\n  0x00\n    /* \"contracts/BasdERC20.sol\":800:818  name = \"BaseERC20\" */\n  swap1\n  dup2\n  tag_4\n  swap2\n  swap1\n  tag_5\n  jump\t// in\ntag_4:\n  pop\n    /* \"contracts/BasdERC20.sol\":829:846  symbol = \"BERC20\" */\n  mload(0x40)\n  dup1\n  0x40\n  add\n  0x40\n  mstore\n  dup1\n  0x06\n  dup2\n  mstore\n  0x20\n  add\n  0x4245524332300000000000000000000000000000000000000000000000000000\n  dup2\n  mstore\n  pop\n    /* \"contracts/BasdERC20.sol\":829:835  symbol */\n  0x01\n    /* \"contracts/BasdERC20.sol\":829:846  symbol = \"BERC20\" */\n  swap1\n  dup2\n  tag_6\n  swap2\n  swap1\n  tag_5\n  jump\t// in\ntag_6:\n  pop\n    /* \"contracts/BasdERC20.sol\":868:870  18 */\n  0x12\n    /* \"contracts/BasdERC20.sol\":857:865  decimals */\n  0x02\n  0x00\n    /* \"contracts/BasdERC20.sol\":857:870  decimals = 18 */\n  0x0100\n  exp\n  dup2\n  sload\n  dup2\n  0xff\n  mul\n  not\n  and\n  swap1\n  dup4\n  0xff\n  and\n  mul\n  or\n  swap1\n  sstore\n  pop\n    /* \"contracts/BasdERC20.sol\":909:917  decimals */\n  0x02\n  0x00\n  swap1\n  sload\n  swap1\n  0x0100\n  exp\n  swap1\n  div\n  0xff\n  and\n    /* \"contracts/BasdERC20.sol\":905:907  10 */\n  0x0a\n    /* \"contracts/BasdERC20.sol\":905:917  10**decimals */\n  tag_7\n  swap2\n  swap1\n  tag_8\n  jump\t// in\ntag_7:\n    /* \"contracts/BasdERC20.sol\":895:904  100000000 */\n  0x05f5e100\n    /* \"contracts/BasdERC20.sol\":895:917  100000000*10**decimals */\n  tag_9\n  swap2\n  swap1\n  tag_10\n  jump\t// in\ntag_9:\n    /* \"contracts/BasdERC20.sol\":881:892  totalSupply */\n  0x03\n    /* \"contracts/BasdERC20.sol\":881:917  totalSupply = 100000000*10**decimals */\n  dup2\n  swap1\n  sstore\n  pop\n    /* \"contracts/BasdERC20.sol\":953:964  totalSupply */\n  sload(0x03)\n    /* \"contracts/BasdERC20.sol\":930:938  balances */\n  0x04\n    /* \"contracts/BasdERC20.sol\":930:950  balances[msg.sender] */\n  0x00\n    /* \"contracts/BasdERC20.sol\":939:949  msg.sender */\n  caller\n    /* \"contracts/BasdERC20.sol\":930:950  balances[msg.sender] */\n  0xffffffffffffffffffffffffffffffffffffffff\n  and\n  0xffffffffffffffffffffffffffffffffffffffff\n  and\n  dup2\n  mstore\n  0x20\n  add\n  swap1\n  dup2\n  mstore\n  0x20\n  add\n  0x00\n  keccak256\n    /* \"contracts/BasdERC20.sol\":930:964  balances[msg.sender] = totalSupply */\n  dup2\n  swap1\n  sstore\n  pop\n    /* \"contracts/BasdERC20.sol\":212:3272  contract BaseERC20 {... */\n  jump(tag_11)\n    /* \"#utility.yul\":7:106   */\ntag_12:\n    /* \"#utility.yul\":59:65   */\n  0x00\n    /* \"#utility.yul\":93:98   */\n  dup2\n    /* \"#utility.yul\":87:99   */\n  mload\n    /* \"#utility.yul\":77:99   */\n  swap1\n  pop\n    /* \"#utility.yul\":7:106   */\n  swap2\n  swap1\n  pop\n  jump\t// out\n    /* \"#utility.yul\":112:292   */\ntag_13:\n    /* \"#utility.yul\":160:237   */\n  0x4e487b7100000000000000000000000000000000000000000000000000000000\n    /* \"#utility.yul\":157:158   */\n  0x00\n    /* \"#utility.yul\":150:238   */\n  mstore\n    /* \"#utility.yul\":257:261   */\n  0x41\n    /* \"#utility.yul\":254:255   */\n  0x04\n    /* \"#utility.yul\":247:262   */\n  mstore\n    /* \"#utility.yul\":281:285   */\n  0x24\n    /* \"#utility.yul\":278:279   */\n  0x00\n    /* \"#utility.yul\":271:286   */\n  revert\n    /* \"#utility.yul\":298:478   */\ntag_14:\n    /* \"#utility.yul\":346:423   */\n  0x4e487b7100000000000000000000000000000000000000000000000000000000\n    /* \"#utility.yul\":343:344   */\n  0x00\n    /* \"#utility.yul\":336:424   */\n  mstore\n    /* \"#utility.yul\":443:447   */\n  0x22\n    /* \"#utility.yul\":440:441   */\n  0x04\n    /* \"#utility.yul\":433:448   */\n  mstore\n    /* \"#utility.yul\":467:471   */\n  0x24\n    /* \"#utility.yul\":464:465   */\n  0x00\n    /* \"#utility.yul\":457:472   */\n  revert\n    /* \"#utility.yul\":484:804   */\ntag_15:\n    /* \"#utility.yul\":528:534   */\n  0x00\n    /* \"#utility.yul\":565:566   */\n  0x02\n    /* \"#utility.yul\":559:563   */\n  dup3\n    /* \"#utility.yul\":555:567   */\n  div\n    /* \"#utility.yul\":545:567   */\n  swap1\n  pop\n    /* \"#utility.yul\":612:613   */\n  0x01\n    /* \"#utility.yul\":606:610   */\n  dup3\n    /* \"#utility.yul\":602:614   */\n  and\n    /* \"#utility.yul\":633:651   */\n  dup1\n    /* \"#utility.yul\":623:704   */\n  tag_42\n  jumpi\n    /* \"#utility.yul\":689:693   */\n  0x7f\n    /* \"#utility.yul\":681:687   */\n  dup3\n    /* \"#utility.yul\":677:694   */\n  and\n    /* \"#utility.yul\":667:694   */\n  swap2\n  pop\n    /* \"#utility.yul\":623:704   */\ntag_42:\n    /* \"#utility.yul\":751:753   */\n  0x20\n    /* \"#utility.yul\":743:749   */\n  dup3\n    /* \"#utility.yul\":740:754   */\n  lt\n    /* \"#utility.yul\":720:738   */\n  dup2\n    /* \"#utility.yul\":717:755   */\n  sub\n    /* \"#utility.yul\":714:798   */\n  tag_43\n  jumpi\n    /* \"#utility.yul\":770:788   */\n  tag_44\n  tag_14\n  jump\t// in\ntag_44:\n    /* \"#utility.yul\":714:798   */\ntag_43:\n    /* \"#utility.yul\":535:804   */\n  pop\n    /* \"#utility.yul\":484:804   */\n  swap2\n  swap1\n  pop\n  jump\t// out\n    /* \"#utility.yul\":810:951   */\ntag_16:\n    /* \"#utility.yul\":859:863   */\n  0x00\n    /* \"#utility.yul\":882:885   */\n  dup2\n    /* \"#utility.yul\":874:885   */\n  swap1\n  pop\n    /* \"#utility.yul\":905:908   */\n  dup2\n    /* \"#utility.yul\":902:903   */\n  0x00\n    /* \"#utility.yul\":895:909   */\n  mstore\n    /* \"#utility.yul\":939:943   */\n  0x20\n    /* \"#utility.yul\":936:937   */\n  0x00\n    /* \"#utility.yul\":926:944   */\n  keccak256\n    /* \"#utility.yul\":918:944   */\n  swap1\n  pop\n    /* \"#utility.yul\":810:951   */\n  swap2\n  swap1\n  pop\n  jump\t// out\n    /* \"#utility.yul\":957:1050   */\ntag_17:\n    /* \"#utility.yul\":994:1000   */\n  0x00\n    /* \"#utility.yul\":1041:1043   */\n  0x20\n    /* \"#utility.yul\":1036:1038   */\n  0x1f\n    /* \"#utility.yul\":1029:1034   */\n  dup4\n    /* \"#utility.yul\":1025:1039   */\n  add\n    /* \"#utility.yul\":1021:1044   */\n  div\n    /* \"#utility.yul\":1011:1044   */\n  swap1\n  pop\n    /* \"#utility.yul\":957:1050   */\n  swap2\n  swap1\n  pop\n  jump\t// out\n    /* \"#utility.yul\":1056:1163   */\ntag_18:\n    /* \"#utility.yul\":1100:1108   */\n  0x00\n    /* \"#utility.yul\":1150:1155   */\n  dup3\n    /* \"#utility.yul\":1144:1148   */\n  dup3\n    /* \"#utility.yul\":1140:1156   */\n  shl\n    /* \"#utility.yul\":1119:1156   */\n  swap1\n  pop\n    /* \"#utility.yul\":1056:1163   */\n  swap3\n  swap2\n  pop\n  pop\n  jump\t// out\n    /* \"#utility.yul\":1169:1562   */\ntag_19:\n    /* \"#utility.yul\":1238:1244   */\n  0x00\n    /* \"#utility.yul\":1288:1289   */\n  0x08\n    /* \"#utility.yul\":1276:1286   */\n  dup4\n    /* \"#utility.yul\":1272:1290   */\n  mul\n    /* \"#utility.yul\":1311:1408   */\n  tag_49\n    /* \"#utility.yul\":1341:1407   */\n  0xffffffffffffffffffffffffffffffffffffffffffffffffffffffffffffffff\n    /* \"#utility.yul\":1330:1339   */\n  dup3\n    /* \"#utility.yul\":1311:1408   */\n  tag_18\n  jump\t// in\ntag_49:\n    /* \"#utility.yul\":1429:1468   */\n  tag_50\n    /* \"#utility.yul\":1459:1467   */\n  dup7\n    /* \"#utility.yul\":1448:1457   */\n  dup4\n    /* \"#utility.yul\":1429:1468   */\n  tag_18\n  jump\t// in\ntag_50:\n    /* \"#utility.yul\":1417:1468   */\n  swap6\n  pop\n    /* \"#utility.yul\":1501:1505   */\n  dup1\n    /* \"#utility.yul\":1497:1506   */\n  not\n    /* \"#utility.yul\":1490:1495   */\n  dup5\n    /* \"#utility.yul\":1486:1507   */\n  and\n    /* \"#utility.yul\":1477:1507   */\n  swap4\n  pop\n    /* \"#utility.yul\":1550:1554   */\n  dup1\n    /* \"#utility.yul\":1540:1548   */\n  dup7\n    /* \"#utility.yul\":1536:1555   */\n  and\n    /* \"#utility.yul\":1529:1534   */\n  dup5\n    /* \"#utility.yul\":1526:1556   */\n  or\n    /* \"#utility.yul\":1516:1556   */\n  swap3\n  pop\n    /* \"#utility.yul\":1245:1562   */\n  pop\n  pop\n    /* \"#utility.yul\":1169:1562   */\n  swap4\n  swap3\n  pop\n  pop\n  pop\n  jump\t// out\n    /* \"#utility.yul\":1568:1645   */\ntag_20:\n    /* \"#utility.yul\":1605:1612   */\n  0x00\n    /* \"#utility.yul\":1634:1639   */\n  dup2\n    /* \"#utility.yul\":1623:1639   */\n  swap1\n  pop\n    /* \"#utility.yul\":1568:1645   */\n  swap2\n  swap1\n  pop\n  jump\t// out\n    /* \"#utility.yul\":1651:1711   */\ntag_21:\n    /* \"#utility.yul\":1679:1682   */\n  0x00\n    /* \"#utility.yul\":1700:1705   */\n  dup2\n    /* \"#utility.yul\":1693:1705   */\n  swap1\n  pop\n    /* \"#utility.yul\":1651:1711   */\n  swap2\n  swap1\n  pop\n  jump\t// out\n    /* \"#utility.yul\":1717:1859   */\ntag_22:\n    /* \"#utility.yul\":1767:1776   */\n  0x00\n    /* \"#utility.yul\":1800:1853   */\n  tag_54\n    /* \"#utility.yul\":1818:1852   */\n  tag_55\n    /* \"#utility.yul\":1827:1851   */\n  tag_56\n    /* \"#utility.yul\":1845:1850   */\n  dup5\n    /* \"#utility.yul\":1827:1851   */\n  tag_20\n  jump\t// in\ntag_56:\n    /* \"#utility.yul\":1818:1852   */\n  tag_21\n  jump\t// in\ntag_55:\n    /* \"#utility.yul\":1800:1853   */\n  tag_20\n  jump\t// in\ntag_54:\n    /* \"#utility.yul\":1787:1853   */\n  swap1\n  pop\n    /* \"#utility.yul\":1717:1859   */\n  swap2\n  swap1\n  pop\n  jump\t// out\n    /* \"#utility.yul\":1865:1940   */\ntag_23:\n    /* \"#utility.yul\":1908:1911   */\n  0x00\n    /* \"#utility.yul\":1929:1934   */\n  dup2\n    /* \"#utility.yul\":1922:1934   */\n  swap1\n  pop\n    /* \"#utility.yul\":1865:1940   */\n  swap2\n  swap1\n  pop\n  jump\t// out\n    /* \"#utility.yul\":1946:2215   */\ntag_24:\n    /* \"#utility.yul\":2056:2095   */\n  tag_59\n    /* \"#utility.yul\":2087:2094   */\n  dup4\n    /* \"#utility.yul\":2056:2095   */\n  tag_22\n  jump\t// in\ntag_59:\n    /* \"#utility.yul\":2117:2208   */\n  tag_60\n    /* \"#utility.yul\":2166:2207   */\n  tag_61\n    /* \"#utility.yul\":2190:2206   */\n  dup3\n    /* \"#utility.yul\":2166:2207   */\n  tag_23\n  jump\t// in\ntag_61:\n    /* \"#utility.yul\":2158:2164   */\n  dup5\n    /* \"#utility.yul\":2151:2155   */\n  dup5\n    /* \"#utility.yul\":2145:2156   */\n  sload\n    /* \"#utility.yul\":2117:2208   */\n  tag_19\n  jump\t// in\ntag_60:\n    /* \"#utility.yul\":2111:2115   */\n  dup3\n    /* \"#utility.yul\":2104:2209   */\n  sstore\n    /* \"#utility.yul\":2022:2215   */\n  pop\n    /* \"#utility.yul\":1946:2215   */\n  pop\n  pop\n  pop\n  jump\t// out\n    /* \"#utility.yul\":2221:2294   */\ntag_25:\n    /* \"#utility.yul\":2266:2269   */\n  0x00\n    /* \"#utility.yul\":2287:2288   */\n  0x00\n    /* \"#utility.yul\":2280:2288   */\n  swap1\n  pop\n    /* \"#utility.yul\":2221:2294   */\n  swap1\n  jump\t// out\n    /* \"#utility.yul\":2300:2489   */\ntag_26:\n    /* \"#utility.yul\":2377:2409   */\n  tag_64\n  tag_25\n  jump\t// in\ntag_64:\n    /* \"#utility.yul\":2418:2483   */\n  tag_65\n    /* \"#utility.yul\":2476:2482   */\n  dup2\n    /* \"#utility.yul\":2468:2474   */\n  dup5\n    /* \"#utility.yul\":2462:2466   */\n  dup5\n    /* \"#utility.yul\":2418:2483   */\n  tag_24\n  jump\t// in\ntag_65:\n    /* \"#utility.yul\":2353:2489   */\n  pop\n    /* \"#utility.yul\":2300:2489   */\n  pop\n  pop\n  jump\t// out\n    /* \"#utility.yul\":2495:2709   */\ntag_27:\n    /* \"#utility.yul\":2580:2581   */\n  0x00\n    /* \"#utility.yul\":2565:2703   */\ntag_67:\n    /* \"#utility.yul\":2590:2599   */\n  dup3\n    /* \"#utility.yul\":2587:2588   */\n  dup2\n    /* \"#utility.yul\":2584:2600   */\n  lt\n    /* \"#utility.yul\":2565:2703   */\n  iszero\n  tag_69\n  jumpi\n    /* \"#utility.yul\":2642:2693   */\n  tag_70\n    /* \"#utility.yul\":2691:2692   */\n  0x00\n    /* \"#utility.yul\":2687:2688   */\n  dup3\n    /* \"#utility.yul\":2676:2685   */\n  dup5\n    /* \"#utility.yul\":2672:2689   */\n  add\n    /* \"#utility.yul\":2642:2693   */\n  tag_26\n  jump\t// in\ntag_70:\n    /* \"#utility.yul\":2615:2616   */\n  0x01\n    /* \"#utility.yul\":2612:2613   */\n  dup2\n    /* \"#utility.yul\":2608:2617   */\n  add\n    /* \"#utility.yul\":2603:2617   */\n  swap1\n  pop\n    /* \"#utility.yul\":2565:2703   */\n  jump(tag_67)\ntag_69:\n    /* \"#utility.yul\":2569:2583   */\n  pop\n    /* \"#utility.yul\":2495:2709   */\n  pop\n  pop\n  jump\t// out\n    /* \"#utility.yul\":2715:3461   */\ntag_28:\n    /* \"#utility.yul\":2816:2818   */\n  0x1f\n    /* \"#utility.yul\":2811:2814   */\n  dup3\n    /* \"#utility.yul\":2808:2819   */\n  gt\n    /* \"#utility.yul\":2805:3454   */\n  iszero\n  tag_72\n  jumpi\n    /* \"#utility.yul\":2845:2855   */\n  dup3\n    /* \"#utility.yul\":2840:2843   */\n  dup3\n    /* \"#utility.yul\":2837:2856   */\n  gt\n    /* \"#utility.yul\":2834:3444   */\n  iszero\n  tag_73\n  jumpi\n    /* \"#utility.yul\":2891:2929   */\n  tag_74\n    /* \"#utility.yul\":2923:2928   */\n  dup2\n    /* \"#utility.yul\":2891:2929   */\n  tag_16\n  jump\t// in\ntag_74:\n    /* \"#utility.yul\":2966:2988   */\n  tag_75\n    /* \"#utility.yul\":2984:2987   */\n  dup4\n    /* \"#utility.yul\":2966:2988   */\n  tag_17\n  jump\t// in\ntag_75:\n    /* \"#utility.yul\":3025:3054   */\n  tag_76\n    /* \"#utility.yul\":3043:3053   */\n  dup6\n    /* \"#utility.yul\":3025:3054   */\n  tag_17\n  jump\t// in\ntag_76:\n    /* \"#utility.yul\":3215:3217   */\n  0x20\n    /* \"#utility.yul\":3203:3213   */\n  dup7\n    /* \"#utility.yul\":3200:3218   */\n  lt\n    /* \"#utility.yul\":3197:3276   */\n  iszero\n  tag_77\n  jumpi\n    /* \"#utility.yul\":3257:3258   */\n  0x00\n    /* \"#utility.yul\":3241:3258   */\n  swap1\n  pop\n    /* \"#utility.yul\":3197:3276   */\ntag_77:\n    /* \"#utility.yul\":3326:3338   */\n  dup1\n    /* \"#utility.yul\":3316:3324   */\n  dup4\n    /* \"#utility.yul\":3312:3339   */\n  add\n    /* \"#utility.yul\":3356:3430   */\n  tag_78\n    /* \"#utility.yul\":3416:3428   */\n  dup3\n    /* \"#utility.yul\":3402:3414   */\n  dup5\n    /* \"#utility.yul\":3398:3429   */\n  sub\n    /* \"#utility.yul\":3385:3396   */\n  dup3\n    /* \"#utility.yul\":3356:3430   */\n  tag_27\n  jump\t// in\ntag_78:\n    /* \"#utility.yul\":2857:3444   */\n  pop\n  pop\n  pop\n  pop\n    /* \"#utility.yul\":2834:3444   */\ntag_73:\n    /* \"#utility.yul\":2805:3454   */\ntag_72:\n    /* \"#utility.yul\":2715:3461   */\n  pop\n  pop\n  pop\n  jump\t// out\n    /* \"#utility.yul\":3467:3584   */\ntag_29:\n    /* \"#utility.yul\":3521:3529   */\n  0x00\n    /* \"#utility.yul\":3571:3576   */\n  dup3\n    /* \"#utility.yul\":3565:3569   */\n  dup3\n    /* \"#utility.yul\":3561:3577   */\n  shr\n    /* \"#utility.yul\":3540:3577   */\n  swap1\n  pop\n    /* \"#utility.yul\":3467:3584   */\n  swap3\n  swap2\n  pop\n  pop\n  jump\t// out\n    /* \"#utility.yul\":3590:3759   */\ntag_30:\n    /* \"#utility.yul\":3634:3640   */\n  0x00\n    /* \"#utility.yul\":3667:3718   */\n  tag_81\n    /* \"#utility.yul\":3715:3716   */\n  0x00\n    /* \"#utility.yul\":3711:3717   */\n  not\n    /* \"#utility.yul\":3703:3708   */\n  dup5\n    /* \"#utility.yul\":3700:3701   */\n  0x08\n    /* \"#utility.yul\":3696:3709   */\n  mul\n    /* \"#utility.yul\":3667:3718   */\n  tag_29\n  jump\t// in\ntag_81:\n    /* \"#utility.yul\":3663:3719   */\n  not\n    /* \"#utility.yul\":3748:3752   */\n  dup1\n    /* \"#utility.yul\":3742:3746   */\n  dup4\n    /* \"#utility.yul\":3738:3753   */\n  and\n    /* \"#utility.yul\":3728:3753   */\n  swap2\n  pop\n    /* \"#utility.yul\":3641:3759   */\n  pop\n    /* \"#utility.yul\":3590:3759   */\n  swap3\n  swap2\n  pop\n  pop\n  jump\t// out\n    /* \"#utility.yul\":3764:4059   */\ntag_31:\n    /* \"#utility.yul\":3840:3844   */\n  0x00\n    /* \"#utility.yul\":3986:4015   */\n  tag_83\n    /* \"#utility.yul\":4011:4014   */\n  dup4\n    /* \"#utility.yul\":4005:4009   */\n  dup4\n    /* \"#utility.yul\":3986:4015   */\n  tag_30\n  jump\t// in\ntag_83:\n    /* \"#utility.yul\":3978:4015   */\n  swap2\n  pop\n    /* \"#utility.yul\":4048:4051   */\n  dup3\n    /* \"#utility.yul\":4045:4046   */\n  0x02\n    /* \"#utility.yul\":4041:4052   */\n  mul\n    /* \"#utility.yul\":4035:4039   */\n  dup3\n    /* \"#utility.yul\":4032:4053   */\n  or\n    /* \"#utility.yul\":4024:4053   */\n  swap1\n  pop\n    /* \"#utility.yul\":3764:4059   */\n  swap3\n  swap2\n  pop\n  pop\n  jump\t// out\n    /* \"#utility.yul\":4064:5459   */\ntag_5:\n    /* \"#utility.yul\":4181:4218   */\n  tag_85\n    /* \"#utility.yul\":4214:4217   */\n  dup3\n    /* \"#utility.yul\":4181:4218   */\n  tag_12\n  jump\t// in\ntag_85:\n    /* \"#utility.yul\":4283:4301   */\n  0xffffffffffffffff\n    /* \"#utility.yul\":4275:4281   */\n  dup2\n    /* \"#utility.yul\":4272:4302   */\n  gt\n    /* \"#utility.yul\":4269:4325   */\n  iszero\n  tag_86\n  jumpi\n    /* \"#utility.yul\":4305:4323   */\n  tag_87\n  tag_13\n  jump\t// in\ntag_87:\n    /* \"#utility.yul\":4269:4325   */\ntag_86:\n    /* \"#utility.yul\":4349:4387   */\n  tag_88\n    /* \"#utility.yul\":4381:4385   */\n  dup3\n    /* \"#utility.yul\":4375:4386   */\n  sload\n    /* \"#utility.yul\":4349:4387   */\n  tag_15\n  jump\t// in\ntag_88:\n    /* \"#utility.yul\":4434:4501   */\n  tag_89\n    /* \"#utility.yul\":4494:4500   */\n  dup3\n    /* \"#utility.yul\":4486:4492   */\n  dup3\n    /* \"#utility.yul\":4480:4484   */\n  dup6\n    /* \"#utility.yul\":4434:4501   */\n  tag_28\n  jump\t// in\ntag_89:\n    /* \"#utility.yul\":4528:4529   */\n  0x00\n    /* \"#utility.yul\":4552:4556   */\n  0x20\n    /* \"#utility.yul\":4539:4556   */\n  swap1\n  pop\n    /* \"#utility.yul\":4584:4586   */\n  0x1f\n    /* \"#utility.yul\":4576:4582   */\n  dup4\n    /* \"#utility.yul\":4573:4587   */\n  gt\n    /* \"#utility.yul\":4601:4602   */\n  0x01\n    /* \"#utility.yul\":4596:5214   */\n  dup2\n  eq\n  tag_91\n  jumpi\n    /* \"#utility.yul\":5258:5259   */\n  0x00\n    /* \"#utility.yul\":5275:5281   */\n  dup5\n    /* \"#utility.yul\":5272:5349   */\n  iszero\n  tag_92\n  jumpi\n    /* \"#utility.yul\":5324:5333   */\n  dup3\n    /* \"#utility.yul\":5319:5322   */\n  dup8\n    /* \"#utility.yul\":5315:5334   */\n  add\n    /* \"#utility.yul\":5309:5335   */\n  mload\n    /* \"#utility.yul\":5300:5335   */\n  swap1\n  pop\n    /* \"#utility.yul\":5272:5349   */\ntag_92:\n    /* \"#utility.yul\":5375:5442   */\n  tag_93\n    /* \"#utility.yul\":5435:5441   */\n  dup6\n    /* \"#utility.yul\":5428:5433   */\n  dup3\n    /* \"#utility.yul\":5375:5442   */\n  tag_31\n  jump\t// in\ntag_93:\n    /* \"#utility.yul\":5369:5373   */\n  dup7\n    /* \"#utility.yul\":5362:5443   */\n  sstore\n    /* \"#utility.yul\":5231:5453   */\n  pop\n    /* \"#utility.yul\":4566:5453   */\n  jump(tag_90)\n    /* \"#utility.yul\":4596:5214   */\ntag_91:\n    /* \"#utility.yul\":4648:4652   */\n  0x1f\n    /* \"#utility.yul\":4644:4653   */\n  not\n    /* \"#utility.yul\":4636:4642   */\n  dup5\n    /* \"#utility.yul\":4632:4654   */\n  and\n    /* \"#utility.yul\":4682:4719   */\n  tag_94\n    /* \"#utility.yul\":4714:4718   */\n  dup7\n    /* \"#utility.yul\":4682:4719   */\n  tag_16\n  jump\t// in\ntag_94:\n    /* \"#utility.yul\":4741:4742   */\n  0x00\n    /* \"#utility.yul\":4755:4963   */\ntag_95:\n    /* \"#utility.yul\":4769:4776   */\n  dup3\n    /* \"#utility.yul\":4766:4767   */\n  dup2\n    /* \"#utility.yul\":4763:4777   */\n  lt\n    /* \"#utility.yul\":4755:4963   */\n  iszero\n  tag_97\n  jumpi\n    /* \"#utility.yul\":4848:4857   */\n  dup5\n    /* \"#utility.yul\":4843:4846   */\n  dup10\n    /* \"#utility.yul\":4839:4858   */\n  add\n    /* \"#utility.yul\":4833:4859   */\n  mload\n    /* \"#utility.yul\":4825:4831   */\n  dup3\n    /* \"#utility.yul\":4818:4860   */\n  sstore\n    /* \"#utility.yul\":4899:4900   */\n  0x01\n    /* \"#utility.yul\":4891:4897   */\n  dup3\n    /* \"#utility.yul\":4887:4901   */\n  add\n    /* \"#utility.yul\":4877:4901   */\n  swap2\n  pop\n    /* \"#utility.yul\":4946:4948   */\n  0x20\n    /* \"#utility.yul\":4935:4944   */\n  dup6\n    /* \"#utility.yul\":4931:4949   */\n  add\n    /* \"#utility.yul\":4918:4949   */\n  swap5\n  pop\n    /* \"#utility.yul\":4792:4796   */\n  0x20\n    /* \"#utility.yul\":4789:4790   */\n  dup2\n    /* \"#utility.yul\":4785:4797   */\n  add\n    /* \"#utility.yul\":4780:4797   */\n  swap1\n  pop\n    /* \"#utility.yul\":4755:4963   */\n  jump(tag_95)\ntag_97:\n    /* \"#utility.yul\":4991:4997   */\n  dup7\n    /* \"#utility.yul\":4982:4989   */\n  dup4\n    /* \"#utility.yul\":4979:4998   */\n  lt\n    /* \"#utility.yul\":4976:5155   */\n  iszero\n  tag_98\n  jumpi\n    /* \"#utility.yul\":5049:5058   */\n  dup5\n    /* \"#utility.yul\":5044:5047   */\n  dup10\n    /* \"#utility.yul\":5040:5059   */\n  add\n    /* \"#utility.yul\":5034:5060   */\n  mload\n    /* \"#utility.yul\":5092:5140   */\n  tag_99\n    /* \"#utility.yul\":5134:5138   */\n  0x1f\n    /* \"#utility.yul\":5126:5132   */\n  dup10\n    /* \"#utility.yul\":5122:5139   */\n  and\n    /* \"#utility.yul\":5111:5120   */\n  dup3\n    /* \"#utility.yul\":5092:5140   */\n  tag_30\n  jump\t// in\ntag_99:\n    /* \"#utility.yul\":5084:5090   */\n  dup4\n    /* \"#utility.yul\":5077:5141   */\n  sstore\n    /* \"#utility.yul\":4999:5155   */\n  pop\n    /* \"#utility.yul\":4976:5155   */\ntag_98:\n    /* \"#utility.yul\":5201:5202   */\n  0x01\n    /* \"#utility.yul\":5197:5198   */\n  0x02\n    /* \"#utility.yul\":5189:5195   */\n  dup9\n    /* \"#utility.yul\":5185:5199   */\n  mul\n    /* \"#utility.yul\":5181:5203   */\n  add\n    /* \"#utility.yul\":5175:5179   */\n  dup9\n    /* \"#utility.yul\":5168:5204   */\n  sstore\n    /* \"#utility.yul\":4603:5214   */\n  pop\n  pop\n  pop\n    /* \"#utility.yul\":4566:5453   */\ntag_90:\n  pop\n    /* \"#utility.yul\":4156:5459   */\n  pop\n  pop\n  pop\n    /* \"#utility.yul\":4064:5459   */\n  pop\n  pop\n  jump\t// out\n    /* \"#utility.yul\":5465:5645   */\ntag_32:\n    /* \"#utility.yul\":5513:5590   */\n  0x4e487b7100000000000000000000000000000000000000000000000000000000\n    /* \"#utility.yul\":5510:5511   */\n  0x00\n    /* \"#utility.yul\":5503:5591   */\n  mstore\n    /* \"#utility.yul\":5610:5614   */\n  0x11\n    /* \"#utility.yul\":5607:5608   */\n  0x04\n    /* \"#utility.yul\":5600:5615   */\n  mstore\n    /* \"#utility.yul\":5634:5638   */\n  0x24\n    /* \"#utility.yul\":5631:5632   */\n  0x00\n    /* \"#utility.yul\":5624:5639   */\n  revert\n    /* \"#utility.yul\":5651:5753   */\ntag_33:\n    /* \"#utility.yul\":5693:5701   */\n  0x00\n    /* \"#utility.yul\":5740:5745   */\n  dup2\n    /* \"#utility.yul\":5737:5738   */\n  0x01\n    /* \"#utility.yul\":5733:5746   */\n  shr\n    /* \"#utility.yul\":5712:5746   */\n  swap1\n  pop\n    /* \"#utility.yul\":5651:5753   */\n  swap2\n  swap1\n  pop\n  jump\t// out\n    /* \"#utility.yul\":5759:6607   */\ntag_34:\n    /* \"#utility.yul\":5820:5825   */\n  0x00\n    /* \"#utility.yul\":5827:5831   */\n  0x00\n    /* \"#utility.yul\":5851:5857   */\n  dup3\n    /* \"#utility.yul\":5842:5857   */\n  swap2\n  pop\n    /* \"#utility.yul\":5875:5880   */\n  dup4\n    /* \"#utility.yul\":5866:5880   */\n  swap1\n  pop\n    /* \"#utility.yul\":5889:6601   */\ntag_103:\n    /* \"#utility.yul\":5910:5911   */\n  0x01\n    /* \"#utility.yul\":5900:5908   */\n  dup6\n    /* \"#utility.yul\":5897:5912   */\n  gt\n    /* \"#utility.yul\":5889:6601   */\n  iszero\n  tag_105\n  jumpi\n    /* \"#utility.yul\":6005:6009   */\n  dup1\n    /* \"#utility.yul\":6000:6003   */\n  dup7\n    /* \"#utility.yul\":5996:6010   */\n  div\n    /* \"#utility.yul\":5990:5994   */\n  dup2\n    /* \"#utility.yul\":5987:6011   */\n  gt\n    /* \"#utility.yul\":5984:6034   */\n  iszero\n  tag_106\n  jumpi\n    /* \"#utility.yul\":6014:6032   */\n  tag_107\n  tag_32\n  jump\t// in\ntag_107:\n    /* \"#utility.yul\":5984:6034   */\ntag_106:\n    /* \"#utility.yul\":6064:6065   */\n  0x01\n    /* \"#utility.yul\":6054:6062   */\n  dup6\n    /* \"#utility.yul\":6050:6066   */\n  and\n    /* \"#utility.yul\":6047:6498   */\n  iszero\n  tag_108\n  jumpi\n    /* \"#utility.yul\":6479:6483   */\n  dup1\n    /* \"#utility.yul\":6472:6477   */\n  dup3\n    /* \"#utility.yul\":6468:6484   */\n  mul\n    /* \"#utility.yul\":6459:6484   */\n  swap2\n  pop\n    /* \"#utility.yul\":6047:6498   */\ntag_108:\n    /* \"#utility.yul\":6529:6533   */\n  dup1\n    /* \"#utility.yul\":6523:6527   */\n  dup2\n    /* \"#utility.yul\":6519:6534   */\n  mul\n    /* \"#utility.yul\":6511:6534   */\n  swap1\n  pop\n    /* \"#utility.yul\":6559:6591   */\n  tag_109\n    /* \"#utility.yul\":6582:6590   */\n  dup6\n    /* \"#utility.yul\":6559:6591   */\n  tag_33\n  jump\t// in\ntag_109:\n    /* \"#utility.yul\":6547:6591   */\n  swap5\n  pop\n    /* \"#utility.yul\":5889:6601   */\n  jump(tag_103)\ntag_105:\n    /* \"#utility.yul\":5759:6607   */\n  swap5\n  pop\n  swap5\n  swap3\n  pop\n  pop\n  pop\n  jump\t// out\n    /* \"#utility.yul\":6613:7686   */\ntag_35:\n    /* \"#utility.yul\":6667:6672   */\n  0x00\n    /* \"#utility.yul\":6858:6866   */\n  dup3\n    /* \"#utility.yul\":6848:6888   */\n  tag_111\n  jumpi\n    /* \"#utility.yul\":6879:6880   */\n  0x01\n    /* \"#utility.yul\":6870:6880   */\n  swap1\n  pop\n    /* \"#utility.yul\":6881:6886   */\n  jump(tag_110)\n    /* \"#utility.yul\":6848:6888   */\ntag_111:\n    /* \"#utility.yul\":6907:6911   */\n  dup2\n    /* \"#utility.yul\":6897:6933   */\n  tag_112\n  jumpi\n    /* \"#utility.yul\":6924:6925   */\n  0x00\n    /* \"#utility.yul\":6915:6925   */\n  swap1\n  pop\n    /* \"#utility.yul\":6926:6931   */\n  jump(tag_110)\n    /* \"#utility.yul\":6897:6933   */\ntag_112:\n    /* \"#utility.yul\":6993:6997   */\n  dup2\n    /* \"#utility.yul\":7041:7042   */\n  0x01\n    /* \"#utility.yul\":7036:7063   */\n  dup2\n  eq\n  tag_114\n  jumpi\n    /* \"#utility.yul\":7077:7078   */\n  0x02\n    /* \"#utility.yul\":7072:7263   */\n  dup2\n  eq\n  tag_115\n  jumpi\n    /* \"#utility.yul\":6986:7263   */\n  jump(tag_113)\n    /* \"#utility.yul\":7036:7063   */\ntag_114:\n    /* \"#utility.yul\":7054:7055   */\n  0x01\n    /* \"#utility.yul\":7045:7055   */\n  swap2\n  pop\n    /* \"#utility.yul\":7056:7061   */\n  pop\n  jump(tag_110)\n    /* \"#utility.yul\":7072:7263   */\ntag_115:\n    /* \"#utility.yul\":7117:7120   */\n  0xff\n    /* \"#utility.yul\":7107:7115   */\n  dup5\n    /* \"#utility.yul\":7104:7121   */\n  gt\n    /* \"#utility.yul\":7101:7144   */\n  iszero\n  tag_116\n  jumpi\n    /* \"#utility.yul\":7124:7142   */\n  tag_117\n  tag_32\n  jump\t// in\ntag_117:\n    /* \"#utility.yul\":7101:7144   */\ntag_116:\n    /* \"#utility.yul\":7173:7181   */\n  dup4\n    /* \"#utility.yul\":7170:7171   */\n  0x02\n    /* \"#utility.yul\":7166:7182   */\n  exp\n    /* \"#utility.yul\":7157:7182   */\n  swap2\n  pop\n    /* \"#utility.yul\":7208:7211   */\n  dup5\n    /* \"#utility.yul\":7201:7206   */\n  dup3\n    /* \"#utility.yul\":7198:7212   */\n  gt\n    /* \"#utility.yul\":7195:7235   */\n  iszero\n  tag_118\n  jumpi\n    /* \"#utility.yul\":7215:7233   */\n  tag_119\n  tag_32\n  jump\t// in\ntag_119:\n    /* \"#utility.yul\":7195:7235   */\ntag_118:\n    /* \"#utility.yul\":7248:7253   */\n  pop\n  jump(tag_110)\n    /* \"#utility.yul\":6986:7263   */\ntag_113:\n  pop\n    /* \"#utility.yul\":7372:7374   */\n  0x20\n    /* \"#utility.yul\":7362:7370   */\n  dup4\n    /* \"#utility.yul\":7359:7375   */\n  lt\n    /* \"#utility.yul\":7353:7356   */\n  0x0133\n    /* \"#utility.yul\":7347:7351   */\n  dup4\n    /* \"#utility.yul\":7344:7357   */\n  lt\n    /* \"#utility.yul\":7340:7376   */\n  and\n    /* \"#utility.yul\":7322:7324   */\n  0x4e\n    /* \"#utility.yul\":7312:7320   */\n  dup5\n    /* \"#utility.yul\":7309:7325   */\n  lt\n    /* \"#utility.yul\":7304:7306   */\n  0x0b\n    /* \"#utility.yul\":7298:7302   */\n  dup5\n    /* \"#utility.yul\":7295:7307   */\n  lt\n    /* \"#utility.yul\":7291:7326   */\n  and\n    /* \"#utility.yul\":7275:7386   */\n  or\n    /* \"#utility.yul\":7272:7518   */\n  iszero\n  tag_120\n  jumpi\n    /* \"#utility.yul\":7428:7436   */\n  dup3\n    /* \"#utility.yul\":7422:7426   */\n  dup3\n    /* \"#utility.yul\":7418:7437   */\n  exp\n    /* \"#utility.yul\":7409:7437   */\n  swap1\n  pop\n    /* \"#utility.yul\":7463:7466   */\n  dup4\n    /* \"#utility.yul\":7456:7461   */\n  dup2\n    /* \"#utility.yul\":7453:7467   */\n  gt\n    /* \"#utility.yul\":7450:7490   */\n  iszero\n  tag_121\n  jumpi\n    /* \"#utility.yul\":7470:7488   */\n  tag_122\n  tag_32\n  jump\t// in\ntag_122:\n    /* \"#utility.yul\":7450:7490   */\ntag_121:\n    /* \"#utility.yul\":7503:7508   */\n  jump(tag_110)\n    /* \"#utility.yul\":7272:7518   */\ntag_120:\n    /* \"#utility.yul\":7543:7585   */\n  tag_123\n    /* \"#utility.yul\":7581:7584   */\n  dup5\n    /* \"#utility.yul\":7571:7579   */\n  dup5\n    /* \"#utility.yul\":7565:7569   */\n  dup5\n    /* \"#utility.yul\":7562:7563   */\n  0x01\n    /* \"#utility.yul\":7543:7585   */\n  tag_34\n  jump\t// in\ntag_123:\n    /* \"#utility.yul\":7528:7585   */\n  swap3\n  pop\n  swap1\n  pop\n    /* \"#utility.yul\":7617:7621   */\n  dup2\n    /* \"#utility.yul\":7612:7615   */\n  dup5\n    /* \"#utility.yul\":7608:7622   */\n  div\n    /* \"#utility.yul\":7601:7606   */\n  dup2\n    /* \"#utility.yul\":7598:7623   */\n  gt\n    /* \"#utility.yul\":7595:7646   */\n  iszero\n  tag_124\n  jumpi\n    /* \"#utility.yul\":7626:7644   */\n  tag_125\n  tag_32\n  jump\t// in\ntag_125:\n    /* \"#utility.yul\":7595:7646   */\ntag_124:\n    /* \"#utility.yul\":7675:7679   */\n  dup2\n    /* \"#utility.yul\":7668:7673   */\n  dup2\n    /* \"#utility.yul\":7664:7680   */\n  mul\n    /* \"#utility.yul\":7655:7680   */\n  swap1\n  pop\n    /* \"#utility.yul\":6613:7686   */\ntag_110:\n  swap4\n  swap3\n  pop\n  pop\n  pop\n  jump\t// out\n    /* \"#utility.yul\":7692:7778   */\ntag_36:\n    /* \"#utility.yul\":7727:7734   */\n  0x00\n    /* \"#utility.yul\":7767:7771   */\n  0xff\n    /* \"#utility.yul\":7760:7765   */\n  dup3\n    /* \"#utility.yul\":7756:7772   */\n  and\n    /* \"#utility.yul\":7745:7772   */\n  swap1\n  pop\n    /* \"#utility.yul\":7692:7778   */\n  swap2\n  swap1\n  pop\n  jump\t// out\n    /* \"#utility.yul\":7784:8065   */\ntag_8:\n    /* \"#utility.yul\":7842:7847   */\n  0x00\n    /* \"#utility.yul\":7866:7889   */\n  tag_128\n    /* \"#utility.yul\":7884:7888   */\n  dup3\n    /* \"#utility.yul\":7866:7889   */\n  tag_20\n  jump\t// in\ntag_128:\n    /* \"#utility.yul\":7858:7889   */\n  swap2\n  pop\n    /* \"#utility.yul\":7910:7935   */\n  tag_129\n    /* \"#utility.yul\":7926:7934   */\n  dup4\n    /* \"#utility.yul\":7910:7935   */\n  tag_36\n  jump\t// in\ntag_129:\n    /* \"#utility.yul\":7898:7935   */\n  swap3\n  pop\n    /* \"#utility.yul\":7954:8058   */\n  tag_130\n    /* \"#utility.yul\":7991:8057   */\n  0xffffffffffffffffffffffffffffffffffffffffffffffffffffffffffffffff\n    /* \"#utility.yul\":7981:7989   */\n  dup5\n    /* \"#utility.yul\":7975:7979   */\n  dup5\n    /* \"#utility.yul\":7954:8058   */\n  tag_35\n  jump\t// in\ntag_130:\n    /* \"#utility.yul\":7945:8058   */\n  swap1\n  pop\n    /* \"#utility.yul\":7784:8065   */\n  swap3\n  swap2\n  pop\n  pop\n  jump\t// out\n    /* \"#utility.yul\":8071:8481   */\ntag_10:\n    /* \"#utility.yul\":8111:8118   */\n  0x00\n    /* \"#utility.yul\":8134:8154   */\n  tag_132\n    /* \"#utility.yul\":8152:8153   */\n  dup3\n    /* \"#utility.yul\":8134:8154   */\n  tag_20\n  jump\t// in\ntag_132:\n    /* \"#utility.yul\":8129:8154   */\n  swap2\n  pop\n    /* \"#utility.yul\":8168:8188   */\n  tag_133\n    /* \"#utility.yul\":8186:8187   */\n  dup4\n    /* \"#utility.yul\":8168:8188   */\n  tag_20\n  jump\t// in\ntag_133:\n    /* \"#utility.yul\":8163:8188   */\n  swap3\n  pop\n    /* \"#utility.yul\":8223:8224   */\n  dup3\n    /* \"#utility.yul\":8220:8221   */\n  dup3\n    /* \"#utility.yul\":8216:8225   */\n  mul\n    /* \"#utility.yul\":8245:8275   */\n  tag_134\n    /* \"#utility.yul\":8263:8274   */\n  dup2\n    /* \"#utility.yul\":8245:8275   */\n  tag_20\n  jump\t// in\ntag_134:\n    /* \"#utility.yul\":8234:8275   */\n  swap2\n  pop\n    /* \"#utility.yul\":8424:8425   */\n  dup3\n    /* \"#utility.yul\":8415:8422   */\n  dup3\n    /* \"#utility.yul\":8411:8426   */\n  div\n    /* \"#utility.yul\":8408:8409   */\n  dup5\n    /* \"#utility.yul\":8405:8427   */\n  eq\n    /* \"#utility.yul\":8385:8386   */\n  dup4\n    /* \"#utility.yul\":8378:8387   */\n  iszero\n    /* \"#utility.yul\":8358:8441   */\n  or\n    /* \"#utility.yul\":8335:8474   */\n  tag_135\n  jumpi\n    /* \"#utility.yul\":8454:8472   */\n  tag_136\n  tag_32\n  jump\t// in\ntag_136:\n    /* \"#utility.yul\":8335:8474   */\ntag_135:\n    /* \"#utility.yul\":8119:8481   */\n  pop\n    /* \"#utility.yul\":8071:8481   */\n  swap3\n  swap2\n  pop\n  pop\n  jump\t// out\n    /* \"contracts/BasdERC20.sol\":212:3272  contract BaseERC20 {... */\ntag_11:\n  dataSize(sub_0)\n  dup1\n  dataOffset(sub_0)\n  0x00\n  codecopy\n  0x00\n  return\nstop\n\nsub_0: assembly {\n        /* \"contracts/BasdERC20.sol\":212:3272  contract BaseERC20 {... */\n      mstore(0x40, 0x80)\n      callvalue\n      dup1\n      iszero\n      tag_1\n      jumpi\n      revert(0x00, 0x00)\n    tag_1:\n      pop\n      jumpi(tag_2, lt(calldatasize, 0x04))\n      shr(0xe0, calldataload(0x00))\n      dup1\n      0x313ce567\n      gt\n      tag_13\n      jumpi\n      dup1\n      0x313ce567\n      eq\n      tag_8\n      jumpi\n      dup1\n      0x70a08231\n      eq\n      tag_9\n      jumpi\n      dup1\n      0x95d89b41\n      eq\n      tag_10\n      jumpi\n      dup1\n      0xa9059cbb\n      eq\n      tag_11\n      jumpi\n      dup1\n      0xdd62ed3e\n      eq\n      tag_12\n      jumpi\n      jump(tag_2)\n    tag_13:\n      dup1\n      0x06fdde03\n      eq\n      tag_3\n      jumpi\n      dup1\n      0x095ea7b3\n      eq\n      tag_4\n      jumpi\n      dup1\n      0x18160ddd\n      eq\n      tag_5\n      jumpi\n      dup1\n      0x1a825b75\n      eq\n      tag_6\n      jumpi\n      dup1\n      0x23b872dd\n      eq\n      tag_7\n      jumpi\n    tag_2:\n      revert(0x00, 0x00)\n        /* \"contracts/BasdERC20.sol\":240:258  string public name */\n    tag_3:\n      tag_14\n      tag_15\n      jump\t// in\n    tag_14:\n      mload(0x40)\n      tag_16\n      swap2\n      swap1\n      tag_17\n      jump\t// in\n    tag_16:\n      mload(0x40)\n      dup1\n      swap2\n      sub\n      swap1\n      return\n        /* \"contracts/BasdERC20.sol\":2725:2977  function approve(address _spender, uint256 _value) public returns (bool success) {... */\n    tag_4:\n      tag_18\n      0x04\n      dup1\n      calldatasize\n      sub\n      dup2\n      add\n      swap1\n      tag_19\n      swap2\n      swap1\n      tag_20\n      jump\t// in\n    tag_19:\n      tag_21\n      jump\t// in\n    tag_18:\n      mload(0x40)\n      tag_22\n      swap2\n      swap1\n      tag_23\n      jump\t// in\n    tag_22:\n      mload(0x40)\n      dup1\n      swap2\n      sub\n      swap1\n      return\n        /* \"contracts/BasdERC20.sol\":325:351  uint256 public totalSupply */\n    tag_5:\n      tag_24\n      tag_25\n      jump\t// in\n    tag_24:\n      mload(0x40)\n      tag_26\n      swap2\n      swap1\n      tag_27\n      jump\t// in\n    tag_26:\n      mload(0x40)\n      dup1\n      swap2\n      sub\n      swap1\n      return\n        /* \"contracts/BasdERC20.sol\":982:1276  function transferWithCallback(address to,uint value)external returns (bool){... */\n    tag_6:\n      tag_28\n      0x04\n      dup1\n      calldatasize\n      sub\n      dup2\n      add\n      swap1\n      tag_29\n      swap2\n      swap1\n      tag_20\n      jump\t// in\n    tag_29:\n      tag_30\n      jump\t// in\n    tag_28:\n      mload(0x40)\n      tag_31\n      swap2\n      swap1\n      tag_23\n      jump\t// in\n    tag_31:\n      mload(0x40)\n      dup1\n      swap2\n      sub\n      swap1\n      return\n        /* \"contracts/BasdERC20.sol\":2060:2641  function transferFrom(address _from, address _to, uint256 _value) public returns (bool success) {... */\n    tag_7:\n      tag_32\n      0x04\n      dup1\n      calldatasize\n      sub\n      dup2\n      add\n      swap1\n      tag_33\n      swap2\n      swap1\n      tag_34\n      jump\t// in\n    tag_33:\n      tag_35\n      jump\t// in\n    tag_32:\n      mload(0x40)\n      tag_36\n      swap2\n      swap1\n      tag_23\n      jump\t// in\n    tag_36:\n      mload(0x40)\n      dup1\n      swap2\n      sub\n      swap1\n      return\n        /* \"contracts/BasdERC20.sol\":294:315  uint8 public decimals */\n    tag_8:\n      tag_37\n      tag_38\n      jump\t// in\n    tag_37:\n      mload(0x40)\n      tag_39\n      swap2\n      swap1\n      tag_40\n      jump\t// in\n    tag_39:\n      mload(0x40)\n      dup1\n      swap2\n      sub\n      swap1\n      return\n        /* \"contracts/BasdERC20.sol\":1331:1481  function balanceOf(address _owner) public view returns (uint256 balance) {... */\n    tag_9:\n      tag_41\n      0x04\n      dup1\n      calldatasize\n      sub\n      dup2\n      add\n      swap1\n      tag_42\n      swap2\n      swap1\n      tag_43\n      jump\t// in\n    tag_42:\n      tag_44\n      jump\t// in\n    tag_41:\n      mload(0x40)\n      tag_45\n      swap2\n      swap1\n      tag_27\n      jump\t// in\n    tag_45:\n      mload(0x40)\n      dup1\n      swap2\n      sub\n      swap1\n      return\n        /* \"contracts/BasdERC20.sol\":266:286  string public symbol */\n    tag_10:\n      tag_46\n      tag_47\n      jump\t// in\n    tag_46:\n      mload(0x40)\n      tag_48\n      swap2\n      swap1\n      tag_17\n      jump\t// in\n    tag_48:\n      mload(0x40)\n      dup1\n      swap2\n      sub\n      swap1\n      return\n        /* \"contracts/BasdERC20.sol\":1552:1982  function transfer(address _to, uint256 _value) public returns (bool success) {... */\n    tag_11:\n      tag_49\n      0x04\n      dup1\n      calldatasize\n      sub\n      dup2\n      add\n      swap1\n      tag_50\n      swap2\n      swap1\n      tag_20\n      jump\t// in\n    tag_50:\n      tag_51\n      jump\t// in\n    tag_49:\n      mload(0x40)\n      tag_52\n      swap2\n      swap1\n      tag_23\n      jump\t// in\n    tag_52:\n      mload(0x40)\n      dup1\n      swap2\n      sub\n      swap1\n      return\n        /* \"contracts/BasdERC20.sol\":3079:3269  function allowance(address _owner, address _spender) public view returns (uint256 remaining) {   ... */\n    tag_12:\n      tag_53\n      0x04\n      dup1\n      calldatasize\n      sub\n      dup2\n      add\n      swap1\n      tag_54\n      swap2\n      swap1\n      tag_55\n      jump\t// in\n    tag_54:\n      tag_56\n      jump\t// in\n    tag_53:\n      mload(0x40)\n      tag_57\n      swap2\n      swap1\n      tag_27\n      jump\t// in\n    tag_57:\n      mload(0x40)\n      dup1\n      swap2\n      sub\n      swap1\n      return\n        /* \"contracts/BasdERC20.sol\":240:258  string public name */\n    tag_15:\n      0x00\n      dup1\n      sload\n      tag_58\n      swap1\n      tag_59\n      jump\t// in\n    tag_58:\n      dup1\n      0x1f\n      add\n      0x20\n      dup1\n      swap2\n      div\n      mul\n      0x20\n      add\n      mload(0x40)\n      swap1\n      dup2\n      add\n      0x40\n      mstore\n      dup1\n      swap3\n      swap2\n      swap1\n      dup2\n      dup2\n      mstore\n      0x20\n      add\n      dup3\n      dup1\n      sload\n      tag_60\n      swap1\n      tag_59\n      jump\t// in\n    tag_60:\n      dup1\n      iszero\n      tag_61\n      jumpi\n      dup1\n      0x1f\n      lt\n      tag_62\n      jumpi\n      0x0100\n      dup1\n      dup4\n      sload\n      div\n      mul\n      dup4\n      mstore\n      swap2\n      0x20\n      add\n      swap2\n      jump(tag_61)\n    tag_62:\n      dup3\n      add\n      swap2\n      swap1\n      0x00\n      mstore\n      keccak256(0x00, 0x20)\n      swap1\n    tag_63:\n      dup2\n      sload\n      dup2\n      mstore\n      swap1\n      0x01\n      add\n      swap1\n      0x20\n      add\n      dup1\n      dup4\n      gt\n      tag_63\n      jumpi\n      dup3\n      swap1\n      sub\n      0x1f\n      and\n      dup3\n      add\n      swap2\n    tag_61:\n      pop\n      pop\n      pop\n      pop\n      pop\n      dup2\n      jump\t// out\n        /* \"contracts/BasdERC20.sol\":2725:2977  function approve(address _spender, uint256 _value) public returns (bool success) {... */\n    tag_21:\n        /* \"contracts/BasdERC20.sol\":2792:2804  bool success */\n      0x00\n        /* \"contracts/BasdERC20.sol\":2883:2889  _value */\n      dup2\n        /* \"contracts/BasdERC20.sol\":2850:2860  allowances */\n      0x05\n        /* \"contracts/BasdERC20.sol\":2850:2872  allowances[msg.sender] */\n      0x00\n        /* \"contracts/BasdERC20.sol\":2861:2871  msg.sender */\n      caller\n        /* \"contracts/BasdERC20.sol\":2850:2872  allowances[msg.sender] */\n      0xffffffffffffffffffffffffffffffffffffffff\n      and\n      0xffffffffffffffffffffffffffffffffffffffff\n      and\n      dup2\n      mstore\n      0x20\n      add\n      swap1\n      dup2\n      mstore\n      0x20\n      add\n      0x00\n      keccak256\n        /* \"contracts/BasdERC20.sol\":2850:2882  allowances[msg.sender][_spender] */\n      0x00\n        /* \"contracts/BasdERC20.sol\":2873:2881  _spender */\n      dup6\n        /* \"contracts/BasdERC20.sol\":2850:2882  allowances[msg.sender][_spender] */\n      0xffffffffffffffffffffffffffffffffffffffff\n      and\n      0xffffffffffffffffffffffffffffffffffffffff\n      and\n      dup2\n      mstore\n      0x20\n      add\n      swap1\n      dup2\n      mstore\n      0x20\n      add\n      0x00\n      keccak256\n        /* \"contracts/BasdERC20.sol\":2850:2889  allowances[msg.sender][_spender]=_value */\n      dup2\n      swap1\n      sstore\n      pop\n        /* \"contracts/BasdERC20.sol\":2928:2936  _spender */\n      dup3\n        /* \"contracts/BasdERC20.sol\":2907:2945  Approval(msg.sender, _spender, _value) */\n      0xffffffffffffffffffffffffffffffffffffffff\n      and\n        /* \"contracts/BasdERC20.sol\":2916:2926  msg.sender */\n      caller\n        /* \"contracts/BasdERC20.sol\":2907:2945  Approval(msg.sender, _spender, _value) */\n      0xffffffffffffffffffffffffffffffffffffffff\n      and\n      0x8c5be1e5ebec7d5bd14f71427d1e84f3dd0314c0f7b2291e5b200ac8c7c3b925\n        /* \"contracts/BasdERC20.sol\":2938:2944  _value */\n      dup5\n        /* \"contracts/BasdERC20.sol\":2907:2945  Approval(msg.sender, _spender, _value) */\n      mload(0x40)\n      tag_65\n      swap2\n      swap1\n      tag_27\n      jump\t// in\n    tag_65:\n      mload(0x40)\n      dup1\n      swap2\n      sub\n      swap1\n      log3\n        /* \"contracts/BasdERC20.sol\":2964:2968  true */\n      0x01\n        /* \"contracts/BasdERC20.sol\":2957:2968  return true */\n      swap1\n      pop\n        /* \"contracts/BasdERC20.sol\":2725:2977  function approve(address _spender, uint256 _value) public returns (bool success) {... */\n      swap3\n      swap2\n      pop\n      pop\n      jump\t// out\n        /* \"contracts/BasdERC20.sol\":325:351  uint256 public totalSupply */\n    tag_25:\n      sload(0x03)\n      dup2\n      jump\t// out\n        /* \"contracts/BasdERC20.sol\":982:1276  function transferWithCallback(address to,uint value)external returns (bool){... */\n    tag_30:\n        /* \"contracts/BasdERC20.sol\":1052:1056  bool */\n      0x00\n        /* \"contracts/BasdERC20.sol\":1068:1086  transfer(to,value) */\n      tag_67\n        /* \"contracts/BasdERC20.sol\":1077:1079  to */\n      dup4\n        /* \"contracts/BasdERC20.sol\":1080:1085  value */\n      dup4\n        /* \"contracts/BasdERC20.sol\":1068:1076  transfer */\n      tag_51\n        /* \"contracts/BasdERC20.sol\":1068:1086  transfer(to,value) */\n      jump\t// in\n    tag_67:\n      pop\n        /* \"contracts/BasdERC20.sol\":1118:1119  0 */\n      0x00\n        /* \"contracts/BasdERC20.sol\":1101:1103  to */\n      dup4\n        /* \"contracts/BasdERC20.sol\":1101:1115  to.code.length */\n      0xffffffffffffffffffffffffffffffffffffffff\n      and\n      extcodesize\n        /* \"contracts/BasdERC20.sol\":1101:1119  to.code.length > 0 */\n      gt\n        /* \"contracts/BasdERC20.sol\":1097:1247  if (to.code.length > 0){... */\n      iszero\n      tag_68\n      jumpi\n        /* \"contracts/BasdERC20.sol\":1135:1147  bool success */\n      0x00\n        /* \"contracts/BasdERC20.sol\":1157:1159  to */\n      dup4\n        /* \"contracts/BasdERC20.sol\":1150:1175  IERC20(to).tokensReceived */\n      0xffffffffffffffffffffffffffffffffffffffff\n      and\n      0x24a756d1\n        /* \"contracts/BasdERC20.sol\":1176:1186  msg.sender */\n      caller\n        /* \"contracts/BasdERC20.sol\":1187:1192  value */\n      dup6\n        /* \"contracts/BasdERC20.sol\":1150:1193  IERC20(to).tokensReceived(msg.sender,value) */\n      mload(0x40)\n      dup4\n      0xffffffff\n      and\n      0xe0\n      shl\n      dup2\n      mstore\n      0x04\n      add\n      tag_69\n      swap3\n      swap2\n      swap1\n      tag_70\n      jump\t// in\n    tag_69:\n      0x20\n      mload(0x40)\n      dup1\n      dup4\n      sub\n      dup2\n      0x00\n      dup8\n      gas\n      call\n      iszero\n      dup1\n      iszero\n      tag_72\n      jumpi\n      returndatacopy(0x00, 0x00, returndatasize)\n      revert(0x00, returndatasize)\n    tag_72:\n      pop\n      pop\n      pop\n      pop\n      mload(0x40)\n      returndatasize\n      not(0x1f)\n      0x1f\n      dup3\n      add\n      and\n      dup3\n      add\n      dup1\n      0x40\n      mstore\n      pop\n      dup2\n      add\n      swap1\n      tag_73\n      swap2\n      swap1\n      tag_74\n      jump\t// in\n    tag_73:\n        /* \"contracts/BasdERC20.sol\":1135:1193  bool success = IERC20(to).tokensReceived(msg.sender,value) */\n      swap1\n      pop\n        /* \"contracts/BasdERC20.sol\":1216:1223  success */\n      dup1\n        /* \"contracts/BasdERC20.sol\":1208:1235  require(success,\"No ERC20\") */\n      tag_75\n      jumpi\n      mload(0x40)\n      0x08c379a000000000000000000000000000000000000000000000000000000000\n      dup2\n      mstore\n      0x04\n      add\n      tag_76\n      swap1\n      tag_77\n      jump\t// in\n    tag_76:\n      mload(0x40)\n      dup1\n      swap2\n      sub\n      swap1\n      revert\n    tag_75:\n        /* \"contracts/BasdERC20.sol\":1120:1247  {... */\n      pop\n        /* \"contracts/BasdERC20.sol\":1097:1247  if (to.code.length > 0){... */\n    tag_68:\n        /* \"contracts/BasdERC20.sol\":1264:1268  true */\n      0x01\n        /* \"contracts/BasdERC20.sol\":1257:1268  return true */\n      swap1\n      pop\n        /* \"contracts/BasdERC20.sol\":982:1276  function transferWithCallback(address to,uint value)external returns (bool){... */\n      swap3\n      swap2\n      pop\n      pop\n      jump\t// out\n        /* \"contracts/BasdERC20.sol\":2060:2641  function transferFrom(address _from, address _to, uint256 _value) public returns (bool success) {... */\n    tag_35:\n        /* \"contracts/BasdERC20.sol\":2142:2154  bool success */\n      0x00\n        /* \"contracts/BasdERC20.sol\":2216:2224  balances */\n      0x04\n        /* \"contracts/BasdERC20.sol\":2216:2231  balances[_from] */\n      0x00\n        /* \"contracts/BasdERC20.sol\":2225:2230  _from */\n      dup6\n        /* \"contracts/BasdERC20.sol\":2216:2231  balances[_from] */\n      0xffffffffffffffffffffffffffffffffffffffff\n      and\n      0xffffffffffffffffffffffffffffffffffffffff\n      and\n      dup2\n      mstore\n      0x20\n      add\n      swap1\n      dup2\n      mstore\n      0x20\n      add\n      0x00\n      keccak256\n      sload\n        /* \"contracts/BasdERC20.sol\":2208:2214  _value */\n      dup3\n        /* \"contracts/BasdERC20.sol\":2208:2231  _value<=balances[_from] */\n      gt\n      iszero\n        /* \"contracts/BasdERC20.sol\":2200:2273  require(_value<=balances[_from],\"ERC20: transfer amount exceeds balance\") */\n      tag_79\n      jumpi\n      mload(0x40)\n      0x08c379a000000000000000000000000000000000000000000000000000000000\n      dup2\n      mstore\n      0x04\n      add\n      tag_80\n      swap1\n      tag_81\n      jump\t// in\n    tag_80:\n      mload(0x40)\n      dup1\n      swap2\n      sub\n      swap1\n      revert\n    tag_79:\n        /* \"contracts/BasdERC20.sol\":2300:2310  allowances */\n      0x05\n        /* \"contracts/BasdERC20.sol\":2300:2317  allowances[_from] */\n      0x00\n        /* \"contracts/BasdERC20.sol\":2311:2316  _from */\n      dup6\n        /* \"contracts/BasdERC20.sol\":2300:2317  allowances[_from] */\n      0xffffffffffffffffffffffffffffffffffffffff\n      and\n      0xffffffffffffffffffffffffffffffffffffffff\n      and\n      dup2\n      mstore\n      0x20\n      add\n      swap1\n      dup2\n      mstore\n      0x20\n      add\n      0x00\n      keccak256\n        /* \"contracts/BasdERC20.sol\":2300:2329  allowances[_from][msg.sender] */\n      0x00\n        /* \"contracts/BasdERC20.sol\":2318:2328  msg.sender */\n      caller\n        /* \"contracts/BasdERC20.sol\":2300:2329  allowances[_from][msg.sender] */\n      0xffffffffffffffffffffffffffffffffffffffff\n      and\n      0xffffffffffffffffffffffffffffffffffffffff\n      and\n      dup2\n      mstore\n      0x20\n      add\n      swap1\n      dup2\n      mstore\n      0x20\n      add\n      0x00\n      keccak256\n      sload\n        /* \"contracts/BasdERC20.sol\":2292:2298  _value */\n      dup3\n        /* \"contracts/BasdERC20.sol\":2292:2329  _value<=allowances[_from][msg.sender] */\n      gt\n      iszero\n        /* \"contracts/BasdERC20.sol\":2284:2373  require(_value<=allowances[_from][msg.sender],\"ERC20: transfer amount exceeds allowance\") */\n      tag_82\n      jumpi\n      mload(0x40)\n      0x08c379a000000000000000000000000000000000000000000000000000000000\n      dup2\n      mstore\n      0x04\n      add\n      tag_83\n      swap1\n      tag_84\n      jump\t// in\n    tag_83:\n      mload(0x40)\n      dup1\n      swap2\n      sub\n      swap1\n      revert\n    tag_82:\n        /* \"contracts/BasdERC20.sol\":2405:2406  0 */\n      0x00\n        /* \"contracts/BasdERC20.sol\":2392:2407  _to!=address(0) */\n      0xffffffffffffffffffffffffffffffffffffffff\n      and\n        /* \"contracts/BasdERC20.sol\":2392:2395  _to */\n      dup4\n        /* \"contracts/BasdERC20.sol\":2392:2407  _to!=address(0) */\n      0xffffffffffffffffffffffffffffffffffffffff\n      and\n      sub\n        /* \"contracts/BasdERC20.sol\":2384:2441  require(_to!=address(0),\"address must not be address(0)\") */\n      tag_85\n      jumpi\n      mload(0x40)\n      0x08c379a000000000000000000000000000000000000000000000000000000000\n      dup2\n      mstore\n      0x04\n      add\n      tag_86\n      swap1\n      tag_87\n      jump\t// in\n    tag_86:\n      mload(0x40)\n      dup1\n      swap2\n      sub\n      swap1\n      revert\n    tag_85:\n        /* \"contracts/BasdERC20.sol\":2469:2475  _value */\n      dup2\n        /* \"contracts/BasdERC20.sol\":2452:2460  balances */\n      0x04\n        /* \"contracts/BasdERC20.sol\":2452:2467  balances[_from] */\n      0x00\n        /* \"contracts/BasdERC20.sol\":2461:2466  _from */\n      dup7\n        /* \"contracts/BasdERC20.sol\":2452:2467  balances[_from] */\n      0xffffffffffffffffffffffffffffffffffffffff\n      and\n      0xffffffffffffffffffffffffffffffffffffffff\n      and\n      dup2\n      mstore\n      0x20\n      add\n      swap1\n      dup2\n      mstore\n      0x20\n      add\n      0x00\n      keccak256\n      0x00\n        /* \"contracts/BasdERC20.sol\":2452:2475  balances[_from]-=_value */\n      dup3\n      dup3\n      sload\n      tag_88\n      swap2\n      swap1\n      tag_89\n      jump\t// in\n    tag_88:\n      swap3\n      pop\n      pop\n      dup2\n      swap1\n      sstore\n      pop\n        /* \"contracts/BasdERC20.sol\":2501:2507  _value */\n      dup2\n        /* \"contracts/BasdERC20.sol\":2486:2494  balances */\n      0x04\n        /* \"contracts/BasdERC20.sol\":2486:2499  balances[_to] */\n      0x00\n        /* \"contracts/BasdERC20.sol\":2495:2498  _to */\n      dup6\n        /* \"contracts/BasdERC20.sol\":2486:2499  balances[_to] */\n      0xffffffffffffffffffffffffffffffffffffffff\n      and\n      0xffffffffffffffffffffffffffffffffffffffff\n      and\n      dup2\n      mstore\n      0x20\n      add\n      swap1\n      dup2\n      mstore\n      0x20\n      add\n      0x00\n      keccak256\n      0x00\n        /* \"contracts/BasdERC20.sol\":2486:2507  balances[_to]+=_value */\n      dup3\n      dup3\n      sload\n      tag_90\n      swap2\n      swap1\n      tag_91\n      jump\t// in\n    tag_90:\n      swap3\n      pop\n      pop\n      dup2\n      swap1\n      sstore\n      pop\n        /* \"contracts/BasdERC20.sol\":2549:2555  _value */\n      dup2\n        /* \"contracts/BasdERC20.sol\":2518:2528  allowances */\n      0x05\n        /* \"contracts/BasdERC20.sol\":2518:2535  allowances[_from] */\n      0x00\n        /* \"contracts/BasdERC20.sol\":2529:2534  _from */\n      dup7\n        /* \"contracts/BasdERC20.sol\":2518:2535  allowances[_from] */\n      0xffffffffffffffffffffffffffffffffffffffff\n      and\n      0xffffffffffffffffffffffffffffffffffffffff\n      and\n      dup2\n      mstore\n      0x20\n      add\n      swap1\n      dup2\n      mstore\n      0x20\n      add\n      0x00\n      keccak256\n        /* \"contracts/BasdERC20.sol\":2518:2547  allowances[_from][msg.sender] */\n      0x00\n        /* \"contracts/BasdERC20.sol\":2536:2546  msg.sender */\n      caller\n        /* \"contracts/BasdERC20.sol\":2518:2547  allowances[_from][msg.sender] */\n      0xffffffffffffffffffffffffffffffffffffffff\n      and\n      0xffffffffffffffffffffffffffffffffffffffff\n      and\n      dup2\n      mstore\n      0x20\n      add\n      swap1\n      dup2\n      mstore\n      0x20\n      add\n      0x00\n      keccak256\n      0x00\n        /* \"contracts/BasdERC20.sol\":2518:2555  allowances[_from][msg.sender]-=_value */\n      dup3\n      dup3\n      sload\n      tag_92\n      swap2\n      swap1\n      tag_89\n      jump\t// in\n    tag_92:\n      swap3\n      pop\n      pop\n      dup2\n      swap1\n      sstore\n      pop\n        /* \"contracts/BasdERC20.sol\":2597:2600  _to */\n      dup3\n        /* \"contracts/BasdERC20.sol\":2581:2609  Transfer(_from, _to, _value) */\n      0xffffffffffffffffffffffffffffffffffffffff\n      and\n        /* \"contracts/BasdERC20.sol\":2590:2595  _from */\n      dup5\n        /* \"contracts/BasdERC20.sol\":2581:2609  Transfer(_from, _to, _value) */\n      0xffffffffffffffffffffffffffffffffffffffff\n      and\n      0xddf252ad1be2c89b69c2b068fc378daa952ba7f163c4a11628f55a4df523b3ef\n        /* \"contracts/BasdERC20.sol\":2602:2608  _value */\n      dup5\n        /* \"contracts/BasdERC20.sol\":2581:2609  Transfer(_from, _to, _value) */\n      mload(0x40)\n      tag_93\n      swap2\n      swap1\n      tag_27\n      jump\t// in\n    tag_93:\n      mload(0x40)\n      dup1\n      swap2\n      sub\n      swap1\n      log3\n        /* \"contracts/BasdERC20.sol\":2628:2632  true */\n      0x01\n        /* \"contracts/BasdERC20.sol\":2621:2632  return true */\n      swap1\n      pop\n        /* \"contracts/BasdERC20.sol\":2060:2641  function transferFrom(address _from, address _to, uint256 _value) public returns (bool success) {... */\n      swap4\n      swap3\n      pop\n      pop\n      pop\n      jump\t// out\n        /* \"contracts/BasdERC20.sol\":294:315  uint8 public decimals */\n    tag_38:\n      0x02\n      0x00\n      swap1\n      sload\n      swap1\n      0x0100\n      exp\n      swap1\n      div\n      0xff\n      and\n      dup2\n      jump\t// out\n        /* \"contracts/BasdERC20.sol\":1331:1481  function balanceOf(address _owner) public view returns (uint256 balance) {... */\n    tag_44:\n        /* \"contracts/BasdERC20.sol\":1387:1402  uint256 balance */\n      0x00\n        /* \"contracts/BasdERC20.sol\":1455:1463  balances */\n      0x04\n        /* \"contracts/BasdERC20.sol\":1455:1471  balances[_owner] */\n      0x00\n        /* \"contracts/BasdERC20.sol\":1464:1470  _owner */\n      dup4\n        /* \"contracts/BasdERC20.sol\":1455:1471  balances[_owner] */\n      0xffffffffffffffffffffffffffffffffffffffff\n      and\n      0xffffffffffffffffffffffffffffffffffffffff\n      and\n      dup2\n      mstore\n      0x20\n      add\n      swap1\n      dup2\n      mstore\n      0x20\n      add\n      0x00\n      keccak256\n      sload\n        /* \"contracts/BasdERC20.sol\":1448:1471  return balances[_owner] */\n      swap1\n      pop\n        /* \"contracts/BasdERC20.sol\":1331:1481  function balanceOf(address _owner) public view returns (uint256 balance) {... */\n      swap2\n      swap1\n      pop\n      jump\t// out\n        /* \"contracts/BasdERC20.sol\":266:286  string public symbol */\n    tag_47:\n      0x01\n      dup1\n      sload\n      tag_95\n      swap1\n      tag_59\n      jump\t// in\n    tag_95:\n      dup1\n      0x1f\n      add\n      0x20\n      dup1\n      swap2\n      div\n      mul\n      0x20\n      add\n      mload(0x40)\n      swap1\n      dup2\n      add\n      0x40\n      mstore\n      dup1\n      swap3\n      swap2\n      swap1\n      dup2\n      dup2\n      mstore\n      0x20\n      add\n      dup3\n      dup1\n      sload\n      tag_96\n      swap1\n      tag_59\n      jump\t// in\n    tag_96:\n      dup1\n      iszero\n      tag_97\n      jumpi\n      dup1\n      0x1f\n      lt\n      tag_98\n      jumpi\n      0x0100\n      dup1\n      dup4\n      sload\n      div\n      mul\n      dup4\n      mstore\n      swap2\n      0x20\n      add\n      swap2\n      jump(tag_97)\n    tag_98:\n      dup3\n      add\n      swap2\n      swap1\n      0x00\n      mstore\n      keccak256(0x00, 0x20)\n      swap1\n    tag_99:\n      dup2\n      sload\n      dup2\n      mstore\n      swap1\n      0x01\n      add\n      swap1\n      0x20\n      add\n      dup1\n      dup4\n      gt\n      tag_99\n      jumpi\n      dup3\n      swap1\n      sub\n      0x1f\n      and\n      dup3\n      add\n      swap2\n    tag_97:\n      pop\n      pop\n      pop\n      pop\n      pop\n      dup2\n      jump\t// out\n        /* \"contracts/BasdERC20.sol\":1552:1982  function transfer(address _to, uint256 _value) public returns (bool success) {... */\n    tag_51:\n        /* \"contracts/BasdERC20.sol\":1615:1627  bool success */\n      0x00\n        /* \"contracts/BasdERC20.sol\":1691:1699  balances */\n      0x04\n        /* \"contracts/BasdERC20.sol\":1691:1711  balances[msg.sender] */\n      0x00\n        /* \"contracts/BasdERC20.sol\":1700:1710  msg.sender */\n      caller\n        /* \"contracts/BasdERC20.sol\":1691:1711  balances[msg.sender] */\n      0xffffffffffffffffffffffffffffffffffffffff\n      and\n      0xffffffffffffffffffffffffffffffffffffffff\n      and\n      dup2\n      mstore\n      0x20\n      add\n      swap1\n      dup2\n      mstore\n      0x20\n      add\n      0x00\n      keccak256\n      sload\n        /* \"contracts/BasdERC20.sol\":1683:1689  _value */\n      dup3\n        /* \"contracts/BasdERC20.sol\":1683:1711  _value<=balances[msg.sender] */\n      gt\n      iszero\n        /* \"contracts/BasdERC20.sol\":1675:1753  require(_value<=balances[msg.sender],\"ERC20: transfer amount exceeds balance\") */\n      tag_101\n      jumpi\n      mload(0x40)\n      0x08c379a000000000000000000000000000000000000000000000000000000000\n      dup2\n      mstore\n      0x04\n      add\n      tag_102\n      swap1\n      tag_81\n      jump\t// in\n    tag_102:\n      mload(0x40)\n      dup1\n      swap2\n      sub\n      swap1\n      revert\n    tag_101:\n        /* \"contracts/BasdERC20.sol\":1787:1788  0 */\n      0x00\n        /* \"contracts/BasdERC20.sol\":1772:1789  _to != address(0) */\n      0xffffffffffffffffffffffffffffffffffffffff\n      and\n        /* \"contracts/BasdERC20.sol\":1772:1775  _to */\n      dup4\n        /* \"contracts/BasdERC20.sol\":1772:1789  _to != address(0) */\n      0xffffffffffffffffffffffffffffffffffffffff\n      and\n      sub\n        /* \"contracts/BasdERC20.sol\":1764:1823  require(_to != address(0),\"address must not be address(0)\") */\n      tag_103\n      jumpi\n      mload(0x40)\n      0x08c379a000000000000000000000000000000000000000000000000000000000\n      dup2\n      mstore\n      0x04\n      add\n      tag_104\n      swap1\n      tag_87\n      jump\t// in\n    tag_104:\n      mload(0x40)\n      dup1\n      swap2\n      sub\n      swap1\n      revert\n    tag_103:\n        /* \"contracts/BasdERC20.sol\":1858:1864  _value */\n      dup2\n        /* \"contracts/BasdERC20.sol\":1836:1844  balances */\n      0x04\n        /* \"contracts/BasdERC20.sol\":1836:1856  balances[msg.sender] */\n      0x00\n        /* \"contracts/BasdERC20.sol\":1845:1855  msg.sender */\n      caller\n        /* \"contracts/BasdERC20.sol\":1836:1856  balances[msg.sender] */\n      0xffffffffffffffffffffffffffffffffffffffff\n      and\n      0xffffffffffffffffffffffffffffffffffffffff\n      and\n      dup2\n      mstore\n      0x20\n      add\n      swap1\n      dup2\n      mstore\n      0x20\n      add\n      0x00\n      keccak256\n      0x00\n        /* \"contracts/BasdERC20.sol\":1836:1864  balances[msg.sender]-=_value */\n      dup3\n      dup3\n      sload\n      tag_105\n      swap2\n      swap1\n      tag_89\n      jump\t// in\n    tag_105:\n      swap3\n      pop\n      pop\n      dup2\n      swap1\n      sstore\n      pop\n        /* \"contracts/BasdERC20.sol\":1890:1896  _value */\n      dup2\n        /* \"contracts/BasdERC20.sol\":1875:1883  balances */\n      0x04\n        /* \"contracts/BasdERC20.sol\":1875:1888  balances[_to] */\n      0x00\n        /* \"contracts/BasdERC20.sol\":1884:1887  _to */\n      dup6\n        /* \"contracts/BasdERC20.sol\":1875:1888  balances[_to] */\n      0xffffffffffffffffffffffffffffffffffffffff\n      and\n      0xffffffffffffffffffffffffffffffffffffffff\n      and\n      dup2\n      mstore\n      0x20\n      add\n      swap1\n      dup2\n      mstore\n      0x20\n      add\n      0x00\n      keccak256\n      0x00\n        /* \"contracts/BasdERC20.sol\":1875:1896  balances[_to]+=_value */\n      dup3\n      dup3\n      sload\n      tag_106\n      swap2\n      swap1\n      tag_91\n      jump\t// in\n    tag_106:\n      swap3\n      pop\n      pop\n      dup2\n      swap1\n      sstore\n      pop\n        /* \"contracts/BasdERC20.sol\":1935:1938  _to */\n      dup3\n        /* \"contracts/BasdERC20.sol\":1914:1947  Transfer(msg.sender, _to, _value) */\n      0xffffffffffffffffffffffffffffffffffffffff\n      and\n        /* \"contracts/BasdERC20.sol\":1923:1933  msg.sender */\n      caller\n        /* \"contracts/BasdERC20.sol\":1914:1947  Transfer(msg.sender, _to, _value) */\n      0xffffffffffffffffffffffffffffffffffffffff\n      and\n      0xddf252ad1be2c89b69c2b068fc378daa952ba7f163c4a11628f55a4df523b3ef\n        /* \"contracts/BasdERC20.sol\":1940:1946  _value */\n      dup5\n        /* \"contracts/BasdERC20.sol\":1914:1947  Transfer(msg.sender, _to, _value) */\n      mload(0x40)\n      tag_107\n      swap2\n      swap1\n      tag_27\n      jump\t// in\n    tag_107:\n      mload(0x40)\n      dup1\n      swap2\n      sub\n      swap1\n      log3\n        /* \"contracts/BasdERC20.sol\":1967:1971  true */\n      0x01\n        /* \"contracts/BasdERC20.sol\":1960:1971  return true */\n      swap1\n      pop\n        /* \"contracts/BasdERC20.sol\":1552:1982  function transfer(address _to, uint256 _value) public returns (bool success) {... */\n      swap3\n      swap2\n      pop\n      pop\n      jump\t// out\n        /* \"contracts/BasdERC20.sol\":3079:3269  function allowance(address _owner, address _spender) public view returns (uint256 remaining) {   ... */\n    tag_56:\n        /* \"contracts/BasdERC20.sol\":3153:3170  uint256 remaining */\n      0x00\n        /* \"contracts/BasdERC20.sol\":3231:3241  allowances */\n      0x05\n        /* \"contracts/BasdERC20.sol\":3231:3249  allowances[_owner] */\n      0x00\n        /* \"contracts/BasdERC20.sol\":3242:3248  _owner */\n      dup5\n        /* \"contracts/BasdERC20.sol\":3231:3249  allowances[_owner] */\n      0xffffffffffffffffffffffffffffffffffffffff\n      and\n      0xffffffffffffffffffffffffffffffffffffffff\n      and\n      dup2\n      mstore\n      0x20\n      add\n      swap1\n      dup2\n      mstore\n      0x20\n      add\n      0x00\n      keccak256\n        /* \"contracts/BasdERC20.sol\":3231:3259  allowances[_owner][_spender] */\n      0x00\n        /* \"contracts/BasdERC20.sol\":3250:3258  _spender */\n      dup4\n        /* \"contracts/BasdERC20.sol\":3231:3259  allowances[_owner][_spender] */\n      0xffffffffffffffffffffffffffffffffffffffff\n      and\n      0xffffffffffffffffffffffffffffffffffffffff\n      and\n      dup2\n      mstore\n      0x20\n      add\n      swap1\n      dup2\n      mstore\n      0x20\n      add\n      0x00\n      keccak256\n      sload\n        /* \"contracts/BasdERC20.sol\":3224:3259  return allowances[_owner][_spender] */\n      swap1\n      pop\n        /* \"contracts/BasdERC20.sol\":3079:3269  function allowance(address _owner, address _spender) public view returns (uint256 remaining) {   ... */\n      swap3\n      swap2\n      pop\n      pop\n      jump\t// out\n        /* \"#utility.yul\":7:106   */\n    tag_109:\n        /* \"#utility.yul\":59:65   */\n      0x00\n        /* \"#utility.yul\":93:98   */\n      dup2\n        /* \"#utility.yul\":87:99   */\n      mload\n        /* \"#utility.yul\":77:99   */\n      swap1\n      pop\n        /* \"#utility.yul\":7:106   */\n      swap2\n      swap1\n      pop\n      jump\t// out\n        /* \"#utility.yul\":112:281   */\n    tag_110:\n        /* \"#utility.yul\":196:207   */\n      0x00\n        /* \"#utility.yul\":230:236   */\n      dup3\n        /* \"#utility.yul\":225:228   */\n      dup3\n        /* \"#utility.yul\":218:237   */\n      mstore\n        /* \"#utility.yul\":270:274   */\n      0x20\n        /* \"#utility.yul\":265:268   */\n      dup3\n        /* \"#utility.yul\":261:275   */\n      add\n        /* \"#utility.yul\":246:275   */\n      swap1\n      pop\n        /* \"#utility.yul\":112:281   */\n      swap3\n      swap2\n      pop\n      pop\n      jump\t// out\n        /* \"#utility.yul\":287:426   */\n    tag_111:\n        /* \"#utility.yul\":376:382   */\n      dup3\n        /* \"#utility.yul\":371:374   */\n      dup2\n        /* \"#utility.yul\":366:369   */\n      dup4\n        /* \"#utility.yul\":360:383   */\n      mcopy\n        /* \"#utility.yul\":417:418   */\n      0x00\n        /* \"#utility.yul\":408:414   */\n      dup4\n        /* \"#utility.yul\":403:406   */\n      dup4\n        /* \"#utility.yul\":399:415   */\n      add\n        /* \"#utility.yul\":392:419   */\n      mstore\n        /* \"#utility.yul\":287:426   */\n      pop\n      pop\n      pop\n      jump\t// out\n        /* \"#utility.yul\":432:534   */\n    tag_112:\n        /* \"#utility.yul\":473:479   */\n      0x00\n        /* \"#utility.yul\":524:526   */\n      0x1f\n        /* \"#utility.yul\":520:527   */\n      not\n        /* \"#utility.yul\":515:517   */\n      0x1f\n        /* \"#utility.yul\":508:513   */\n      dup4\n        /* \"#utility.yul\":504:518   */\n      add\n        /* \"#utility.yul\":500:528   */\n      and\n        /* \"#utility.yul\":490:528   */\n      swap1\n      pop\n        /* \"#utility.yul\":432:534   */\n      swap2\n      swap1\n      pop\n      jump\t// out\n        /* \"#utility.yul\":540:917   */\n    tag_113:\n        /* \"#utility.yul\":628:631   */\n      0x00\n        /* \"#utility.yul\":656:695   */\n      tag_148\n        /* \"#utility.yul\":689:694   */\n      dup3\n        /* \"#utility.yul\":656:695   */\n      tag_109\n      jump\t// in\n    tag_148:\n        /* \"#utility.yul\":711:782   */\n      tag_149\n        /* \"#utility.yul\":775:781   */\n      dup2\n        /* \"#utility.yul\":770:773   */\n      dup6\n        /* \"#utility.yul\":711:782   */\n      tag_110\n      jump\t// in\n    tag_149:\n        /* \"#utility.yul\":704:782   */\n      swap4\n      pop\n        /* \"#utility.yul\":791:856   */\n      tag_150\n        /* \"#utility.yul\":849:855   */\n      dup2\n        /* \"#utility.yul\":844:847   */\n      dup6\n        /* \"#utility.yul\":837:841   */\n      0x20\n        /* \"#utility.yul\":830:835   */\n      dup7\n        /* \"#utility.yul\":826:842   */\n      add\n        /* \"#utility.yul\":791:856   */\n      tag_111\n      jump\t// in\n    tag_150:\n        /* \"#utility.yul\":881:910   */\n      tag_151\n        /* \"#utility.yul\":903:909   */\n      dup2\n        /* \"#utility.yul\":881:910   */\n      tag_112\n      jump\t// in\n    tag_151:\n        /* \"#utility.yul\":876:879   */\n      dup5\n        /* \"#utility.yul\":872:911   */\n      add\n        /* \"#utility.yul\":865:911   */\n      swap2\n      pop\n        /* \"#utility.yul\":632:917   */\n      pop\n        /* \"#utility.yul\":540:917   */\n      swap3\n      swap2\n      pop\n      pop\n      jump\t// out\n        /* \"#utility.yul\":923:1236   */\n    tag_17:\n        /* \"#utility.yul\":1036:1040   */\n      0x00\n        /* \"#utility.yul\":1074:1076   */\n      0x20\n        /* \"#utility.yul\":1063:1072   */\n      dup3\n        /* \"#utility.yul\":1059:1077   */\n      add\n        /* \"#utility.yul\":1051:1077   */\n      swap1\n      pop\n        /* \"#utility.yul\":1123:1132   */\n      dup2\n        /* \"#utility.yul\":1117:1121   */\n      dup2\n        /* \"#utility.yul\":1113:1133   */\n      sub\n        /* \"#utility.yul\":1109:1110   */\n      0x00\n        /* \"#utility.yul\":1098:1107   */\n      dup4\n        /* \"#utility.yul\":1094:1111   */\n      add\n        /* \"#utility.yul\":1087:1134   */\n      mstore\n        /* \"#utility.yul\":1151:1229   */\n      tag_153\n        /* \"#utility.yul\":1224:1228   */\n      dup2\n        /* \"#utility.yul\":1215:1221   */\n      dup5\n        /* \"#utility.yul\":1151:1229   */\n      tag_113\n      jump\t// in\n    tag_153:\n        /* \"#utility.yul\":1143:1229   */\n      swap1\n      pop\n        /* \"#utility.yul\":923:1236   */\n      swap3\n      swap2\n      pop\n      pop\n      jump\t// out\n        /* \"#utility.yul\":1323:1440   */\n    tag_115:\n        /* \"#utility.yul\":1432:1433   */\n      0x00\n        /* \"#utility.yul\":1429:1430   */\n      0x00\n        /* \"#utility.yul\":1422:1434   */\n      revert\n        /* \"#utility.yul\":1569:1695   */\n    tag_117:\n        /* \"#utility.yul\":1606:1613   */\n      0x00\n        /* \"#utility.yul\":1646:1688   */\n      0xffffffffffffffffffffffffffffffffffffffff\n        /* \"#utility.yul\":1639:1644   */\n      dup3\n        /* \"#utility.yul\":1635:1689   */\n      and\n        /* \"#utility.yul\":1624:1689   */\n      swap1\n      pop\n        /* \"#utility.yul\":1569:1695   */\n      swap2\n      swap1\n      pop\n      jump\t// out\n        /* \"#utility.yul\":1701:1797   */\n    tag_118:\n        /* \"#utility.yul\":1738:1745   */\n      0x00\n        /* \"#utility.yul\":1767:1791   */\n      tag_159\n        /* \"#utility.yul\":1785:1790   */\n      dup3\n        /* \"#utility.yul\":1767:1791   */\n      tag_117\n      jump\t// in\n    tag_159:\n        /* \"#utility.yul\":1756:1791   */\n      swap1\n      pop\n        /* \"#utility.yul\":1701:1797   */\n      swap2\n      swap1\n      pop\n      jump\t// out\n        /* \"#utility.yul\":1803:1925   */\n    tag_119:\n        /* \"#utility.yul\":1876:1900   */\n      tag_161\n        /* \"#utility.yul\":1894:1899   */\n      dup2\n        /* \"#utility.yul\":1876:1900   */\n      tag_118\n      jump\t// in\n    tag_161:\n        /* \"#utility.yul\":1869:1874   */\n      dup2\n        /* \"#utility.yul\":1866:1901   */\n      eq\n        /* \"#utility.yul\":1856:1919   */\n      tag_162\n      jumpi\n        /* \"#utility.yul\":1915:1916   */\n      0x00\n        /* \"#utility.yul\":1912:1913   */\n      0x00\n        /* \"#utility.yul\":1905:1917   */\n      revert\n        /* \"#utility.yul\":1856:1919   */\n    tag_162:\n        /* \"#utility.yul\":1803:1925   */\n      pop\n      jump\t// out\n        /* \"#utility.yul\":1931:2070   */\n    tag_120:\n        /* \"#utility.yul\":1977:1982   */\n      0x00\n        /* \"#utility.yul\":2015:2021   */\n      dup2\n        /* \"#utility.yul\":2002:2022   */\n      calldataload\n        /* \"#utility.yul\":1993:2022   */\n      swap1\n      pop\n        /* \"#utility.yul\":2031:2064   */\n      tag_164\n        /* \"#utility.yul\":2058:2063   */\n      dup2\n        /* \"#utility.yul\":2031:2064   */\n      tag_119\n      jump\t// in\n    tag_164:\n        /* \"#utility.yul\":1931:2070   */\n      swap3\n      swap2\n      pop\n      pop\n      jump\t// out\n        /* \"#utility.yul\":2076:2153   */\n    tag_121:\n        /* \"#utility.yul\":2113:2120   */\n      0x00\n        /* \"#utility.yul\":2142:2147   */\n      dup2\n        /* \"#utility.yul\":2131:2147   */\n      swap1\n      pop\n        /* \"#utility.yul\":2076:2153   */\n      swap2\n      swap1\n      pop\n      jump\t// out\n        /* \"#utility.yul\":2159:2281   */\n    tag_122:\n        /* \"#utility.yul\":2232:2256   */\n      tag_167\n        /* \"#utility.yul\":2250:2255   */\n      dup2\n        /* \"#utility.yul\":2232:2256   */\n      tag_121\n      jump\t// in\n    tag_167:\n        /* \"#utility.yul\":2225:2230   */\n      dup2\n        /* \"#utility.yul\":2222:2257   */\n      eq\n        /* \"#utility.yul\":2212:2275   */\n      tag_168\n      jumpi\n        /* \"#utility.yul\":2271:2272   */\n      0x00\n        /* \"#utility.yul\":2268:2269   */\n      0x00\n        /* \"#utility.yul\":2261:2273   */\n      revert\n        /* \"#utility.yul\":2212:2275   */\n    tag_168:\n        /* \"#utility.yul\":2159:2281   */\n      pop\n      jump\t// out\n        /* \"#utility.yul\":2287:2426   */\n    tag_123:\n        /* \"#utility.yul\":2333:2338   */\n      0x00\n        /* \"#utility.yul\":2371:2377   */\n      dup2\n        /* \"#utility.yul\":2358:2378   */\n      calldataload\n        /* \"#utility.yul\":2349:2378   */\n      swap1\n      pop\n        /* \"#utility.yul\":2387:2420   */\n      tag_170\n        /* \"#utility.yul\":2414:2419   */\n      dup2\n        /* \"#utility.yul\":2387:2420   */\n      tag_122\n      jump\t// in\n    tag_170:\n        /* \"#utility.yul\":2287:2426   */\n      swap3\n      swap2\n      pop\n      pop\n      jump\t// out\n        /* \"#utility.yul\":2432:2906   */\n    tag_20:\n        /* \"#utility.yul\":2500:2506   */\n      0x00\n        /* \"#utility.yul\":2508:2514   */\n      0x00\n        /* \"#utility.yul\":2557:2559   */\n      0x40\n        /* \"#utility.yul\":2545:2554   */\n      dup4\n        /* \"#utility.yul\":2536:2543   */\n      dup6\n        /* \"#utility.yul\":2532:2555   */\n      sub\n        /* \"#utility.yul\":2528:2560   */\n      slt\n        /* \"#utility.yul\":2525:2644   */\n      iszero\n      tag_172\n      jumpi\n        /* \"#utility.yul\":2563:2642   */\n      tag_173\n      tag_115\n      jump\t// in\n    tag_173:\n        /* \"#utility.yul\":2525:2644   */\n    tag_172:\n        /* \"#utility.yul\":2683:2684   */\n      0x00\n        /* \"#utility.yul\":2708:2761   */\n      tag_174\n        /* \"#utility.yul\":2753:2760   */\n      dup6\n        /* \"#utility.yul\":2744:2750   */\n      dup3\n        /* \"#utility.yul\":2733:2742   */\n      dup7\n        /* \"#utility.yul\":2729:2751   */\n      add\n        /* \"#utility.yul\":2708:2761   */\n      tag_120\n      jump\t// in\n    tag_174:\n        /* \"#utility.yul\":2698:2761   */\n      swap3\n      pop\n        /* \"#utility.yul\":2654:2771   */\n      pop\n        /* \"#utility.yul\":2810:2812   */\n      0x20\n        /* \"#utility.yul\":2836:2889   */\n      tag_175\n        /* \"#utility.yul\":2881:2888   */\n      dup6\n        /* \"#utility.yul\":2872:2878   */\n      dup3\n        /* \"#utility.yul\":2861:2870   */\n      dup7\n        /* \"#utility.yul\":2857:2879   */\n      add\n        /* \"#utility.yul\":2836:2889   */\n      tag_123\n      jump\t// in\n    tag_175:\n        /* \"#utility.yul\":2826:2889   */\n      swap2\n      pop\n        /* \"#utility.yul\":2781:2899   */\n      pop\n        /* \"#utility.yul\":2432:2906   */\n      swap3\n      pop\n      swap3\n      swap1\n      pop\n      jump\t// out\n        /* \"#utility.yul\":2912:3002   */\n    tag_124:\n        /* \"#utility.yul\":2946:2953   */\n      0x00\n        /* \"#utility.yul\":2989:2994   */\n      dup2\n        /* \"#utility.yul\":2982:2995   */\n      iszero\n        /* \"#utility.yul\":2975:2996   */\n      iszero\n        /* \"#utility.yul\":2964:2996   */\n      swap1\n      pop\n        /* \"#utility.yul\":2912:3002   */\n      swap2\n      swap1\n      pop\n      jump\t// out\n        /* \"#utility.yul\":3008:3117   */\n    tag_125:\n        /* \"#utility.yul\":3089:3110   */\n      tag_178\n        /* \"#utility.yul\":3104:3109   */\n      dup2\n        /* \"#utility.yul\":3089:3110   */\n      tag_124\n      jump\t// in\n    tag_178:\n        /* \"#utility.yul\":3084:3087   */\n      dup3\n        /* \"#utility.yul\":3077:3111   */\n      mstore\n        /* \"#utility.yul\":3008:3117   */\n      pop\n      pop\n      jump\t// out\n        /* \"#utility.yul\":3123:3333   */\n    tag_23:\n        /* \"#utility.yul\":3210:3214   */\n      0x00\n        /* \"#utility.yul\":3248:3250   */\n      0x20\n        /* \"#utility.yul\":3237:3246   */\n      dup3\n        /* \"#utility.yul\":3233:3251   */\n      add\n        /* \"#utility.yul\":3225:3251   */\n      swap1\n      pop\n        /* \"#utility.yul\":3261:3326   */\n      tag_180\n        /* \"#utility.yul\":3323:3324   */\n      0x00\n        /* \"#utility.yul\":3312:3321   */\n      dup4\n        /* \"#utility.yul\":3308:3325   */\n      add\n        /* \"#utility.yul\":3299:3305   */\n      dup5\n        /* \"#utility.yul\":3261:3326   */\n      tag_125\n      jump\t// in\n    tag_180:\n        /* \"#utility.yul\":3123:3333   */\n      swap3\n      swap2\n      pop\n      pop\n      jump\t// out\n        /* \"#utility.yul\":3339:3457   */\n    tag_126:\n        /* \"#utility.yul\":3426:3450   */\n      tag_182\n        /* \"#utility.yul\":3444:3449   */\n      dup2\n        /* \"#utility.yul\":3426:3450   */\n      tag_121\n      jump\t// in\n    tag_182:\n        /* \"#utility.yul\":3421:3424   */\n      dup3\n        /* \"#utility.yul\":3414:3451   */\n      mstore\n        /* \"#utility.yul\":3339:3457   */\n      pop\n      pop\n      jump\t// out\n        /* \"#utility.yul\":3463:3685   */\n    tag_27:\n        /* \"#utility.yul\":3556:3560   */\n      0x00\n        /* \"#utility.yul\":3594:3596   */\n      0x20\n        /* \"#utility.yul\":3583:3592   */\n      dup3\n        /* \"#utility.yul\":3579:3597   */\n      add\n        /* \"#utility.yul\":3571:3597   */\n      swap1\n      pop\n        /* \"#utility.yul\":3607:3678   */\n      tag_184\n        /* \"#utility.yul\":3675:3676   */\n      0x00\n        /* \"#utility.yul\":3664:3673   */\n      dup4\n        /* \"#utility.yul\":3660:3677   */\n      add\n        /* \"#utility.yul\":3651:3657   */\n      dup5\n        /* \"#utility.yul\":3607:3678   */\n      tag_126\n      jump\t// in\n    tag_184:\n        /* \"#utility.yul\":3463:3685   */\n      swap3\n      swap2\n      pop\n      pop\n      jump\t// out\n        /* \"#utility.yul\":3691:4310   */\n    tag_34:\n        /* \"#utility.yul\":3768:3774   */\n      0x00\n        /* \"#utility.yul\":3776:3782   */\n      0x00\n        /* \"#utility.yul\":3784:3790   */\n      0x00\n        /* \"#utility.yul\":3833:3835   */\n      0x60\n        /* \"#utility.yul\":3821:3830   */\n      dup5\n        /* \"#utility.yul\":3812:3819   */\n      dup7\n        /* \"#utility.yul\":3808:3831   */\n      sub\n        /* \"#utility.yul\":3804:3836   */\n      slt\n        /* \"#utility.yul\":3801:3920   */\n      iszero\n      tag_186\n      jumpi\n        /* \"#utility.yul\":3839:3918   */\n      tag_187\n      tag_115\n      jump\t// in\n    tag_187:\n        /* \"#utility.yul\":3801:3920   */\n    tag_186:\n        /* \"#utility.yul\":3959:3960   */\n      0x00\n        /* \"#utility.yul\":3984:4037   */\n      tag_188\n        /* \"#utility.yul\":4029:4036   */\n      dup7\n        /* \"#utility.yul\":4020:4026   */\n      dup3\n        /* \"#utility.yul\":4009:4018   */\n      dup8\n        /* \"#utility.yul\":4005:4027   */\n      add\n        /* \"#utility.yul\":3984:4037   */\n      tag_120\n      jump\t// in\n    tag_188:\n        /* \"#utility.yul\":3974:4037   */\n      swap4\n      pop\n        /* \"#utility.yul\":3930:4047   */\n      pop\n        /* \"#utility.yul\":4086:4088   */\n      0x20\n        /* \"#utility.yul\":4112:4165   */\n      tag_189\n        /* \"#utility.yul\":4157:4164   */\n      dup7\n        /* \"#utility.yul\":4148:4154   */\n      dup3\n        /* \"#utility.yul\":4137:4146   */\n      dup8\n        /* \"#utility.yul\":4133:4155   */\n      add\n        /* \"#utility.yul\":4112:4165   */\n      tag_120\n      jump\t// in\n    tag_189:\n        /* \"#utility.yul\":4102:4165   */\n      swap3\n      pop\n        /* \"#utility.yul\":4057:4175   */\n      pop\n        /* \"#utility.yul\":4214:4216   */\n      0x40\n        /* \"#utility.yul\":4240:4293   */\n      tag_190\n        /* \"#utility.yul\":4285:4292   */\n      dup7\n        /* \"#utility.yul\":4276:4282   */\n      dup3\n        /* \"#utility.yul\":4265:4274   */\n      dup8\n        /* \"#utility.yul\":4261:4283   */\n      add\n        /* \"#utility.yul\":4240:4293   */\n      tag_123\n      jump\t// in\n    tag_190:\n        /* \"#utility.yul\":4230:4293   */\n      swap2\n      pop\n        /* \"#utility.yul\":4185:4303   */\n      pop\n        /* \"#utility.yul\":3691:4310   */\n      swap3\n      pop\n      swap3\n      pop\n      swap3\n      jump\t// out\n        /* \"#utility.yul\":4316:4402   */\n    tag_127:\n        /* \"#utility.yul\":4351:4358   */\n      0x00\n        /* \"#utility.yul\":4391:4395   */\n      0xff\n        /* \"#utility.yul\":4384:4389   */\n      dup3\n        /* \"#utility.yul\":4380:4396   */\n      and\n        /* \"#utility.yul\":4369:4396   */\n      swap1\n      pop\n        /* \"#utility.yul\":4316:4402   */\n      swap2\n      swap1\n      pop\n      jump\t// out\n        /* \"#utility.yul\":4408:4520   */\n    tag_128:\n        /* \"#utility.yul\":4491:4513   */\n      tag_193\n        /* \"#utility.yul\":4507:4512   */\n      dup2\n        /* \"#utility.yul\":4491:4513   */\n      tag_127\n      jump\t// in\n    tag_193:\n        /* \"#utility.yul\":4486:4489   */\n      dup3\n        /* \"#utility.yul\":4479:4514   */\n      mstore\n        /* \"#utility.yul\":4408:4520   */\n      pop\n      pop\n      jump\t// out\n        /* \"#utility.yul\":4526:4740   */\n    tag_40:\n        /* \"#utility.yul\":4615:4619   */\n      0x00\n        /* \"#utility.yul\":4653:4655   */\n      0x20\n        /* \"#utility.yul\":4642:4651   */\n      dup3\n        /* \"#utility.yul\":4638:4656   */\n      add\n        /* \"#utility.yul\":4630:4656   */\n      swap1\n      pop\n        /* \"#utility.yul\":4666:4733   */\n      tag_195\n        /* \"#utility.yul\":4730:4731   */\n      0x00\n        /* \"#utility.yul\":4719:4728   */\n      dup4\n        /* \"#utility.yul\":4715:4732   */\n      add\n        /* \"#utility.yul\":4706:4712   */\n      dup5\n        /* \"#utility.yul\":4666:4733   */\n      tag_128\n      jump\t// in\n    tag_195:\n        /* \"#utility.yul\":4526:4740   */\n      swap3\n      swap2\n      pop\n      pop\n      jump\t// out\n        /* \"#utility.yul\":4746:5075   */\n    tag_43:\n        /* \"#utility.yul\":4805:4811   */\n      0x00\n        /* \"#utility.yul\":4854:4856   */\n      0x20\n        /* \"#utility.yul\":4842:4851   */\n      dup3\n        /* \"#utility.yul\":4833:4840   */\n      dup5\n        /* \"#utility.yul\":4829:4852   */\n      sub\n        /* \"#utility.yul\":4825:4857   */\n      slt\n        /* \"#utility.yul\":4822:4941   */\n      iszero\n      tag_197\n      jumpi\n        /* \"#utility.yul\":4860:4939   */\n      tag_198\n      tag_115\n      jump\t// in\n    tag_198:\n        /* \"#utility.yul\":4822:4941   */\n    tag_197:\n        /* \"#utility.yul\":4980:4981   */\n      0x00\n        /* \"#utility.yul\":5005:5058   */\n      tag_199\n        /* \"#utility.yul\":5050:5057   */\n      dup5\n        /* \"#utility.yul\":5041:5047   */\n      dup3\n        /* \"#utility.yul\":5030:5039   */\n      dup6\n        /* \"#utility.yul\":5026:5048   */\n      add\n        /* \"#utility.yul\":5005:5058   */\n      tag_120\n      jump\t// in\n    tag_199:\n        /* \"#utility.yul\":4995:5058   */\n      swap2\n      pop\n        /* \"#utility.yul\":4951:5068   */\n      pop\n        /* \"#utility.yul\":4746:5075   */\n      swap3\n      swap2\n      pop\n      pop\n      jump\t// out\n        /* \"#utility.yul\":5081:5555   */\n    tag_55:\n        /* \"#utility.yul\":5149:5155   */\n      0x00\n        /* \"#utility.yul\":5157:5163   */\n      0x00\n        /* \"#utility.yul\":5206:5208   */\n      0x40\n        /* \"#utility.yul\":5194:5203   */\n      dup4\n        /* \"#utility.yul\":5185:5192   */\n      dup6\n        /* \"#utility.yul\":5181:5204   */\n      sub\n        /* \"#utility.yul\":5177:5209   */\n      slt\n        /* \"#utility.yul\":5174:5293   */\n      iszero\n      tag_201\n      jumpi\n        /* \"#utility.yul\":5212:5291   */\n      tag_202\n      tag_115\n      jump\t// in\n    tag_202:\n        /* \"#utility.yul\":5174:5293   */\n    tag_201:\n        /* \"#utility.yul\":5332:5333   */\n      0x00\n        /* \"#utility.yul\":5357:5410   */\n      tag_203\n        /* \"#utility.yul\":5402:5409   */\n      dup6\n        /* \"#utility.yul\":5393:5399   */\n      dup3\n        /* \"#utility.yul\":5382:5391   */\n      dup7\n        /* \"#utility.yul\":5378:5400   */\n      add\n        /* \"#utility.yul\":5357:5410   */\n      tag_120\n      jump\t// in\n    tag_203:\n        /* \"#utility.yul\":5347:5410   */\n      swap3\n      pop\n        /* \"#utility.yul\":5303:5420   */\n      pop\n        /* \"#utility.yul\":5459:5461   */\n      0x20\n        /* \"#utility.yul\":5485:5538   */\n      tag_204\n        /* \"#utility.yul\":5530:5537   */\n      dup6\n        /* \"#utility.yul\":5521:5527   */\n      dup3\n        /* \"#utility.yul\":5510:5519   */\n      dup7\n        /* \"#utility.yul\":5506:5528   */\n      add\n        /* \"#utility.yul\":5485:5538   */\n      tag_120\n      jump\t// in\n    tag_204:\n        /* \"#utility.yul\":5475:5538   */\n      swap2\n      pop\n        /* \"#utility.yul\":5430:5548   */\n      pop\n        /* \"#utility.yul\":5081:5555   */\n      swap3\n      pop\n      swap3\n      swap1\n      pop\n      jump\t// out\n        /* \"#utility.yul\":5561:5741   */\n    tag_129:\n        /* \"#utility.yul\":5609:5686   */\n      0x4e487b7100000000000000000000000000000000000000000000000000000000\n        /* \"#utility.yul\":5606:5607   */\n      0x00\n        /* \"#utility.yul\":5599:5687   */\n      mstore\n        /* \"#utility.yul\":5706:5710   */\n      0x22\n        /* \"#utility.yul\":5703:5704   */\n      0x04\n        /* \"#utility.yul\":5696:5711   */\n      mstore\n        /* \"#utility.yul\":5730:5734   */\n      0x24\n        /* \"#utility.yul\":5727:5728   */\n      0x00\n        /* \"#utility.yul\":5720:5735   */\n      revert\n        /* \"#utility.yul\":5747:6067   */\n    tag_59:\n        /* \"#utility.yul\":5791:5797   */\n      0x00\n        /* \"#utility.yul\":5828:5829   */\n      0x02\n        /* \"#utility.yul\":5822:5826   */\n      dup3\n        /* \"#utility.yul\":5818:5830   */\n      div\n        /* \"#utility.yul\":5808:5830   */\n      swap1\n      pop\n        /* \"#utility.yul\":5875:5876   */\n      0x01\n        /* \"#utility.yul\":5869:5873   */\n      dup3\n        /* \"#utility.yul\":5865:5877   */\n      and\n        /* \"#utility.yul\":5896:5914   */\n      dup1\n        /* \"#utility.yul\":5886:5967   */\n      tag_207\n      jumpi\n        /* \"#utility.yul\":5952:5956   */\n      0x7f\n        /* \"#utility.yul\":5944:5950   */\n      dup3\n        /* \"#utility.yul\":5940:5957   */\n      and\n        /* \"#utility.yul\":5930:5957   */\n      swap2\n      pop\n        /* \"#utility.yul\":5886:5967   */\n    tag_207:\n        /* \"#utility.yul\":6014:6016   */\n      0x20\n        /* \"#utility.yul\":6006:6012   */\n      dup3\n        /* \"#utility.yul\":6003:6017   */\n      lt\n        /* \"#utility.yul\":5983:6001   */\n      dup2\n        /* \"#utility.yul\":5980:6018   */\n      sub\n        /* \"#utility.yul\":5977:6061   */\n      tag_208\n      jumpi\n        /* \"#utility.yul\":6033:6051   */\n      tag_209\n      tag_129\n      jump\t// in\n    tag_209:\n        /* \"#utility.yul\":5977:6061   */\n    tag_208:\n        /* \"#utility.yul\":5798:6067   */\n      pop\n        /* \"#utility.yul\":5747:6067   */\n      swap2\n      swap1\n      pop\n      jump\t// out\n        /* \"#utility.yul\":6073:6191   */\n    tag_130:\n        /* \"#utility.yul\":6160:6184   */\n      tag_211\n        /* \"#utility.yul\":6178:6183   */\n      dup2\n        /* \"#utility.yul\":6160:6184   */\n      tag_118\n      jump\t// in\n    tag_211:\n        /* \"#utility.yul\":6155:6158   */\n      dup3\n        /* \"#utility.yul\":6148:6185   */\n      mstore\n        /* \"#utility.yul\":6073:6191   */\n      pop\n      pop\n      jump\t// out\n        /* \"#utility.yul\":6197:6529   */\n    tag_70:\n        /* \"#utility.yul\":6318:6322   */\n      0x00\n        /* \"#utility.yul\":6356:6358   */\n      0x40\n        /* \"#utility.yul\":6345:6354   */\n      dup3\n        /* \"#utility.yul\":6341:6359   */\n      add\n        /* \"#utility.yul\":6333:6359   */\n      swap1\n      pop\n        /* \"#utility.yul\":6369:6440   */\n      tag_213\n        /* \"#utility.yul\":6437:6438   */\n      0x00\n        /* \"#utility.yul\":6426:6435   */\n      dup4\n        /* \"#utility.yul\":6422:6439   */\n      add\n        /* \"#utility.yul\":6413:6419   */\n      dup6\n        /* \"#utility.yul\":6369:6440   */\n      tag_130\n      jump\t// in\n    tag_213:\n        /* \"#utility.yul\":6450:6522   */\n      tag_214\n        /* \"#utility.yul\":6518:6520   */\n      0x20\n        /* \"#utility.yul\":6507:6516   */\n      dup4\n        /* \"#utility.yul\":6503:6521   */\n      add\n        /* \"#utility.yul\":6494:6500   */\n      dup5\n        /* \"#utility.yul\":6450:6522   */\n      tag_126\n      jump\t// in\n    tag_214:\n        /* \"#utility.yul\":6197:6529   */\n      swap4\n      swap3\n      pop\n      pop\n      pop\n      jump\t// out\n        /* \"#utility.yul\":6535:6651   */\n    tag_131:\n        /* \"#utility.yul\":6605:6626   */\n      tag_216\n        /* \"#utility.yul\":6620:6625   */\n      dup2\n        /* \"#utility.yul\":6605:6626   */\n      tag_124\n      jump\t// in\n    tag_216:\n        /* \"#utility.yul\":6598:6603   */\n      dup2\n        /* \"#utility.yul\":6595:6627   */\n      eq\n        /* \"#utility.yul\":6585:6645   */\n      tag_217\n      jumpi\n        /* \"#utility.yul\":6641:6642   */\n      0x00\n        /* \"#utility.yul\":6638:6639   */\n      0x00\n        /* \"#utility.yul\":6631:6643   */\n      revert\n        /* \"#utility.yul\":6585:6645   */\n    tag_217:\n        /* \"#utility.yul\":6535:6651   */\n      pop\n      jump\t// out\n        /* \"#utility.yul\":6657:6794   */\n    tag_132:\n        /* \"#utility.yul\":6711:6716   */\n      0x00\n        /* \"#utility.yul\":6742:6748   */\n      dup2\n        /* \"#utility.yul\":6736:6749   */\n      mload\n        /* \"#utility.yul\":6727:6749   */\n      swap1\n      pop\n        /* \"#utility.yul\":6758:6788   */\n      tag_219\n        /* \"#utility.yul\":6782:6787   */\n      dup2\n        /* \"#utility.yul\":6758:6788   */\n      tag_131\n      jump\t// in\n    tag_219:\n        /* \"#utility.yul\":6657:6794   */\n      swap3\n      swap2\n      pop\n      pop\n      jump\t// out\n        /* \"#utility.yul\":6800:7145   */\n    tag_74:\n        /* \"#utility.yul\":6867:6873   */\n      0x00\n        /* \"#utility.yul\":6916:6918   */\n      0x20\n        /* \"#utility.yul\":6904:6913   */\n      dup3\n        /* \"#utility.yul\":6895:6902   */\n      dup5\n        /* \"#utility.yul\":6891:6914   */\n      sub\n        /* \"#utility.yul\":6887:6919   */\n      slt\n        /* \"#utility.yul\":6884:7003   */\n      iszero\n      tag_221\n      jumpi\n        /* \"#utility.yul\":6922:7001   */\n      tag_222\n      tag_115\n      jump\t// in\n    tag_222:\n        /* \"#utility.yul\":6884:7003   */\n    tag_221:\n        /* \"#utility.yul\":7042:7043   */\n      0x00\n        /* \"#utility.yul\":7067:7128   */\n      tag_223\n        /* \"#utility.yul\":7120:7127   */\n      dup5\n        /* \"#utility.yul\":7111:7117   */\n      dup3\n        /* \"#utility.yul\":7100:7109   */\n      dup6\n        /* \"#utility.yul\":7096:7118   */\n      add\n        /* \"#utility.yul\":7067:7128   */\n      tag_132\n      jump\t// in\n    tag_223:\n        /* \"#utility.yul\":7057:7128   */\n      swap2\n      pop\n        /* \"#utility.yul\":7013:7138   */\n      pop\n        /* \"#utility.yul\":6800:7145   */\n      swap3\n      swap2\n      pop\n      pop\n      jump\t// out\n        /* \"#utility.yul\":7151:7309   */\n    tag_133:\n        /* \"#utility.yul\":7291:7301   */\n      0x4e6f204552433230000000000000000000000000000000000000000000000000\n        /* \"#utility.yul\":7287:7288   */\n      0x00\n        /* \"#utility.yul\":7279:7285   */\n      dup3\n        /* \"#utility.yul\":7275:7289   */\n      add\n        /* \"#utility.yul\":7268:7302   */\n      mstore\n        /* \"#utility.yul\":7151:7309   */\n      pop\n      jump\t// out\n        /* \"#utility.yul\":7315:7680   */\n    tag_134:\n        /* \"#utility.yul\":7457:7460   */\n      0x00\n        /* \"#utility.yul\":7478:7544   */\n      tag_226\n        /* \"#utility.yul\":7542:7543   */\n      0x08\n        /* \"#utility.yul\":7537:7540   */\n      dup4\n        /* \"#utility.yul\":7478:7544   */\n      tag_110\n      jump\t// in\n    tag_226:\n        /* \"#utility.yul\":7471:7544   */\n      swap2\n      pop\n        /* \"#utility.yul\":7553:7646   */\n      tag_227\n        /* \"#utility.yul\":7642:7645   */\n      dup3\n        /* \"#utility.yul\":7553:7646   */\n      tag_133\n      jump\t// in\n    tag_227:\n        /* \"#utility.yul\":7671:7673   */\n      0x20\n        /* \"#utility.yul\":7666:7669   */\n      dup3\n        /* \"#utility.yul\":7662:7674   */\n      add\n        /* \"#utility.yul\":7655:7674   */\n      swap1\n      pop\n        /* \"#utility.yul\":7315:7680   */\n      swap2\n      swap1\n      pop\n      jump\t// out\n        /* \"#utility.yul\":7686:8105   */\n    tag_77:\n        /* \"#utility.yul\":7852:7856   */\n      0x00\n        /* \"#utility.yul\":7890:7892   */\n      0x20\n        /* \"#utility.yul\":7879:7888   */\n      dup3\n        /* \"#utility.yul\":7875:7893   */\n      add\n        /* \"#utility.yul\":7867:7893   */\n      swap1\n      pop\n        /* \"#utility.yul\":7939:7948   */\n      dup2\n        /* \"#utility.yul\":7933:7937   */\n      dup2\n        /* \"#utility.yul\":7929:7949   */\n      sub\n        /* \"#utility.yul\":7925:7926   */\n      0x00\n        /* \"#utility.yul\":7914:7923   */\n      dup4\n        /* \"#utility.yul\":7910:7927   */\n      add\n        /* \"#utility.yul\":7903:7950   */\n      mstore\n        /* \"#utility.yul\":7967:8098   */\n      tag_229\n        /* \"#utility.yul\":8093:8097   */\n      dup2\n        /* \"#utility.yul\":7967:8098   */\n      tag_134\n      jump\t// in\n    tag_229:\n        /* \"#utility.yul\":7959:8098   */\n      swap1\n      pop\n        /* \"#utility.yul\":7686:8105   */\n      swap2\n      swap1\n      pop\n      jump\t// out\n        /* \"#utility.yul\":8111:8336   */\n    tag_135:\n        /* \"#utility.yul\":8251:8285   */\n      0x45524332303a207472616e7366657220616d6f756e7420657863656564732062\n        /* \"#utility.yul\":8247:8248   */\n      0x00\n        /* \"#utility.yul\":8239:8245   */\n      dup3\n        /* \"#utility.yul\":8235:8249   */\n      add\n        /* \"#utility.yul\":8228:8286   */\n      mstore\n        /* \"#utility.yul\":8320:8328   */\n      0x616c616e63650000000000000000000000000000000000000000000000000000\n        /* \"#utility.yul\":8315:8317   */\n      0x20\n        /* \"#utility.yul\":8307:8313   */\n      dup3\n        /* \"#utility.yul\":8303:8318   */\n      add\n        /* \"#utility.yul\":8296:8329   */\n      mstore\n        /* \"#utility.yul\":8111:8336   */\n      pop\n      jump\t// out\n        /* \"#utility.yul\":8342:8708   */\n    tag_136:\n        /* \"#utility.yul\":8484:8487   */\n      0x00\n        /* \"#utility.yul\":8505:8572   */\n      tag_232\n        /* \"#utility.yul\":8569:8571   */\n      0x26\n        /* \"#utility.yul\":8564:8567   */\n      dup4\n        /* \"#utility.yul\":8505:8572   */\n      tag_110\n      jump\t// in\n    tag_232:\n        /* \"#utility.yul\":8498:8572   */\n      swap2\n      pop\n        /* \"#utility.yul\":8581:8674   */\n      tag_233\n        /* \"#utility.yul\":8670:8673   */\n      dup3\n        /* \"#utility.yul\":8581:8674   */\n      tag_135\n      jump\t// in\n    tag_233:\n        /* \"#utility.yul\":8699:8701   */\n      0x40\n        /* \"#utility.yul\":8694:8697   */\n      dup3\n        /* \"#utility.yul\":8690:8702   */\n      add\n        /* \"#utility.yul\":8683:8702   */\n      swap1\n      pop\n        /* \"#utility.yul\":8342:8708   */\n      swap2\n      swap1\n      pop\n      jump\t// out\n        /* \"#utility.yul\":8714:9133   */\n    tag_81:\n        /* \"#utility.yul\":8880:8884   */\n      0x00\n        /* \"#utility.yul\":8918:8920   */\n      0x20\n        /* \"#utility.yul\":8907:8916   */\n      dup3\n        /* \"#utility.yul\":8903:8921   */\n      add\n        /* \"#utility.yul\":8895:8921   */\n      swap1\n      pop\n        /* \"#utility.yul\":8967:8976   */\n      dup2\n        /* \"#utility.yul\":8961:8965   */\n      dup2\n        /* \"#utility.yul\":8957:8977   */\n      sub\n        /* \"#utility.yul\":8953:8954   */\n      0x00\n        /* \"#utility.yul\":8942:8951   */\n      dup4\n        /* \"#utility.yul\":8938:8955   */\n      add\n        /* \"#utility.yul\":8931:8978   */\n      mstore\n        /* \"#utility.yul\":8995:9126   */\n      tag_235\n        /* \"#utility.yul\":9121:9125   */\n      dup2\n        /* \"#utility.yul\":8995:9126   */\n      tag_136\n      jump\t// in\n    tag_235:\n        /* \"#utility.yul\":8987:9126   */\n      swap1\n      pop\n        /* \"#utility.yul\":8714:9133   */\n      swap2\n      swap1\n      pop\n      jump\t// out\n        /* \"#utility.yul\":9139:9366   */\n    tag_137:\n        /* \"#utility.yul\":9279:9313   */\n      0x45524332303a207472616e7366657220616d6f756e7420657863656564732061\n        /* \"#utility.yul\":9275:9276   */\n      0x00\n        /* \"#utility.yul\":9267:9273   */\n      dup3\n        /* \"#utility.yul\":9263:9277   */\n      add\n        /* \"#utility.yul\":9256:9314   */\n      mstore\n        /* \"#utility.yul\":9348:9358   */\n      0x6c6c6f77616e6365000000000000000000000000000000000000000000000000\n        /* \"#utility.yul\":9343:9345   */\n      0x20\n        /* \"#utility.yul\":9335:9341   */\n      dup3\n        /* \"#utility.yul\":9331:9346   */\n      add\n        /* \"#utility.yul\":9324:9359   */\n      mstore\n        /* \"#utility.yul\":9139:9366   */\n      pop\n      jump\t// out\n        /* \"#utility.yul\":9372:9738   */\n    tag_138:\n        /* \"#utility.yul\":9514:9517   */\n      0x00\n        /* \"#utility.yul\":9535:9602   */\n      tag_238\n        /* \"#utility.yul\":9599:9601   */\n      0x28\n        /* \"#utility.yul\":9594:9597   */\n      dup4\n        /* \"#utility.yul\":9535:9602   */\n      tag_110\n      jump\t// in\n    tag_238:\n        /* \"#utility.yul\":9528:9602   */\n      swap2\n      pop\n        /* \"#utility.yul\":9611:9704   */\n      tag_239\n        /* \"#utility.yul\":9700:9703   */\n      dup3\n        /* \"#utility.yul\":9611:9704   */\n      tag_137\n      jump\t// in\n    tag_239:\n        /* \"#utility.yul\":9729:9731   */\n      0x40\n        /* \"#utility.yul\":9724:9727   */\n      dup3\n        /* \"#utility.yul\":9720:9732   */\n      add\n        /* \"#utility.yul\":9713:9732   */\n      swap1\n      pop\n        /* \"#utility.yul\":9372:9738   */\n      swap2\n      swap1\n      pop\n      jump\t// out\n        /* \"#utility.yul\":9744:10163   */\n    tag_84:\n        /* \"#utility.yul\":9910:9914   */\n      0x00\n        /* \"#utility.yul\":9948:9950   */\n      0x20\n        /* \"#utility.yul\":9937:9946   */\n      dup3\n        /* \"#utility.yul\":9933:9951   */\n      add\n        /* \"#utility.yul\":9925:9951   */\n      swap1\n      pop\n        /* \"#utility.yul\":9997:10006   */\n      dup2\n        /* \"#utility.yul\":9991:9995   */\n      dup2\n        /* \"#utility.yul\":9987:10007   */\n      sub\n        /* \"#utility.yul\":9983:9984   */\n      0x00\n        /* \"#utility.yul\":9972:9981   */\n      dup4\n        /* \"#utility.yul\":9968:9985   */\n      add\n        /* \"#utility.yul\":9961:10008   */\n      mstore\n        /* \"#utility.yul\":10025:10156   */\n      tag_241\n        /* \"#utility.yul\":10151:10155   */\n      dup2\n        /* \"#utility.yul\":10025:10156   */\n      tag_138\n      jump\t// in\n    tag_241:\n        /* \"#utility.yul\":10017:10156   */\n      swap1\n      pop\n        /* \"#utility.yul\":9744:10163   */\n      swap2\n      swap1\n      pop\n      jump\t// out\n        /* \"#utility.yul\":10169:10349   */\n    tag_139:\n        /* \"#utility.yul\":10309:10341   */\n      0x61646472657373206d757374206e6f7420626520616464726573732830290000\n        /* \"#utility.yul\":10305:10306   */\n      0x00\n        /* \"#utility.yul\":10297:10303   */\n      dup3\n        /* \"#utility.yul\":10293:10307   */\n      add\n        /* \"#utility.yul\":10286:10342   */\n      mstore\n        /* \"#utility.yul\":10169:10349   */\n      pop\n      jump\t// out\n        /* \"#utility.yul\":10355:10721   */\n    tag_140:\n        /* \"#utility.yul\":10497:10500   */\n      0x00\n        /* \"#utility.yul\":10518:10585   */\n      tag_244\n        /* \"#utility.yul\":10582:10584   */\n      0x1e\n        /* \"#utility.yul\":10577:10580   */\n      dup4\n        /* \"#utility.yul\":10518:10585   */\n      tag_110\n      jump\t// in\n    tag_244:\n        /* \"#utility.yul\":10511:10585   */\n      swap2\n      pop\n        /* \"#utility.yul\":10594:10687   */\n      tag_245\n        /* \"#utility.yul\":10683:10686   */\n      dup3\n        /* \"#utility.yul\":10594:10687   */\n      tag_139\n      jump\t// in\n    tag_245:\n        /* \"#utility.yul\":10712:10714   */\n      0x20\n        /* \"#utility.yul\":10707:10710   */\n      dup3\n        /* \"#utility.yul\":10703:10715   */\n      add\n        /* \"#utility.yul\":10696:10715   */\n      swap1\n      pop\n        /* \"#utility.yul\":10355:10721   */\n      swap2\n      swap1\n      pop\n      jump\t// out\n        /* \"#utility.yul\":10727:11146   */\n    tag_87:\n        /* \"#utility.yul\":10893:10897   */\n      0x00\n        /* \"#utility.yul\":10931:10933   */\n      0x20\n        /* \"#utility.yul\":10920:10929   */\n      dup3\n        /* \"#utility.yul\":10916:10934   */\n      add\n        /* \"#utility.yul\":10908:10934   */\n      swap1\n      pop\n        /* \"#utility.yul\":10980:10989   */\n      dup2\n        /* \"#utility.yul\":10974:10978   */\n      dup2\n        /* \"#utility.yul\":10970:10990   */\n      sub\n        /* \"#utility.yul\":10966:10967   */\n      0x00\n        /* \"#utility.yul\":10955:10964   */\n      dup4\n        /* \"#utility.yul\":10951:10968   */\n      add\n        /* \"#utility.yul\":10944:10991   */\n      mstore\n        /* \"#utility.yul\":11008:11139   */\n      tag_247\n        /* \"#utility.yul\":11134:11138   */\n      dup2\n        /* \"#utility.yul\":11008:11139   */\n      tag_140\n      jump\t// in\n    tag_247:\n        /* \"#utility.yul\":11000:11139   */\n      swap1\n      pop\n        /* \"#utility.yul\":10727:11146   */\n      swap2\n      swap1\n      pop\n      jump\t// out\n        /* \"#utility.yul\":11152:11332   */\n    tag_141:\n        /* \"#utility.yul\":11200:11277   */\n      0x4e487b7100000000000000000000000000000000000000000000000000000000\n        /* \"#utility.yul\":11197:11198   */\n      0x00\n        /* \"#utility.yul\":11190:11278   */\n      mstore\n        /* \"#utility.yul\":11297:11301   */\n      0x11\n        /* \"#utility.yul\":11294:11295   */\n      0x04\n        /* \"#utility.yul\":11287:11302   */\n      mstore\n        /* \"#utility.yul\":11321:11325   */\n      0x24\n        /* \"#utility.yul\":11318:11319   */\n      0x00\n        /* \"#utility.yul\":11311:11326   */\n      revert\n        /* \"#utility.yul\":11338:11532   */\n    tag_89:\n        /* \"#utility.yul\":11378:11382   */\n      0x00\n        /* \"#utility.yul\":11398:11418   */\n      tag_250\n        /* \"#utility.yul\":11416:11417   */\n      dup3\n        /* \"#utility.yul\":11398:11418   */\n      tag_121\n      jump\t// in\n    tag_250:\n        /* \"#utility.yul\":11393:11418   */\n      swap2\n      pop\n        /* \"#utility.yul\":11432:11452   */\n      tag_251\n        /* \"#utility.yul\":11450:11451   */\n      dup4\n        /* \"#utility.yul\":11432:11452   */\n      tag_121\n      jump\t// in\n    tag_251:\n        /* \"#utility.yul\":11427:11452   */\n      swap3\n      pop\n        /* \"#utility.yul\":11476:11477   */\n      dup3\n        /* \"#utility.yul\":11473:11474   */\n      dup3\n        /* \"#utility.yul\":11469:11478   */\n      sub\n        /* \"#utility.yul\":11461:11478   */\n      swap1\n      pop\n        /* \"#utility.yul\":11500:11501   */\n      dup2\n        /* \"#utility.yul\":11494:11498   */\n      dup2\n        /* \"#utility.yul\":11491:11502   */\n      gt\n        /* \"#utility.yul\":11488:11525   */\n      iszero\n      tag_252\n      jumpi\n        /* \"#utility.yul\":11505:11523   */\n      tag_253\n      tag_141\n      jump\t// in\n    tag_253:\n        /* \"#utility.yul\":11488:11525   */\n    tag_252:\n        /* \"#utility.yul\":11338:11532   */\n      swap3\n      swap2\n      pop\n      pop\n      jump\t// out\n        /* \"#utility.yul\":11538:11729   */\n    tag_91:\n        /* \"#utility.yul\":11578:11581   */\n      0x00\n        /* \"#utility.yul\":11597:11617   */\n      tag_255\n        /* \"#utility.yul\":11615:11616   */\n      dup3\n        /* \"#utility.yul\":11597:11617   */\n      tag_121\n      jump\t// in\n    tag_255:\n        /* \"#utility.yul\":11592:11617   */\n      swap2\n      pop\n        /* \"#utility.yul\":11631:11651   */\n      tag_256\n        /* \"#utility.yul\":11649:11650   */\n      dup4\n        /* \"#utility.yul\":11631:11651   */\n      tag_121\n      jump\t// in\n    tag_256:\n        /* \"#utility.yul\":11626:11651   */\n      swap3\n      pop\n        /* \"#utility.yul\":11674:11675   */\n      dup3\n        /* \"#utility.yul\":11671:11672   */\n      dup3\n        /* \"#utility.yul\":11667:11676   */\n      add\n        /* \"#utility.yul\":11660:11676   */\n      swap1\n      pop\n        /* \"#utility.yul\":11695:11698   */\n      dup1\n        /* \"#utility.yul\":11692:11693   */\n      dup3\n        /* \"#utility.yul\":11689:11699   */\n      gt\n        /* \"#utility.yul\":11686:11722   */\n      iszero\n      tag_257\n      jumpi\n        /* \"#utility.yul\":11702:11720   */\n      tag_258\n      tag_141\n      jump\t// in\n    tag_258:\n        /* \"#utility.yul\":11686:11722   */\n    tag_257:\n        /* \"#utility.yul\":11538:11729   */\n      swap3\n      swap2\n      pop\n      pop\n      jump\t// out\n\n    auxdata: 0xa2646970667358221220feddc8f17b628f1379511991d70c3cc7ebb4fb1ebc7c69d759e23fef8f37072b64736f6c63430008220033\n}\n",
				"bytecode": {
					"linkReferences": {},
					"object": "608060405234801561000f575f5ffd5b506040518060400160405280600981526020017f42617365455243323000000000000000000000000000000000000000000000008152505f9081610053919061037b565b506040518060400160405280600681526020017f424552433230000000000000000000000000000000000000000000000000000081525060019081610098919061037b565b50601260025f6101000a81548160ff021916908360ff16021790555060025f9054906101000a900460ff16600a6100cf91906105b2565b6305f5e1006100de91906105fc565b60038190555060035460045f3373ffffffffffffffffffffffffffffffffffffffff1673ffffffffffffffffffffffffffffffffffffffff1681526020019081526020015f208190555061063d565b5f81519050919050565b7f4e487b71000000000000000000000000000000000000000000000000000000005f52604160045260245ffd5b7f4e487b71000000000000000000000000000000000000000000000000000000005f52602260045260245ffd5b5f60028204905060018216806101a857607f821691505b6020821081036101bb576101ba610164565b5b50919050565b5f819050815f5260205f209050919050565b5f6020601f8301049050919050565b5f82821b905092915050565b5f6008830261021d7fffffffffffffffffffffffffffffffffffffffffffffffffffffffffffffffff826101e2565b61022786836101e2565b95508019841693508086168417925050509392505050565b5f819050919050565b5f819050919050565b5f61026b6102666102618461023f565b610248565b61023f565b9050919050565b5f819050919050565b61028483610251565b61029861029082610272565b8484546101ee565b825550505050565b5f5f905090565b6102af6102a0565b6102ba81848461027b565b505050565b5f5b828110156102e0576102d55f8284016102a7565b6001810190506102c1565b505050565b601f8211156103335782821115610332576102ff816101c1565b610308836101d3565b610311856101d3565b602086101561031e575f90505b80830161032d828403826102bf565b505050505b5b505050565b5f82821c905092915050565b5f6103535f1984600802610338565b1980831691505092915050565b5f61036b8383610344565b9150826002028217905092915050565b6103848261012d565b67ffffffffffffffff81111561039d5761039c610137565b5b6103a78254610191565b6103b28282856102e5565b5f60209050601f8311600181146103e3575f84156103d1578287015190505b6103db8582610360565b865550610442565b601f1984166103f1866101c1565b5f5b82811015610418578489015182556001820191506020850194506020810190506103f3565b868310156104355784890151610431601f891682610344565b8355505b6001600288020188555050505b505050505050565b7f4e487b71000000000000000000000000000000000000000000000000000000005f52601160045260245ffd5b5f8160011c9050919050565b5f5f8291508390505b60018511156104cc578086048111156104a8576104a761044a565b5b60018516156104b75780820291505b80810290506104c585610477565b945061048c565b94509492505050565b5f826104e4576001905061059f565b816104f1575f905061059f565b8160018114610507576002811461051157610540565b600191505061059f565b60ff8411156105235761052261044a565b5b8360020a91508482111561053a5761053961044a565b5b5061059f565b5060208310610133831016604e8410600b84101617156105755782820a9050838111156105705761056f61044a565b5b61059f565b6105828484846001610483565b925090508184048111156105995761059861044a565b5b81810290505b9392505050565b5f60ff82169050919050565b5f6105bc8261023f565b91506105c7836105a6565b92506105f47fffffffffffffffffffffffffffffffffffffffffffffffffffffffffffffffff84846104d5565b905092915050565b5f6106068261023f565b91506106118361023f565b925082820261061f8161023f565b915082820484148315176106365761063561044a565b5b5092915050565b6111a78061064a5f395ff3fe608060405234801561000f575f5ffd5b506004361061009c575f3560e01c8063313ce56711610064578063313ce5671461016c57806370a082311461018a57806395d89b41146101ba578063a9059cbb146101d8578063dd62ed3e146102085761009c565b806306fdde03146100a0578063095ea7b3146100be57806318160ddd146100ee5780631a825b751461010c57806323b872dd1461013c575b5f5ffd5b6100a8610238565b6040516100b59190610bd3565b60405180910390f35b6100d860048036038101906100d39190610c84565b6102c3565b6040516100e59190610cdc565b60405180910390f35b6100f66103b0565b6040516101039190610d04565b60405180910390f35b61012660048036038101906101219190610c84565b6103b6565b6040516101339190610cdc565b60405180910390f35b61015660048036038101906101519190610d1d565b6104ab565b6040516101639190610cdc565b60405180910390f35b6101746107f9565b6040516101819190610d88565b60405180910390f35b6101a4600480360381019061019f9190610da1565b61080b565b6040516101b19190610d04565b60405180910390f35b6101c2610851565b6040516101cf9190610bd3565b60405180910390f35b6101f260048036038101906101ed9190610c84565b6108dd565b6040516101ff9190610cdc565b60405180910390f35b610222600480360381019061021d9190610dcc565b610ae1565b60405161022f9190610d04565b60405180910390f35b5f805461024490610e37565b80601f016020809104026020016040519081016040528092919081815260200182805461027090610e37565b80156102bb5780601f10610292576101008083540402835291602001916102bb565b820191905f5260205f20905b81548152906001019060200180831161029e57829003601f168201915b505050505081565b5f8160055f3373ffffffffffffffffffffffffffffffffffffffff1673ffffffffffffffffffffffffffffffffffffffff1681526020019081526020015f205f8573ffffffffffffffffffffffffffffffffffffffff1673ffffffffffffffffffffffffffffffffffffffff1681526020019081526020015f20819055508273ffffffffffffffffffffffffffffffffffffffff163373ffffffffffffffffffffffffffffffffffffffff167f8c5be1e5ebec7d5bd14f71427d1e84f3dd0314c0f7b2291e5b200ac8c7c3b9258460405161039e9190610d04565b60405180910390a36001905092915050565b60035481565b5f6103c183836108dd565b505f8373ffffffffffffffffffffffffffffffffffffffff163b11156104a1575f8373ffffffffffffffffffffffffffffffffffffffff166324a756d133856040518363ffffffff1660e01b815260040161041d929190610e76565b6020604051808303815f875af1158015610439573d5f5f3e3d5ffd5b505050506040513d601f19601f8201168201806040525081019061045d9190610ec7565b90508061049f576040517f08c379a000000000000000000000000000000000000000000000000000000000815260040161049690610f3c565b60405180910390fd5b505b6001905092915050565b5f60045f8573ffffffffffffffffffffffffffffffffffffffff1673ffffffffffffffffffffffffffffffffffffffff1681526020019081526020015f205482111561052c576040517f08c379a000000000000000000000000000000000000000000000000000000000815260040161052390610fca565b60405180910390fd5b60055f8573ffffffffffffffffffffffffffffffffffffffff1673ffffffffffffffffffffffffffffffffffffffff1681526020019081526020015f205f3373ffffffffffffffffffffffffffffffffffffffff1673ffffffffffffffffffffffffffffffffffffffff1681526020019081526020015f20548211156105e7576040517f08c379a00000000000000000000000000000000000000000000000000000000081526004016105de90611058565b60405180910390fd5b5f73ffffffffffffffffffffffffffffffffffffffff168373ffffffffffffffffffffffffffffffffffffffff1603610655576040517f08c379a000000000000000000000000000000000000000000000000000000000815260040161064c906110c0565b60405180910390fd5b8160045f8673ffffffffffffffffffffffffffffffffffffffff1673ffffffffffffffffffffffffffffffffffffffff1681526020019081526020015f205f8282546106a1919061110b565b925050819055508160045f8573ffffffffffffffffffffffffffffffffffffffff1673ffffffffffffffffffffffffffffffffffffffff1681526020019081526020015f205f8282546106f4919061113e565b925050819055508160055f8673ffffffffffffffffffffffffffffffffffffffff1673ffffffffffffffffffffffffffffffffffffffff1681526020019081526020015f205f3373ffffffffffffffffffffffffffffffffffffffff1673ffffffffffffffffffffffffffffffffffffffff1681526020019081526020015f205f828254610782919061110b565b925050819055508273ffffffffffffffffffffffffffffffffffffffff168473ffffffffffffffffffffffffffffffffffffffff167fddf252ad1be2c89b69c2b068fc378daa952ba7f163c4a11628f55a4df523b3ef846040516107e69190610d04565b60405180910390a3600190509392505050565b60025f9054906101000a900460ff1681565b5f60045f8373ffffffffffffffffffffffffffffffffffffffff1673ffffffffffffffffffffffffffffffffffffffff1681526020019081526020015f20549050919050565b6001805461085e90610e37565b80601f016020809104026020016040519081016040528092919081815260200182805461088a90610e37565b80156108d55780601f106108ac576101008083540402835291602001916108d5565b820191905f5260205f20905b8154815290600101906020018083116108b857829003601f168201915b505050505081565b5f60045f3373ffffffffffffffffffffffffffffffffffffffff1673ffffffffffffffffffffffffffffffffffffffff1681526020019081526020015f205482111561095e576040517f08c379a000000000000000000000000000000000000000000000000000000000815260040161095590610fca565b60405180910390fd5b5f73ffffffffffffffffffffffffffffffffffffffff168373ffffffffffffffffffffffffffffffffffffffff16036109cc576040517f08c379a00000000000000000000000000000000000000000000000000000000081526004016109c3906110c0565b60405180910390fd5b8160045f3373ffffffffffffffffffffffffffffffffffffffff1673ffffffffffffffffffffffffffffffffffffffff1681526020019081526020015f205f828254610a18919061110b565b925050819055508160045f8573ffffffffffffffffffffffffffffffffffffffff1673ffffffffffffffffffffffffffffffffffffffff1681526020019081526020015f205f828254610a6b919061113e565b925050819055508273ffffffffffffffffffffffffffffffffffffffff163373ffffffffffffffffffffffffffffffffffffffff167fddf252ad1be2c89b69c2b068fc378daa952ba7f163c4a11628f55a4df523b3ef84604051610acf9190610d04565b60405180910390a36001905092915050565b5f60055f8473ffffffffffffffffffffffffffffffffffffffff1673ffffffffffffffffffffffffffffffffffffffff1681526020019081526020015f205f8373ffffffffffffffffffffffffffffffffffffffff1673ffffffffffffffffffffffffffffffffffffffff1681526020019081526020015f2054905092915050565b5f81519050919050565b5f82825260208201905092915050565b8281835e5f83830152505050565b5f601f19601f8301169050919050565b5f610ba582610b63565b610baf8185610b6d565b9350610bbf818560208601610b7d565b610bc881610b8b565b840191505092915050565b5f6020820190508181035f830152610beb8184610b9b565b905092915050565b5f5ffd5b5f73ffffffffffffffffffffffffffffffffffffffff82169050919050565b5f610c2082610bf7565b9050919050565b610c3081610c16565b8114610c3a575f5ffd5b50565b5f81359050610c4b81610c27565b92915050565b5f819050919050565b610c6381610c51565b8114610c6d575f5ffd5b50565b5f81359050610c7e81610c5a565b92915050565b5f5f60408385031215610c9a57610c99610bf3565b5b5f610ca785828601610c3d565b9250506020610cb885828601610c70565b9150509250929050565b5f8115159050919050565b610cd681610cc2565b82525050565b5f602082019050610cef5f830184610ccd565b92915050565b610cfe81610c51565b82525050565b5f602082019050610d175f830184610cf5565b92915050565b5f5f5f60608486031215610d3457610d33610bf3565b5b5f610d4186828701610c3d565b9350506020610d5286828701610c3d565b9250506040610d6386828701610c70565b9150509250925092565b5f60ff82169050919050565b610d8281610d6d565b82525050565b5f602082019050610d9b5f830184610d79565b92915050565b5f60208284031215610db657610db5610bf3565b5b5f610dc384828501610c3d565b91505092915050565b5f5f60408385031215610de257610de1610bf3565b5b5f610def85828601610c3d565b9250506020610e0085828601610c3d565b9150509250929050565b7f4e487b71000000000000000000000000000000000000000000000000000000005f52602260045260245ffd5b5f6002820490506001821680610e4e57607f821691505b602082108103610e6157610e60610e0a565b5b50919050565b610e7081610c16565b82525050565b5f604082019050610e895f830185610e67565b610e966020830184610cf5565b9392505050565b610ea681610cc2565b8114610eb0575f5ffd5b50565b5f81519050610ec181610e9d565b92915050565b5f60208284031215610edc57610edb610bf3565b5b5f610ee984828501610eb3565b91505092915050565b7f4e6f2045524332300000000000000000000000000000000000000000000000005f82015250565b5f610f26600883610b6d565b9150610f3182610ef2565b602082019050919050565b5f6020820190508181035f830152610f5381610f1a565b9050919050565b7f45524332303a207472616e7366657220616d6f756e74206578636565647320625f8201527f616c616e63650000000000000000000000000000000000000000000000000000602082015250565b5f610fb4602683610b6d565b9150610fbf82610f5a565b604082019050919050565b5f6020820190508181035f830152610fe181610fa8565b9050919050565b7f45524332303a207472616e7366657220616d6f756e74206578636565647320615f8201527f6c6c6f77616e6365000000000000000000000000000000000000000000000000602082015250565b5f611042602883610b6d565b915061104d82610fe8565b604082019050919050565b5f6020820190508181035f83015261106f81611036565b9050919050565b7f61646472657373206d757374206e6f74206265206164647265737328302900005f82015250565b5f6110aa601e83610b6d565b91506110b582611076565b602082019050919050565b5f6020820190508181035f8301526110d78161109e565b9050919050565b7f4e487b71000000000000000000000000000000000000000000000000000000005f52601160045260245ffd5b5f61111582610c51565b915061112083610c51565b9250828203905081811115611138576111376110de565b5b92915050565b5f61114882610c51565b915061115383610c51565b925082820190508082111561116b5761116a6110de565b5b9291505056fea2646970667358221220feddc8f17b628f1379511991d70c3cc7ebb4fb1ebc7c69d759e23fef8f37072b64736f6c63430008220033",
					"opcodes": "PUSH1 0x80 PUSH1 0x40 MSTORE CALLVALUE DUP1 ISZERO PUSH2 0xF JUMPI PUSH0 PUSH0 REVERT JUMPDEST POP PUSH1 0x40 MLOAD DUP1 PUSH1 0x40 ADD PUSH1 0x40 MSTORE DUP1 PUSH1 0x9 DUP2 MSTORE PUSH1 0x20 ADD PUSH32 0x4261736545524332300000000000000000000000000000000000000000000000 DUP2 MSTORE POP PUSH0 SWAP1 DUP2 PUSH2 0x53 SWAP2 SWAP1 PUSH2 0x37B JUMP JUMPDEST POP PUSH1 0x40 MLOAD DUP1 PUSH1 0x40 ADD PUSH1 0x40 MSTORE DUP1 PUSH1 0x6 DUP2 MSTORE PUSH1 0x20 ADD PUSH32 0x4245524332300000000000000000000000000000000000000000000000000000 DUP2 MSTORE POP PUSH1 0x1 SWAP1 DUP2 PUSH2 0x98 SWAP2 SWAP1 PUSH2 0x37B JUMP JUMPDEST POP PUSH1 0x12 PUSH1 0x2 PUSH0 PUSH2 0x100 EXP DUP2 SLOAD DUP2 PUSH1 0xFF MUL NOT AND SWAP1 DUP4 PUSH1 0xFF AND MUL OR SWAP1 SSTORE POP PUSH1 0x2 PUSH0 SWAP1 SLOAD SWAP1 PUSH2 0x100 EXP SWAP1 DIV PUSH1 0xFF AND PUSH1 0xA PUSH2 0xCF SWAP2 SWAP1 PUSH2 0x5B2 JUMP JUMPDEST PUSH4 0x5F5E100 PUSH2 0xDE SWAP2 SWAP1 PUSH2 0x5FC JUMP JUMPDEST PUSH1 0x3 DUP2 SWAP1 SSTORE POP PUSH1 0x3 SLOAD PUSH1 0x4 PUSH0 CALLER PUSH20 0xFFFFFFFFFFFFFFFFFFFFFFFFFFFFFFFFFFFFFFFF AND PUSH20 0xFFFFFFFFFFFFFFFFFFFFFFFFFFFFFFFFFFFFFFFF AND DUP2 MSTORE PUSH1 0x20 ADD SWAP1 DUP2 MSTORE PUSH1 0x20 ADD PUSH0 KECCAK256 DUP2 SWAP1 SSTORE POP PUSH2 0x63D JUMP JUMPDEST PUSH0 DUP2 MLOAD SWAP1 POP SWAP2 SWAP1 POP JUMP JUMPDEST PUSH32 0x4E487B7100000000000000000000000000000000000000000000000000000000 PUSH0 MSTORE PUSH1 0x41 PUSH1 0x4 MSTORE PUSH1 0x24 PUSH0 REVERT JUMPDEST PUSH32 0x4E487B7100000000000000000000000000000000000000000000000000000000 PUSH0 MSTORE PUSH1 0x22 PUSH1 0x4 MSTORE PUSH1 0x24 PUSH0 REVERT JUMPDEST PUSH0 PUSH1 0x2 DUP3 DIV SWAP1 POP PUSH1 0x1 DUP3 AND DUP1 PUSH2 0x1A8 JUMPI PUSH1 0x7F DUP3 AND SWAP2 POP JUMPDEST PUSH1 0x20 DUP3 LT DUP2 SUB PUSH2 0x1BB JUMPI PUSH2 0x1BA PUSH2 0x164 JUMP JUMPDEST JUMPDEST POP SWAP2 SWAP1 POP JUMP JUMPDEST PUSH0 DUP2 SWAP1 POP DUP2 PUSH0 MSTORE PUSH1 0x20 PUSH0 KECCAK256 SWAP1 POP SWAP2 SWAP1 POP JUMP JUMPDEST PUSH0 PUSH1 0x20 PUSH1 0x1F DUP4 ADD DIV SWAP1 POP SWAP2 SWAP1 POP JUMP JUMPDEST PUSH0 DUP3 DUP3 SHL SWAP1 POP SWAP3 SWAP2 POP POP JUMP JUMPDEST PUSH0 PUSH1 0x8 DUP4 MUL PUSH2 0x21D PUSH32 0xFFFFFFFFFFFFFFFFFFFFFFFFFFFFFFFFFFFFFFFFFFFFFFFFFFFFFFFFFFFFFFFF DUP3 PUSH2 0x1E2 JUMP JUMPDEST PUSH2 0x227 DUP7 DUP4 PUSH2 0x1E2 JUMP JUMPDEST SWAP6 POP DUP1 NOT DUP5 AND SWAP4 POP DUP1 DUP7 AND DUP5 OR SWAP3 POP POP POP SWAP4 SWAP3 POP POP POP JUMP JUMPDEST PUSH0 DUP2 SWAP1 POP SWAP2 SWAP1 POP JUMP JUMPDEST PUSH0 DUP2 SWAP1 POP SWAP2 SWAP1 POP JUMP JUMPDEST PUSH0 PUSH2 0x26B PUSH2 0x266 PUSH2 0x261 DUP5 PUSH2 0x23F JUMP JUMPDEST PUSH2 0x248 JUMP JUMPDEST PUSH2 0x23F JUMP JUMPDEST SWAP1 POP SWAP2 SWAP1 POP JUMP JUMPDEST PUSH0 DUP2 SWAP1 POP SWAP2 SWAP1 POP JUMP JUMPDEST PUSH2 0x284 DUP4 PUSH2 0x251 JUMP JUMPDEST PUSH2 0x298 PUSH2 0x290 DUP3 PUSH2 0x272 JUMP JUMPDEST DUP5 DUP5 SLOAD PUSH2 0x1EE JUMP JUMPDEST DUP3 SSTORE POP POP POP POP JUMP JUMPDEST PUSH0 PUSH0 SWAP1 POP SWAP1 JUMP JUMPDEST PUSH2 0x2AF PUSH2 0x2A0 JUMP JUMPDEST PUSH2 0x2BA DUP2 DUP5 DUP5 PUSH2 0x27B JUMP JUMPDEST POP POP POP JUMP JUMPDEST PUSH0 JUMPDEST DUP3 DUP2 LT ISZERO PUSH2 0x2E0 JUMPI PUSH2 0x2D5 PUSH0 DUP3 DUP5 ADD PUSH2 0x2A7 JUMP JUMPDEST PUSH1 0x1 DUP2 ADD SWAP1 POP PUSH2 0x2C1 JUMP JUMPDEST POP POP POP JUMP JUMPDEST PUSH1 0x1F DUP3 GT ISZERO PUSH2 0x333 JUMPI DUP3 DUP3 GT ISZERO PUSH2 0x332 JUMPI PUSH2 0x2FF DUP2 PUSH2 0x1C1 JUMP JUMPDEST PUSH2 0x308 DUP4 PUSH2 0x1D3 JUMP JUMPDEST PUSH2 0x311 DUP6 PUSH2 0x1D3 JUMP JUMPDEST PUSH1 0x20 DUP7 LT ISZERO PUSH2 0x31E JUMPI PUSH0 SWAP1 POP JUMPDEST DUP1 DUP4 ADD PUSH2 0x32D DUP3 DUP5 SUB DUP3 PUSH2 0x2BF JUMP JUMPDEST POP POP POP POP JUMPDEST JUMPDEST POP POP POP JUMP JUMPDEST PUSH0 DUP3 DUP3 SHR SWAP1 POP SWAP3 SWAP2 POP POP JUMP JUMPDEST PUSH0 PUSH2 0x353 PUSH0 NOT DUP5 PUSH1 0x8 MUL PUSH2 0x338 JUMP JUMPDEST NOT DUP1 DUP4 AND SWAP2 POP POP SWAP3 SWAP2 POP POP JUMP JUMPDEST PUSH0 PUSH2 0x36B DUP4 DUP4 PUSH2 0x344 JUMP JUMPDEST SWAP2 POP DUP3 PUSH1 0x2 MUL DUP3 OR SWAP1 POP SWAP3 SWAP2 POP POP JUMP JUMPDEST PUSH2 0x384 DUP3 PUSH2 0x12D JUMP JUMPDEST PUSH8 0xFFFFFFFFFFFFFFFF DUP2 GT ISZERO PUSH2 0x39D JUMPI PUSH2 0x39C PUSH2 0x137 JUMP JUMPDEST JUMPDEST PUSH2 0x3A7 DUP3 SLOAD PUSH2 0x191 JUMP JUMPDEST PUSH2 0x3B2 DUP3 DUP3 DUP6 PUSH2 0x2E5 JUMP JUMPDEST PUSH0 PUSH1 0x20 SWAP1 POP PUSH1 0x1F DUP4 GT PUSH1 0x1 DUP2 EQ PUSH2 0x3E3 JUMPI PUSH0 DUP5 ISZERO PUSH2 0x3D1 JUMPI DUP3 DUP8 ADD MLOAD SWAP1 POP JUMPDEST PUSH2 0x3DB DUP6 DUP3 PUSH2 0x360 JUMP JUMPDEST DUP7 SSTORE POP PUSH2 0x442 JUMP JUMPDEST PUSH1 0x1F NOT DUP5 AND PUSH2 0x3F1 DUP7 PUSH2 0x1C1 JUMP JUMPDEST PUSH0 JUMPDEST DUP3 DUP2 LT ISZERO PUSH2 0x418 JUMPI DUP5 DUP10 ADD MLOAD DUP3 SSTORE PUSH1 0x1 DUP3 ADD SWAP2 POP PUSH1 0x20 DUP6 ADD SWAP5 POP PUSH1 0x20 DUP2 ADD SWAP1 POP PUSH2 0x3F3 JUMP JUMPDEST DUP7 DUP4 LT ISZERO PUSH2 0x435 JUMPI DUP5 DUP10 ADD MLOAD PUSH2 0x431 PUSH1 0x1F DUP10 AND DUP3 PUSH2 0x344 JUMP JUMPDEST DUP4 SSTORE POP JUMPDEST PUSH1 0x1 PUSH1 0x2 DUP9 MUL ADD DUP9 SSTORE POP POP POP JUMPDEST POP POP POP POP POP POP JUMP JUMPDEST PUSH32 0x4E487B7100000000000000000000000000000000000000000000000000000000 PUSH0 MSTORE PUSH1 0x11 PUSH1 0x4 MSTORE PUSH1 0x24 PUSH0 REVERT JUMPDEST PUSH0 DUP2 PUSH1 0x1 SHR SWAP1 POP SWAP2 SWAP1 POP JUMP JUMPDEST PUSH0 PUSH0 DUP3 SWAP2 POP DUP4 SWAP1 POP JUMPDEST PUSH1 0x1 DUP6 GT ISZERO PUSH2 0x4CC JUMPI DUP1 DUP7 DIV DUP2 GT ISZERO PUSH2 0x4A8 JUMPI PUSH2 0x4A7 PUSH2 0x44A JUMP JUMPDEST JUMPDEST PUSH1 0x1 DUP6 AND ISZERO PUSH2 0x4B7 JUMPI DUP1 DUP3 MUL SWAP2 POP JUMPDEST DUP1 DUP2 MUL SWAP1 POP PUSH2 0x4C5 DUP6 PUSH2 0x477 JUMP JUMPDEST SWAP5 POP PUSH2 0x48C JUMP JUMPDEST SWAP5 POP SWAP5 SWAP3 POP POP POP JUMP JUMPDEST PUSH0 DUP3 PUSH2 0x4E4 JUMPI PUSH1 0x1 SWAP1 POP PUSH2 0x59F JUMP JUMPDEST DUP2 PUSH2 0x4F1 JUMPI PUSH0 SWAP1 POP PUSH2 0x59F JUMP JUMPDEST DUP2 PUSH1 0x1 DUP2 EQ PUSH2 0x507 JUMPI PUSH1 0x2 DUP2 EQ PUSH2 0x511 JUMPI PUSH2 0x540 JUMP JUMPDEST PUSH1 0x1 SWAP2 POP POP PUSH2 0x59F JUMP JUMPDEST PUSH1 0xFF DUP5 GT ISZERO PUSH2 0x523 JUMPI PUSH2 0x522 PUSH2 0x44A JUMP JUMPDEST JUMPDEST DUP4 PUSH1 0x2 EXP SWAP2 POP DUP5 DUP3 GT ISZERO PUSH2 0x53A JUMPI PUSH2 0x539 PUSH2 0x44A JUMP JUMPDEST JUMPDEST POP PUSH2 0x59F JUMP JUMPDEST POP PUSH1 0x20 DUP4 LT PUSH2 0x133 DUP4 LT AND PUSH1 0x4E DUP5 LT PUSH1 0xB DUP5 LT AND OR ISZERO PUSH2 0x575 JUMPI DUP3 DUP3 EXP SWAP1 POP DUP4 DUP2 GT ISZERO PUSH2 0x570 JUMPI PUSH2 0x56F PUSH2 0x44A JUMP JUMPDEST JUMPDEST PUSH2 0x59F JUMP JUMPDEST PUSH2 0x582 DUP5 DUP5 DUP5 PUSH1 0x1 PUSH2 0x483 JUMP JUMPDEST SWAP3 POP SWAP1 POP DUP2 DUP5 DIV DUP2 GT ISZERO PUSH2 0x599 JUMPI PUSH2 0x598 PUSH2 0x44A JUMP JUMPDEST JUMPDEST DUP2 DUP2 MUL SWAP1 POP JUMPDEST SWAP4 SWAP3 POP POP POP JUMP JUMPDEST PUSH0 PUSH1 0xFF DUP3 AND SWAP1 POP SWAP2 SWAP1 POP JUMP JUMPDEST PUSH0 PUSH2 0x5BC DUP3 PUSH2 0x23F JUMP JUMPDEST SWAP2 POP PUSH2 0x5C7 DUP4 PUSH2 0x5A6 JUMP JUMPDEST SWAP3 POP PUSH2 0x5F4 PUSH32 0xFFFFFFFFFFFFFFFFFFFFFFFFFFFFFFFFFFFFFFFFFFFFFFFFFFFFFFFFFFFFFFFF DUP5 DUP5 PUSH2 0x4D5 JUMP JUMPDEST SWAP1 POP SWAP3 SWAP2 POP POP JUMP JUMPDEST PUSH0 PUSH2 0x606 DUP3 PUSH2 0x23F JUMP JUMPDEST SWAP2 POP PUSH2 0x611 DUP4 PUSH2 0x23F JUMP JUMPDEST SWAP3 POP DUP3 DUP3 MUL PUSH2 0x61F DUP2 PUSH2 0x23F JUMP JUMPDEST SWAP2 POP DUP3 DUP3 DIV DUP5 EQ DUP4 ISZERO OR PUSH2 0x636 JUMPI PUSH2 0x635 PUSH2 0x44A JUMP JUMPDEST JUMPDEST POP SWAP3 SWAP2 POP POP JUMP JUMPDEST PUSH2 0x11A7 DUP1 PUSH2 0x64A PUSH0 CODECOPY PUSH0 RETURN INVALID PUSH1 0x80 PUSH1 0x40 MSTORE CALLVALUE DUP1 ISZERO PUSH2 0xF JUMPI PUSH0 PUSH0 REVERT JUMPDEST POP PUSH1 0x4 CALLDATASIZE LT PUSH2 0x9C JUMPI PUSH0 CALLDATALOAD PUSH1 0xE0 SHR DUP1 PUSH4 0x313CE567 GT PUSH2 0x64 JUMPI DUP1 PUSH4 0x313CE567 EQ PUSH2 0x16C JUMPI DUP1 PUSH4 0x70A08231 EQ PUSH2 0x18A JUMPI DUP1 PUSH4 0x95D89B41 EQ PUSH2 0x1BA JUMPI DUP1 PUSH4 0xA9059CBB EQ PUSH2 0x1D8 JUMPI DUP1 PUSH4 0xDD62ED3E EQ PUSH2 0x208 JUMPI PUSH2 0x9C JUMP JUMPDEST DUP1 PUSH4 0x6FDDE03 EQ PUSH2 0xA0 JUMPI DUP1 PUSH4 0x95EA7B3 EQ PUSH2 0xBE JUMPI DUP1 PUSH4 0x18160DDD EQ PUSH2 0xEE JUMPI DUP1 PUSH4 0x1A825B75 EQ PUSH2 0x10C JUMPI DUP1 PUSH4 0x23B872DD EQ PUSH2 0x13C JUMPI JUMPDEST PUSH0 PUSH0 REVERT JUMPDEST PUSH2 0xA8 PUSH2 0x238 JUMP JUMPDEST PUSH1 0x40 MLOAD PUSH2 0xB5 SWAP2 SWAP1 PUSH2 0xBD3 JUMP JUMPDEST PUSH1 0x40 MLOAD DUP1 SWAP2 SUB SWAP1 RETURN JUMPDEST PUSH2 0xD8 PUSH1 0x4 DUP1 CALLDATASIZE SUB DUP2 ADD SWAP1 PUSH2 0xD3 SWAP2 SWAP1 PUSH2 0xC84 JUMP JUMPDEST PUSH2 0x2C3 JUMP JUMPDEST PUSH1 0x40 MLOAD PUSH2 0xE5 SWAP2 SWAP1 PUSH2 0xCDC JUMP JUMPDEST PUSH1 0x40 MLOAD DUP1 SWAP2 SUB SWAP1 RETURN JUMPDEST PUSH2 0xF6 PUSH2 0x3B0 JUMP JUMPDEST PUSH1 0x40 MLOAD PUSH2 0x103 SWAP2 SWAP1 PUSH2 0xD04 JUMP JUMPDEST PUSH1 0x40 MLOAD DUP1 SWAP2 SUB SWAP1 RETURN JUMPDEST PUSH2 0x126 PUSH1 0x4 DUP1 CALLDATASIZE SUB DUP2 ADD SWAP1 PUSH2 0x121 SWAP2 SWAP1 PUSH2 0xC84 JUMP JUMPDEST PUSH2 0x3B6 JUMP JUMPDEST PUSH1 0x40 MLOAD PUSH2 0x133 SWAP2 SWAP1 PUSH2 0xCDC JUMP JUMPDEST PUSH1 0x40 MLOAD DUP1 SWAP2 SUB SWAP1 RETURN JUMPDEST PUSH2 0x156 PUSH1 0x4 DUP1 CALLDATASIZE SUB DUP2 ADD SWAP1 PUSH2 0x151 SWAP2 SWAP1 PUSH2 0xD1D JUMP JUMPDEST PUSH2 0x4AB JUMP JUMPDEST PUSH1 0x40 MLOAD PUSH2 0x163 SWAP2 SWAP1 PUSH2 0xCDC JUMP JUMPDEST PUSH1 0x40 MLOAD DUP1 SWAP2 SUB SWAP1 RETURN JUMPDEST PUSH2 0x174 PUSH2 0x7F9 JUMP JUMPDEST PUSH1 0x40 MLOAD PUSH2 0x181 SWAP2 SWAP1 PUSH2 0xD88 JUMP JUMPDEST PUSH1 0x40 MLOAD DUP1 SWAP2 SUB SWAP1 RETURN JUMPDEST PUSH2 0x1A4 PUSH1 0x4 DUP1 CALLDATASIZE SUB DUP2 ADD SWAP1 PUSH2 0x19F SWAP2 SWAP1 PUSH2 0xDA1 JUMP JUMPDEST PUSH2 0x80B JUMP JUMPDEST PUSH1 0x40 MLOAD PUSH2 0x1B1 SWAP2 SWAP1 PUSH2 0xD04 JUMP JUMPDEST PUSH1 0x40 MLOAD DUP1 SWAP2 SUB SWAP1 RETURN JUMPDEST PUSH2 0x1C2 PUSH2 0x851 JUMP JUMPDEST PUSH1 0x40 MLOAD PUSH2 0x1CF SWAP2 SWAP1 PUSH2 0xBD3 JUMP JUMPDEST PUSH1 0x40 MLOAD DUP1 SWAP2 SUB SWAP1 RETURN JUMPDEST PUSH2 0x1F2 PUSH1 0x4 DUP1 CALLDATASIZE SUB DUP2 ADD SWAP1 PUSH2 0x1ED SWAP2 SWAP1 PUSH2 0xC84 JUMP JUMPDEST PUSH2 0x8DD JUMP JUMPDEST PUSH1 0x40 MLOAD PUSH2 0x1FF SWAP2 SWAP1 PUSH2 0xCDC JUMP JUMPDEST PUSH1 0x40 MLOAD DUP1 SWAP2 SUB SWAP1 RETURN JUMPDEST PUSH2 0x222 PUSH1 0x4 DUP1 CALLDATASIZE SUB DUP2 ADD SWAP1 PUSH2 0x21D SWAP2 SWAP1 PUSH2 0xDCC JUMP JUMPDEST PUSH2 0xAE1 JUMP JUMPDEST PUSH1 0x40 MLOAD PUSH2 0x22F SWAP2 SWAP1 PUSH2 0xD04 JUMP JUMPDEST PUSH1 0x40 MLOAD DUP1 SWAP2 SUB SWAP1 RETURN JUMPDEST PUSH0 DUP1 SLOAD PUSH2 0x244 SWAP1 PUSH2 0xE37 JUMP JUMPDEST DUP1 PUSH1 0x1F ADD PUSH1 0x20 DUP1 SWAP2 DIV MUL PUSH1 0x20 ADD PUSH1 0x40 MLOAD SWAP1 DUP2 ADD PUSH1 0x40 MSTORE DUP1 SWAP3 SWAP2 SWAP1 DUP2 DUP2 MSTORE PUSH1 0x20 ADD DUP3 DUP1 SLOAD PUSH2 0x270 SWAP1 PUSH2 0xE37 JUMP JUMPDEST DUP1 ISZERO PUSH2 0x2BB JUMPI DUP1 PUSH1 0x1F LT PUSH2 0x292 JUMPI PUSH2 0x100 DUP1 DUP4 SLOAD DIV MUL DUP4 MSTORE SWAP2 PUSH1 0x20 ADD SWAP2 PUSH2 0x2BB JUMP JUMPDEST DUP3 ADD SWAP2 SWAP1 PUSH0 MSTORE PUSH1 0x20 PUSH0 KECCAK256 SWAP1 JUMPDEST DUP2 SLOAD DUP2 MSTORE SWAP1 PUSH1 0x1 ADD SWAP1 PUSH1 0x20 ADD DUP1 DUP4 GT PUSH2 0x29E JUMPI DUP3 SWAP1 SUB PUSH1 0x1F AND DUP3 ADD SWAP2 JUMPDEST POP POP POP POP POP DUP2 JUMP JUMPDEST PUSH0 DUP2 PUSH1 0x5 PUSH0 CALLER PUSH20 0xFFFFFFFFFFFFFFFFFFFFFFFFFFFFFFFFFFFFFFFF AND PUSH20 0xFFFFFFFFFFFFFFFFFFFFFFFFFFFFFFFFFFFFFFFF AND DUP2 MSTORE PUSH1 0x20 ADD SWAP1 DUP2 MSTORE PUSH1 0x20 ADD PUSH0 KECCAK256 PUSH0 DUP6 PUSH20 0xFFFFFFFFFFFFFFFFFFFFFFFFFFFFFFFFFFFFFFFF AND PUSH20 0xFFFFFFFFFFFFFFFFFFFFFFFFFFFFFFFFFFFFFFFF AND DUP2 MSTORE PUSH1 0x20 ADD SWAP1 DUP2 MSTORE PUSH1 0x20 ADD PUSH0 KECCAK256 DUP2 SWAP1 SSTORE POP DUP3 PUSH20 0xFFFFFFFFFFFFFFFFFFFFFFFFFFFFFFFFFFFFFFFF AND CALLER PUSH20 0xFFFFFFFFFFFFFFFFFFFFFFFFFFFFFFFFFFFFFFFF AND PUSH32 0x8C5BE1E5EBEC7D5BD14F71427D1E84F3DD0314C0F7B2291E5B200AC8C7C3B925 DUP5 PUSH1 0x40 MLOAD PUSH2 0x39E SWAP2 SWAP1 PUSH2 0xD04 JUMP JUMPDEST PUSH1 0x40 MLOAD DUP1 SWAP2 SUB SWAP1 LOG3 PUSH1 0x1 SWAP1 POP SWAP3 SWAP2 POP POP JUMP JUMPDEST PUSH1 0x3 SLOAD DUP2 JUMP JUMPDEST PUSH0 PUSH2 0x3C1 DUP4 DUP4 PUSH2 0x8DD JUMP JUMPDEST POP PUSH0 DUP4 PUSH20 0xFFFFFFFFFFFFFFFFFFFFFFFFFFFFFFFFFFFFFFFF AND EXTCODESIZE GT ISZERO PUSH2 0x4A1 JUMPI PUSH0 DUP4 PUSH20 0xFFFFFFFFFFFFFFFFFFFFFFFFFFFFFFFFFFFFFFFF AND PUSH4 0x24A756D1 CALLER DUP6 PUSH1 0x40 MLOAD DUP4 PUSH4 0xFFFFFFFF AND PUSH1 0xE0 SHL DUP2 MSTORE PUSH1 0x4 ADD PUSH2 0x41D SWAP3 SWAP2 SWAP1 PUSH2 0xE76 JUMP JUMPDEST PUSH1 0x20 PUSH1 0x40 MLOAD DUP1 DUP4 SUB DUP2 PUSH0 DUP8 GAS CALL ISZERO DUP1 ISZERO PUSH2 0x439 JUMPI RETURNDATASIZE PUSH0 PUSH0 RETURNDATACOPY RETURNDATASIZE PUSH0 REVERT JUMPDEST POP POP POP POP PUSH1 0x40 MLOAD RETURNDATASIZE PUSH1 0x1F NOT PUSH1 0x1F DUP3 ADD AND DUP3 ADD DUP1 PUSH1 0x40 MSTORE POP DUP2 ADD SWAP1 PUSH2 0x45D SWAP2 SWAP1 PUSH2 0xEC7 JUMP JUMPDEST SWAP1 POP DUP1 PUSH2 0x49F JUMPI PUSH1 0x40 MLOAD PUSH32 0x8C379A000000000000000000000000000000000000000000000000000000000 DUP2 MSTORE PUSH1 0x4 ADD PUSH2 0x496 SWAP1 PUSH2 0xF3C JUMP JUMPDEST PUSH1 0x40 MLOAD DUP1 SWAP2 SUB SWAP1 REVERT JUMPDEST POP JUMPDEST PUSH1 0x1 SWAP1 POP SWAP3 SWAP2 POP POP JUMP JUMPDEST PUSH0 PUSH1 0x4 PUSH0 DUP6 PUSH20 0xFFFFFFFFFFFFFFFFFFFFFFFFFFFFFFFFFFFFFFFF AND PUSH20 0xFFFFFFFFFFFFFFFFFFFFFFFFFFFFFFFFFFFFFFFF AND DUP2 MSTORE PUSH1 0x20 ADD SWAP1 DUP2 MSTORE PUSH1 0x20 ADD PUSH0 KECCAK256 SLOAD DUP3 GT ISZERO PUSH2 0x52C JUMPI PUSH1 0x40 MLOAD PUSH32 0x8C379A000000000000000000000000000000000000000000000000000000000 DUP2 MSTORE PUSH1 0x4 ADD PUSH2 0x523 SWAP1 PUSH2 0xFCA JUMP JUMPDEST PUSH1 0x40 MLOAD DUP1 SWAP2 SUB SWAP1 REVERT JUMPDEST PUSH1 0x5 PUSH0 DUP6 PUSH20 0xFFFFFFFFFFFFFFFFFFFFFFFFFFFFFFFFFFFFFFFF AND PUSH20 0xFFFFFFFFFFFFFFFFFFFFFFFFFFFFFFFFFFFFFFFF AND DUP2 MSTORE PUSH1 0x20 ADD SWAP1 DUP2 MSTORE PUSH1 0x20 ADD PUSH0 KECCAK256 PUSH0 CALLER PUSH20 0xFFFFFFFFFFFFFFFFFFFFFFFFFFFFFFFFFFFFFFFF AND PUSH20 0xFFFFFFFFFFFFFFFFFFFFFFFFFFFFFFFFFFFFFFFF AND DUP2 MSTORE PUSH1 0x20 ADD SWAP1 DUP2 MSTORE PUSH1 0x20 ADD PUSH0 KECCAK256 SLOAD DUP3 GT ISZERO PUSH2 0x5E7 JUMPI PUSH1 0x40 MLOAD PUSH32 0x8C379A000000000000000000000000000000000000000000000000000000000 DUP2 MSTORE PUSH1 0x4 ADD PUSH2 0x5DE SWAP1 PUSH2 0x1058 JUMP JUMPDEST PUSH1 0x40 MLOAD DUP1 SWAP2 SUB SWAP1 REVERT JUMPDEST PUSH0 PUSH20 0xFFFFFFFFFFFFFFFFFFFFFFFFFFFFFFFFFFFFFFFF AND DUP4 PUSH20 0xFFFFFFFFFFFFFFFFFFFFFFFFFFFFFFFFFFFFFFFF AND SUB PUSH2 0x655 JUMPI PUSH1 0x40 MLOAD PUSH32 0x8C379A000000000000000000000000000000000000000000000000000000000 DUP2 MSTORE PUSH1 0x4 ADD PUSH2 0x64C SWAP1 PUSH2 0x10C0 JUMP JUMPDEST PUSH1 0x40 MLOAD DUP1 SWAP2 SUB SWAP1 REVERT JUMPDEST DUP2 PUSH1 0x4 PUSH0 DUP7 PUSH20 0xFFFFFFFFFFFFFFFFFFFFFFFFFFFFFFFFFFFFFFFF AND PUSH20 0xFFFFFFFFFFFFFFFFFFFFFFFFFFFFFFFFFFFFFFFF AND DUP2 MSTORE PUSH1 0x20 ADD SWAP1 DUP2 MSTORE PUSH1 0x20 ADD PUSH0 KECCAK256 PUSH0 DUP3 DUP3 SLOAD PUSH2 0x6A1 SWAP2 SWAP1 PUSH2 0x110B JUMP JUMPDEST SWAP3 POP POP DUP2 SWAP1 SSTORE POP DUP2 PUSH1 0x4 PUSH0 DUP6 PUSH20 0xFFFFFFFFFFFFFFFFFFFFFFFFFFFFFFFFFFFFFFFF AND PUSH20 0xFFFFFFFFFFFFFFFFFFFFFFFFFFFFFFFFFFFFFFFF AND DUP2 MSTORE PUSH1 0x20 ADD SWAP1 DUP2 MSTORE PUSH1 0x20 ADD PUSH0 KECCAK256 PUSH0 DUP3 DUP3 SLOAD PUSH2 0x6F4 SWAP2 SWAP1 PUSH2 0x113E JUMP JUMPDEST SWAP3 POP POP DUP2 SWAP1 SSTORE POP DUP2 PUSH1 0x5 PUSH0 DUP7 PUSH20 0xFFFFFFFFFFFFFFFFFFFFFFFFFFFFFFFFFFFFFFFF AND PUSH20 0xFFFFFFFFFFFFFFFFFFFFFFFFFFFFFFFFFFFFFFFF AND DUP2 MSTORE PUSH1 0x20 ADD SWAP1 DUP2 MSTORE PUSH1 0x20 ADD PUSH0 KECCAK256 PUSH0 CALLER PUSH20 0xFFFFFFFFFFFFFFFFFFFFFFFFFFFFFFFFFFFFFFFF AND PUSH20 0xFFFFFFFFFFFFFFFFFFFFFFFFFFFFFFFFFFFFFFFF AND DUP2 MSTORE PUSH1 0x20 ADD SWAP1 DUP2 MSTORE PUSH1 0x20 ADD PUSH0 KECCAK256 PUSH0 DUP3 DUP3 SLOAD PUSH2 0x782 SWAP2 SWAP1 PUSH2 0x110B JUMP JUMPDEST SWAP3 POP POP DUP2 SWAP1 SSTORE POP DUP3 PUSH20 0xFFFFFFFFFFFFFFFFFFFFFFFFFFFFFFFFFFFFFFFF AND DUP5 PUSH20 0xFFFFFFFFFFFFFFFFFFFFFFFFFFFFFFFFFFFFFFFF AND PUSH32 0xDDF252AD1BE2C89B69C2B068FC378DAA952BA7F163C4A11628F55A4DF523B3EF DUP5 PUSH1 0x40 MLOAD PUSH2 0x7E6 SWAP2 SWAP1 PUSH2 0xD04 JUMP JUMPDEST PUSH1 0x40 MLOAD DUP1 SWAP2 SUB SWAP1 LOG3 PUSH1 0x1 SWAP1 POP SWAP4 SWAP3 POP POP POP JUMP JUMPDEST PUSH1 0x2 PUSH0 SWAP1 SLOAD SWAP1 PUSH2 0x100 EXP SWAP1 DIV PUSH1 0xFF AND DUP2 JUMP JUMPDEST PUSH0 PUSH1 0x4 PUSH0 DUP4 PUSH20 0xFFFFFFFFFFFFFFFFFFFFFFFFFFFFFFFFFFFFFFFF AND PUSH20 0xFFFFFFFFFFFFFFFFFFFFFFFFFFFFFFFFFFFFFFFF AND DUP2 MSTORE PUSH1 0x20 ADD SWAP1 DUP2 MSTORE PUSH1 0x20 ADD PUSH0 KECCAK256 SLOAD SWAP1 POP SWAP2 SWAP1 POP JUMP JUMPDEST PUSH1 0x1 DUP1 SLOAD PUSH2 0x85E SWAP1 PUSH2 0xE37 JUMP JUMPDEST DUP1 PUSH1 0x1F ADD PUSH1 0x20 DUP1 SWAP2 DIV MUL PUSH1 0x20 ADD PUSH1 0x40 MLOAD SWAP1 DUP2 ADD PUSH1 0x40 MSTORE DUP1 SWAP3 SWAP2 SWAP1 DUP2 DUP2 MSTORE PUSH1 0x20 ADD DUP3 DUP1 SLOAD PUSH2 0x88A SWAP1 PUSH2 0xE37 JUMP JUMPDEST DUP1 ISZERO PUSH2 0x8D5 JUMPI DUP1 PUSH1 0x1F LT PUSH2 0x8AC JUMPI PUSH2 0x100 DUP1 DUP4 SLOAD DIV MUL DUP4 MSTORE SWAP2 PUSH1 0x20 ADD SWAP2 PUSH2 0x8D5 JUMP JUMPDEST DUP3 ADD SWAP2 SWAP1 PUSH0 MSTORE PUSH1 0x20 PUSH0 KECCAK256 SWAP1 JUMPDEST DUP2 SLOAD DUP2 MSTORE SWAP1 PUSH1 0x1 ADD SWAP1 PUSH1 0x20 ADD DUP1 DUP4 GT PUSH2 0x8B8 JUMPI DUP3 SWAP1 SUB PUSH1 0x1F AND DUP3 ADD SWAP2 JUMPDEST POP POP POP POP POP DUP2 JUMP JUMPDEST PUSH0 PUSH1 0x4 PUSH0 CALLER PUSH20 0xFFFFFFFFFFFFFFFFFFFFFFFFFFFFFFFFFFFFFFFF AND PUSH20 0xFFFFFFFFFFFFFFFFFFFFFFFFFFFFFFFFFFFFFFFF AND DUP2 MSTORE PUSH1 0x20 ADD SWAP1 DUP2 MSTORE PUSH1 0x20 ADD PUSH0 KECCAK256 SLOAD DUP3 GT ISZERO PUSH2 0x95E JUMPI PUSH1 0x40 MLOAD PUSH32 0x8C379A000000000000000000000000000000000000000000000000000000000 DUP2 MSTORE PUSH1 0x4 ADD PUSH2 0x955 SWAP1 PUSH2 0xFCA JUMP JUMPDEST PUSH1 0x40 MLOAD DUP1 SWAP2 SUB SWAP1 REVERT JUMPDEST PUSH0 PUSH20 0xFFFFFFFFFFFFFFFFFFFFFFFFFFFFFFFFFFFFFFFF AND DUP4 PUSH20 0xFFFFFFFFFFFFFFFFFFFFFFFFFFFFFFFFFFFFFFFF AND SUB PUSH2 0x9CC JUMPI PUSH1 0x40 MLOAD PUSH32 0x8C379A000000000000000000000000000000000000000000000000000000000 DUP2 MSTORE PUSH1 0x4 ADD PUSH2 0x9C3 SWAP1 PUSH2 0x10C0 JUMP JUMPDEST PUSH1 0x40 MLOAD DUP1 SWAP2 SUB SWAP1 REVERT JUMPDEST DUP2 PUSH1 0x4 PUSH0 CALLER PUSH20 0xFFFFFFFFFFFFFFFFFFFFFFFFFFFFFFFFFFFFFFFF AND PUSH20 0xFFFFFFFFFFFFFFFFFFFFFFFFFFFFFFFFFFFFFFFF AND DUP2 MSTORE PUSH1 0x20 ADD SWAP1 DUP2 MSTORE PUSH1 0x20 ADD PUSH0 KECCAK256 PUSH0 DUP3 DUP3 SLOAD PUSH2 0xA18 SWAP2 SWAP1 PUSH2 0x110B JUMP JUMPDEST SWAP3 POP POP DUP2 SWAP1 SSTORE POP DUP2 PUSH1 0x4 PUSH0 DUP6 PUSH20 0xFFFFFFFFFFFFFFFFFFFFFFFFFFFFFFFFFFFFFFFF AND PUSH20 0xFFFFFFFFFFFFFFFFFFFFFFFFFFFFFFFFFFFFFFFF AND DUP2 MSTORE PUSH1 0x20 ADD SWAP1 DUP2 MSTORE PUSH1 0x20 ADD PUSH0 KECCAK256 PUSH0 DUP3 DUP3 SLOAD PUSH2 0xA6B SWAP2 SWAP1 PUSH2 0x113E JUMP JUMPDEST SWAP3 POP POP DUP2 SWAP1 SSTORE POP DUP3 PUSH20 0xFFFFFFFFFFFFFFFFFFFFFFFFFFFFFFFFFFFFFFFF AND CALLER PUSH20 0xFFFFFFFFFFFFFFFFFFFFFFFFFFFFFFFFFFFFFFFF AND PUSH32 0xDDF252AD1BE2C89B69C2B068FC378DAA952BA7F163C4A11628F55A4DF523B3EF DUP5 PUSH1 0x40 MLOAD PUSH2 0xACF SWAP2 SWAP1 PUSH2 0xD04 JUMP JUMPDEST PUSH1 0x40 MLOAD DUP1 SWAP2 SUB SWAP1 LOG3 PUSH1 0x1 SWAP1 POP SWAP3 SWAP2 POP POP JUMP JUMPDEST PUSH0 PUSH1 0x5 PUSH0 DUP5 PUSH20 0xFFFFFFFFFFFFFFFFFFFFFFFFFFFFFFFFFFFFFFFF AND PUSH20 0xFFFFFFFFFFFFFFFFFFFFFFFFFFFFFFFFFFFFFFFF AND DUP2 MSTORE PUSH1 0x20 ADD SWAP1 DUP2 MSTORE PUSH1 0x20 ADD PUSH0 KECCAK256 PUSH0 DUP4 PUSH20 0xFFFFFFFFFFFFFFFFFFFFFFFFFFFFFFFFFFFFFFFF AND PUSH20 0xFFFFFFFFFFFFFFFFFFFFFFFFFFFFFFFFFFFFFFFF AND DUP2 MSTORE PUSH1 0x20 ADD SWAP1 DUP2 MSTORE PUSH1 0x20 ADD PUSH0 KECCAK256 SLOAD SWAP1 POP SWAP3 SWAP2 POP POP JUMP JUMPDEST PUSH0 DUP2 MLOAD SWAP1 POP SWAP2 SWAP1 POP JUMP JUMPDEST PUSH0 DUP3 DUP3 MSTORE PUSH1 0x20 DUP3 ADD SWAP1 POP SWAP3 SWAP2 POP POP JUMP JUMPDEST DUP3 DUP2 DUP4 MCOPY PUSH0 DUP4 DUP4 ADD MSTORE POP POP POP JUMP JUMPDEST PUSH0 PUSH1 0x1F NOT PUSH1 0x1F DUP4 ADD AND SWAP1 POP SWAP2 SWAP1 POP JUMP JUMPDEST PUSH0 PUSH2 0xBA5 DUP3 PUSH2 0xB63 JUMP JUMPDEST PUSH2 0xBAF DUP2 DUP6 PUSH2 0xB6D JUMP JUMPDEST SWAP4 POP PUSH2 0xBBF DUP2 DUP6 PUSH1 0x20 DUP7 ADD PUSH2 0xB7D JUMP JUMPDEST PUSH2 0xBC8 DUP2 PUSH2 0xB8B JUMP JUMPDEST DUP5 ADD SWAP2 POP POP SWAP3 SWAP2 POP POP JUMP JUMPDEST PUSH0 PUSH1 0x20 DUP3 ADD SWAP1 POP DUP2 DUP2 SUB PUSH0 DUP4 ADD MSTORE PUSH2 0xBEB DUP2 DUP5 PUSH2 0xB9B JUMP JUMPDEST SWAP1 POP SWAP3 SWAP2 POP POP JUMP JUMPDEST PUSH0 PUSH0 REVERT JUMPDEST PUSH0 PUSH20 0xFFFFFFFFFFFFFFFFFFFFFFFFFFFFFFFFFFFFFFFF DUP3 AND SWAP1 POP SWAP2 SWAP1 POP JUMP JUMPDEST PUSH0 PUSH2 0xC20 DUP3 PUSH2 0xBF7 JUMP JUMPDEST SWAP1 POP SWAP2 SWAP1 POP JUMP JUMPDEST PUSH2 0xC30 DUP2 PUSH2 0xC16 JUMP JUMPDEST DUP2 EQ PUSH2 0xC3A JUMPI PUSH0 PUSH0 REVERT JUMPDEST POP JUMP JUMPDEST PUSH0 DUP2 CALLDATALOAD SWAP1 POP PUSH2 0xC4B DUP2 PUSH2 0xC27 JUMP JUMPDEST SWAP3 SWAP2 POP POP JUMP JUMPDEST PUSH0 DUP2 SWAP1 POP SWAP2 SWAP1 POP JUMP JUMPDEST PUSH2 0xC63 DUP2 PUSH2 0xC51 JUMP JUMPDEST DUP2 EQ PUSH2 0xC6D JUMPI PUSH0 PUSH0 REVERT JUMPDEST POP JUMP JUMPDEST PUSH0 DUP2 CALLDATALOAD SWAP1 POP PUSH2 0xC7E DUP2 PUSH2 0xC5A JUMP JUMPDEST SWAP3 SWAP2 POP POP JUMP JUMPDEST PUSH0 PUSH0 PUSH1 0x40 DUP4 DUP6 SUB SLT ISZERO PUSH2 0xC9A JUMPI PUSH2 0xC99 PUSH2 0xBF3 JUMP JUMPDEST JUMPDEST PUSH0 PUSH2 0xCA7 DUP6 DUP3 DUP7 ADD PUSH2 0xC3D JUMP JUMPDEST SWAP3 POP POP PUSH1 0x20 PUSH2 0xCB8 DUP6 DUP3 DUP7 ADD PUSH2 0xC70 JUMP JUMPDEST SWAP2 POP POP SWAP3 POP SWAP3 SWAP1 POP JUMP JUMPDEST PUSH0 DUP2 ISZERO ISZERO SWAP1 POP SWAP2 SWAP1 POP JUMP JUMPDEST PUSH2 0xCD6 DUP2 PUSH2 0xCC2 JUMP JUMPDEST DUP3 MSTORE POP POP JUMP JUMPDEST PUSH0 PUSH1 0x20 DUP3 ADD SWAP1 POP PUSH2 0xCEF PUSH0 DUP4 ADD DUP5 PUSH2 0xCCD JUMP JUMPDEST SWAP3 SWAP2 POP POP JUMP JUMPDEST PUSH2 0xCFE DUP2 PUSH2 0xC51 JUMP JUMPDEST DUP3 MSTORE POP POP JUMP JUMPDEST PUSH0 PUSH1 0x20 DUP3 ADD SWAP1 POP PUSH2 0xD17 PUSH0 DUP4 ADD DUP5 PUSH2 0xCF5 JUMP JUMPDEST SWAP3 SWAP2 POP POP JUMP JUMPDEST PUSH0 PUSH0 PUSH0 PUSH1 0x60 DUP5 DUP7 SUB SLT ISZERO PUSH2 0xD34 JUMPI PUSH2 0xD33 PUSH2 0xBF3 JUMP JUMPDEST JUMPDEST PUSH0 PUSH2 0xD41 DUP7 DUP3 DUP8 ADD PUSH2 0xC3D JUMP JUMPDEST SWAP4 POP POP PUSH1 0x20 PUSH2 0xD52 DUP7 DUP3 DUP8 ADD PUSH2 0xC3D JUMP JUMPDEST SWAP3 POP POP PUSH1 0x40 PUSH2 0xD63 DUP7 DUP3 DUP8 ADD PUSH2 0xC70 JUMP JUMPDEST SWAP2 POP POP SWAP3 POP SWAP3 POP SWAP3 JUMP JUMPDEST PUSH0 PUSH1 0xFF DUP3 AND SWAP1 POP SWAP2 SWAP1 POP JUMP JUMPDEST PUSH2 0xD82 DUP2 PUSH2 0xD6D JUMP JUMPDEST DUP3 MSTORE POP POP JUMP JUMPDEST PUSH0 PUSH1 0x20 DUP3 ADD SWAP1 POP PUSH2 0xD9B PUSH0 DUP4 ADD DUP5 PUSH2 0xD79 JUMP JUMPDEST SWAP3 SWAP2 POP POP JUMP JUMPDEST PUSH0 PUSH1 0x20 DUP3 DUP5 SUB SLT ISZERO PUSH2 0xDB6 JUMPI PUSH2 0xDB5 PUSH2 0xBF3 JUMP JUMPDEST JUMPDEST PUSH0 PUSH2 0xDC3 DUP5 DUP3 DUP6 ADD PUSH2 0xC3D JUMP JUMPDEST SWAP2 POP POP SWAP3 SWAP2 POP POP JUMP JUMPDEST PUSH0 PUSH0 PUSH1 0x40 DUP4 DUP6 SUB SLT ISZERO PUSH2 0xDE2 JUMPI PUSH2 0xDE1 PUSH2 0xBF3 JUMP JUMPDEST JUMPDEST PUSH0 PUSH2 0xDEF DUP6 DUP3 DUP7 ADD PUSH2 0xC3D JUMP JUMPDEST SWAP3 POP POP PUSH1 0x20 PUSH2 0xE00 DUP6 DUP3 DUP7 ADD PUSH2 0xC3D JUMP JUMPDEST SWAP2 POP POP SWAP3 POP SWAP3 SWAP1 POP JUMP JUMPDEST PUSH32 0x4E487B7100000000000000000000000000000000000000000000000000000000 PUSH0 MSTORE PUSH1 0x22 PUSH1 0x4 MSTORE PUSH1 0x24 PUSH0 REVERT JUMPDEST PUSH0 PUSH1 0x2 DUP3 DIV SWAP1 POP PUSH1 0x1 DUP3 AND DUP1 PUSH2 0xE4E JUMPI PUSH1 0x7F DUP3 AND SWAP2 POP JUMPDEST PUSH1 0x20 DUP3 LT DUP2 SUB PUSH2 0xE61 JUMPI PUSH2 0xE60 PUSH2 0xE0A JUMP JUMPDEST JUMPDEST POP SWAP2 SWAP1 POP JUMP JUMPDEST PUSH2 0xE70 DUP2 PUSH2 0xC16 JUMP JUMPDEST DUP3 MSTORE POP POP JUMP JUMPDEST PUSH0 PUSH1 0x40 DUP3 ADD SWAP1 POP PUSH2 0xE89 PUSH0 DUP4 ADD DUP6 PUSH2 0xE67 JUMP JUMPDEST PUSH2 0xE96 PUSH1 0x20 DUP4 ADD DUP5 PUSH2 0xCF5 JUMP JUMPDEST SWAP4 SWAP3 POP POP POP JUMP JUMPDEST PUSH2 0xEA6 DUP2 PUSH2 0xCC2 JUMP JUMPDEST DUP2 EQ PUSH2 0xEB0 JUMPI PUSH0 PUSH0 REVERT JUMPDEST POP JUMP JUMPDEST PUSH0 DUP2 MLOAD SWAP1 POP PUSH2 0xEC1 DUP2 PUSH2 0xE9D JUMP JUMPDEST SWAP3 SWAP2 POP POP JUMP JUMPDEST PUSH0 PUSH1 0x20 DUP3 DUP5 SUB SLT ISZERO PUSH2 0xEDC JUMPI PUSH2 0xEDB PUSH2 0xBF3 JUMP JUMPDEST JUMPDEST PUSH0 PUSH2 0xEE9 DUP5 DUP3 DUP6 ADD PUSH2 0xEB3 JUMP JUMPDEST SWAP2 POP POP SWAP3 SWAP2 POP POP JUMP JUMPDEST PUSH32 0x4E6F204552433230000000000000000000000000000000000000000000000000 PUSH0 DUP3 ADD MSTORE POP JUMP JUMPDEST PUSH0 PUSH2 0xF26 PUSH1 0x8 DUP4 PUSH2 0xB6D JUMP JUMPDEST SWAP2 POP PUSH2 0xF31 DUP3 PUSH2 0xEF2 JUMP JUMPDEST PUSH1 0x20 DUP3 ADD SWAP1 POP SWAP2 SWAP1 POP JUMP JUMPDEST PUSH0 PUSH1 0x20 DUP3 ADD SWAP1 POP DUP2 DUP2 SUB PUSH0 DUP4 ADD MSTORE PUSH2 0xF53 DUP2 PUSH2 0xF1A JUMP JUMPDEST SWAP1 POP SWAP2 SWAP1 POP JUMP JUMPDEST PUSH32 0x45524332303A207472616E7366657220616D6F756E7420657863656564732062 PUSH0 DUP3 ADD MSTORE PUSH32 0x616C616E63650000000000000000000000000000000000000000000000000000 PUSH1 0x20 DUP3 ADD MSTORE POP JUMP JUMPDEST PUSH0 PUSH2 0xFB4 PUSH1 0x26 DUP4 PUSH2 0xB6D JUMP JUMPDEST SWAP2 POP PUSH2 0xFBF DUP3 PUSH2 0xF5A JUMP JUMPDEST PUSH1 0x40 DUP3 ADD SWAP1 POP SWAP2 SWAP1 POP JUMP JUMPDEST PUSH0 PUSH1 0x20 DUP3 ADD SWAP1 POP DUP2 DUP2 SUB PUSH0 DUP4 ADD MSTORE PUSH2 0xFE1 DUP2 PUSH2 0xFA8 JUMP JUMPDEST SWAP1 POP SWAP2 SWAP1 POP JUMP JUMPDEST PUSH32 0x45524332303A207472616E7366657220616D6F756E7420657863656564732061 PUSH0 DUP3 ADD MSTORE PUSH32 0x6C6C6F77616E6365000000000000000000000000000000000000000000000000 PUSH1 0x20 DUP3 ADD MSTORE POP JUMP JUMPDEST PUSH0 PUSH2 0x1042 PUSH1 0x28 DUP4 PUSH2 0xB6D JUMP JUMPDEST SWAP2 POP PUSH2 0x104D DUP3 PUSH2 0xFE8 JUMP JUMPDEST PUSH1 0x40 DUP3 ADD SWAP1 POP SWAP2 SWAP1 POP JUMP JUMPDEST PUSH0 PUSH1 0x20 DUP3 ADD SWAP1 POP DUP2 DUP2 SUB PUSH0 DUP4 ADD MSTORE PUSH2 0x106F DUP2 PUSH2 0x1036 JUMP JUMPDEST SWAP1 POP SWAP2 SWAP1 POP JUMP JUMPDEST PUSH32 0x61646472657373206D757374206E6F7420626520616464726573732830290000 PUSH0 DUP3 ADD MSTORE POP JUMP JUMPDEST PUSH0 PUSH2 0x10AA PUSH1 0x1E DUP4 PUSH2 0xB6D JUMP JUMPDEST SWAP2 POP PUSH2 0x10B5 DUP3 PUSH2 0x1076 JUMP JUMPDEST PUSH1 0x20 DUP3 ADD SWAP1 POP SWAP2 SWAP1 POP JUMP JUMPDEST PUSH0 PUSH1 0x20 DUP3 ADD SWAP1 POP DUP2 DUP2 SUB PUSH0 DUP4 ADD MSTORE PUSH2 0x10D7 DUP2 PUSH2 0x109E JUMP JUMPDEST SWAP1 POP SWAP2 SWAP1 POP JUMP JUMPDEST PUSH32 0x4E487B7100000000000000000000000000000000000000000000000000000000 PUSH0 MSTORE PUSH1 0x11 PUSH1 0x4 MSTORE PUSH1 0x24 PUSH0 REVERT JUMPDEST PUSH0 PUSH2 0x1115 DUP3 PUSH2 0xC51 JUMP JUMPDEST SWAP2 POP PUSH2 0x1120 DUP4 PUSH2 0xC51 JUMP JUMPDEST SWAP3 POP DUP3 DUP3 SUB SWAP1 POP DUP2 DUP2 GT ISZERO PUSH2 0x1138 JUMPI PUSH2 0x1137 PUSH2 0x10DE JUMP JUMPDEST JUMPDEST SWAP3 SWAP2 POP POP JUMP JUMPDEST PUSH0 PUSH2 0x1148 DUP3 PUSH2 0xC51 JUMP JUMPDEST SWAP2 POP PUSH2 0x1153 DUP4 PUSH2 0xC51 JUMP JUMPDEST SWAP3 POP DUP3 DUP3 ADD SWAP1 POP DUP1 DUP3 GT ISZERO PUSH2 0x116B JUMPI PUSH2 0x116A PUSH2 0x10DE JUMP JUMPDEST JUMPDEST SWAP3 SWAP2 POP POP JUMP INVALID LOG2 PUSH5 0x6970667358 0x22 SLT KECCAK256 INVALID 0xDD 0xC8 CALL PUSH28 0x628F1379511991D70C3CC7EBB4FB1EBC7C69D759E23FEF8F37072B64 PUSH20 0x6F6C634300082200330000000000000000000000 "
				},
				"gasEstimates": {
					"creation": {
						"codeDepositCost": "903800",
						"executionCost": "infinite",
						"totalCost": "infinite"
					},
					"external": {
						"allowance(address,address)": "infinite",
						"approve(address,uint256)": "infinite",
						"balanceOf(address)": "2851",
						"decimals()": "2466",
						"name()": "infinite",
						"symbol()": "infinite",
						"totalSupply()": "2470",
						"transfer(address,uint256)": "infinite",
						"transferFrom(address,address,uint256)": "infinite",
						"transferWithCallback(address,uint256)": "infinite"
					}
				},
				"methodIdentifiers": {
					"allowance(address,address)": "dd62ed3e",
					"approve(address,uint256)": "095ea7b3",
					"balanceOf(address)": "70a08231",
					"decimals()": "313ce567",
					"name()": "06fdde03",
					"symbol()": "95d89b41",
					"totalSupply()": "18160ddd",
					"transfer(address,uint256)": "a9059cbb",
					"transferFrom(address,address,uint256)": "23b872dd",
					"transferWithCallback(address,uint256)": "1a825b75"
				}
			},
			"storageLayout": {
				"storage": [
					{
						"astId": 4,
						"contract": "contracts/BasdERC20.sol:BaseERC20",
						"label": "name",
						"offset": 0,
						"slot": "0",
						"type": "t_string_storage"
					},
					{
						"astId": 6,
						"contract": "contracts/BasdERC20.sol:BaseERC20",
						"label": "symbol",
						"offset": 0,
						"slot": "1",
						"type": "t_string_storage"
					},
					{
						"astId": 8,
						"contract": "contracts/BasdERC20.sol:BaseERC20",
						"label": "decimals",
						"offset": 0,
						"slot": "2",
						"type": "t_uint8"
					},
					{
						"astId": 10,
						"contract": "contracts/BasdERC20.sol:BaseERC20",
						"label": "totalSupply",
						"offset": 0,
						"slot": "3",
						"type": "t_uint256"
					},
					{
						"astId": 14,
						"contract": "contracts/BasdERC20.sol:BaseERC20",
						"label": "balances",
						"offset": 0,
						"slot": "4",
						"type": "t_mapping(t_address,t_uint256)"
					},
					{
						"astId": 20,
						"contract": "contracts/BasdERC20.sol:BaseERC20",
						"label": "allowances",
						"offset": 0,
						"slot": "5",
						"type": "t_mapping(t_address,t_mapping(t_address,t_uint256))"
					}
				],
				"types": {
					"t_address": {
						"encoding": "inplace",
						"label": "address",
						"numberOfBytes": "20"
					},
					"t_mapping(t_address,t_mapping(t_address,t_uint256))": {
						"encoding": "mapping",
						"key": "t_address",
						"label": "mapping(address => mapping(address => uint256))",
						"numberOfBytes": "32",
						"value": "t_mapping(t_address,t_uint256)"
					},
					"t_mapping(t_address,t_uint256)": {
						"encoding": "mapping",
						"key": "t_address",
						"label": "mapping(address => uint256)",
						"numberOfBytes": "32",
						"value": "t_uint256"
					},
					"t_string_storage": {
						"encoding": "bytes",
						"label": "string",
						"numberOfBytes": "32"
					},
					"t_uint256": {
						"encoding": "inplace",
						"label": "uint256",
						"numberOfBytes": "32"
					},
					"t_uint8": {
						"encoding": "inplace",
						"label": "uint8",
						"numberOfBytes": "1"
					}
				}
			},
			"userdoc": {
				"kind": "user",
				"methods": {},
				"version": 1
			}
		}
	}
}