{
	"contracts/NFTMarket.sol": {
		"NFTMarket": {
			"abi": [
				{
					"inputs": [
						{
							"internalType": "contract IERC20",
							"name": "erc20",
							"type": "address"
						},
						{
							"internalType": "contract IERC721",
							"name": "erc721",
							"type": "address"
						}
					],
					"stateMutability": "nonpayable",
					"type": "constructor"
				},
				{
					"anonymous": false,
					"inputs": [
						{
							"indexed": false,
							"internalType": "address",
							"name": "buyer",
							"type": "address"
						},
						{
							"indexed": false,
							"internalType": "uint256",
							"name": "tokenID",
							"type": "uint256"
						},
						{
							"indexed": false,
							"internalType": "uint256",
							"name": "amount",
							"type": "uint256"
						}
					],
					"name": "BuyNFT",
					"type": "event"
				},
				{
					"anonymous": false,
					"inputs": [
						{
							"indexed": false,
							"internalType": "uint256",
							"name": "tokenId",
							"type": "uint256"
						},
						{
							"indexed": false,
							"internalType": "address",
							"name": "sellPeople",
							"type": "address"
						},
						{
							"indexed": false,
							"internalType": "uint256",
							"name": "amount",
							"type": "uint256"
						}
					],
					"name": "List",
					"type": "event"
				},
				{
					"inputs": [
						{
							"internalType": "uint256",
							"name": "tokenID",
							"type": "uint256"
						},
						{
							"internalType": "uint256",
							"name": "amount",
							"type": "uint256"
						}
					],
					"name": "buyNFT",
					"outputs": [
						{
							"internalType": "bool",
							"name": "",
							"type": "bool"
						}
					],
					"stateMutability": "nonpayable",
					"type": "function"
				},
				{
					"inputs": [],
					"name": "erc20Token",
					"outputs": [
						{
							"internalType": "contract IERC20",
							"name": "",
							"type": "address"
						}
					],
					"stateMutability": "view",
					"type": "function"
				},
				{
					"inputs": [],
					"name": "erc721Token",
					"outputs": [
						{
							"internalType": "contract IERC721",
							"name": "",
							"type": "address"
						}
					],
					"stateMutability": "view",
					"type": "function"
				},
				{
					"inputs": [
						{
							"internalType": "uint256",
							"name": "tokenId",
							"type": "uint256"
						},
						{
							"internalType": "uint256",
							"name": "amount",
							"type": "uint256"
						}
					],
					"name": "list",
					"outputs": [
						{
							"internalType": "bool",
							"name": "",
							"type": "bool"
						}
					],
					"stateMutability": "nonpayable",
					"type": "function"
				},
				{
					"inputs": [
						{
							"internalType": "uint256",
							"name": "",
							"type": "uint256"
						}
					],
					"name": "tokenPrice",
					"outputs": [
						{
							"internalType": "uint256",
							"name": "",
							"type": "uint256"
						}
					],
					"stateMutability": "view",
					"type": "function"
				},
				{
					"inputs": [
						{
							"internalType": "uint256",
							"name": "",
							"type": "uint256"
						}
					],
					"name": "tokenSeller",
					"outputs": [
						{
							"internalType": "address",
							"name": "",
							"type": "address"
						}
					],
					"stateMutability": "view",
					"type": "function"
				},
				{
					"inputs": [
						{
							"internalType": "address",
							"name": "from",
							"type": "address"
						},
						{
							"internalType": "uint256",
							"name": "amount",
							"type": "uint256"
						},
						{
							"internalType": "bytes",
							"name": "data",
							"type": "bytes"
						}
					],
					"name": "tokensReceived",
					"outputs": [
						{
							"internalType": "bool",
							"name": "",
							"type": "bool"
						}
					],
					"stateMutability": "nonpayable",
					"type": "function"
				}
			],
			"devdoc": {
				"kind": "dev",
				"methods": {},
				"version": 1
			},
			"evm": {
				"assembly": "    /* \"contracts/NFTMarket.sol\":145:3874  contract NFTMarket{... */\n  mstore(0x40, 0x80)\n    /* \"contracts/NFTMarket.sol\":489:600  constructor(IERC20 erc20,IERC721 erc721){... */\n  callvalue\n  dup1\n  iszero\n  tag_1\n  jumpi\n  revert(0x00, 0x00)\ntag_1:\n  pop\n  mload(0x40)\n  sub(codesize, bytecodeSize)\n  dup1\n  bytecodeSize\n  dup4\n  codecopy\n  dup2\n  dup2\n  add\n  0x40\n  mstore\n  dup2\n  add\n  swap1\n  tag_2\n  swap2\n  swap1\n  tag_3\n  jump\t// in\ntag_2:\n    /* \"contracts/NFTMarket.sol\":554:559  erc20 */\n  dup2\n    /* \"contracts/NFTMarket.sol\":541:551  erc20Token */\n  0x00\n  0x00\n    /* \"contracts/NFTMarket.sol\":541:559  erc20Token = erc20 */\n  0x0100\n  exp\n  dup2\n  sload\n  dup2\n  0xffffffffffffffffffffffffffffffffffffffff\n  mul\n  not\n  and\n  swap1\n  dup4\n  0xffffffffffffffffffffffffffffffffffffffff\n  and\n  mul\n  or\n  swap1\n  sstore\n  pop\n    /* \"contracts/NFTMarket.sol\":585:591  erc721 */\n  dup1\n    /* \"contracts/NFTMarket.sol\":571:582  erc721Token */\n  0x01\n  0x00\n    /* \"contracts/NFTMarket.sol\":571:591  erc721Token = erc721 */\n  0x0100\n  exp\n  dup2\n  sload\n  dup2\n  0xffffffffffffffffffffffffffffffffffffffff\n  mul\n  not\n  and\n  swap1\n  dup4\n  0xffffffffffffffffffffffffffffffffffffffff\n  and\n  mul\n  or\n  swap1\n  sstore\n  pop\n    /* \"contracts/NFTMarket.sol\":489:600  constructor(IERC20 erc20,IERC721 erc721){... */\n  pop\n  pop\n    /* \"contracts/NFTMarket.sol\":145:3874  contract NFTMarket{... */\n  jump(tag_6)\n    /* \"#utility.yul\":88:205   */\ntag_8:\n    /* \"#utility.yul\":197:198   */\n  0x00\n    /* \"#utility.yul\":194:195   */\n  0x00\n    /* \"#utility.yul\":187:199   */\n  revert\n    /* \"#utility.yul\":334:460   */\ntag_10:\n    /* \"#utility.yul\":371:378   */\n  0x00\n    /* \"#utility.yul\":411:453   */\n  0xffffffffffffffffffffffffffffffffffffffff\n    /* \"#utility.yul\":404:409   */\n  dup3\n    /* \"#utility.yul\":400:454   */\n  and\n    /* \"#utility.yul\":389:454   */\n  swap1\n  pop\n    /* \"#utility.yul\":334:460   */\n  swap2\n  swap1\n  pop\n  jump\t// out\n    /* \"#utility.yul\":466:562   */\ntag_11:\n    /* \"#utility.yul\":503:510   */\n  0x00\n    /* \"#utility.yul\":532:556   */\n  tag_24\n    /* \"#utility.yul\":550:555   */\n  dup3\n    /* \"#utility.yul\":532:556   */\n  tag_10\n  jump\t// in\ntag_24:\n    /* \"#utility.yul\":521:556   */\n  swap1\n  pop\n    /* \"#utility.yul\":466:562   */\n  swap2\n  swap1\n  pop\n  jump\t// out\n    /* \"#utility.yul\":568:677   */\ntag_12:\n    /* \"#utility.yul\":618:625   */\n  0x00\n    /* \"#utility.yul\":647:671   */\n  tag_26\n    /* \"#utility.yul\":665:670   */\n  dup3\n    /* \"#utility.yul\":647:671   */\n  tag_11\n  jump\t// in\ntag_26:\n    /* \"#utility.yul\":636:671   */\n  swap1\n  pop\n    /* \"#utility.yul\":568:677   */\n  swap2\n  swap1\n  pop\n  jump\t// out\n    /* \"#utility.yul\":683:831   */\ntag_13:\n    /* \"#utility.yul\":769:806   */\n  tag_28\n    /* \"#utility.yul\":800:805   */\n  dup2\n    /* \"#utility.yul\":769:806   */\n  tag_12\n  jump\t// in\ntag_28:\n    /* \"#utility.yul\":762:767   */\n  dup2\n    /* \"#utility.yul\":759:807   */\n  eq\n    /* \"#utility.yul\":749:825   */\n  tag_29\n  jumpi\n    /* \"#utility.yul\":821:822   */\n  0x00\n    /* \"#utility.yul\":818:819   */\n  0x00\n    /* \"#utility.yul\":811:823   */\n  revert\n    /* \"#utility.yul\":749:825   */\ntag_29:\n    /* \"#utility.yul\":683:831   */\n  pop\n  jump\t// out\n    /* \"#utility.yul\":837:1006   */\ntag_14:\n    /* \"#utility.yul\":907:912   */\n  0x00\n    /* \"#utility.yul\":938:944   */\n  dup2\n    /* \"#utility.yul\":932:945   */\n  mload\n    /* \"#utility.yul\":923:945   */\n  swap1\n  pop\n    /* \"#utility.yul\":954:1000   */\n  tag_31\n    /* \"#utility.yul\":994:999   */\n  dup2\n    /* \"#utility.yul\":954:1000   */\n  tag_13\n  jump\t// in\ntag_31:\n    /* \"#utility.yul\":837:1006   */\n  swap3\n  swap2\n  pop\n  pop\n  jump\t// out\n    /* \"#utility.yul\":1012:1123   */\ntag_15:\n    /* \"#utility.yul\":1064:1071   */\n  0x00\n    /* \"#utility.yul\":1093:1117   */\n  tag_33\n    /* \"#utility.yul\":1111:1116   */\n  dup3\n    /* \"#utility.yul\":1093:1117   */\n  tag_11\n  jump\t// in\ntag_33:\n    /* \"#utility.yul\":1082:1117   */\n  swap1\n  pop\n    /* \"#utility.yul\":1012:1123   */\n  swap2\n  swap1\n  pop\n  jump\t// out\n    /* \"#utility.yul\":1129:1281   */\ntag_16:\n    /* \"#utility.yul\":1217:1256   */\n  tag_35\n    /* \"#utility.yul\":1250:1255   */\n  dup2\n    /* \"#utility.yul\":1217:1256   */\n  tag_15\n  jump\t// in\ntag_35:\n    /* \"#utility.yul\":1210:1215   */\n  dup2\n    /* \"#utility.yul\":1207:1257   */\n  eq\n    /* \"#utility.yul\":1197:1275   */\n  tag_36\n  jumpi\n    /* \"#utility.yul\":1271:1272   */\n  0x00\n    /* \"#utility.yul\":1268:1269   */\n  0x00\n    /* \"#utility.yul\":1261:1273   */\n  revert\n    /* \"#utility.yul\":1197:1275   */\ntag_36:\n    /* \"#utility.yul\":1129:1281   */\n  pop\n  jump\t// out\n    /* \"#utility.yul\":1287:1460   */\ntag_17:\n    /* \"#utility.yul\":1359:1364   */\n  0x00\n    /* \"#utility.yul\":1390:1396   */\n  dup2\n    /* \"#utility.yul\":1384:1397   */\n  mload\n    /* \"#utility.yul\":1375:1397   */\n  swap1\n  pop\n    /* \"#utility.yul\":1406:1454   */\n  tag_38\n    /* \"#utility.yul\":1448:1453   */\n  dup2\n    /* \"#utility.yul\":1406:1454   */\n  tag_16\n  jump\t// in\ntag_38:\n    /* \"#utility.yul\":1287:1460   */\n  swap3\n  swap2\n  pop\n  pop\n  jump\t// out\n    /* \"#utility.yul\":1466:2029   */\ntag_3:\n    /* \"#utility.yul\":1573:1579   */\n  0x00\n    /* \"#utility.yul\":1581:1587   */\n  0x00\n    /* \"#utility.yul\":1630:1632   */\n  0x40\n    /* \"#utility.yul\":1618:1627   */\n  dup4\n    /* \"#utility.yul\":1609:1616   */\n  dup6\n    /* \"#utility.yul\":1605:1628   */\n  sub\n    /* \"#utility.yul\":1601:1633   */\n  slt\n    /* \"#utility.yul\":1598:1717   */\n  iszero\n  tag_40\n  jumpi\n    /* \"#utility.yul\":1636:1715   */\n  tag_41\n  tag_8\n  jump\t// in\ntag_41:\n    /* \"#utility.yul\":1598:1717   */\ntag_40:\n    /* \"#utility.yul\":1756:1757   */\n  0x00\n    /* \"#utility.yul\":1781:1858   */\n  tag_42\n    /* \"#utility.yul\":1850:1857   */\n  dup6\n    /* \"#utility.yul\":1841:1847   */\n  dup3\n    /* \"#utility.yul\":1830:1839   */\n  dup7\n    /* \"#utility.yul\":1826:1848   */\n  add\n    /* \"#utility.yul\":1781:1858   */\n  tag_14\n  jump\t// in\ntag_42:\n    /* \"#utility.yul\":1771:1858   */\n  swap3\n  pop\n    /* \"#utility.yul\":1727:1868   */\n  pop\n    /* \"#utility.yul\":1907:1909   */\n  0x20\n    /* \"#utility.yul\":1933:2012   */\n  tag_43\n    /* \"#utility.yul\":2004:2011   */\n  dup6\n    /* \"#utility.yul\":1995:2001   */\n  dup3\n    /* \"#utility.yul\":1984:1993   */\n  dup7\n    /* \"#utility.yul\":1980:2002   */\n  add\n    /* \"#utility.yul\":1933:2012   */\n  tag_17\n  jump\t// in\ntag_43:\n    /* \"#utility.yul\":1923:2012   */\n  swap2\n  pop\n    /* \"#utility.yul\":1878:2022   */\n  pop\n    /* \"#utility.yul\":1466:2029   */\n  swap3\n  pop\n  swap3\n  swap1\n  pop\n  jump\t// out\n    /* \"contracts/NFTMarket.sol\":145:3874  contract NFTMarket{... */\ntag_6:\n  dataSize(sub_0)\n  dup1\n  dataOffset(sub_0)\n  0x00\n  codecopy\n  0x00\n  return\nstop\n\nsub_0: assembly {\n        /* \"contracts/NFTMarket.sol\":145:3874  contract NFTMarket{... */\n      mstore(0x40, 0x80)\n      callvalue\n      dup1\n      iszero\n      tag_1\n      jumpi\n      revert(0x00, 0x00)\n    tag_1:\n      pop\n      jumpi(tag_2, lt(calldatasize, 0x04))\n      shr(0xe0, calldataload(0x00))\n      dup1\n      0x8a13eea7\n      gt\n      tag_10\n      jumpi\n      dup1\n      0x8a13eea7\n      eq\n      tag_6\n      jumpi\n      dup1\n      0xd0314263\n      eq\n      tag_7\n      jumpi\n      dup1\n      0xd4ddce8a\n      eq\n      tag_8\n      jumpi\n      dup1\n      0xfa34d82f\n      eq\n      tag_9\n      jumpi\n      jump(tag_2)\n    tag_10:\n      dup1\n      0x1d85bf03\n      eq\n      tag_3\n      jumpi\n      dup1\n      0x50fd7367\n      eq\n      tag_4\n      jumpi\n      dup1\n      0x5f2d6bcd\n      eq\n      tag_5\n      jumpi\n    tag_2:\n      revert(0x00, 0x00)\n        /* \"contracts/NFTMarket.sol\":1283:2194  function buyNFT(uint tokenID, uint amount) external returns (bool){... */\n    tag_3:\n      tag_11\n      0x04\n      dup1\n      calldatasize\n      sub\n      dup2\n      add\n      swap1\n      tag_12\n      swap2\n      swap1\n      tag_13\n      jump\t// in\n    tag_12:\n      tag_14\n      jump\t// in\n    tag_11:\n      mload(0x40)\n      tag_15\n      swap2\n      swap1\n      tag_16\n      jump\t// in\n    tag_15:\n      mload(0x40)\n      dup1\n      swap2\n      sub\n      swap1\n      return\n        /* \"contracts/NFTMarket.sol\":628:1252  function list(uint tokenId,uint amount) external  returns (bool){... */\n    tag_4:\n      tag_17\n      0x04\n      dup1\n      calldatasize\n      sub\n      dup2\n      add\n      swap1\n      tag_18\n      swap2\n      swap1\n      tag_13\n      jump\t// in\n    tag_18:\n      tag_19\n      jump\t// in\n    tag_17:\n      mload(0x40)\n      tag_20\n      swap2\n      swap1\n      tag_16\n      jump\t// in\n    tag_20:\n      mload(0x40)\n      dup1\n      swap2\n      sub\n      swap1\n      return\n        /* \"contracts/NFTMarket.sol\":203:229  IERC721 public erc721Token */\n    tag_5:\n      tag_21\n      tag_22\n      jump\t// in\n    tag_21:\n      mload(0x40)\n      tag_23\n      swap2\n      swap1\n      tag_24\n      jump\t// in\n    tag_23:\n      mload(0x40)\n      dup1\n      swap2\n      sub\n      swap1\n      return\n        /* \"contracts/NFTMarket.sol\":172:196  IERC20 public erc20Token */\n    tag_6:\n      tag_25\n      tag_26\n      jump\t// in\n    tag_25:\n      mload(0x40)\n      tag_27\n      swap2\n      swap1\n      tag_28\n      jump\t// in\n    tag_27:\n      mload(0x40)\n      dup1\n      swap2\n      sub\n      swap1\n      return\n        /* \"contracts/NFTMarket.sol\":2432:3871  function tokensReceived(address from,uint amount,bytes calldata data) external returns (bool){... */\n    tag_7:\n      tag_29\n      0x04\n      dup1\n      calldatasize\n      sub\n      dup2\n      add\n      swap1\n      tag_30\n      swap2\n      swap1\n      tag_31\n      jump\t// in\n    tag_30:\n      tag_32\n      jump\t// in\n    tag_29:\n      mload(0x40)\n      tag_33\n      swap2\n      swap1\n      tag_16\n      jump\t// in\n    tag_33:\n      mload(0x40)\n      dup1\n      swap2\n      sub\n      swap1\n      return\n        /* \"contracts/NFTMarket.sol\":391:429  mapping (uint =>uint)public tokenPrice */\n    tag_8:\n      tag_34\n      0x04\n      dup1\n      calldatasize\n      sub\n      dup2\n      add\n      swap1\n      tag_35\n      swap2\n      swap1\n      tag_36\n      jump\t// in\n    tag_35:\n      tag_37\n      jump\t// in\n    tag_34:\n      mload(0x40)\n      tag_38\n      swap2\n      swap1\n      tag_39\n      jump\t// in\n    tag_38:\n      mload(0x40)\n      dup1\n      swap2\n      sub\n      swap1\n      return\n        /* \"contracts/NFTMarket.sol\":436:479  mapping (uint => address)public tokenSeller */\n    tag_9:\n      tag_40\n      0x04\n      dup1\n      calldatasize\n      sub\n      dup2\n      add\n      swap1\n      tag_41\n      swap2\n      swap1\n      tag_36\n      jump\t// in\n    tag_41:\n      tag_42\n      jump\t// in\n    tag_40:\n      mload(0x40)\n      tag_43\n      swap2\n      swap1\n      tag_44\n      jump\t// in\n    tag_43:\n      mload(0x40)\n      dup1\n      swap2\n      sub\n      swap1\n      return\n        /* \"contracts/NFTMarket.sol\":1283:2194  function buyNFT(uint tokenID, uint amount) external returns (bool){... */\n    tag_14:\n        /* \"contracts/NFTMarket.sol\":1344:1348  bool */\n      0x00\n        /* \"contracts/NFTMarket.sol\":1377:1378  0 */\n      0x00\n        /* \"contracts/NFTMarket.sol\":1368:1375  tokenID */\n      dup4\n        /* \"contracts/NFTMarket.sol\":1368:1378  tokenID!=0 */\n      eq\n      iszero\n        /* \"contracts/NFTMarket.sol\":1368:1410  tokenID!=0 && amount ==tokenPrice[tokenID] */\n      dup1\n      iszero\n      tag_46\n      jumpi\n      pop\n        /* \"contracts/NFTMarket.sol\":1391:1401  tokenPrice */\n      0x02\n        /* \"contracts/NFTMarket.sol\":1391:1410  tokenPrice[tokenID] */\n      0x00\n        /* \"contracts/NFTMarket.sol\":1402:1409  tokenID */\n      dup5\n        /* \"contracts/NFTMarket.sol\":1391:1410  tokenPrice[tokenID] */\n      dup2\n      mstore\n      0x20\n      add\n      swap1\n      dup2\n      mstore\n      0x20\n      add\n      0x00\n      keccak256\n      sload\n        /* \"contracts/NFTMarket.sol\":1382:1388  amount */\n      dup3\n        /* \"contracts/NFTMarket.sol\":1382:1410  amount ==tokenPrice[tokenID] */\n      eq\n        /* \"contracts/NFTMarket.sol\":1368:1410  tokenID!=0 && amount ==tokenPrice[tokenID] */\n    tag_46:\n        /* \"contracts/NFTMarket.sol\":1360:1466  require(tokenID!=0 && amount ==tokenPrice[tokenID],\"tokenId must !=0, amount must == tokenPrice[tokenID]\") */\n      tag_47\n      jumpi\n      mload(0x40)\n      0x08c379a000000000000000000000000000000000000000000000000000000000\n      dup2\n      mstore\n      0x04\n      add\n      tag_48\n      swap1\n      tag_49\n      jump\t// in\n    tag_48:\n      mload(0x40)\n      dup1\n      swap2\n      sub\n      swap1\n      revert\n    tag_47:\n        /* \"contracts/NFTMarket.sol\":1477:1495  address NFTOwnerOf */\n      0x00\n        /* \"contracts/NFTMarket.sol\":1498:1509  erc721Token */\n      0x01\n      0x00\n      swap1\n      sload\n      swap1\n      0x0100\n      exp\n      swap1\n      div\n      0xffffffffffffffffffffffffffffffffffffffff\n      and\n        /* \"contracts/NFTMarket.sol\":1498:1517  erc721Token.ownerOf */\n      0xffffffffffffffffffffffffffffffffffffffff\n      and\n      0x6352211e\n        /* \"contracts/NFTMarket.sol\":1518:1525  tokenID */\n      dup6\n        /* \"contracts/NFTMarket.sol\":1498:1526  erc721Token.ownerOf(tokenID) */\n      mload(0x40)\n      dup3\n      0xffffffff\n      and\n      0xe0\n      shl\n      dup2\n      mstore\n      0x04\n      add\n      tag_50\n      swap2\n      swap1\n      tag_39\n      jump\t// in\n    tag_50:\n      0x20\n      mload(0x40)\n      dup1\n      dup4\n      sub\n      dup2\n      dup7\n      gas\n      staticcall\n      iszero\n      dup1\n      iszero\n      tag_52\n      jumpi\n      returndatacopy(0x00, 0x00, returndatasize)\n      revert(0x00, returndatasize)\n    tag_52:\n      pop\n      pop\n      pop\n      pop\n      mload(0x40)\n      returndatasize\n      not(0x1f)\n      0x1f\n      dup3\n      add\n      and\n      dup3\n      add\n      dup1\n      0x40\n      mstore\n      pop\n      dup2\n      add\n      swap1\n      tag_53\n      swap2\n      swap1\n      tag_54\n      jump\t// in\n    tag_53:\n        /* \"contracts/NFTMarket.sol\":1477:1526  address NFTOwnerOf = erc721Token.ownerOf(tokenID) */\n      swap1\n      pop\n        /* \"contracts/NFTMarket.sol\":1633:1644  tokenSeller */\n      0x03\n        /* \"contracts/NFTMarket.sol\":1633:1653  tokenSeller[tokenID] */\n      0x00\n        /* \"contracts/NFTMarket.sol\":1645:1652  tokenID */\n      dup6\n        /* \"contracts/NFTMarket.sol\":1633:1653  tokenSeller[tokenID] */\n      dup2\n      mstore\n      0x20\n      add\n      swap1\n      dup2\n      mstore\n      0x20\n      add\n      0x00\n      keccak256\n      0x00\n      swap1\n      sload\n      swap1\n      0x0100\n      exp\n      swap1\n      div\n      0xffffffffffffffffffffffffffffffffffffffff\n      and\n        /* \"contracts/NFTMarket.sol\":1619:1653  NFTOwnerOf == tokenSeller[tokenID] */\n      0xffffffffffffffffffffffffffffffffffffffff\n      and\n        /* \"contracts/NFTMarket.sol\":1619:1629  NFTOwnerOf */\n      dup2\n        /* \"contracts/NFTMarket.sol\":1619:1653  NFTOwnerOf == tokenSeller[tokenID] */\n      0xffffffffffffffffffffffffffffffffffffffff\n      and\n      eq\n        /* \"contracts/NFTMarket.sol\":1611:1693  require(NFTOwnerOf == tokenSeller[tokenID],\"The sellers are not the same address\") */\n      tag_55\n      jumpi\n      mload(0x40)\n      0x08c379a000000000000000000000000000000000000000000000000000000000\n      dup2\n      mstore\n      0x04\n      add\n      tag_56\n      swap1\n      tag_57\n      jump\t// in\n    tag_56:\n      mload(0x40)\n      dup1\n      swap2\n      sub\n      swap1\n      revert\n    tag_55:\n        /* \"contracts/NFTMarket.sol\":1739:1749  tokenPrice */\n      0x02\n        /* \"contracts/NFTMarket.sol\":1739:1758  tokenPrice[tokenID] */\n      0x00\n        /* \"contracts/NFTMarket.sol\":1750:1757  tokenID */\n      dup6\n        /* \"contracts/NFTMarket.sol\":1739:1758  tokenPrice[tokenID] */\n      dup2\n      mstore\n      0x20\n      add\n      swap1\n      dup2\n      mstore\n      0x20\n      add\n      0x00\n      keccak256\n        /* \"contracts/NFTMarket.sol\":1732:1758  delete tokenPrice[tokenID] */\n      0x00\n      swap1\n      sstore\n        /* \"contracts/NFTMarket.sol\":1776:1787  tokenSeller */\n      0x03\n        /* \"contracts/NFTMarket.sol\":1776:1796  tokenSeller[tokenID] */\n      0x00\n        /* \"contracts/NFTMarket.sol\":1788:1795  tokenID */\n      dup6\n        /* \"contracts/NFTMarket.sol\":1776:1796  tokenSeller[tokenID] */\n      dup2\n      mstore\n      0x20\n      add\n      swap1\n      dup2\n      mstore\n      0x20\n      add\n      0x00\n      keccak256\n      0x00\n        /* \"contracts/NFTMarket.sol\":1769:1796  delete tokenSeller[tokenID] */\n      0x0100\n      exp\n      dup2\n      sload\n      swap1\n      0xffffffffffffffffffffffffffffffffffffffff\n      mul\n      not\n      and\n      swap1\n      sstore\n        /* \"contracts/NFTMarket.sol\":1849:1860  bool result */\n      0x00\n        /* \"contracts/NFTMarket.sol\":1863:1873  erc20Token */\n      0x00\n      0x00\n      swap1\n      sload\n      swap1\n      0x0100\n      exp\n      swap1\n      div\n      0xffffffffffffffffffffffffffffffffffffffff\n      and\n        /* \"contracts/NFTMarket.sol\":1863:1886  erc20Token.transferFrom */\n      0xffffffffffffffffffffffffffffffffffffffff\n      and\n      0x23b872dd\n        /* \"contracts/NFTMarket.sol\":1887:1897  msg.sender */\n      caller\n        /* \"contracts/NFTMarket.sol\":1899:1909  NFTOwnerOf */\n      dup5\n        /* \"contracts/NFTMarket.sol\":1911:1917  amount */\n      dup8\n        /* \"contracts/NFTMarket.sol\":1863:1918  erc20Token.transferFrom(msg.sender, NFTOwnerOf, amount) */\n      mload(0x40)\n      dup5\n      0xffffffff\n      and\n      0xe0\n      shl\n      dup2\n      mstore\n      0x04\n      add\n      tag_58\n      swap4\n      swap3\n      swap2\n      swap1\n      tag_59\n      jump\t// in\n    tag_58:\n      0x20\n      mload(0x40)\n      dup1\n      dup4\n      sub\n      dup2\n      0x00\n      dup8\n      gas\n      call\n      iszero\n      dup1\n      iszero\n      tag_61\n      jumpi\n      returndatacopy(0x00, 0x00, returndatasize)\n      revert(0x00, returndatasize)\n    tag_61:\n      pop\n      pop\n      pop\n      pop\n      mload(0x40)\n      returndatasize\n      not(0x1f)\n      0x1f\n      dup3\n      add\n      and\n      dup3\n      add\n      dup1\n      0x40\n      mstore\n      pop\n      dup2\n      add\n      swap1\n      tag_62\n      swap2\n      swap1\n      tag_63\n      jump\t// in\n    tag_62:\n        /* \"contracts/NFTMarket.sol\":1849:1918  bool result = erc20Token.transferFrom(msg.sender, NFTOwnerOf, amount) */\n      swap1\n      pop\n        /* \"contracts/NFTMarket.sol\":1934:1940  result */\n      dup1\n        /* \"contracts/NFTMarket.sol\":1929:1996  if (!result){... */\n      tag_64\n      jumpi\n        /* \"contracts/NFTMarket.sol\":1956:1984  revert(\"transferFrom error\") */\n      mload(0x40)\n      0x08c379a000000000000000000000000000000000000000000000000000000000\n      dup2\n      mstore\n      0x04\n      add\n      tag_65\n      swap1\n      tag_66\n      jump\t// in\n    tag_65:\n      mload(0x40)\n      dup1\n      swap2\n      sub\n      swap1\n      revert\n        /* \"contracts/NFTMarket.sol\":1929:1996  if (!result){... */\n    tag_64:\n        /* \"contracts/NFTMarket.sol\":2048:2059  erc721Token */\n      0x01\n      0x00\n      swap1\n      sload\n      swap1\n      0x0100\n      exp\n      swap1\n      div\n      0xffffffffffffffffffffffffffffffffffffffff\n      and\n        /* \"contracts/NFTMarket.sol\":2048:2077  erc721Token. safeTransferFrom */\n      0xffffffffffffffffffffffffffffffffffffffff\n      and\n      0x42842e0e\n        /* \"contracts/NFTMarket.sol\":2078:2088  NFTOwnerOf */\n      dup4\n        /* \"contracts/NFTMarket.sol\":2090:2100  msg.sender */\n      caller\n        /* \"contracts/NFTMarket.sol\":2102:2109  tokenID */\n      dup9\n        /* \"contracts/NFTMarket.sol\":2048:2110  erc721Token. safeTransferFrom(NFTOwnerOf, msg.sender, tokenID) */\n      mload(0x40)\n      dup5\n      0xffffffff\n      and\n      0xe0\n      shl\n      dup2\n      mstore\n      0x04\n      add\n      tag_67\n      swap4\n      swap3\n      swap2\n      swap1\n      tag_59\n      jump\t// in\n    tag_67:\n      0x00\n      mload(0x40)\n      dup1\n      dup4\n      sub\n      dup2\n      0x00\n      dup8\n      dup1\n      extcodesize\n      iszero\n      dup1\n      iszero\n      tag_68\n      jumpi\n      revert(0x00, 0x00)\n    tag_68:\n      pop\n      gas\n      call\n      iszero\n      dup1\n      iszero\n      tag_70\n      jumpi\n      returndatacopy(0x00, 0x00, returndatasize)\n      revert(0x00, returndatasize)\n    tag_70:\n      pop\n      pop\n      pop\n      pop\n        /* \"contracts/NFTMarket.sol\":2128:2161  BuyNFT(msg.sender,tokenID,amount) */\n      0x5d963241241cfe9e161d13500d628058954b3febfde03e4b1f4071370e72fe2b\n        /* \"contracts/NFTMarket.sol\":2135:2145  msg.sender */\n      caller\n        /* \"contracts/NFTMarket.sol\":2146:2153  tokenID */\n      dup7\n        /* \"contracts/NFTMarket.sol\":2154:2160  amount */\n      dup7\n        /* \"contracts/NFTMarket.sol\":2128:2161  BuyNFT(msg.sender,tokenID,amount) */\n      mload(0x40)\n      tag_71\n      swap4\n      swap3\n      swap2\n      swap1\n      tag_72\n      jump\t// in\n    tag_71:\n      mload(0x40)\n      dup1\n      swap2\n      sub\n      swap1\n      log1\n        /* \"contracts/NFTMarket.sol\":2181:2185  true */\n      0x01\n        /* \"contracts/NFTMarket.sol\":2174:2185  return true */\n      swap3\n      pop\n      pop\n      pop\n        /* \"contracts/NFTMarket.sol\":1283:2194  function buyNFT(uint tokenID, uint amount) external returns (bool){... */\n      swap3\n      swap2\n      pop\n      pop\n      jump\t// out\n        /* \"contracts/NFTMarket.sol\":628:1252  function list(uint tokenId,uint amount) external  returns (bool){... */\n    tag_19:\n        /* \"contracts/NFTMarket.sol\":687:691  bool */\n      0x00\n        /* \"contracts/NFTMarket.sol\":720:721  0 */\n      0x00\n        /* \"contracts/NFTMarket.sol\":711:718  tokenId */\n      dup4\n        /* \"contracts/NFTMarket.sol\":711:721  tokenId!=0 */\n      eq\n      iszero\n        /* \"contracts/NFTMarket.sol\":711:734  tokenId!=0 && amount >0 */\n      dup1\n      iszero\n      tag_74\n      jumpi\n      pop\n        /* \"contracts/NFTMarket.sol\":733:734  0 */\n      0x00\n        /* \"contracts/NFTMarket.sol\":725:731  amount */\n      dup3\n        /* \"contracts/NFTMarket.sol\":725:734  amount >0 */\n      gt\n        /* \"contracts/NFTMarket.sol\":711:734  tokenId!=0 && amount >0 */\n    tag_74:\n        /* \"contracts/NFTMarket.sol\":703:770  require(tokenId!=0 && amount >0,\"tokenId must !=0, amount must >0\") */\n      tag_75\n      jumpi\n      mload(0x40)\n      0x08c379a000000000000000000000000000000000000000000000000000000000\n      dup2\n      mstore\n      0x04\n      add\n      tag_76\n      swap1\n      tag_77\n      jump\t// in\n    tag_76:\n      mload(0x40)\n      dup1\n      swap2\n      sub\n      swap1\n      revert\n    tag_75:\n        /* \"contracts/NFTMarket.sol\":819:829  msg.sender */\n      caller\n        /* \"contracts/NFTMarket.sol\":789:829  erc721Token.ownerOf(tokenId)==msg.sender */\n      0xffffffffffffffffffffffffffffffffffffffff\n      and\n        /* \"contracts/NFTMarket.sol\":789:800  erc721Token */\n      0x01\n      0x00\n      swap1\n      sload\n      swap1\n      0x0100\n      exp\n      swap1\n      div\n      0xffffffffffffffffffffffffffffffffffffffff\n      and\n        /* \"contracts/NFTMarket.sol\":789:808  erc721Token.ownerOf */\n      0xffffffffffffffffffffffffffffffffffffffff\n      and\n      0x6352211e\n        /* \"contracts/NFTMarket.sol\":809:816  tokenId */\n      dup6\n        /* \"contracts/NFTMarket.sol\":789:817  erc721Token.ownerOf(tokenId) */\n      mload(0x40)\n      dup3\n      0xffffffff\n      and\n      0xe0\n      shl\n      dup2\n      mstore\n      0x04\n      add\n      tag_78\n      swap2\n      swap1\n      tag_39\n      jump\t// in\n    tag_78:\n      0x20\n      mload(0x40)\n      dup1\n      dup4\n      sub\n      dup2\n      dup7\n      gas\n      staticcall\n      iszero\n      dup1\n      iszero\n      tag_80\n      jumpi\n      returndatacopy(0x00, 0x00, returndatasize)\n      revert(0x00, returndatasize)\n    tag_80:\n      pop\n      pop\n      pop\n      pop\n      mload(0x40)\n      returndatasize\n      not(0x1f)\n      0x1f\n      dup3\n      add\n      and\n      dup3\n      add\n      dup1\n      0x40\n      mstore\n      pop\n      dup2\n      add\n      swap1\n      tag_81\n      swap2\n      swap1\n      tag_54\n      jump\t// in\n    tag_81:\n        /* \"contracts/NFTMarket.sol\":789:829  erc721Token.ownerOf(tokenId)==msg.sender */\n      0xffffffffffffffffffffffffffffffffffffffff\n      and\n      eq\n        /* \"contracts/NFTMarket.sol\":781:850  require(erc721Token.ownerOf(tokenId)==msg.sender,\"you are not owner\") */\n      tag_82\n      jumpi\n      mload(0x40)\n      0x08c379a000000000000000000000000000000000000000000000000000000000\n      dup2\n      mstore\n      0x04\n      add\n      tag_83\n      swap1\n      tag_84\n      jump\t// in\n    tag_83:\n      mload(0x40)\n      dup1\n      swap2\n      sub\n      swap1\n      revert\n    tag_82:\n        /* \"contracts/NFTMarket.sol\":892:893  0 */\n      0x00\n        /* \"contracts/NFTMarket.sol\":869:879  tokenPrice */\n      0x02\n        /* \"contracts/NFTMarket.sol\":869:888  tokenPrice[tokenId] */\n      0x00\n        /* \"contracts/NFTMarket.sol\":880:887  tokenId */\n      dup6\n        /* \"contracts/NFTMarket.sol\":869:888  tokenPrice[tokenId] */\n      dup2\n      mstore\n      0x20\n      add\n      swap1\n      dup2\n      mstore\n      0x20\n      add\n      0x00\n      keccak256\n      sload\n        /* \"contracts/NFTMarket.sol\":869:893  tokenPrice[tokenId] == 0 */\n      eq\n        /* \"contracts/NFTMarket.sol\":861:912  require(tokenPrice[tokenId] == 0, \"already listed\") */\n      tag_85\n      jumpi\n      mload(0x40)\n      0x08c379a000000000000000000000000000000000000000000000000000000000\n      dup2\n      mstore\n      0x04\n      add\n      tag_86\n      swap1\n      tag_87\n      jump\t// in\n    tag_86:\n      mload(0x40)\n      dup1\n      swap2\n      sub\n      swap1\n      revert\n    tag_85:\n        /* \"contracts/NFTMarket.sol\":1000:1004  this */\n      address\n        /* \"contracts/NFTMarket.sol\":956:1005  erc721Token.getApproved(tokenId) == address(this) */\n      0xffffffffffffffffffffffffffffffffffffffff\n      and\n        /* \"contracts/NFTMarket.sol\":956:967  erc721Token */\n      0x01\n      0x00\n      swap1\n      sload\n      swap1\n      0x0100\n      exp\n      swap1\n      div\n      0xffffffffffffffffffffffffffffffffffffffff\n      and\n        /* \"contracts/NFTMarket.sol\":956:979  erc721Token.getApproved */\n      0xffffffffffffffffffffffffffffffffffffffff\n      and\n      0x081812fc\n        /* \"contracts/NFTMarket.sol\":980:987  tokenId */\n      dup6\n        /* \"contracts/NFTMarket.sol\":956:988  erc721Token.getApproved(tokenId) */\n      mload(0x40)\n      dup3\n      0xffffffff\n      and\n      0xe0\n      shl\n      dup2\n      mstore\n      0x04\n      add\n      tag_88\n      swap2\n      swap1\n      tag_39\n      jump\t// in\n    tag_88:\n      0x20\n      mload(0x40)\n      dup1\n      dup4\n      sub\n      dup2\n      dup7\n      gas\n      staticcall\n      iszero\n      dup1\n      iszero\n      tag_90\n      jumpi\n      returndatacopy(0x00, 0x00, returndatasize)\n      revert(0x00, returndatasize)\n    tag_90:\n      pop\n      pop\n      pop\n      pop\n      mload(0x40)\n      returndatasize\n      not(0x1f)\n      0x1f\n      dup3\n      add\n      and\n      dup3\n      add\n      dup1\n      0x40\n      mstore\n      pop\n      dup2\n      add\n      swap1\n      tag_91\n      swap2\n      swap1\n      tag_54\n      jump\t// in\n    tag_91:\n        /* \"contracts/NFTMarket.sol\":956:1005  erc721Token.getApproved(tokenId) == address(this) */\n      0xffffffffffffffffffffffffffffffffffffffff\n      and\n      eq\n        /* \"contracts/NFTMarket.sol\":956:1063  erc721Token.getApproved(tokenId) == address(this) ||erc721Token.isApprovedForAll(msg.sender, address(this)) */\n      dup1\n      tag_92\n      jumpi\n      pop\n        /* \"contracts/NFTMarket.sol\":1008:1019  erc721Token */\n      0x01\n      0x00\n      swap1\n      sload\n      swap1\n      0x0100\n      exp\n      swap1\n      div\n      0xffffffffffffffffffffffffffffffffffffffff\n      and\n        /* \"contracts/NFTMarket.sol\":1008:1036  erc721Token.isApprovedForAll */\n      0xffffffffffffffffffffffffffffffffffffffff\n      and\n      0xe985e9c5\n        /* \"contracts/NFTMarket.sol\":1037:1047  msg.sender */\n      caller\n        /* \"contracts/NFTMarket.sol\":1057:1061  this */\n      address\n        /* \"contracts/NFTMarket.sol\":1008:1063  erc721Token.isApprovedForAll(msg.sender, address(this)) */\n      mload(0x40)\n      dup4\n      0xffffffff\n      and\n      0xe0\n      shl\n      dup2\n      mstore\n      0x04\n      add\n      tag_93\n      swap3\n      swap2\n      swap1\n      tag_94\n      jump\t// in\n    tag_93:\n      0x20\n      mload(0x40)\n      dup1\n      dup4\n      sub\n      dup2\n      dup7\n      gas\n      staticcall\n      iszero\n      dup1\n      iszero\n      tag_96\n      jumpi\n      returndatacopy(0x00, 0x00, returndatasize)\n      revert(0x00, returndatasize)\n    tag_96:\n      pop\n      pop\n      pop\n      pop\n      mload(0x40)\n      returndatasize\n      not(0x1f)\n      0x1f\n      dup3\n      add\n      and\n      dup3\n      add\n      dup1\n      0x40\n      mstore\n      pop\n      dup2\n      add\n      swap1\n      tag_97\n      swap2\n      swap1\n      tag_63\n      jump\t// in\n    tag_97:\n        /* \"contracts/NFTMarket.sol\":956:1063  erc721Token.getApproved(tokenId) == address(this) ||erc721Token.isApprovedForAll(msg.sender, address(this)) */\n    tag_92:\n        /* \"contracts/NFTMarket.sol\":948:1090  require(erc721Token.getApproved(tokenId) == address(this) ||erc721Token.isApprovedForAll(msg.sender, address(this)),\"NFTMarket: not approved\") */\n      tag_98\n      jumpi\n      mload(0x40)\n      0x08c379a000000000000000000000000000000000000000000000000000000000\n      dup2\n      mstore\n      0x04\n      add\n      tag_99\n      swap1\n      tag_100\n      jump\t// in\n    tag_99:\n      mload(0x40)\n      dup1\n      swap2\n      sub\n      swap1\n      revert\n    tag_98:\n        /* \"contracts/NFTMarket.sol\":1123:1129  amount */\n      dup2\n        /* \"contracts/NFTMarket.sol\":1101:1111  tokenPrice */\n      0x02\n        /* \"contracts/NFTMarket.sol\":1101:1120  tokenPrice[tokenId] */\n      0x00\n        /* \"contracts/NFTMarket.sol\":1112:1119  tokenId */\n      dup6\n        /* \"contracts/NFTMarket.sol\":1101:1120  tokenPrice[tokenId] */\n      dup2\n      mstore\n      0x20\n      add\n      swap1\n      dup2\n      mstore\n      0x20\n      add\n      0x00\n      keccak256\n        /* \"contracts/NFTMarket.sol\":1101:1129  tokenPrice[tokenId] = amount */\n      dup2\n      swap1\n      sstore\n      pop\n        /* \"contracts/NFTMarket.sol\":1163:1173  msg.sender */\n      caller\n        /* \"contracts/NFTMarket.sol\":1140:1151  tokenSeller */\n      0x03\n        /* \"contracts/NFTMarket.sol\":1140:1160  tokenSeller[tokenId] */\n      0x00\n        /* \"contracts/NFTMarket.sol\":1152:1159  tokenId */\n      dup6\n        /* \"contracts/NFTMarket.sol\":1140:1160  tokenSeller[tokenId] */\n      dup2\n      mstore\n      0x20\n      add\n      swap1\n      dup2\n      mstore\n      0x20\n      add\n      0x00\n      keccak256\n      0x00\n        /* \"contracts/NFTMarket.sol\":1140:1173  tokenSeller[tokenId] = msg.sender */\n      0x0100\n      exp\n      dup2\n      sload\n      dup2\n      0xffffffffffffffffffffffffffffffffffffffff\n      mul\n      not\n      and\n      swap1\n      dup4\n      0xffffffffffffffffffffffffffffffffffffffff\n      and\n      mul\n      or\n      swap1\n      sstore\n      pop\n        /* \"contracts/NFTMarket.sol\":1189:1221  List(tokenId,msg.sender, amount) */\n      0x656fea2aeb2af9841f5b2d9a77be15564d1a00f76fff68c5435aec927eb4d5d6\n        /* \"contracts/NFTMarket.sol\":1194:1201  tokenId */\n      dup4\n        /* \"contracts/NFTMarket.sol\":1202:1212  msg.sender */\n      caller\n        /* \"contracts/NFTMarket.sol\":1214:1220  amount */\n      dup5\n        /* \"contracts/NFTMarket.sol\":1189:1221  List(tokenId,msg.sender, amount) */\n      mload(0x40)\n      tag_101\n      swap4\n      swap3\n      swap2\n      swap1\n      tag_102\n      jump\t// in\n    tag_101:\n      mload(0x40)\n      dup1\n      swap2\n      sub\n      swap1\n      log1\n        /* \"contracts/NFTMarket.sol\":1239:1243  true */\n      0x01\n        /* \"contracts/NFTMarket.sol\":1232:1243  return true */\n      swap1\n      pop\n        /* \"contracts/NFTMarket.sol\":628:1252  function list(uint tokenId,uint amount) external  returns (bool){... */\n      swap3\n      swap2\n      pop\n      pop\n      jump\t// out\n        /* \"contracts/NFTMarket.sol\":203:229  IERC721 public erc721Token */\n    tag_22:\n      0x01\n      0x00\n      swap1\n      sload\n      swap1\n      0x0100\n      exp\n      swap1\n      div\n      0xffffffffffffffffffffffffffffffffffffffff\n      and\n      dup2\n      jump\t// out\n        /* \"contracts/NFTMarket.sol\":172:196  IERC20 public erc20Token */\n    tag_26:\n      0x00\n      0x00\n      swap1\n      sload\n      swap1\n      0x0100\n      exp\n      swap1\n      div\n      0xffffffffffffffffffffffffffffffffffffffff\n      and\n      dup2\n      jump\t// out\n        /* \"contracts/NFTMarket.sol\":2432:3871  function tokensReceived(address from,uint amount,bytes calldata data) external returns (bool){... */\n    tag_32:\n        /* \"contracts/NFTMarket.sol\":2520:2524  bool */\n      0x00\n        /* \"contracts/NFTMarket.sol\":2566:2576  erc20Token */\n      0x00\n      0x00\n      swap1\n      sload\n      swap1\n      0x0100\n      exp\n      swap1\n      div\n      0xffffffffffffffffffffffffffffffffffffffff\n      and\n        /* \"contracts/NFTMarket.sol\":2544:2577  msg.sender == address(erc20Token) */\n      0xffffffffffffffffffffffffffffffffffffffff\n      and\n        /* \"contracts/NFTMarket.sol\":2544:2554  msg.sender */\n      caller\n        /* \"contracts/NFTMarket.sol\":2544:2577  msg.sender == address(erc20Token) */\n      0xffffffffffffffffffffffffffffffffffffffff\n      and\n      eq\n        /* \"contracts/NFTMarket.sol\":2536:2620  require(msg.sender == address(erc20Token), \"only erc20Token can call this function\") */\n      tag_104\n      jumpi\n      mload(0x40)\n      0x08c379a000000000000000000000000000000000000000000000000000000000\n      dup2\n      mstore\n      0x04\n      add\n      tag_105\n      swap1\n      tag_106\n      jump\t// in\n    tag_105:\n      mload(0x40)\n      dup1\n      swap2\n      sub\n      swap1\n      revert\n    tag_104:\n        /* \"contracts/NFTMarket.sol\":2683:2698  uint256 tokenID */\n      0x00\n        /* \"contracts/NFTMarket.sol\":2712:2716  data */\n      dup4\n      dup4\n        /* \"contracts/NFTMarket.sol\":2701:2728  abi.decode(data, (uint256)) */\n      dup2\n      add\n      swap1\n      tag_107\n      swap2\n      swap1\n      tag_36\n      jump\t// in\n    tag_107:\n        /* \"contracts/NFTMarket.sol\":2683:2728  uint256 tokenID = abi.decode(data, (uint256)) */\n      swap1\n      pop\n        /* \"contracts/NFTMarket.sol\":2768:2769  0 */\n      0x00\n        /* \"contracts/NFTMarket.sol\":2747:2757  tokenPrice */\n      0x02\n        /* \"contracts/NFTMarket.sol\":2747:2766  tokenPrice[tokenID] */\n      0x00\n        /* \"contracts/NFTMarket.sol\":2758:2765  tokenID */\n      dup4\n        /* \"contracts/NFTMarket.sol\":2747:2766  tokenPrice[tokenID] */\n      dup2\n      mstore\n      0x20\n      add\n      swap1\n      dup2\n      mstore\n      0x20\n      add\n      0x00\n      keccak256\n      sload\n        /* \"contracts/NFTMarket.sol\":2747:2769  tokenPrice[tokenID]!=0 */\n      sub\n        /* \"contracts/NFTMarket.sol\":2739:2799  require(tokenPrice[tokenID]!=0,\"Market: token not for sale\") */\n      tag_108\n      jumpi\n      mload(0x40)\n      0x08c379a000000000000000000000000000000000000000000000000000000000\n      dup2\n      mstore\n      0x04\n      add\n      tag_109\n      swap1\n      tag_110\n      jump\t// in\n    tag_109:\n      mload(0x40)\n      dup1\n      swap2\n      sub\n      swap1\n      revert\n    tag_108:\n        /* \"contracts/NFTMarket.sol\":2826:2836  tokenPrice */\n      0x02\n        /* \"contracts/NFTMarket.sol\":2826:2845  tokenPrice[tokenID] */\n      0x00\n        /* \"contracts/NFTMarket.sol\":2837:2844  tokenID */\n      dup3\n        /* \"contracts/NFTMarket.sol\":2826:2845  tokenPrice[tokenID] */\n      dup2\n      mstore\n      0x20\n      add\n      swap1\n      dup2\n      mstore\n      0x20\n      add\n      0x00\n      keccak256\n      sload\n        /* \"contracts/NFTMarket.sol\":2818:2824  amount */\n      dup6\n        /* \"contracts/NFTMarket.sol\":2818:2845  amount>=tokenPrice[tokenID] */\n      lt\n      iszero\n        /* \"contracts/NFTMarket.sol\":2810:2877  require(amount>=tokenPrice[tokenID],\" Market: insufficient amount\") */\n      tag_111\n      jumpi\n      mload(0x40)\n      0x08c379a000000000000000000000000000000000000000000000000000000000\n      dup2\n      mstore\n      0x04\n      add\n      tag_112\n      swap1\n      tag_113\n      jump\t// in\n    tag_112:\n      mload(0x40)\n      dup1\n      swap2\n      sub\n      swap1\n      revert\n    tag_111:\n        /* \"contracts/NFTMarket.sol\":2888:2906  address NFTOwnerOf */\n      0x00\n        /* \"contracts/NFTMarket.sol\":2909:2920  erc721Token */\n      0x01\n      0x00\n      swap1\n      sload\n      swap1\n      0x0100\n      exp\n      swap1\n      div\n      0xffffffffffffffffffffffffffffffffffffffff\n      and\n        /* \"contracts/NFTMarket.sol\":2909:2928  erc721Token.ownerOf */\n      0xffffffffffffffffffffffffffffffffffffffff\n      and\n      0x6352211e\n        /* \"contracts/NFTMarket.sol\":2929:2936  tokenID */\n      dup4\n        /* \"contracts/NFTMarket.sol\":2909:2937  erc721Token.ownerOf(tokenID) */\n      mload(0x40)\n      dup3\n      0xffffffff\n      and\n      0xe0\n      shl\n      dup2\n      mstore\n      0x04\n      add\n      tag_114\n      swap2\n      swap1\n      tag_39\n      jump\t// in\n    tag_114:\n      0x20\n      mload(0x40)\n      dup1\n      dup4\n      sub\n      dup2\n      dup7\n      gas\n      staticcall\n      iszero\n      dup1\n      iszero\n      tag_116\n      jumpi\n      returndatacopy(0x00, 0x00, returndatasize)\n      revert(0x00, returndatasize)\n    tag_116:\n      pop\n      pop\n      pop\n      pop\n      mload(0x40)\n      returndatasize\n      not(0x1f)\n      0x1f\n      dup3\n      add\n      and\n      dup3\n      add\n      dup1\n      0x40\n      mstore\n      pop\n      dup2\n      add\n      swap1\n      tag_117\n      swap2\n      swap1\n      tag_54\n      jump\t// in\n    tag_117:\n        /* \"contracts/NFTMarket.sol\":2888:2937  address NFTOwnerOf = erc721Token.ownerOf(tokenID) */\n      swap1\n      pop\n        /* \"contracts/NFTMarket.sol\":3044:3055  tokenSeller */\n      0x03\n        /* \"contracts/NFTMarket.sol\":3044:3064  tokenSeller[tokenID] */\n      0x00\n        /* \"contracts/NFTMarket.sol\":3056:3063  tokenID */\n      dup4\n        /* \"contracts/NFTMarket.sol\":3044:3064  tokenSeller[tokenID] */\n      dup2\n      mstore\n      0x20\n      add\n      swap1\n      dup2\n      mstore\n      0x20\n      add\n      0x00\n      keccak256\n      0x00\n      swap1\n      sload\n      swap1\n      0x0100\n      exp\n      swap1\n      div\n      0xffffffffffffffffffffffffffffffffffffffff\n      and\n        /* \"contracts/NFTMarket.sol\":3030:3064  NFTOwnerOf == tokenSeller[tokenID] */\n      0xffffffffffffffffffffffffffffffffffffffff\n      and\n        /* \"contracts/NFTMarket.sol\":3030:3040  NFTOwnerOf */\n      dup2\n        /* \"contracts/NFTMarket.sol\":3030:3064  NFTOwnerOf == tokenSeller[tokenID] */\n      0xffffffffffffffffffffffffffffffffffffffff\n      and\n      eq\n        /* \"contracts/NFTMarket.sol\":3022:3104  require(NFTOwnerOf == tokenSeller[tokenID],\"The sellers are not the same address\") */\n      tag_118\n      jumpi\n      mload(0x40)\n      0x08c379a000000000000000000000000000000000000000000000000000000000\n      dup2\n      mstore\n      0x04\n      add\n      tag_119\n      swap1\n      tag_57\n      jump\t// in\n    tag_119:\n      mload(0x40)\n      dup1\n      swap2\n      sub\n      swap1\n      revert\n    tag_118:\n        /* \"contracts/NFTMarket.sol\":3143:3156  uint256 price */\n      0x00\n        /* \"contracts/NFTMarket.sol\":3159:3169  tokenPrice */\n      0x02\n        /* \"contracts/NFTMarket.sol\":3159:3178  tokenPrice[tokenID] */\n      0x00\n        /* \"contracts/NFTMarket.sol\":3170:3177  tokenID */\n      dup5\n        /* \"contracts/NFTMarket.sol\":3159:3178  tokenPrice[tokenID] */\n      dup2\n      mstore\n      0x20\n      add\n      swap1\n      dup2\n      mstore\n      0x20\n      add\n      0x00\n      keccak256\n      sload\n        /* \"contracts/NFTMarket.sol\":3143:3178  uint256 price = tokenPrice[tokenID] */\n      swap1\n      pop\n        /* \"contracts/NFTMarket.sol\":3210:3224  address seller */\n      0x00\n        /* \"contracts/NFTMarket.sol\":3227:3238  tokenSeller */\n      0x03\n        /* \"contracts/NFTMarket.sol\":3227:3247  tokenSeller[tokenID] */\n      0x00\n        /* \"contracts/NFTMarket.sol\":3239:3246  tokenID */\n      dup6\n        /* \"contracts/NFTMarket.sol\":3227:3247  tokenSeller[tokenID] */\n      dup2\n      mstore\n      0x20\n      add\n      swap1\n      dup2\n      mstore\n      0x20\n      add\n      0x00\n      keccak256\n      0x00\n      swap1\n      sload\n      swap1\n      0x0100\n      exp\n      swap1\n      div\n      0xffffffffffffffffffffffffffffffffffffffff\n      and\n        /* \"contracts/NFTMarket.sol\":3210:3247  address seller = tokenSeller[tokenID] */\n      swap1\n      pop\n        /* \"contracts/NFTMarket.sol\":3296:3306  tokenPrice */\n      0x02\n        /* \"contracts/NFTMarket.sol\":3296:3315  tokenPrice[tokenID] */\n      0x00\n        /* \"contracts/NFTMarket.sol\":3307:3314  tokenID */\n      dup6\n        /* \"contracts/NFTMarket.sol\":3296:3315  tokenPrice[tokenID] */\n      dup2\n      mstore\n      0x20\n      add\n      swap1\n      dup2\n      mstore\n      0x20\n      add\n      0x00\n      keccak256\n        /* \"contracts/NFTMarket.sol\":3289:3315  delete tokenPrice[tokenID] */\n      0x00\n      swap1\n      sstore\n        /* \"contracts/NFTMarket.sol\":3333:3344  tokenSeller */\n      0x03\n        /* \"contracts/NFTMarket.sol\":3333:3353  tokenSeller[tokenID] */\n      0x00\n        /* \"contracts/NFTMarket.sol\":3345:3352  tokenID */\n      dup6\n        /* \"contracts/NFTMarket.sol\":3333:3353  tokenSeller[tokenID] */\n      dup2\n      mstore\n      0x20\n      add\n      swap1\n      dup2\n      mstore\n      0x20\n      add\n      0x00\n      keccak256\n      0x00\n        /* \"contracts/NFTMarket.sol\":3326:3353  delete tokenSeller[tokenID] */\n      0x0100\n      exp\n      dup2\n      sload\n      swap1\n      0xffffffffffffffffffffffffffffffffffffffff\n      mul\n      not\n      and\n      swap1\n      sstore\n        /* \"contracts/NFTMarket.sol\":3404:3415  bool result */\n      0x00\n        /* \"contracts/NFTMarket.sol\":3418:3428  erc20Token */\n      0x00\n      0x00\n      swap1\n      sload\n      swap1\n      0x0100\n      exp\n      swap1\n      div\n      0xffffffffffffffffffffffffffffffffffffffff\n      and\n        /* \"contracts/NFTMarket.sol\":3418:3437  erc20Token.transfer */\n      0xffffffffffffffffffffffffffffffffffffffff\n      and\n      0xa9059cbb\n        /* \"contracts/NFTMarket.sol\":3438:3444  seller */\n      dup4\n        /* \"contracts/NFTMarket.sol\":3445:3450  price */\n      dup6\n        /* \"contracts/NFTMarket.sol\":3418:3451  erc20Token.transfer(seller,price) */\n      mload(0x40)\n      dup4\n      0xffffffff\n      and\n      0xe0\n      shl\n      dup2\n      mstore\n      0x04\n      add\n      tag_120\n      swap3\n      swap2\n      swap1\n      tag_121\n      jump\t// in\n    tag_120:\n      0x20\n      mload(0x40)\n      dup1\n      dup4\n      sub\n      dup2\n      0x00\n      dup8\n      gas\n      call\n      iszero\n      dup1\n      iszero\n      tag_123\n      jumpi\n      returndatacopy(0x00, 0x00, returndatasize)\n      revert(0x00, returndatasize)\n    tag_123:\n      pop\n      pop\n      pop\n      pop\n      mload(0x40)\n      returndatasize\n      not(0x1f)\n      0x1f\n      dup3\n      add\n      and\n      dup3\n      add\n      dup1\n      0x40\n      mstore\n      pop\n      dup2\n      add\n      swap1\n      tag_124\n      swap2\n      swap1\n      tag_63\n      jump\t// in\n    tag_124:\n        /* \"contracts/NFTMarket.sol\":3404:3451  bool result = erc20Token.transfer(seller,price) */\n      swap1\n      pop\n        /* \"contracts/NFTMarket.sol\":3470:3476  result */\n      dup1\n        /* \"contracts/NFTMarket.sol\":3462:3505  require(result,\"Transfer to seller failed\") */\n      tag_125\n      jumpi\n      mload(0x40)\n      0x08c379a000000000000000000000000000000000000000000000000000000000\n      dup2\n      mstore\n      0x04\n      add\n      tag_126\n      swap1\n      tag_127\n      jump\t// in\n    tag_126:\n      mload(0x40)\n      dup1\n      swap2\n      sub\n      swap1\n      revert\n    tag_125:\n        /* \"contracts/NFTMarket.sol\":3564:3569  price */\n      dup3\n        /* \"contracts/NFTMarket.sol\":3557:3563  amount */\n      dup10\n        /* \"contracts/NFTMarket.sol\":3557:3569  amount>price */\n      gt\n        /* \"contracts/NFTMarket.sol\":3553:3713  if (amount>price){... */\n      iszero\n      tag_128\n      jumpi\n        /* \"contracts/NFTMarket.sol\":3585:3597  bool result2 */\n      0x00\n        /* \"contracts/NFTMarket.sol\":3600:3610  erc20Token */\n      0x00\n      0x00\n      swap1\n      sload\n      swap1\n      0x0100\n      exp\n      swap1\n      div\n      0xffffffffffffffffffffffffffffffffffffffff\n      and\n        /* \"contracts/NFTMarket.sol\":3600:3619  erc20Token.transfer */\n      0xffffffffffffffffffffffffffffffffffffffff\n      and\n      0xa9059cbb\n        /* \"contracts/NFTMarket.sol\":3620:3624  from */\n      dup13\n        /* \"contracts/NFTMarket.sol\":3632:3637  price */\n      dup7\n        /* \"contracts/NFTMarket.sol\":3625:3631  amount */\n      dup14\n        /* \"contracts/NFTMarket.sol\":3625:3637  amount-price */\n      tag_129\n      swap2\n      swap1\n      tag_130\n      jump\t// in\n    tag_129:\n        /* \"contracts/NFTMarket.sol\":3600:3638  erc20Token.transfer(from,amount-price) */\n      mload(0x40)\n      dup4\n      0xffffffff\n      and\n      0xe0\n      shl\n      dup2\n      mstore\n      0x04\n      add\n      tag_131\n      swap3\n      swap2\n      swap1\n      tag_121\n      jump\t// in\n    tag_131:\n      0x20\n      mload(0x40)\n      dup1\n      dup4\n      sub\n      dup2\n      0x00\n      dup8\n      gas\n      call\n      iszero\n      dup1\n      iszero\n      tag_133\n      jumpi\n      returndatacopy(0x00, 0x00, returndatasize)\n      revert(0x00, returndatasize)\n    tag_133:\n      pop\n      pop\n      pop\n      pop\n      mload(0x40)\n      returndatasize\n      not(0x1f)\n      0x1f\n      dup3\n      add\n      and\n      dup3\n      add\n      dup1\n      0x40\n      mstore\n      pop\n      dup2\n      add\n      swap1\n      tag_134\n      swap2\n      swap1\n      tag_63\n      jump\t// in\n    tag_134:\n        /* \"contracts/NFTMarket.sol\":3585:3638  bool result2 = erc20Token.transfer(from,amount-price) */\n      swap1\n      pop\n        /* \"contracts/NFTMarket.sol\":3661:3668  result2 */\n      dup1\n        /* \"contracts/NFTMarket.sol\":3653:3701  require(result2,\" erc20Token.transfer is error\") */\n      tag_135\n      jumpi\n      mload(0x40)\n      0x08c379a000000000000000000000000000000000000000000000000000000000\n      dup2\n      mstore\n      0x04\n      add\n      tag_136\n      swap1\n      tag_137\n      jump\t// in\n    tag_136:\n      mload(0x40)\n      dup1\n      swap2\n      sub\n      swap1\n      revert\n    tag_135:\n        /* \"contracts/NFTMarket.sol\":3570:3713  {... */\n      pop\n        /* \"contracts/NFTMarket.sol\":3553:3713  if (amount>price){... */\n    tag_128:\n        /* \"contracts/NFTMarket.sol\":3746:3757  erc721Token */\n      0x01\n      0x00\n      swap1\n      sload\n      swap1\n      0x0100\n      exp\n      swap1\n      div\n      0xffffffffffffffffffffffffffffffffffffffff\n      and\n        /* \"contracts/NFTMarket.sol\":3746:3774  erc721Token.safeTransferFrom */\n      0xffffffffffffffffffffffffffffffffffffffff\n      and\n      0x42842e0e\n        /* \"contracts/NFTMarket.sol\":3775:3781  seller */\n      dup4\n        /* \"contracts/NFTMarket.sol\":3782:3786  from */\n      dup13\n        /* \"contracts/NFTMarket.sol\":3787:3794  tokenID */\n      dup9\n        /* \"contracts/NFTMarket.sol\":3746:3795  erc721Token.safeTransferFrom(seller,from,tokenID) */\n      mload(0x40)\n      dup5\n      0xffffffff\n      and\n      0xe0\n      shl\n      dup2\n      mstore\n      0x04\n      add\n      tag_138\n      swap4\n      swap3\n      swap2\n      swap1\n      tag_59\n      jump\t// in\n    tag_138:\n      0x00\n      mload(0x40)\n      dup1\n      dup4\n      sub\n      dup2\n      0x00\n      dup8\n      dup1\n      extcodesize\n      iszero\n      dup1\n      iszero\n      tag_139\n      jumpi\n      revert(0x00, 0x00)\n    tag_139:\n      pop\n      gas\n      call\n      iszero\n      dup1\n      iszero\n      tag_141\n      jumpi\n      returndatacopy(0x00, 0x00, returndatasize)\n      revert(0x00, returndatasize)\n    tag_141:\n      pop\n      pop\n      pop\n      pop\n        /* \"contracts/NFTMarket.sol\":3813:3840  BuyNFT(from,tokenID,amount) */\n      0x5d963241241cfe9e161d13500d628058954b3febfde03e4b1f4071370e72fe2b\n        /* \"contracts/NFTMarket.sol\":3820:3824  from */\n      dup11\n        /* \"contracts/NFTMarket.sol\":3825:3832  tokenID */\n      dup7\n        /* \"contracts/NFTMarket.sol\":3833:3839  amount */\n      dup12\n        /* \"contracts/NFTMarket.sol\":3813:3840  BuyNFT(from,tokenID,amount) */\n      mload(0x40)\n      tag_142\n      swap4\n      swap3\n      swap2\n      swap1\n      tag_72\n      jump\t// in\n    tag_142:\n      mload(0x40)\n      dup1\n      swap2\n      sub\n      swap1\n      log1\n        /* \"contracts/NFTMarket.sol\":3858:3862  true */\n      0x01\n        /* \"contracts/NFTMarket.sol\":3851:3862  return true */\n      swap6\n      pop\n      pop\n      pop\n      pop\n      pop\n      pop\n        /* \"contracts/NFTMarket.sol\":2432:3871  function tokensReceived(address from,uint amount,bytes calldata data) external returns (bool){... */\n      swap5\n      swap4\n      pop\n      pop\n      pop\n      pop\n      jump\t// out\n        /* \"contracts/NFTMarket.sol\":391:429  mapping (uint =>uint)public tokenPrice */\n    tag_37:\n      mstore(0x20, 0x02)\n      dup1\n      0x00\n      mstore\n      keccak256(0x00, 0x40)\n      0x00\n      swap2\n      pop\n      swap1\n      pop\n      sload\n      dup2\n      jump\t// out\n        /* \"contracts/NFTMarket.sol\":436:479  mapping (uint => address)public tokenSeller */\n    tag_42:\n      mstore(0x20, 0x03)\n      dup1\n      0x00\n      mstore\n      keccak256(0x00, 0x40)\n      0x00\n      swap2\n      pop\n      sload\n      swap1\n      0x0100\n      exp\n      swap1\n      div\n      0xffffffffffffffffffffffffffffffffffffffff\n      and\n      dup2\n      jump\t// out\n        /* \"#utility.yul\":88:205   */\n    tag_144:\n        /* \"#utility.yul\":197:198   */\n      0x00\n        /* \"#utility.yul\":194:195   */\n      0x00\n        /* \"#utility.yul\":187:199   */\n      revert\n        /* \"#utility.yul\":211:328   */\n    tag_145:\n        /* \"#utility.yul\":320:321   */\n      0x00\n        /* \"#utility.yul\":317:318   */\n      0x00\n        /* \"#utility.yul\":310:322   */\n      revert\n        /* \"#utility.yul\":334:411   */\n    tag_146:\n        /* \"#utility.yul\":371:378   */\n      0x00\n        /* \"#utility.yul\":400:405   */\n      dup2\n        /* \"#utility.yul\":389:405   */\n      swap1\n      pop\n        /* \"#utility.yul\":334:411   */\n      swap2\n      swap1\n      pop\n      jump\t// out\n        /* \"#utility.yul\":417:539   */\n    tag_147:\n        /* \"#utility.yul\":490:514   */\n      tag_203\n        /* \"#utility.yul\":508:513   */\n      dup2\n        /* \"#utility.yul\":490:514   */\n      tag_146\n      jump\t// in\n    tag_203:\n        /* \"#utility.yul\":483:488   */\n      dup2\n        /* \"#utility.yul\":480:515   */\n      eq\n        /* \"#utility.yul\":470:533   */\n      tag_204\n      jumpi\n        /* \"#utility.yul\":529:530   */\n      0x00\n        /* \"#utility.yul\":526:527   */\n      0x00\n        /* \"#utility.yul\":519:531   */\n      revert\n        /* \"#utility.yul\":470:533   */\n    tag_204:\n        /* \"#utility.yul\":417:539   */\n      pop\n      jump\t// out\n        /* \"#utility.yul\":545:684   */\n    tag_148:\n        /* \"#utility.yul\":591:596   */\n      0x00\n        /* \"#utility.yul\":629:635   */\n      dup2\n        /* \"#utility.yul\":616:636   */\n      calldataload\n        /* \"#utility.yul\":607:636   */\n      swap1\n      pop\n        /* \"#utility.yul\":645:678   */\n      tag_206\n        /* \"#utility.yul\":672:677   */\n      dup2\n        /* \"#utility.yul\":645:678   */\n      tag_147\n      jump\t// in\n    tag_206:\n        /* \"#utility.yul\":545:684   */\n      swap3\n      swap2\n      pop\n      pop\n      jump\t// out\n        /* \"#utility.yul\":690:1164   */\n    tag_13:\n        /* \"#utility.yul\":758:764   */\n      0x00\n        /* \"#utility.yul\":766:772   */\n      0x00\n        /* \"#utility.yul\":815:817   */\n      0x40\n        /* \"#utility.yul\":803:812   */\n      dup4\n        /* \"#utility.yul\":794:801   */\n      dup6\n        /* \"#utility.yul\":790:813   */\n      sub\n        /* \"#utility.yul\":786:818   */\n      slt\n        /* \"#utility.yul\":783:902   */\n      iszero\n      tag_208\n      jumpi\n        /* \"#utility.yul\":821:900   */\n      tag_209\n      tag_144\n      jump\t// in\n    tag_209:\n        /* \"#utility.yul\":783:902   */\n    tag_208:\n        /* \"#utility.yul\":941:942   */\n      0x00\n        /* \"#utility.yul\":966:1019   */\n      tag_210\n        /* \"#utility.yul\":1011:1018   */\n      dup6\n        /* \"#utility.yul\":1002:1008   */\n      dup3\n        /* \"#utility.yul\":991:1000   */\n      dup7\n        /* \"#utility.yul\":987:1009   */\n      add\n        /* \"#utility.yul\":966:1019   */\n      tag_148\n      jump\t// in\n    tag_210:\n        /* \"#utility.yul\":956:1019   */\n      swap3\n      pop\n        /* \"#utility.yul\":912:1029   */\n      pop\n        /* \"#utility.yul\":1068:1070   */\n      0x20\n        /* \"#utility.yul\":1094:1147   */\n      tag_211\n        /* \"#utility.yul\":1139:1146   */\n      dup6\n        /* \"#utility.yul\":1130:1136   */\n      dup3\n        /* \"#utility.yul\":1119:1128   */\n      dup7\n        /* \"#utility.yul\":1115:1137   */\n      add\n        /* \"#utility.yul\":1094:1147   */\n      tag_148\n      jump\t// in\n    tag_211:\n        /* \"#utility.yul\":1084:1147   */\n      swap2\n      pop\n        /* \"#utility.yul\":1039:1157   */\n      pop\n        /* \"#utility.yul\":690:1164   */\n      swap3\n      pop\n      swap3\n      swap1\n      pop\n      jump\t// out\n        /* \"#utility.yul\":1170:1260   */\n    tag_149:\n        /* \"#utility.yul\":1204:1211   */\n      0x00\n        /* \"#utility.yul\":1247:1252   */\n      dup2\n        /* \"#utility.yul\":1240:1253   */\n      iszero\n        /* \"#utility.yul\":1233:1254   */\n      iszero\n        /* \"#utility.yul\":1222:1254   */\n      swap1\n      pop\n        /* \"#utility.yul\":1170:1260   */\n      swap2\n      swap1\n      pop\n      jump\t// out\n        /* \"#utility.yul\":1266:1375   */\n    tag_150:\n        /* \"#utility.yul\":1347:1368   */\n      tag_214\n        /* \"#utility.yul\":1362:1367   */\n      dup2\n        /* \"#utility.yul\":1347:1368   */\n      tag_149\n      jump\t// in\n    tag_214:\n        /* \"#utility.yul\":1342:1345   */\n      dup3\n        /* \"#utility.yul\":1335:1369   */\n      mstore\n        /* \"#utility.yul\":1266:1375   */\n      pop\n      pop\n      jump\t// out\n        /* \"#utility.yul\":1381:1591   */\n    tag_16:\n        /* \"#utility.yul\":1468:1472   */\n      0x00\n        /* \"#utility.yul\":1506:1508   */\n      0x20\n        /* \"#utility.yul\":1495:1504   */\n      dup3\n        /* \"#utility.yul\":1491:1509   */\n      add\n        /* \"#utility.yul\":1483:1509   */\n      swap1\n      pop\n        /* \"#utility.yul\":1519:1584   */\n      tag_216\n        /* \"#utility.yul\":1581:1582   */\n      0x00\n        /* \"#utility.yul\":1570:1579   */\n      dup4\n        /* \"#utility.yul\":1566:1583   */\n      add\n        /* \"#utility.yul\":1557:1563   */\n      dup5\n        /* \"#utility.yul\":1519:1584   */\n      tag_150\n      jump\t// in\n    tag_216:\n        /* \"#utility.yul\":1381:1591   */\n      swap3\n      swap2\n      pop\n      pop\n      jump\t// out\n        /* \"#utility.yul\":1597:1723   */\n    tag_151:\n        /* \"#utility.yul\":1634:1641   */\n      0x00\n        /* \"#utility.yul\":1674:1716   */\n      0xffffffffffffffffffffffffffffffffffffffff\n        /* \"#utility.yul\":1667:1672   */\n      dup3\n        /* \"#utility.yul\":1663:1717   */\n      and\n        /* \"#utility.yul\":1652:1717   */\n      swap1\n      pop\n        /* \"#utility.yul\":1597:1723   */\n      swap2\n      swap1\n      pop\n      jump\t// out\n        /* \"#utility.yul\":1729:1789   */\n    tag_152:\n        /* \"#utility.yul\":1757:1760   */\n      0x00\n        /* \"#utility.yul\":1778:1783   */\n      dup2\n        /* \"#utility.yul\":1771:1783   */\n      swap1\n      pop\n        /* \"#utility.yul\":1729:1789   */\n      swap2\n      swap1\n      pop\n      jump\t// out\n        /* \"#utility.yul\":1795:1937   */\n    tag_153:\n        /* \"#utility.yul\":1845:1854   */\n      0x00\n        /* \"#utility.yul\":1878:1931   */\n      tag_220\n        /* \"#utility.yul\":1896:1930   */\n      tag_221\n        /* \"#utility.yul\":1905:1929   */\n      tag_222\n        /* \"#utility.yul\":1923:1928   */\n      dup5\n        /* \"#utility.yul\":1905:1929   */\n      tag_151\n      jump\t// in\n    tag_222:\n        /* \"#utility.yul\":1896:1930   */\n      tag_152\n      jump\t// in\n    tag_221:\n        /* \"#utility.yul\":1878:1931   */\n      tag_151\n      jump\t// in\n    tag_220:\n        /* \"#utility.yul\":1865:1931   */\n      swap1\n      pop\n        /* \"#utility.yul\":1795:1937   */\n      swap2\n      swap1\n      pop\n      jump\t// out\n        /* \"#utility.yul\":1943:2069   */\n    tag_154:\n        /* \"#utility.yul\":1993:2002   */\n      0x00\n        /* \"#utility.yul\":2026:2063   */\n      tag_224\n        /* \"#utility.yul\":2057:2062   */\n      dup3\n        /* \"#utility.yul\":2026:2063   */\n      tag_153\n      jump\t// in\n    tag_224:\n        /* \"#utility.yul\":2013:2063   */\n      swap1\n      pop\n        /* \"#utility.yul\":1943:2069   */\n      swap2\n      swap1\n      pop\n      jump\t// out\n        /* \"#utility.yul\":2075:2216   */\n    tag_155:\n        /* \"#utility.yul\":2140:2149   */\n      0x00\n        /* \"#utility.yul\":2173:2210   */\n      tag_226\n        /* \"#utility.yul\":2204:2209   */\n      dup3\n        /* \"#utility.yul\":2173:2210   */\n      tag_154\n      jump\t// in\n    tag_226:\n        /* \"#utility.yul\":2160:2210   */\n      swap1\n      pop\n        /* \"#utility.yul\":2075:2216   */\n      swap2\n      swap1\n      pop\n      jump\t// out\n        /* \"#utility.yul\":2222:2383   */\n    tag_156:\n        /* \"#utility.yul\":2324:2376   */\n      tag_228\n        /* \"#utility.yul\":2370:2375   */\n      dup2\n        /* \"#utility.yul\":2324:2376   */\n      tag_155\n      jump\t// in\n    tag_228:\n        /* \"#utility.yul\":2319:2322   */\n      dup3\n        /* \"#utility.yul\":2312:2377   */\n      mstore\n        /* \"#utility.yul\":2222:2383   */\n      pop\n      pop\n      jump\t// out\n        /* \"#utility.yul\":2389:2641   */\n    tag_24:\n        /* \"#utility.yul\":2497:2501   */\n      0x00\n        /* \"#utility.yul\":2535:2537   */\n      0x20\n        /* \"#utility.yul\":2524:2533   */\n      dup3\n        /* \"#utility.yul\":2520:2538   */\n      add\n        /* \"#utility.yul\":2512:2538   */\n      swap1\n      pop\n        /* \"#utility.yul\":2548:2634   */\n      tag_230\n        /* \"#utility.yul\":2631:2632   */\n      0x00\n        /* \"#utility.yul\":2620:2629   */\n      dup4\n        /* \"#utility.yul\":2616:2633   */\n      add\n        /* \"#utility.yul\":2607:2613   */\n      dup5\n        /* \"#utility.yul\":2548:2634   */\n      tag_156\n      jump\t// in\n    tag_230:\n        /* \"#utility.yul\":2389:2641   */\n      swap3\n      swap2\n      pop\n      pop\n      jump\t// out\n        /* \"#utility.yul\":2647:2786   */\n    tag_157:\n        /* \"#utility.yul\":2710:2719   */\n      0x00\n        /* \"#utility.yul\":2743:2780   */\n      tag_232\n        /* \"#utility.yul\":2774:2779   */\n      dup3\n        /* \"#utility.yul\":2743:2780   */\n      tag_154\n      jump\t// in\n    tag_232:\n        /* \"#utility.yul\":2730:2780   */\n      swap1\n      pop\n        /* \"#utility.yul\":2647:2786   */\n      swap2\n      swap1\n      pop\n      jump\t// out\n        /* \"#utility.yul\":2792:2949   */\n    tag_158:\n        /* \"#utility.yul\":2892:2942   */\n      tag_234\n        /* \"#utility.yul\":2936:2941   */\n      dup2\n        /* \"#utility.yul\":2892:2942   */\n      tag_157\n      jump\t// in\n    tag_234:\n        /* \"#utility.yul\":2887:2890   */\n      dup3\n        /* \"#utility.yul\":2880:2943   */\n      mstore\n        /* \"#utility.yul\":2792:2949   */\n      pop\n      pop\n      jump\t// out\n        /* \"#utility.yul\":2955:3203   */\n    tag_28:\n        /* \"#utility.yul\":3061:3065   */\n      0x00\n        /* \"#utility.yul\":3099:3101   */\n      0x20\n        /* \"#utility.yul\":3088:3097   */\n      dup3\n        /* \"#utility.yul\":3084:3102   */\n      add\n        /* \"#utility.yul\":3076:3102   */\n      swap1\n      pop\n        /* \"#utility.yul\":3112:3196   */\n      tag_236\n        /* \"#utility.yul\":3193:3194   */\n      0x00\n        /* \"#utility.yul\":3182:3191   */\n      dup4\n        /* \"#utility.yul\":3178:3195   */\n      add\n        /* \"#utility.yul\":3169:3175   */\n      dup5\n        /* \"#utility.yul\":3112:3196   */\n      tag_158\n      jump\t// in\n    tag_236:\n        /* \"#utility.yul\":2955:3203   */\n      swap3\n      swap2\n      pop\n      pop\n      jump\t// out\n        /* \"#utility.yul\":3209:3305   */\n    tag_159:\n        /* \"#utility.yul\":3246:3253   */\n      0x00\n        /* \"#utility.yul\":3275:3299   */\n      tag_238\n        /* \"#utility.yul\":3293:3298   */\n      dup3\n        /* \"#utility.yul\":3275:3299   */\n      tag_151\n      jump\t// in\n    tag_238:\n        /* \"#utility.yul\":3264:3299   */\n      swap1\n      pop\n        /* \"#utility.yul\":3209:3305   */\n      swap2\n      swap1\n      pop\n      jump\t// out\n        /* \"#utility.yul\":3311:3433   */\n    tag_160:\n        /* \"#utility.yul\":3384:3408   */\n      tag_240\n        /* \"#utility.yul\":3402:3407   */\n      dup2\n        /* \"#utility.yul\":3384:3408   */\n      tag_159\n      jump\t// in\n    tag_240:\n        /* \"#utility.yul\":3377:3382   */\n      dup2\n        /* \"#utility.yul\":3374:3409   */\n      eq\n        /* \"#utility.yul\":3364:3427   */\n      tag_241\n      jumpi\n        /* \"#utility.yul\":3423:3424   */\n      0x00\n        /* \"#utility.yul\":3420:3421   */\n      0x00\n        /* \"#utility.yul\":3413:3425   */\n      revert\n        /* \"#utility.yul\":3364:3427   */\n    tag_241:\n        /* \"#utility.yul\":3311:3433   */\n      pop\n      jump\t// out\n        /* \"#utility.yul\":3439:3578   */\n    tag_161:\n        /* \"#utility.yul\":3485:3490   */\n      0x00\n        /* \"#utility.yul\":3523:3529   */\n      dup2\n        /* \"#utility.yul\":3510:3530   */\n      calldataload\n        /* \"#utility.yul\":3501:3530   */\n      swap1\n      pop\n        /* \"#utility.yul\":3539:3572   */\n      tag_243\n        /* \"#utility.yul\":3566:3571   */\n      dup2\n        /* \"#utility.yul\":3539:3572   */\n      tag_160\n      jump\t// in\n    tag_243:\n        /* \"#utility.yul\":3439:3578   */\n      swap3\n      swap2\n      pop\n      pop\n      jump\t// out\n        /* \"#utility.yul\":3584:3701   */\n    tag_162:\n        /* \"#utility.yul\":3693:3694   */\n      0x00\n        /* \"#utility.yul\":3690:3691   */\n      0x00\n        /* \"#utility.yul\":3683:3695   */\n      revert\n        /* \"#utility.yul\":3707:3824   */\n    tag_163:\n        /* \"#utility.yul\":3816:3817   */\n      0x00\n        /* \"#utility.yul\":3813:3814   */\n      0x00\n        /* \"#utility.yul\":3806:3818   */\n      revert\n        /* \"#utility.yul\":3830:3947   */\n    tag_164:\n        /* \"#utility.yul\":3939:3940   */\n      0x00\n        /* \"#utility.yul\":3936:3937   */\n      0x00\n        /* \"#utility.yul\":3929:3941   */\n      revert\n        /* \"#utility.yul\":3966:4518   */\n    tag_165:\n        /* \"#utility.yul\":4023:4031   */\n      0x00\n        /* \"#utility.yul\":4033:4039   */\n      0x00\n        /* \"#utility.yul\":4083:4086   */\n      dup4\n        /* \"#utility.yul\":4076:4080   */\n      0x1f\n        /* \"#utility.yul\":4068:4074   */\n      dup5\n        /* \"#utility.yul\":4064:4081   */\n      add\n        /* \"#utility.yul\":4060:4087   */\n      slt\n        /* \"#utility.yul\":4050:4172   */\n      tag_248\n      jumpi\n        /* \"#utility.yul\":4091:4170   */\n      tag_249\n      tag_162\n      jump\t// in\n    tag_249:\n        /* \"#utility.yul\":4050:4172   */\n    tag_248:\n        /* \"#utility.yul\":4204:4210   */\n      dup3\n        /* \"#utility.yul\":4191:4211   */\n      calldataload\n        /* \"#utility.yul\":4181:4211   */\n      swap1\n      pop\n        /* \"#utility.yul\":4234:4252   */\n      0xffffffffffffffff\n        /* \"#utility.yul\":4226:4232   */\n      dup2\n        /* \"#utility.yul\":4223:4253   */\n      gt\n        /* \"#utility.yul\":4220:4337   */\n      iszero\n      tag_250\n      jumpi\n        /* \"#utility.yul\":4256:4335   */\n      tag_251\n      tag_163\n      jump\t// in\n    tag_251:\n        /* \"#utility.yul\":4220:4337   */\n    tag_250:\n        /* \"#utility.yul\":4370:4374   */\n      0x20\n        /* \"#utility.yul\":4362:4368   */\n      dup4\n        /* \"#utility.yul\":4358:4375   */\n      add\n        /* \"#utility.yul\":4346:4375   */\n      swap2\n      pop\n        /* \"#utility.yul\":4424:4427   */\n      dup4\n        /* \"#utility.yul\":4416:4420   */\n      0x01\n        /* \"#utility.yul\":4408:4414   */\n      dup3\n        /* \"#utility.yul\":4404:4421   */\n      mul\n        /* \"#utility.yul\":4394:4402   */\n      dup4\n        /* \"#utility.yul\":4390:4422   */\n      add\n        /* \"#utility.yul\":4387:4428   */\n      gt\n        /* \"#utility.yul\":4384:4512   */\n      iszero\n      tag_252\n      jumpi\n        /* \"#utility.yul\":4431:4510   */\n      tag_253\n      tag_164\n      jump\t// in\n    tag_253:\n        /* \"#utility.yul\":4384:4512   */\n    tag_252:\n        /* \"#utility.yul\":3966:4518   */\n      swap3\n      pop\n      swap3\n      swap1\n      pop\n      jump\t// out\n        /* \"#utility.yul\":4524:5341   */\n    tag_31:\n        /* \"#utility.yul\":4612:4618   */\n      0x00\n        /* \"#utility.yul\":4620:4626   */\n      0x00\n        /* \"#utility.yul\":4628:4634   */\n      0x00\n        /* \"#utility.yul\":4636:4642   */\n      0x00\n        /* \"#utility.yul\":4685:4687   */\n      0x60\n        /* \"#utility.yul\":4673:4682   */\n      dup6\n        /* \"#utility.yul\":4664:4671   */\n      dup8\n        /* \"#utility.yul\":4660:4683   */\n      sub\n        /* \"#utility.yul\":4656:4688   */\n      slt\n        /* \"#utility.yul\":4653:4772   */\n      iszero\n      tag_255\n      jumpi\n        /* \"#utility.yul\":4691:4770   */\n      tag_256\n      tag_144\n      jump\t// in\n    tag_256:\n        /* \"#utility.yul\":4653:4772   */\n    tag_255:\n        /* \"#utility.yul\":4811:4812   */\n      0x00\n        /* \"#utility.yul\":4836:4889   */\n      tag_257\n        /* \"#utility.yul\":4881:4888   */\n      dup8\n        /* \"#utility.yul\":4872:4878   */\n      dup3\n        /* \"#utility.yul\":4861:4870   */\n      dup9\n        /* \"#utility.yul\":4857:4879   */\n      add\n        /* \"#utility.yul\":4836:4889   */\n      tag_161\n      jump\t// in\n    tag_257:\n        /* \"#utility.yul\":4826:4889   */\n      swap5\n      pop\n        /* \"#utility.yul\":4782:4899   */\n      pop\n        /* \"#utility.yul\":4938:4940   */\n      0x20\n        /* \"#utility.yul\":4964:5017   */\n      tag_258\n        /* \"#utility.yul\":5009:5016   */\n      dup8\n        /* \"#utility.yul\":5000:5006   */\n      dup3\n        /* \"#utility.yul\":4989:4998   */\n      dup9\n        /* \"#utility.yul\":4985:5007   */\n      add\n        /* \"#utility.yul\":4964:5017   */\n      tag_148\n      jump\t// in\n    tag_258:\n        /* \"#utility.yul\":4954:5017   */\n      swap4\n      pop\n        /* \"#utility.yul\":4909:5027   */\n      pop\n        /* \"#utility.yul\":5094:5096   */\n      0x40\n        /* \"#utility.yul\":5083:5092   */\n      dup6\n        /* \"#utility.yul\":5079:5097   */\n      add\n        /* \"#utility.yul\":5066:5098   */\n      calldataload\n        /* \"#utility.yul\":5125:5143   */\n      0xffffffffffffffff\n        /* \"#utility.yul\":5117:5123   */\n      dup2\n        /* \"#utility.yul\":5114:5144   */\n      gt\n        /* \"#utility.yul\":5111:5228   */\n      iszero\n      tag_259\n      jumpi\n        /* \"#utility.yul\":5147:5226   */\n      tag_260\n      tag_145\n      jump\t// in\n    tag_260:\n        /* \"#utility.yul\":5111:5228   */\n    tag_259:\n        /* \"#utility.yul\":5260:5324   */\n      tag_261\n        /* \"#utility.yul\":5316:5323   */\n      dup8\n        /* \"#utility.yul\":5307:5313   */\n      dup3\n        /* \"#utility.yul\":5296:5305   */\n      dup9\n        /* \"#utility.yul\":5292:5314   */\n      add\n        /* \"#utility.yul\":5260:5324   */\n      tag_165\n      jump\t// in\n    tag_261:\n        /* \"#utility.yul\":5242:5324   */\n      swap3\n      pop\n      swap3\n      pop\n        /* \"#utility.yul\":5037:5334   */\n      pop\n        /* \"#utility.yul\":4524:5341   */\n      swap3\n      swap6\n      swap2\n      swap5\n      pop\n      swap3\n      pop\n      jump\t// out\n        /* \"#utility.yul\":5347:5676   */\n    tag_36:\n        /* \"#utility.yul\":5406:5412   */\n      0x00\n        /* \"#utility.yul\":5455:5457   */\n      0x20\n        /* \"#utility.yul\":5443:5452   */\n      dup3\n        /* \"#utility.yul\":5434:5441   */\n      dup5\n        /* \"#utility.yul\":5430:5453   */\n      sub\n        /* \"#utility.yul\":5426:5458   */\n      slt\n        /* \"#utility.yul\":5423:5542   */\n      iszero\n      tag_263\n      jumpi\n        /* \"#utility.yul\":5461:5540   */\n      tag_264\n      tag_144\n      jump\t// in\n    tag_264:\n        /* \"#utility.yul\":5423:5542   */\n    tag_263:\n        /* \"#utility.yul\":5581:5582   */\n      0x00\n        /* \"#utility.yul\":5606:5659   */\n      tag_265\n        /* \"#utility.yul\":5651:5658   */\n      dup5\n        /* \"#utility.yul\":5642:5648   */\n      dup3\n        /* \"#utility.yul\":5631:5640   */\n      dup6\n        /* \"#utility.yul\":5627:5649   */\n      add\n        /* \"#utility.yul\":5606:5659   */\n      tag_148\n      jump\t// in\n    tag_265:\n        /* \"#utility.yul\":5596:5659   */\n      swap2\n      pop\n        /* \"#utility.yul\":5552:5669   */\n      pop\n        /* \"#utility.yul\":5347:5676   */\n      swap3\n      swap2\n      pop\n      pop\n      jump\t// out\n        /* \"#utility.yul\":5682:5800   */\n    tag_166:\n        /* \"#utility.yul\":5769:5793   */\n      tag_267\n        /* \"#utility.yul\":5787:5792   */\n      dup2\n        /* \"#utility.yul\":5769:5793   */\n      tag_146\n      jump\t// in\n    tag_267:\n        /* \"#utility.yul\":5764:5767   */\n      dup3\n        /* \"#utility.yul\":5757:5794   */\n      mstore\n        /* \"#utility.yul\":5682:5800   */\n      pop\n      pop\n      jump\t// out\n        /* \"#utility.yul\":5806:6028   */\n    tag_39:\n        /* \"#utility.yul\":5899:5903   */\n      0x00\n        /* \"#utility.yul\":5937:5939   */\n      0x20\n        /* \"#utility.yul\":5926:5935   */\n      dup3\n        /* \"#utility.yul\":5922:5940   */\n      add\n        /* \"#utility.yul\":5914:5940   */\n      swap1\n      pop\n        /* \"#utility.yul\":5950:6021   */\n      tag_269\n        /* \"#utility.yul\":6018:6019   */\n      0x00\n        /* \"#utility.yul\":6007:6016   */\n      dup4\n        /* \"#utility.yul\":6003:6020   */\n      add\n        /* \"#utility.yul\":5994:6000   */\n      dup5\n        /* \"#utility.yul\":5950:6021   */\n      tag_166\n      jump\t// in\n    tag_269:\n        /* \"#utility.yul\":5806:6028   */\n      swap3\n      swap2\n      pop\n      pop\n      jump\t// out\n        /* \"#utility.yul\":6034:6152   */\n    tag_167:\n        /* \"#utility.yul\":6121:6145   */\n      tag_271\n        /* \"#utility.yul\":6139:6144   */\n      dup2\n        /* \"#utility.yul\":6121:6145   */\n      tag_159\n      jump\t// in\n    tag_271:\n        /* \"#utility.yul\":6116:6119   */\n      dup3\n        /* \"#utility.yul\":6109:6146   */\n      mstore\n        /* \"#utility.yul\":6034:6152   */\n      pop\n      pop\n      jump\t// out\n        /* \"#utility.yul\":6158:6380   */\n    tag_44:\n        /* \"#utility.yul\":6251:6255   */\n      0x00\n        /* \"#utility.yul\":6289:6291   */\n      0x20\n        /* \"#utility.yul\":6278:6287   */\n      dup3\n        /* \"#utility.yul\":6274:6292   */\n      add\n        /* \"#utility.yul\":6266:6292   */\n      swap1\n      pop\n        /* \"#utility.yul\":6302:6373   */\n      tag_273\n        /* \"#utility.yul\":6370:6371   */\n      0x00\n        /* \"#utility.yul\":6359:6368   */\n      dup4\n        /* \"#utility.yul\":6355:6372   */\n      add\n        /* \"#utility.yul\":6346:6352   */\n      dup5\n        /* \"#utility.yul\":6302:6373   */\n      tag_167\n      jump\t// in\n    tag_273:\n        /* \"#utility.yul\":6158:6380   */\n      swap3\n      swap2\n      pop\n      pop\n      jump\t// out\n        /* \"#utility.yul\":6386:6555   */\n    tag_168:\n        /* \"#utility.yul\":6470:6481   */\n      0x00\n        /* \"#utility.yul\":6504:6510   */\n      dup3\n        /* \"#utility.yul\":6499:6502   */\n      dup3\n        /* \"#utility.yul\":6492:6511   */\n      mstore\n        /* \"#utility.yul\":6544:6548   */\n      0x20\n        /* \"#utility.yul\":6539:6542   */\n      dup3\n        /* \"#utility.yul\":6535:6549   */\n      add\n        /* \"#utility.yul\":6520:6549   */\n      swap1\n      pop\n        /* \"#utility.yul\":6386:6555   */\n      swap3\n      swap2\n      pop\n      pop\n      jump\t// out\n        /* \"#utility.yul\":6561:6800   */\n    tag_169:\n        /* \"#utility.yul\":6701:6735   */\n      0x746f6b656e4964206d75737420213d302c20616d6f756e74206d757374203d3d\n        /* \"#utility.yul\":6697:6698   */\n      0x00\n        /* \"#utility.yul\":6689:6695   */\n      dup3\n        /* \"#utility.yul\":6685:6699   */\n      add\n        /* \"#utility.yul\":6678:6736   */\n      mstore\n        /* \"#utility.yul\":6770:6792   */\n      0x20746f6b656e50726963655b746f6b656e49445d000000000000000000000000\n        /* \"#utility.yul\":6765:6767   */\n      0x20\n        /* \"#utility.yul\":6757:6763   */\n      dup3\n        /* \"#utility.yul\":6753:6768   */\n      add\n        /* \"#utility.yul\":6746:6793   */\n      mstore\n        /* \"#utility.yul\":6561:6800   */\n      pop\n      jump\t// out\n        /* \"#utility.yul\":6806:7172   */\n    tag_170:\n        /* \"#utility.yul\":6948:6951   */\n      0x00\n        /* \"#utility.yul\":6969:7036   */\n      tag_277\n        /* \"#utility.yul\":7033:7035   */\n      0x34\n        /* \"#utility.yul\":7028:7031   */\n      dup4\n        /* \"#utility.yul\":6969:7036   */\n      tag_168\n      jump\t// in\n    tag_277:\n        /* \"#utility.yul\":6962:7036   */\n      swap2\n      pop\n        /* \"#utility.yul\":7045:7138   */\n      tag_278\n        /* \"#utility.yul\":7134:7137   */\n      dup3\n        /* \"#utility.yul\":7045:7138   */\n      tag_169\n      jump\t// in\n    tag_278:\n        /* \"#utility.yul\":7163:7165   */\n      0x40\n        /* \"#utility.yul\":7158:7161   */\n      dup3\n        /* \"#utility.yul\":7154:7166   */\n      add\n        /* \"#utility.yul\":7147:7166   */\n      swap1\n      pop\n        /* \"#utility.yul\":6806:7172   */\n      swap2\n      swap1\n      pop\n      jump\t// out\n        /* \"#utility.yul\":7178:7597   */\n    tag_49:\n        /* \"#utility.yul\":7344:7348   */\n      0x00\n        /* \"#utility.yul\":7382:7384   */\n      0x20\n        /* \"#utility.yul\":7371:7380   */\n      dup3\n        /* \"#utility.yul\":7367:7385   */\n      add\n        /* \"#utility.yul\":7359:7385   */\n      swap1\n      pop\n        /* \"#utility.yul\":7431:7440   */\n      dup2\n        /* \"#utility.yul\":7425:7429   */\n      dup2\n        /* \"#utility.yul\":7421:7441   */\n      sub\n        /* \"#utility.yul\":7417:7418   */\n      0x00\n        /* \"#utility.yul\":7406:7415   */\n      dup4\n        /* \"#utility.yul\":7402:7419   */\n      add\n        /* \"#utility.yul\":7395:7442   */\n      mstore\n        /* \"#utility.yul\":7459:7590   */\n      tag_280\n        /* \"#utility.yul\":7585:7589   */\n      dup2\n        /* \"#utility.yul\":7459:7590   */\n      tag_170\n      jump\t// in\n    tag_280:\n        /* \"#utility.yul\":7451:7590   */\n      swap1\n      pop\n        /* \"#utility.yul\":7178:7597   */\n      swap2\n      swap1\n      pop\n      jump\t// out\n        /* \"#utility.yul\":7603:7746   */\n    tag_171:\n        /* \"#utility.yul\":7660:7665   */\n      0x00\n        /* \"#utility.yul\":7691:7697   */\n      dup2\n        /* \"#utility.yul\":7685:7698   */\n      mload\n        /* \"#utility.yul\":7676:7698   */\n      swap1\n      pop\n        /* \"#utility.yul\":7707:7740   */\n      tag_282\n        /* \"#utility.yul\":7734:7739   */\n      dup2\n        /* \"#utility.yul\":7707:7740   */\n      tag_160\n      jump\t// in\n    tag_282:\n        /* \"#utility.yul\":7603:7746   */\n      swap3\n      swap2\n      pop\n      pop\n      jump\t// out\n        /* \"#utility.yul\":7752:8103   */\n    tag_54:\n        /* \"#utility.yul\":7822:7828   */\n      0x00\n        /* \"#utility.yul\":7871:7873   */\n      0x20\n        /* \"#utility.yul\":7859:7868   */\n      dup3\n        /* \"#utility.yul\":7850:7857   */\n      dup5\n        /* \"#utility.yul\":7846:7869   */\n      sub\n        /* \"#utility.yul\":7842:7874   */\n      slt\n        /* \"#utility.yul\":7839:7958   */\n      iszero\n      tag_284\n      jumpi\n        /* \"#utility.yul\":7877:7956   */\n      tag_285\n      tag_144\n      jump\t// in\n    tag_285:\n        /* \"#utility.yul\":7839:7958   */\n    tag_284:\n        /* \"#utility.yul\":7997:7998   */\n      0x00\n        /* \"#utility.yul\":8022:8086   */\n      tag_286\n        /* \"#utility.yul\":8078:8085   */\n      dup5\n        /* \"#utility.yul\":8069:8075   */\n      dup3\n        /* \"#utility.yul\":8058:8067   */\n      dup6\n        /* \"#utility.yul\":8054:8076   */\n      add\n        /* \"#utility.yul\":8022:8086   */\n      tag_171\n      jump\t// in\n    tag_286:\n        /* \"#utility.yul\":8012:8086   */\n      swap2\n      pop\n        /* \"#utility.yul\":7968:8096   */\n      pop\n        /* \"#utility.yul\":7752:8103   */\n      swap3\n      swap2\n      pop\n      pop\n      jump\t// out\n        /* \"#utility.yul\":8109:8332   */\n    tag_172:\n        /* \"#utility.yul\":8249:8283   */\n      0x5468652073656c6c65727320617265206e6f74207468652073616d6520616464\n        /* \"#utility.yul\":8245:8246   */\n      0x00\n        /* \"#utility.yul\":8237:8243   */\n      dup3\n        /* \"#utility.yul\":8233:8247   */\n      add\n        /* \"#utility.yul\":8226:8284   */\n      mstore\n        /* \"#utility.yul\":8318:8324   */\n      0x7265737300000000000000000000000000000000000000000000000000000000\n        /* \"#utility.yul\":8313:8315   */\n      0x20\n        /* \"#utility.yul\":8305:8311   */\n      dup3\n        /* \"#utility.yul\":8301:8316   */\n      add\n        /* \"#utility.yul\":8294:8325   */\n      mstore\n        /* \"#utility.yul\":8109:8332   */\n      pop\n      jump\t// out\n        /* \"#utility.yul\":8338:8704   */\n    tag_173:\n        /* \"#utility.yul\":8480:8483   */\n      0x00\n        /* \"#utility.yul\":8501:8568   */\n      tag_289\n        /* \"#utility.yul\":8565:8567   */\n      0x24\n        /* \"#utility.yul\":8560:8563   */\n      dup4\n        /* \"#utility.yul\":8501:8568   */\n      tag_168\n      jump\t// in\n    tag_289:\n        /* \"#utility.yul\":8494:8568   */\n      swap2\n      pop\n        /* \"#utility.yul\":8577:8670   */\n      tag_290\n        /* \"#utility.yul\":8666:8669   */\n      dup3\n        /* \"#utility.yul\":8577:8670   */\n      tag_172\n      jump\t// in\n    tag_290:\n        /* \"#utility.yul\":8695:8697   */\n      0x40\n        /* \"#utility.yul\":8690:8693   */\n      dup3\n        /* \"#utility.yul\":8686:8698   */\n      add\n        /* \"#utility.yul\":8679:8698   */\n      swap1\n      pop\n        /* \"#utility.yul\":8338:8704   */\n      swap2\n      swap1\n      pop\n      jump\t// out\n        /* \"#utility.yul\":8710:9129   */\n    tag_57:\n        /* \"#utility.yul\":8876:8880   */\n      0x00\n        /* \"#utility.yul\":8914:8916   */\n      0x20\n        /* \"#utility.yul\":8903:8912   */\n      dup3\n        /* \"#utility.yul\":8899:8917   */\n      add\n        /* \"#utility.yul\":8891:8917   */\n      swap1\n      pop\n        /* \"#utility.yul\":8963:8972   */\n      dup2\n        /* \"#utility.yul\":8957:8961   */\n      dup2\n        /* \"#utility.yul\":8953:8973   */\n      sub\n        /* \"#utility.yul\":8949:8950   */\n      0x00\n        /* \"#utility.yul\":8938:8947   */\n      dup4\n        /* \"#utility.yul\":8934:8951   */\n      add\n        /* \"#utility.yul\":8927:8974   */\n      mstore\n        /* \"#utility.yul\":8991:9122   */\n      tag_292\n        /* \"#utility.yul\":9117:9121   */\n      dup2\n        /* \"#utility.yul\":8991:9122   */\n      tag_173\n      jump\t// in\n    tag_292:\n        /* \"#utility.yul\":8983:9122   */\n      swap1\n      pop\n        /* \"#utility.yul\":8710:9129   */\n      swap2\n      swap1\n      pop\n      jump\t// out\n        /* \"#utility.yul\":9135:9577   */\n    tag_59:\n        /* \"#utility.yul\":9284:9288   */\n      0x00\n        /* \"#utility.yul\":9322:9324   */\n      0x60\n        /* \"#utility.yul\":9311:9320   */\n      dup3\n        /* \"#utility.yul\":9307:9325   */\n      add\n        /* \"#utility.yul\":9299:9325   */\n      swap1\n      pop\n        /* \"#utility.yul\":9335:9406   */\n      tag_294\n        /* \"#utility.yul\":9403:9404   */\n      0x00\n        /* \"#utility.yul\":9392:9401   */\n      dup4\n        /* \"#utility.yul\":9388:9405   */\n      add\n        /* \"#utility.yul\":9379:9385   */\n      dup7\n        /* \"#utility.yul\":9335:9406   */\n      tag_167\n      jump\t// in\n    tag_294:\n        /* \"#utility.yul\":9416:9488   */\n      tag_295\n        /* \"#utility.yul\":9484:9486   */\n      0x20\n        /* \"#utility.yul\":9473:9482   */\n      dup4\n        /* \"#utility.yul\":9469:9487   */\n      add\n        /* \"#utility.yul\":9460:9466   */\n      dup6\n        /* \"#utility.yul\":9416:9488   */\n      tag_167\n      jump\t// in\n    tag_295:\n        /* \"#utility.yul\":9498:9570   */\n      tag_296\n        /* \"#utility.yul\":9566:9568   */\n      0x40\n        /* \"#utility.yul\":9555:9564   */\n      dup4\n        /* \"#utility.yul\":9551:9569   */\n      add\n        /* \"#utility.yul\":9542:9548   */\n      dup5\n        /* \"#utility.yul\":9498:9570   */\n      tag_166\n      jump\t// in\n    tag_296:\n        /* \"#utility.yul\":9135:9577   */\n      swap5\n      swap4\n      pop\n      pop\n      pop\n      pop\n      jump\t// out\n        /* \"#utility.yul\":9583:9699   */\n    tag_174:\n        /* \"#utility.yul\":9653:9674   */\n      tag_298\n        /* \"#utility.yul\":9668:9673   */\n      dup2\n        /* \"#utility.yul\":9653:9674   */\n      tag_149\n      jump\t// in\n    tag_298:\n        /* \"#utility.yul\":9646:9651   */\n      dup2\n        /* \"#utility.yul\":9643:9675   */\n      eq\n        /* \"#utility.yul\":9633:9693   */\n      tag_299\n      jumpi\n        /* \"#utility.yul\":9689:9690   */\n      0x00\n        /* \"#utility.yul\":9686:9687   */\n      0x00\n        /* \"#utility.yul\":9679:9691   */\n      revert\n        /* \"#utility.yul\":9633:9693   */\n    tag_299:\n        /* \"#utility.yul\":9583:9699   */\n      pop\n      jump\t// out\n        /* \"#utility.yul\":9705:9842   */\n    tag_175:\n        /* \"#utility.yul\":9759:9764   */\n      0x00\n        /* \"#utility.yul\":9790:9796   */\n      dup2\n        /* \"#utility.yul\":9784:9797   */\n      mload\n        /* \"#utility.yul\":9775:9797   */\n      swap1\n      pop\n        /* \"#utility.yul\":9806:9836   */\n      tag_301\n        /* \"#utility.yul\":9830:9835   */\n      dup2\n        /* \"#utility.yul\":9806:9836   */\n      tag_174\n      jump\t// in\n    tag_301:\n        /* \"#utility.yul\":9705:9842   */\n      swap3\n      swap2\n      pop\n      pop\n      jump\t// out\n        /* \"#utility.yul\":9848:10193   */\n    tag_63:\n        /* \"#utility.yul\":9915:9921   */\n      0x00\n        /* \"#utility.yul\":9964:9966   */\n      0x20\n        /* \"#utility.yul\":9952:9961   */\n      dup3\n        /* \"#utility.yul\":9943:9950   */\n      dup5\n        /* \"#utility.yul\":9939:9962   */\n      sub\n        /* \"#utility.yul\":9935:9967   */\n      slt\n        /* \"#utility.yul\":9932:10051   */\n      iszero\n      tag_303\n      jumpi\n        /* \"#utility.yul\":9970:10049   */\n      tag_304\n      tag_144\n      jump\t// in\n    tag_304:\n        /* \"#utility.yul\":9932:10051   */\n    tag_303:\n        /* \"#utility.yul\":10090:10091   */\n      0x00\n        /* \"#utility.yul\":10115:10176   */\n      tag_305\n        /* \"#utility.yul\":10168:10175   */\n      dup5\n        /* \"#utility.yul\":10159:10165   */\n      dup3\n        /* \"#utility.yul\":10148:10157   */\n      dup6\n        /* \"#utility.yul\":10144:10166   */\n      add\n        /* \"#utility.yul\":10115:10176   */\n      tag_175\n      jump\t// in\n    tag_305:\n        /* \"#utility.yul\":10105:10176   */\n      swap2\n      pop\n        /* \"#utility.yul\":10061:10186   */\n      pop\n        /* \"#utility.yul\":9848:10193   */\n      swap3\n      swap2\n      pop\n      pop\n      jump\t// out\n        /* \"#utility.yul\":10199:10367   */\n    tag_176:\n        /* \"#utility.yul\":10339:10359   */\n      0x7472616e7366657246726f6d206572726f720000000000000000000000000000\n        /* \"#utility.yul\":10335:10336   */\n      0x00\n        /* \"#utility.yul\":10327:10333   */\n      dup3\n        /* \"#utility.yul\":10323:10337   */\n      add\n        /* \"#utility.yul\":10316:10360   */\n      mstore\n        /* \"#utility.yul\":10199:10367   */\n      pop\n      jump\t// out\n        /* \"#utility.yul\":10373:10739   */\n    tag_177:\n        /* \"#utility.yul\":10515:10518   */\n      0x00\n        /* \"#utility.yul\":10536:10603   */\n      tag_308\n        /* \"#utility.yul\":10600:10602   */\n      0x12\n        /* \"#utility.yul\":10595:10598   */\n      dup4\n        /* \"#utility.yul\":10536:10603   */\n      tag_168\n      jump\t// in\n    tag_308:\n        /* \"#utility.yul\":10529:10603   */\n      swap2\n      pop\n        /* \"#utility.yul\":10612:10705   */\n      tag_309\n        /* \"#utility.yul\":10701:10704   */\n      dup3\n        /* \"#utility.yul\":10612:10705   */\n      tag_176\n      jump\t// in\n    tag_309:\n        /* \"#utility.yul\":10730:10732   */\n      0x20\n        /* \"#utility.yul\":10725:10728   */\n      dup3\n        /* \"#utility.yul\":10721:10733   */\n      add\n        /* \"#utility.yul\":10714:10733   */\n      swap1\n      pop\n        /* \"#utility.yul\":10373:10739   */\n      swap2\n      swap1\n      pop\n      jump\t// out\n        /* \"#utility.yul\":10745:11164   */\n    tag_66:\n        /* \"#utility.yul\":10911:10915   */\n      0x00\n        /* \"#utility.yul\":10949:10951   */\n      0x20\n        /* \"#utility.yul\":10938:10947   */\n      dup3\n        /* \"#utility.yul\":10934:10952   */\n      add\n        /* \"#utility.yul\":10926:10952   */\n      swap1\n      pop\n        /* \"#utility.yul\":10998:11007   */\n      dup2\n        /* \"#utility.yul\":10992:10996   */\n      dup2\n        /* \"#utility.yul\":10988:11008   */\n      sub\n        /* \"#utility.yul\":10984:10985   */\n      0x00\n        /* \"#utility.yul\":10973:10982   */\n      dup4\n        /* \"#utility.yul\":10969:10986   */\n      add\n        /* \"#utility.yul\":10962:11009   */\n      mstore\n        /* \"#utility.yul\":11026:11157   */\n      tag_311\n        /* \"#utility.yul\":11152:11156   */\n      dup2\n        /* \"#utility.yul\":11026:11157   */\n      tag_177\n      jump\t// in\n    tag_311:\n        /* \"#utility.yul\":11018:11157   */\n      swap1\n      pop\n        /* \"#utility.yul\":10745:11164   */\n      swap2\n      swap1\n      pop\n      jump\t// out\n        /* \"#utility.yul\":11170:11612   */\n    tag_72:\n        /* \"#utility.yul\":11319:11323   */\n      0x00\n        /* \"#utility.yul\":11357:11359   */\n      0x60\n        /* \"#utility.yul\":11346:11355   */\n      dup3\n        /* \"#utility.yul\":11342:11360   */\n      add\n        /* \"#utility.yul\":11334:11360   */\n      swap1\n      pop\n        /* \"#utility.yul\":11370:11441   */\n      tag_313\n        /* \"#utility.yul\":11438:11439   */\n      0x00\n        /* \"#utility.yul\":11427:11436   */\n      dup4\n        /* \"#utility.yul\":11423:11440   */\n      add\n        /* \"#utility.yul\":11414:11420   */\n      dup7\n        /* \"#utility.yul\":11370:11441   */\n      tag_167\n      jump\t// in\n    tag_313:\n        /* \"#utility.yul\":11451:11523   */\n      tag_314\n        /* \"#utility.yul\":11519:11521   */\n      0x20\n        /* \"#utility.yul\":11508:11517   */\n      dup4\n        /* \"#utility.yul\":11504:11522   */\n      add\n        /* \"#utility.yul\":11495:11501   */\n      dup6\n        /* \"#utility.yul\":11451:11523   */\n      tag_166\n      jump\t// in\n    tag_314:\n        /* \"#utility.yul\":11533:11605   */\n      tag_315\n        /* \"#utility.yul\":11601:11603   */\n      0x40\n        /* \"#utility.yul\":11590:11599   */\n      dup4\n        /* \"#utility.yul\":11586:11604   */\n      add\n        /* \"#utility.yul\":11577:11583   */\n      dup5\n        /* \"#utility.yul\":11533:11605   */\n      tag_166\n      jump\t// in\n    tag_315:\n        /* \"#utility.yul\":11170:11612   */\n      swap5\n      swap4\n      pop\n      pop\n      pop\n      pop\n      jump\t// out\n        /* \"#utility.yul\":11618:11800   */\n    tag_178:\n        /* \"#utility.yul\":11758:11792   */\n      0x746f6b656e4964206d75737420213d302c20616d6f756e74206d757374203e30\n        /* \"#utility.yul\":11754:11755   */\n      0x00\n        /* \"#utility.yul\":11746:11752   */\n      dup3\n        /* \"#utility.yul\":11742:11756   */\n      add\n        /* \"#utility.yul\":11735:11793   */\n      mstore\n        /* \"#utility.yul\":11618:11800   */\n      pop\n      jump\t// out\n        /* \"#utility.yul\":11806:12172   */\n    tag_179:\n        /* \"#utility.yul\":11948:11951   */\n      0x00\n        /* \"#utility.yul\":11969:12036   */\n      tag_318\n        /* \"#utility.yul\":12033:12035   */\n      0x20\n        /* \"#utility.yul\":12028:12031   */\n      dup4\n        /* \"#utility.yul\":11969:12036   */\n      tag_168\n      jump\t// in\n    tag_318:\n        /* \"#utility.yul\":11962:12036   */\n      swap2\n      pop\n        /* \"#utility.yul\":12045:12138   */\n      tag_319\n        /* \"#utility.yul\":12134:12137   */\n      dup3\n        /* \"#utility.yul\":12045:12138   */\n      tag_178\n      jump\t// in\n    tag_319:\n        /* \"#utility.yul\":12163:12165   */\n      0x20\n        /* \"#utility.yul\":12158:12161   */\n      dup3\n        /* \"#utility.yul\":12154:12166   */\n      add\n        /* \"#utility.yul\":12147:12166   */\n      swap1\n      pop\n        /* \"#utility.yul\":11806:12172   */\n      swap2\n      swap1\n      pop\n      jump\t// out\n        /* \"#utility.yul\":12178:12597   */\n    tag_77:\n        /* \"#utility.yul\":12344:12348   */\n      0x00\n        /* \"#utility.yul\":12382:12384   */\n      0x20\n        /* \"#utility.yul\":12371:12380   */\n      dup3\n        /* \"#utility.yul\":12367:12385   */\n      add\n        /* \"#utility.yul\":12359:12385   */\n      swap1\n      pop\n        /* \"#utility.yul\":12431:12440   */\n      dup2\n        /* \"#utility.yul\":12425:12429   */\n      dup2\n        /* \"#utility.yul\":12421:12441   */\n      sub\n        /* \"#utility.yul\":12417:12418   */\n      0x00\n        /* \"#utility.yul\":12406:12415   */\n      dup4\n        /* \"#utility.yul\":12402:12419   */\n      add\n        /* \"#utility.yul\":12395:12442   */\n      mstore\n        /* \"#utility.yul\":12459:12590   */\n      tag_321\n        /* \"#utility.yul\":12585:12589   */\n      dup2\n        /* \"#utility.yul\":12459:12590   */\n      tag_179\n      jump\t// in\n    tag_321:\n        /* \"#utility.yul\":12451:12590   */\n      swap1\n      pop\n        /* \"#utility.yul\":12178:12597   */\n      swap2\n      swap1\n      pop\n      jump\t// out\n        /* \"#utility.yul\":12603:12770   */\n    tag_180:\n        /* \"#utility.yul\":12743:12762   */\n      0x796f7520617265206e6f74206f776e6572000000000000000000000000000000\n        /* \"#utility.yul\":12739:12740   */\n      0x00\n        /* \"#utility.yul\":12731:12737   */\n      dup3\n        /* \"#utility.yul\":12727:12741   */\n      add\n        /* \"#utility.yul\":12720:12763   */\n      mstore\n        /* \"#utility.yul\":12603:12770   */\n      pop\n      jump\t// out\n        /* \"#utility.yul\":12776:13142   */\n    tag_181:\n        /* \"#utility.yul\":12918:12921   */\n      0x00\n        /* \"#utility.yul\":12939:13006   */\n      tag_324\n        /* \"#utility.yul\":13003:13005   */\n      0x11\n        /* \"#utility.yul\":12998:13001   */\n      dup4\n        /* \"#utility.yul\":12939:13006   */\n      tag_168\n      jump\t// in\n    tag_324:\n        /* \"#utility.yul\":12932:13006   */\n      swap2\n      pop\n        /* \"#utility.yul\":13015:13108   */\n      tag_325\n        /* \"#utility.yul\":13104:13107   */\n      dup3\n        /* \"#utility.yul\":13015:13108   */\n      tag_180\n      jump\t// in\n    tag_325:\n        /* \"#utility.yul\":13133:13135   */\n      0x20\n        /* \"#utility.yul\":13128:13131   */\n      dup3\n        /* \"#utility.yul\":13124:13136   */\n      add\n        /* \"#utility.yul\":13117:13136   */\n      swap1\n      pop\n        /* \"#utility.yul\":12776:13142   */\n      swap2\n      swap1\n      pop\n      jump\t// out\n        /* \"#utility.yul\":13148:13567   */\n    tag_84:\n        /* \"#utility.yul\":13314:13318   */\n      0x00\n        /* \"#utility.yul\":13352:13354   */\n      0x20\n        /* \"#utility.yul\":13341:13350   */\n      dup3\n        /* \"#utility.yul\":13337:13355   */\n      add\n        /* \"#utility.yul\":13329:13355   */\n      swap1\n      pop\n        /* \"#utility.yul\":13401:13410   */\n      dup2\n        /* \"#utility.yul\":13395:13399   */\n      dup2\n        /* \"#utility.yul\":13391:13411   */\n      sub\n        /* \"#utility.yul\":13387:13388   */\n      0x00\n        /* \"#utility.yul\":13376:13385   */\n      dup4\n        /* \"#utility.yul\":13372:13389   */\n      add\n        /* \"#utility.yul\":13365:13412   */\n      mstore\n        /* \"#utility.yul\":13429:13560   */\n      tag_327\n        /* \"#utility.yul\":13555:13559   */\n      dup2\n        /* \"#utility.yul\":13429:13560   */\n      tag_181\n      jump\t// in\n    tag_327:\n        /* \"#utility.yul\":13421:13560   */\n      swap1\n      pop\n        /* \"#utility.yul\":13148:13567   */\n      swap2\n      swap1\n      pop\n      jump\t// out\n        /* \"#utility.yul\":13573:13737   */\n    tag_182:\n        /* \"#utility.yul\":13713:13729   */\n      0x616c7265616479206c6973746564000000000000000000000000000000000000\n        /* \"#utility.yul\":13709:13710   */\n      0x00\n        /* \"#utility.yul\":13701:13707   */\n      dup3\n        /* \"#utility.yul\":13697:13711   */\n      add\n        /* \"#utility.yul\":13690:13730   */\n      mstore\n        /* \"#utility.yul\":13573:13737   */\n      pop\n      jump\t// out\n        /* \"#utility.yul\":13743:14109   */\n    tag_183:\n        /* \"#utility.yul\":13885:13888   */\n      0x00\n        /* \"#utility.yul\":13906:13973   */\n      tag_330\n        /* \"#utility.yul\":13970:13972   */\n      0x0e\n        /* \"#utility.yul\":13965:13968   */\n      dup4\n        /* \"#utility.yul\":13906:13973   */\n      tag_168\n      jump\t// in\n    tag_330:\n        /* \"#utility.yul\":13899:13973   */\n      swap2\n      pop\n        /* \"#utility.yul\":13982:14075   */\n      tag_331\n        /* \"#utility.yul\":14071:14074   */\n      dup3\n        /* \"#utility.yul\":13982:14075   */\n      tag_182\n      jump\t// in\n    tag_331:\n        /* \"#utility.yul\":14100:14102   */\n      0x20\n        /* \"#utility.yul\":14095:14098   */\n      dup3\n        /* \"#utility.yul\":14091:14103   */\n      add\n        /* \"#utility.yul\":14084:14103   */\n      swap1\n      pop\n        /* \"#utility.yul\":13743:14109   */\n      swap2\n      swap1\n      pop\n      jump\t// out\n        /* \"#utility.yul\":14115:14534   */\n    tag_87:\n        /* \"#utility.yul\":14281:14285   */\n      0x00\n        /* \"#utility.yul\":14319:14321   */\n      0x20\n        /* \"#utility.yul\":14308:14317   */\n      dup3\n        /* \"#utility.yul\":14304:14322   */\n      add\n        /* \"#utility.yul\":14296:14322   */\n      swap1\n      pop\n        /* \"#utility.yul\":14368:14377   */\n      dup2\n        /* \"#utility.yul\":14362:14366   */\n      dup2\n        /* \"#utility.yul\":14358:14378   */\n      sub\n        /* \"#utility.yul\":14354:14355   */\n      0x00\n        /* \"#utility.yul\":14343:14352   */\n      dup4\n        /* \"#utility.yul\":14339:14356   */\n      add\n        /* \"#utility.yul\":14332:14379   */\n      mstore\n        /* \"#utility.yul\":14396:14527   */\n      tag_333\n        /* \"#utility.yul\":14522:14526   */\n      dup2\n        /* \"#utility.yul\":14396:14527   */\n      tag_183\n      jump\t// in\n    tag_333:\n        /* \"#utility.yul\":14388:14527   */\n      swap1\n      pop\n        /* \"#utility.yul\":14115:14534   */\n      swap2\n      swap1\n      pop\n      jump\t// out\n        /* \"#utility.yul\":14540:14872   */\n    tag_94:\n        /* \"#utility.yul\":14661:14665   */\n      0x00\n        /* \"#utility.yul\":14699:14701   */\n      0x40\n        /* \"#utility.yul\":14688:14697   */\n      dup3\n        /* \"#utility.yul\":14684:14702   */\n      add\n        /* \"#utility.yul\":14676:14702   */\n      swap1\n      pop\n        /* \"#utility.yul\":14712:14783   */\n      tag_335\n        /* \"#utility.yul\":14780:14781   */\n      0x00\n        /* \"#utility.yul\":14769:14778   */\n      dup4\n        /* \"#utility.yul\":14765:14782   */\n      add\n        /* \"#utility.yul\":14756:14762   */\n      dup6\n        /* \"#utility.yul\":14712:14783   */\n      tag_167\n      jump\t// in\n    tag_335:\n        /* \"#utility.yul\":14793:14865   */\n      tag_336\n        /* \"#utility.yul\":14861:14863   */\n      0x20\n        /* \"#utility.yul\":14850:14859   */\n      dup4\n        /* \"#utility.yul\":14846:14864   */\n      add\n        /* \"#utility.yul\":14837:14843   */\n      dup5\n        /* \"#utility.yul\":14793:14865   */\n      tag_167\n      jump\t// in\n    tag_336:\n        /* \"#utility.yul\":14540:14872   */\n      swap4\n      swap3\n      pop\n      pop\n      pop\n      jump\t// out\n        /* \"#utility.yul\":14878:15051   */\n    tag_184:\n        /* \"#utility.yul\":15018:15043   */\n      0x4e46544d61726b65743a206e6f7420617070726f766564000000000000000000\n        /* \"#utility.yul\":15014:15015   */\n      0x00\n        /* \"#utility.yul\":15006:15012   */\n      dup3\n        /* \"#utility.yul\":15002:15016   */\n      add\n        /* \"#utility.yul\":14995:15044   */\n      mstore\n        /* \"#utility.yul\":14878:15051   */\n      pop\n      jump\t// out\n        /* \"#utility.yul\":15057:15423   */\n    tag_185:\n        /* \"#utility.yul\":15199:15202   */\n      0x00\n        /* \"#utility.yul\":15220:15287   */\n      tag_339\n        /* \"#utility.yul\":15284:15286   */\n      0x17\n        /* \"#utility.yul\":15279:15282   */\n      dup4\n        /* \"#utility.yul\":15220:15287   */\n      tag_168\n      jump\t// in\n    tag_339:\n        /* \"#utility.yul\":15213:15287   */\n      swap2\n      pop\n        /* \"#utility.yul\":15296:15389   */\n      tag_340\n        /* \"#utility.yul\":15385:15388   */\n      dup3\n        /* \"#utility.yul\":15296:15389   */\n      tag_184\n      jump\t// in\n    tag_340:\n        /* \"#utility.yul\":15414:15416   */\n      0x20\n        /* \"#utility.yul\":15409:15412   */\n      dup3\n        /* \"#utility.yul\":15405:15417   */\n      add\n        /* \"#utility.yul\":15398:15417   */\n      swap1\n      pop\n        /* \"#utility.yul\":15057:15423   */\n      swap2\n      swap1\n      pop\n      jump\t// out\n        /* \"#utility.yul\":15429:15848   */\n    tag_100:\n        /* \"#utility.yul\":15595:15599   */\n      0x00\n        /* \"#utility.yul\":15633:15635   */\n      0x20\n        /* \"#utility.yul\":15622:15631   */\n      dup3\n        /* \"#utility.yul\":15618:15636   */\n      add\n        /* \"#utility.yul\":15610:15636   */\n      swap1\n      pop\n        /* \"#utility.yul\":15682:15691   */\n      dup2\n        /* \"#utility.yul\":15676:15680   */\n      dup2\n        /* \"#utility.yul\":15672:15692   */\n      sub\n        /* \"#utility.yul\":15668:15669   */\n      0x00\n        /* \"#utility.yul\":15657:15666   */\n      dup4\n        /* \"#utility.yul\":15653:15670   */\n      add\n        /* \"#utility.yul\":15646:15693   */\n      mstore\n        /* \"#utility.yul\":15710:15841   */\n      tag_342\n        /* \"#utility.yul\":15836:15840   */\n      dup2\n        /* \"#utility.yul\":15710:15841   */\n      tag_185\n      jump\t// in\n    tag_342:\n        /* \"#utility.yul\":15702:15841   */\n      swap1\n      pop\n        /* \"#utility.yul\":15429:15848   */\n      swap2\n      swap1\n      pop\n      jump\t// out\n        /* \"#utility.yul\":15854:16296   */\n    tag_102:\n        /* \"#utility.yul\":16003:16007   */\n      0x00\n        /* \"#utility.yul\":16041:16043   */\n      0x60\n        /* \"#utility.yul\":16030:16039   */\n      dup3\n        /* \"#utility.yul\":16026:16044   */\n      add\n        /* \"#utility.yul\":16018:16044   */\n      swap1\n      pop\n        /* \"#utility.yul\":16054:16125   */\n      tag_344\n        /* \"#utility.yul\":16122:16123   */\n      0x00\n        /* \"#utility.yul\":16111:16120   */\n      dup4\n        /* \"#utility.yul\":16107:16124   */\n      add\n        /* \"#utility.yul\":16098:16104   */\n      dup7\n        /* \"#utility.yul\":16054:16125   */\n      tag_166\n      jump\t// in\n    tag_344:\n        /* \"#utility.yul\":16135:16207   */\n      tag_345\n        /* \"#utility.yul\":16203:16205   */\n      0x20\n        /* \"#utility.yul\":16192:16201   */\n      dup4\n        /* \"#utility.yul\":16188:16206   */\n      add\n        /* \"#utility.yul\":16179:16185   */\n      dup6\n        /* \"#utility.yul\":16135:16207   */\n      tag_167\n      jump\t// in\n    tag_345:\n        /* \"#utility.yul\":16217:16289   */\n      tag_346\n        /* \"#utility.yul\":16285:16287   */\n      0x40\n        /* \"#utility.yul\":16274:16283   */\n      dup4\n        /* \"#utility.yul\":16270:16288   */\n      add\n        /* \"#utility.yul\":16261:16267   */\n      dup5\n        /* \"#utility.yul\":16217:16289   */\n      tag_166\n      jump\t// in\n    tag_346:\n        /* \"#utility.yul\":15854:16296   */\n      swap5\n      swap4\n      pop\n      pop\n      pop\n      pop\n      jump\t// out\n        /* \"#utility.yul\":16302:16527   */\n    tag_186:\n        /* \"#utility.yul\":16442:16476   */\n      0x6f6e6c79206572633230546f6b656e2063616e2063616c6c2074686973206675\n        /* \"#utility.yul\":16438:16439   */\n      0x00\n        /* \"#utility.yul\":16430:16436   */\n      dup3\n        /* \"#utility.yul\":16426:16440   */\n      add\n        /* \"#utility.yul\":16419:16477   */\n      mstore\n        /* \"#utility.yul\":16511:16519   */\n      0x6e6374696f6e0000000000000000000000000000000000000000000000000000\n        /* \"#utility.yul\":16506:16508   */\n      0x20\n        /* \"#utility.yul\":16498:16504   */\n      dup3\n        /* \"#utility.yul\":16494:16509   */\n      add\n        /* \"#utility.yul\":16487:16520   */\n      mstore\n        /* \"#utility.yul\":16302:16527   */\n      pop\n      jump\t// out\n        /* \"#utility.yul\":16533:16899   */\n    tag_187:\n        /* \"#utility.yul\":16675:16678   */\n      0x00\n        /* \"#utility.yul\":16696:16763   */\n      tag_349\n        /* \"#utility.yul\":16760:16762   */\n      0x26\n        /* \"#utility.yul\":16755:16758   */\n      dup4\n        /* \"#utility.yul\":16696:16763   */\n      tag_168\n      jump\t// in\n    tag_349:\n        /* \"#utility.yul\":16689:16763   */\n      swap2\n      pop\n        /* \"#utility.yul\":16772:16865   */\n      tag_350\n        /* \"#utility.yul\":16861:16864   */\n      dup3\n        /* \"#utility.yul\":16772:16865   */\n      tag_186\n      jump\t// in\n    tag_350:\n        /* \"#utility.yul\":16890:16892   */\n      0x40\n        /* \"#utility.yul\":16885:16888   */\n      dup3\n        /* \"#utility.yul\":16881:16893   */\n      add\n        /* \"#utility.yul\":16874:16893   */\n      swap1\n      pop\n        /* \"#utility.yul\":16533:16899   */\n      swap2\n      swap1\n      pop\n      jump\t// out\n        /* \"#utility.yul\":16905:17324   */\n    tag_106:\n        /* \"#utility.yul\":17071:17075   */\n      0x00\n        /* \"#utility.yul\":17109:17111   */\n      0x20\n        /* \"#utility.yul\":17098:17107   */\n      dup3\n        /* \"#utility.yul\":17094:17112   */\n      add\n        /* \"#utility.yul\":17086:17112   */\n      swap1\n      pop\n        /* \"#utility.yul\":17158:17167   */\n      dup2\n        /* \"#utility.yul\":17152:17156   */\n      dup2\n        /* \"#utility.yul\":17148:17168   */\n      sub\n        /* \"#utility.yul\":17144:17145   */\n      0x00\n        /* \"#utility.yul\":17133:17142   */\n      dup4\n        /* \"#utility.yul\":17129:17146   */\n      add\n        /* \"#utility.yul\":17122:17169   */\n      mstore\n        /* \"#utility.yul\":17186:17317   */\n      tag_352\n        /* \"#utility.yul\":17312:17316   */\n      dup2\n        /* \"#utility.yul\":17186:17317   */\n      tag_187\n      jump\t// in\n    tag_352:\n        /* \"#utility.yul\":17178:17317   */\n      swap1\n      pop\n        /* \"#utility.yul\":16905:17324   */\n      swap2\n      swap1\n      pop\n      jump\t// out\n        /* \"#utility.yul\":17330:17506   */\n    tag_188:\n        /* \"#utility.yul\":17470:17498   */\n      0x4d61726b65743a20746f6b656e206e6f7420666f722073616c65000000000000\n        /* \"#utility.yul\":17466:17467   */\n      0x00\n        /* \"#utility.yul\":17458:17464   */\n      dup3\n        /* \"#utility.yul\":17454:17468   */\n      add\n        /* \"#utility.yul\":17447:17499   */\n      mstore\n        /* \"#utility.yul\":17330:17506   */\n      pop\n      jump\t// out\n        /* \"#utility.yul\":17512:17878   */\n    tag_189:\n        /* \"#utility.yul\":17654:17657   */\n      0x00\n        /* \"#utility.yul\":17675:17742   */\n      tag_355\n        /* \"#utility.yul\":17739:17741   */\n      0x1a\n        /* \"#utility.yul\":17734:17737   */\n      dup4\n        /* \"#utility.yul\":17675:17742   */\n      tag_168\n      jump\t// in\n    tag_355:\n        /* \"#utility.yul\":17668:17742   */\n      swap2\n      pop\n        /* \"#utility.yul\":17751:17844   */\n      tag_356\n        /* \"#utility.yul\":17840:17843   */\n      dup3\n        /* \"#utility.yul\":17751:17844   */\n      tag_188\n      jump\t// in\n    tag_356:\n        /* \"#utility.yul\":17869:17871   */\n      0x20\n        /* \"#utility.yul\":17864:17867   */\n      dup3\n        /* \"#utility.yul\":17860:17872   */\n      add\n        /* \"#utility.yul\":17853:17872   */\n      swap1\n      pop\n        /* \"#utility.yul\":17512:17878   */\n      swap2\n      swap1\n      pop\n      jump\t// out\n        /* \"#utility.yul\":17884:18303   */\n    tag_110:\n        /* \"#utility.yul\":18050:18054   */\n      0x00\n        /* \"#utility.yul\":18088:18090   */\n      0x20\n        /* \"#utility.yul\":18077:18086   */\n      dup3\n        /* \"#utility.yul\":18073:18091   */\n      add\n        /* \"#utility.yul\":18065:18091   */\n      swap1\n      pop\n        /* \"#utility.yul\":18137:18146   */\n      dup2\n        /* \"#utility.yul\":18131:18135   */\n      dup2\n        /* \"#utility.yul\":18127:18147   */\n      sub\n        /* \"#utility.yul\":18123:18124   */\n      0x00\n        /* \"#utility.yul\":18112:18121   */\n      dup4\n        /* \"#utility.yul\":18108:18125   */\n      add\n        /* \"#utility.yul\":18101:18148   */\n      mstore\n        /* \"#utility.yul\":18165:18296   */\n      tag_358\n        /* \"#utility.yul\":18291:18295   */\n      dup2\n        /* \"#utility.yul\":18165:18296   */\n      tag_189\n      jump\t// in\n    tag_358:\n        /* \"#utility.yul\":18157:18296   */\n      swap1\n      pop\n        /* \"#utility.yul\":17884:18303   */\n      swap2\n      swap1\n      pop\n      jump\t// out\n        /* \"#utility.yul\":18309:18487   */\n    tag_190:\n        /* \"#utility.yul\":18449:18479   */\n      0x204d61726b65743a20696e73756666696369656e7420616d6f756e7400000000\n        /* \"#utility.yul\":18445:18446   */\n      0x00\n        /* \"#utility.yul\":18437:18443   */\n      dup3\n        /* \"#utility.yul\":18433:18447   */\n      add\n        /* \"#utility.yul\":18426:18480   */\n      mstore\n        /* \"#utility.yul\":18309:18487   */\n      pop\n      jump\t// out\n        /* \"#utility.yul\":18493:18859   */\n    tag_191:\n        /* \"#utility.yul\":18635:18638   */\n      0x00\n        /* \"#utility.yul\":18656:18723   */\n      tag_361\n        /* \"#utility.yul\":18720:18722   */\n      0x1c\n        /* \"#utility.yul\":18715:18718   */\n      dup4\n        /* \"#utility.yul\":18656:18723   */\n      tag_168\n      jump\t// in\n    tag_361:\n        /* \"#utility.yul\":18649:18723   */\n      swap2\n      pop\n        /* \"#utility.yul\":18732:18825   */\n      tag_362\n        /* \"#utility.yul\":18821:18824   */\n      dup3\n        /* \"#utility.yul\":18732:18825   */\n      tag_190\n      jump\t// in\n    tag_362:\n        /* \"#utility.yul\":18850:18852   */\n      0x20\n        /* \"#utility.yul\":18845:18848   */\n      dup3\n        /* \"#utility.yul\":18841:18853   */\n      add\n        /* \"#utility.yul\":18834:18853   */\n      swap1\n      pop\n        /* \"#utility.yul\":18493:18859   */\n      swap2\n      swap1\n      pop\n      jump\t// out\n        /* \"#utility.yul\":18865:19284   */\n    tag_113:\n        /* \"#utility.yul\":19031:19035   */\n      0x00\n        /* \"#utility.yul\":19069:19071   */\n      0x20\n        /* \"#utility.yul\":19058:19067   */\n      dup3\n        /* \"#utility.yul\":19054:19072   */\n      add\n        /* \"#utility.yul\":19046:19072   */\n      swap1\n      pop\n        /* \"#utility.yul\":19118:19127   */\n      dup2\n        /* \"#utility.yul\":19112:19116   */\n      dup2\n        /* \"#utility.yul\":19108:19128   */\n      sub\n        /* \"#utility.yul\":19104:19105   */\n      0x00\n        /* \"#utility.yul\":19093:19102   */\n      dup4\n        /* \"#utility.yul\":19089:19106   */\n      add\n        /* \"#utility.yul\":19082:19129   */\n      mstore\n        /* \"#utility.yul\":19146:19277   */\n      tag_364\n        /* \"#utility.yul\":19272:19276   */\n      dup2\n        /* \"#utility.yul\":19146:19277   */\n      tag_191\n      jump\t// in\n    tag_364:\n        /* \"#utility.yul\":19138:19277   */\n      swap1\n      pop\n        /* \"#utility.yul\":18865:19284   */\n      swap2\n      swap1\n      pop\n      jump\t// out\n        /* \"#utility.yul\":19290:19622   */\n    tag_121:\n        /* \"#utility.yul\":19411:19415   */\n      0x00\n        /* \"#utility.yul\":19449:19451   */\n      0x40\n        /* \"#utility.yul\":19438:19447   */\n      dup3\n        /* \"#utility.yul\":19434:19452   */\n      add\n        /* \"#utility.yul\":19426:19452   */\n      swap1\n      pop\n        /* \"#utility.yul\":19462:19533   */\n      tag_366\n        /* \"#utility.yul\":19530:19531   */\n      0x00\n        /* \"#utility.yul\":19519:19528   */\n      dup4\n        /* \"#utility.yul\":19515:19532   */\n      add\n        /* \"#utility.yul\":19506:19512   */\n      dup6\n        /* \"#utility.yul\":19462:19533   */\n      tag_167\n      jump\t// in\n    tag_366:\n        /* \"#utility.yul\":19543:19615   */\n      tag_367\n        /* \"#utility.yul\":19611:19613   */\n      0x20\n        /* \"#utility.yul\":19600:19609   */\n      dup4\n        /* \"#utility.yul\":19596:19614   */\n      add\n        /* \"#utility.yul\":19587:19593   */\n      dup5\n        /* \"#utility.yul\":19543:19615   */\n      tag_166\n      jump\t// in\n    tag_367:\n        /* \"#utility.yul\":19290:19622   */\n      swap4\n      swap3\n      pop\n      pop\n      pop\n      jump\t// out\n        /* \"#utility.yul\":19628:19803   */\n    tag_192:\n        /* \"#utility.yul\":19768:19795   */\n      0x5472616e7366657220746f2073656c6c6572206661696c656400000000000000\n        /* \"#utility.yul\":19764:19765   */\n      0x00\n        /* \"#utility.yul\":19756:19762   */\n      dup3\n        /* \"#utility.yul\":19752:19766   */\n      add\n        /* \"#utility.yul\":19745:19796   */\n      mstore\n        /* \"#utility.yul\":19628:19803   */\n      pop\n      jump\t// out\n        /* \"#utility.yul\":19809:20175   */\n    tag_193:\n        /* \"#utility.yul\":19951:19954   */\n      0x00\n        /* \"#utility.yul\":19972:20039   */\n      tag_370\n        /* \"#utility.yul\":20036:20038   */\n      0x19\n        /* \"#utility.yul\":20031:20034   */\n      dup4\n        /* \"#utility.yul\":19972:20039   */\n      tag_168\n      jump\t// in\n    tag_370:\n        /* \"#utility.yul\":19965:20039   */\n      swap2\n      pop\n        /* \"#utility.yul\":20048:20141   */\n      tag_371\n        /* \"#utility.yul\":20137:20140   */\n      dup3\n        /* \"#utility.yul\":20048:20141   */\n      tag_192\n      jump\t// in\n    tag_371:\n        /* \"#utility.yul\":20166:20168   */\n      0x20\n        /* \"#utility.yul\":20161:20164   */\n      dup3\n        /* \"#utility.yul\":20157:20169   */\n      add\n        /* \"#utility.yul\":20150:20169   */\n      swap1\n      pop\n        /* \"#utility.yul\":19809:20175   */\n      swap2\n      swap1\n      pop\n      jump\t// out\n        /* \"#utility.yul\":20181:20600   */\n    tag_127:\n        /* \"#utility.yul\":20347:20351   */\n      0x00\n        /* \"#utility.yul\":20385:20387   */\n      0x20\n        /* \"#utility.yul\":20374:20383   */\n      dup3\n        /* \"#utility.yul\":20370:20388   */\n      add\n        /* \"#utility.yul\":20362:20388   */\n      swap1\n      pop\n        /* \"#utility.yul\":20434:20443   */\n      dup2\n        /* \"#utility.yul\":20428:20432   */\n      dup2\n        /* \"#utility.yul\":20424:20444   */\n      sub\n        /* \"#utility.yul\":20420:20421   */\n      0x00\n        /* \"#utility.yul\":20409:20418   */\n      dup4\n        /* \"#utility.yul\":20405:20422   */\n      add\n        /* \"#utility.yul\":20398:20445   */\n      mstore\n        /* \"#utility.yul\":20462:20593   */\n      tag_373\n        /* \"#utility.yul\":20588:20592   */\n      dup2\n        /* \"#utility.yul\":20462:20593   */\n      tag_193\n      jump\t// in\n    tag_373:\n        /* \"#utility.yul\":20454:20593   */\n      swap1\n      pop\n        /* \"#utility.yul\":20181:20600   */\n      swap2\n      swap1\n      pop\n      jump\t// out\n        /* \"#utility.yul\":20606:20786   */\n    tag_194:\n        /* \"#utility.yul\":20654:20731   */\n      0x4e487b7100000000000000000000000000000000000000000000000000000000\n        /* \"#utility.yul\":20651:20652   */\n      0x00\n        /* \"#utility.yul\":20644:20732   */\n      mstore\n        /* \"#utility.yul\":20751:20755   */\n      0x11\n        /* \"#utility.yul\":20748:20749   */\n      0x04\n        /* \"#utility.yul\":20741:20756   */\n      mstore\n        /* \"#utility.yul\":20775:20779   */\n      0x24\n        /* \"#utility.yul\":20772:20773   */\n      0x00\n        /* \"#utility.yul\":20765:20780   */\n      revert\n        /* \"#utility.yul\":20792:20986   */\n    tag_130:\n        /* \"#utility.yul\":20832:20836   */\n      0x00\n        /* \"#utility.yul\":20852:20872   */\n      tag_376\n        /* \"#utility.yul\":20870:20871   */\n      dup3\n        /* \"#utility.yul\":20852:20872   */\n      tag_146\n      jump\t// in\n    tag_376:\n        /* \"#utility.yul\":20847:20872   */\n      swap2\n      pop\n        /* \"#utility.yul\":20886:20906   */\n      tag_377\n        /* \"#utility.yul\":20904:20905   */\n      dup4\n        /* \"#utility.yul\":20886:20906   */\n      tag_146\n      jump\t// in\n    tag_377:\n        /* \"#utility.yul\":20881:20906   */\n      swap3\n      pop\n        /* \"#utility.yul\":20930:20931   */\n      dup3\n        /* \"#utility.yul\":20927:20928   */\n      dup3\n        /* \"#utility.yul\":20923:20932   */\n      sub\n        /* \"#utility.yul\":20915:20932   */\n      swap1\n      pop\n        /* \"#utility.yul\":20954:20955   */\n      dup2\n        /* \"#utility.yul\":20948:20952   */\n      dup2\n        /* \"#utility.yul\":20945:20956   */\n      gt\n        /* \"#utility.yul\":20942:20979   */\n      iszero\n      tag_378\n      jumpi\n        /* \"#utility.yul\":20959:20977   */\n      tag_379\n      tag_194\n      jump\t// in\n    tag_379:\n        /* \"#utility.yul\":20942:20979   */\n    tag_378:\n        /* \"#utility.yul\":20792:20986   */\n      swap3\n      swap2\n      pop\n      pop\n      jump\t// out\n        /* \"#utility.yul\":20992:21171   */\n    tag_195:\n        /* \"#utility.yul\":21132:21163   */\n      0x206572633230546f6b656e2e7472616e73666572206973206572726f72000000\n        /* \"#utility.yul\":21128:21129   */\n      0x00\n        /* \"#utility.yul\":21120:21126   */\n      dup3\n        /* \"#utility.yul\":21116:21130   */\n      add\n        /* \"#utility.yul\":21109:21164   */\n      mstore\n        /* \"#utility.yul\":20992:21171   */\n      pop\n      jump\t// out\n        /* \"#utility.yul\":21177:21543   */\n    tag_196:\n        /* \"#utility.yul\":21319:21322   */\n      0x00\n        /* \"#utility.yul\":21340:21407   */\n      tag_382\n        /* \"#utility.yul\":21404:21406   */\n      0x1d\n        /* \"#utility.yul\":21399:21402   */\n      dup4\n        /* \"#utility.yul\":21340:21407   */\n      tag_168\n      jump\t// in\n    tag_382:\n        /* \"#utility.yul\":21333:21407   */\n      swap2\n      pop\n        /* \"#utility.yul\":21416:21509   */\n      tag_383\n        /* \"#utility.yul\":21505:21508   */\n      dup3\n        /* \"#utility.yul\":21416:21509   */\n      tag_195\n      jump\t// in\n    tag_383:\n        /* \"#utility.yul\":21534:21536   */\n      0x20\n        /* \"#utility.yul\":21529:21532   */\n      dup3\n        /* \"#utility.yul\":21525:21537   */\n      add\n        /* \"#utility.yul\":21518:21537   */\n      swap1\n      pop\n        /* \"#utility.yul\":21177:21543   */\n      swap2\n      swap1\n      pop\n      jump\t// out\n        /* \"#utility.yul\":21549:21968   */\n    tag_137:\n        /* \"#utility.yul\":21715:21719   */\n      0x00\n        /* \"#utility.yul\":21753:21755   */\n      0x20\n        /* \"#utility.yul\":21742:21751   */\n      dup3\n        /* \"#utility.yul\":21738:21756   */\n      add\n        /* \"#utility.yul\":21730:21756   */\n      swap1\n      pop\n        /* \"#utility.yul\":21802:21811   */\n      dup2\n        /* \"#utility.yul\":21796:21800   */\n      dup2\n        /* \"#utility.yul\":21792:21812   */\n      sub\n        /* \"#utility.yul\":21788:21789   */\n      0x00\n        /* \"#utility.yul\":21777:21786   */\n      dup4\n        /* \"#utility.yul\":21773:21790   */\n      add\n        /* \"#utility.yul\":21766:21813   */\n      mstore\n        /* \"#utility.yul\":21830:21961   */\n      tag_385\n        /* \"#utility.yul\":21956:21960   */\n      dup2\n        /* \"#utility.yul\":21830:21961   */\n      tag_196\n      jump\t// in\n    tag_385:\n        /* \"#utility.yul\":21822:21961   */\n      swap1\n      pop\n        /* \"#utility.yul\":21549:21968   */\n      swap2\n      swap1\n      pop\n      jump\t// out\n\n    auxdata: 0xa264697066735822122049004dac83cca6393aec7741a4c82a2eaa5361dfbb81169bffc60afb1a3bb87464736f6c63430008220033\n}\n",
				"bytecode": {
					"linkReferences": {},
					"object": "608060405234801561000f575f5ffd5b50604051611ba5380380611ba583398181016040528101906100319190610161565b815f5f6101000a81548173ffffffffffffffffffffffffffffffffffffffff021916908373ffffffffffffffffffffffffffffffffffffffff1602179055508060015f6101000a81548173ffffffffffffffffffffffffffffffffffffffff021916908373ffffffffffffffffffffffffffffffffffffffff160217905550505061019f565b5f5ffd5b5f73ffffffffffffffffffffffffffffffffffffffff82169050919050565b5f6100e4826100bb565b9050919050565b5f6100f5826100da565b9050919050565b610105816100eb565b811461010f575f5ffd5b50565b5f81519050610120816100fc565b92915050565b5f610130826100da565b9050919050565b61014081610126565b811461014a575f5ffd5b50565b5f8151905061015b81610137565b92915050565b5f5f60408385031215610177576101766100b7565b5b5f61018485828601610112565b92505060206101958582860161014d565b9150509250929050565b6119f9806101ac5f395ff3fe608060405234801561000f575f5ffd5b506004361061007b575f3560e01c80638a13eea7116100595780638a13eea7146100fd578063d03142631461011b578063d4ddce8a1461014b578063fa34d82f1461017b5761007b565b80631d85bf031461007f57806350fd7367146100af5780635f2d6bcd146100df575b5f5ffd5b61009960048036038101906100949190610fbb565b6101ab565b6040516100a69190611013565b60405180910390f35b6100c960048036038101906100c49190610fbb565b61053e565b6040516100d69190611013565b60405180910390f35b6100e7610938565b6040516100f491906110a6565b60405180910390f35b61010561095d565b60405161011291906110df565b60405180910390f35b61013560048036038101906101309190611194565b610981565b6040516101429190611013565b60405180910390f35b61016560048036038101906101609190611205565b610f3b565b604051610172919061123f565b60405180910390f35b61019560048036038101906101909190611205565b610f50565b6040516101a29190611267565b60405180910390f35b5f5f83141580156101cc575060025f8481526020019081526020015f205482145b61020b576040517f08c379a000000000000000000000000000000000000000000000000000000000815260040161020290611300565b60405180910390fd5b5f60015f9054906101000a900473ffffffffffffffffffffffffffffffffffffffff1673ffffffffffffffffffffffffffffffffffffffff16636352211e856040518263ffffffff1660e01b8152600401610266919061123f565b602060405180830381865afa158015610281573d5f5f3e3d5ffd5b505050506040513d601f19601f820116820180604052508101906102a59190611332565b905060035f8581526020019081526020015f205f9054906101000a900473ffffffffffffffffffffffffffffffffffffffff1673ffffffffffffffffffffffffffffffffffffffff168173ffffffffffffffffffffffffffffffffffffffff1614610345576040517f08c379a000000000000000000000000000000000000000000000000000000000815260040161033c906113cd565b60405180910390fd5b60025f8581526020019081526020015f205f905560035f8581526020019081526020015f205f6101000a81549073ffffffffffffffffffffffffffffffffffffffff02191690555f5f5f9054906101000a900473ffffffffffffffffffffffffffffffffffffffff1673ffffffffffffffffffffffffffffffffffffffff166323b872dd3384876040518463ffffffff1660e01b81526004016103ea939291906113eb565b6020604051808303815f875af1158015610406573d5f5f3e3d5ffd5b505050506040513d601f19601f8201168201806040525081019061042a919061144a565b90508061046c576040517f08c379a0000000000000000000000000000000000000000000000000000000008152600401610463906114bf565b60405180910390fd5b60015f9054906101000a900473ffffffffffffffffffffffffffffffffffffffff1673ffffffffffffffffffffffffffffffffffffffff166342842e0e8333886040518463ffffffff1660e01b81526004016104ca939291906113eb565b5f604051808303815f87803b1580156104e1575f5ffd5b505af11580156104f3573d5f5f3e3d5ffd5b505050507f5d963241241cfe9e161d13500d628058954b3febfde03e4b1f4071370e72fe2b33868660405161052a939291906114dd565b60405180910390a160019250505092915050565b5f5f831415801561054e57505f82115b61058d576040517f08c379a00000000000000000000000000000000000000000000000000000000081526004016105849061155c565b60405180910390fd5b3373ffffffffffffffffffffffffffffffffffffffff1660015f9054906101000a900473ffffffffffffffffffffffffffffffffffffffff1673ffffffffffffffffffffffffffffffffffffffff16636352211e856040518263ffffffff1660e01b81526004016105fe919061123f565b602060405180830381865afa158015610619573d5f5f3e3d5ffd5b505050506040513d601f19601f8201168201806040525081019061063d9190611332565b73ffffffffffffffffffffffffffffffffffffffff1614610693576040517f08c379a000000000000000000000000000000000000000000000000000000000815260040161068a906115c4565b60405180910390fd5b5f60025f8581526020019081526020015f2054146106e6576040517f08c379a00000000000000000000000000000000000000000000000000000000081526004016106dd9061162c565b60405180910390fd5b3073ffffffffffffffffffffffffffffffffffffffff1660015f9054906101000a900473ffffffffffffffffffffffffffffffffffffffff1673ffffffffffffffffffffffffffffffffffffffff1663081812fc856040518263ffffffff1660e01b8152600401610757919061123f565b602060405180830381865afa158015610772573d5f5f3e3d5ffd5b505050506040513d601f19601f820116820180604052508101906107969190611332565b73ffffffffffffffffffffffffffffffffffffffff16148061084f575060015f9054906101000a900473ffffffffffffffffffffffffffffffffffffffff1673ffffffffffffffffffffffffffffffffffffffff1663e985e9c533306040518363ffffffff1660e01b815260040161080f92919061164a565b602060405180830381865afa15801561082a573d5f5f3e3d5ffd5b505050506040513d601f19601f8201168201806040525081019061084e919061144a565b5b61088e576040517f08c379a0000000000000000000000000000000000000000000000000000000008152600401610885906116bb565b60405180910390fd5b8160025f8581526020019081526020015f20819055503360035f8581526020019081526020015f205f6101000a81548173ffffffffffffffffffffffffffffffffffffffff021916908373ffffffffffffffffffffffffffffffffffffffff1602179055507f656fea2aeb2af9841f5b2d9a77be15564d1a00f76fff68c5435aec927eb4d5d6833384604051610926939291906116d9565b60405180910390a16001905092915050565b60015f9054906101000a900473ffffffffffffffffffffffffffffffffffffffff1681565b5f5f9054906101000a900473ffffffffffffffffffffffffffffffffffffffff1681565b5f5f5f9054906101000a900473ffffffffffffffffffffffffffffffffffffffff1673ffffffffffffffffffffffffffffffffffffffff163373ffffffffffffffffffffffffffffffffffffffff1614610a10576040517f08c379a0000000000000000000000000000000000000000000000000000000008152600401610a079061177e565b60405180910390fd5b5f8383810190610a209190611205565b90505f60025f8381526020019081526020015f205403610a75576040517f08c379a0000000000000000000000000000000000000000000000000000000008152600401610a6c906117e6565b60405180910390fd5b60025f8281526020019081526020015f2054851015610ac9576040517f08c379a0000000000000000000000000000000000000000000000000000000008152600401610ac09061184e565b60405180910390fd5b5f60015f9054906101000a900473ffffffffffffffffffffffffffffffffffffffff1673ffffffffffffffffffffffffffffffffffffffff16636352211e836040518263ffffffff1660e01b8152600401610b24919061123f565b602060405180830381865afa158015610b3f573d5f5f3e3d5ffd5b505050506040513d601f19601f82011682018060405250810190610b639190611332565b905060035f8381526020019081526020015f205f9054906101000a900473ffffffffffffffffffffffffffffffffffffffff1673ffffffffffffffffffffffffffffffffffffffff168173ffffffffffffffffffffffffffffffffffffffff1614610c03576040517f08c379a0000000000000000000000000000000000000000000000000000000008152600401610bfa906113cd565b60405180910390fd5b5f60025f8481526020019081526020015f205490505f60035f8581526020019081526020015f205f9054906101000a900473ffffffffffffffffffffffffffffffffffffffff16905060025f8581526020019081526020015f205f905560035f8581526020019081526020015f205f6101000a81549073ffffffffffffffffffffffffffffffffffffffff02191690555f5f5f9054906101000a900473ffffffffffffffffffffffffffffffffffffffff1673ffffffffffffffffffffffffffffffffffffffff1663a9059cbb83856040518363ffffffff1660e01b8152600401610cef92919061186c565b6020604051808303815f875af1158015610d0b573d5f5f3e3d5ffd5b505050506040513d601f19601f82011682018060405250810190610d2f919061144a565b905080610d71576040517f08c379a0000000000000000000000000000000000000000000000000000000008152600401610d68906118dd565b60405180910390fd5b82891115610e64575f5f5f9054906101000a900473ffffffffffffffffffffffffffffffffffffffff1673ffffffffffffffffffffffffffffffffffffffff1663a9059cbb8c868d610dc39190611928565b6040518363ffffffff1660e01b8152600401610de092919061186c565b6020604051808303815f875af1158015610dfc573d5f5f3e3d5ffd5b505050506040513d601f19601f82011682018060405250810190610e20919061144a565b905080610e62576040517f08c379a0000000000000000000000000000000000000000000000000000000008152600401610e59906119a5565b60405180910390fd5b505b60015f9054906101000a900473ffffffffffffffffffffffffffffffffffffffff1673ffffffffffffffffffffffffffffffffffffffff166342842e0e838c886040518463ffffffff1660e01b8152600401610ec2939291906113eb565b5f604051808303815f87803b158015610ed9575f5ffd5b505af1158015610eeb573d5f5f3e3d5ffd5b505050507f5d963241241cfe9e161d13500d628058954b3febfde03e4b1f4071370e72fe2b8a868b604051610f22939291906114dd565b60405180910390a1600195505050505050949350505050565b6002602052805f5260405f205f915090505481565b6003602052805f5260405f205f915054906101000a900473ffffffffffffffffffffffffffffffffffffffff1681565b5f5ffd5b5f5ffd5b5f819050919050565b610f9a81610f88565b8114610fa4575f5ffd5b50565b5f81359050610fb581610f91565b92915050565b5f5f60408385031215610fd157610fd0610f80565b5b5f610fde85828601610fa7565b9250506020610fef85828601610fa7565b9150509250929050565b5f8115159050919050565b61100d81610ff9565b82525050565b5f6020820190506110265f830184611004565b92915050565b5f73ffffffffffffffffffffffffffffffffffffffff82169050919050565b5f819050919050565b5f61106e6110696110648461102c565b61104b565b61102c565b9050919050565b5f61107f82611054565b9050919050565b5f61109082611075565b9050919050565b6110a081611086565b82525050565b5f6020820190506110b95f830184611097565b92915050565b5f6110c982611075565b9050919050565b6110d9816110bf565b82525050565b5f6020820190506110f25f8301846110d0565b92915050565b5f6111028261102c565b9050919050565b611112816110f8565b811461111c575f5ffd5b50565b5f8135905061112d81611109565b92915050565b5f5ffd5b5f5ffd5b5f5ffd5b5f5f83601f84011261115457611153611133565b5b8235905067ffffffffffffffff81111561117157611170611137565b5b60208301915083600182028301111561118d5761118c61113b565b5b9250929050565b5f5f5f5f606085870312156111ac576111ab610f80565b5b5f6111b98782880161111f565b94505060206111ca87828801610fa7565b935050604085013567ffffffffffffffff8111156111eb576111ea610f84565b5b6111f78782880161113f565b925092505092959194509250565b5f6020828403121561121a57611219610f80565b5b5f61122784828501610fa7565b91505092915050565b61123981610f88565b82525050565b5f6020820190506112525f830184611230565b92915050565b611261816110f8565b82525050565b5f60208201905061127a5f830184611258565b92915050565b5f82825260208201905092915050565b7f746f6b656e4964206d75737420213d302c20616d6f756e74206d757374203d3d5f8201527f20746f6b656e50726963655b746f6b656e49445d000000000000000000000000602082015250565b5f6112ea603483611280565b91506112f582611290565b604082019050919050565b5f6020820190508181035f830152611317816112de565b9050919050565b5f8151905061132c81611109565b92915050565b5f6020828403121561134757611346610f80565b5b5f6113548482850161131e565b91505092915050565b7f5468652073656c6c65727320617265206e6f74207468652073616d65206164645f8201527f7265737300000000000000000000000000000000000000000000000000000000602082015250565b5f6113b7602483611280565b91506113c28261135d565b604082019050919050565b5f6020820190508181035f8301526113e4816113ab565b9050919050565b5f6060820190506113fe5f830186611258565b61140b6020830185611258565b6114186040830184611230565b949350505050565b61142981610ff9565b8114611433575f5ffd5b50565b5f8151905061144481611420565b92915050565b5f6020828403121561145f5761145e610f80565b5b5f61146c84828501611436565b91505092915050565b7f7472616e7366657246726f6d206572726f7200000000000000000000000000005f82015250565b5f6114a9601283611280565b91506114b482611475565b602082019050919050565b5f6020820190508181035f8301526114d68161149d565b9050919050565b5f6060820190506114f05f830186611258565b6114fd6020830185611230565b61150a6040830184611230565b949350505050565b7f746f6b656e4964206d75737420213d302c20616d6f756e74206d757374203e305f82015250565b5f611546602083611280565b915061155182611512565b602082019050919050565b5f6020820190508181035f8301526115738161153a565b9050919050565b7f796f7520617265206e6f74206f776e65720000000000000000000000000000005f82015250565b5f6115ae601183611280565b91506115b98261157a565b602082019050919050565b5f6020820190508181035f8301526115db816115a2565b9050919050565b7f616c7265616479206c69737465640000000000000000000000000000000000005f82015250565b5f611616600e83611280565b9150611621826115e2565b602082019050919050565b5f6020820190508181035f8301526116438161160a565b9050919050565b5f60408201905061165d5f830185611258565b61166a6020830184611258565b9392505050565b7f4e46544d61726b65743a206e6f7420617070726f7665640000000000000000005f82015250565b5f6116a5601783611280565b91506116b082611671565b602082019050919050565b5f6020820190508181035f8301526116d281611699565b9050919050565b5f6060820190506116ec5f830186611230565b6116f96020830185611258565b6117066040830184611230565b949350505050565b7f6f6e6c79206572633230546f6b656e2063616e2063616c6c20746869732066755f8201527f6e6374696f6e0000000000000000000000000000000000000000000000000000602082015250565b5f611768602683611280565b91506117738261170e565b604082019050919050565b5f6020820190508181035f8301526117958161175c565b9050919050565b7f4d61726b65743a20746f6b656e206e6f7420666f722073616c650000000000005f82015250565b5f6117d0601a83611280565b91506117db8261179c565b602082019050919050565b5f6020820190508181035f8301526117fd816117c4565b9050919050565b7f204d61726b65743a20696e73756666696369656e7420616d6f756e74000000005f82015250565b5f611838601c83611280565b915061184382611804565b602082019050919050565b5f6020820190508181035f8301526118658161182c565b9050919050565b5f60408201905061187f5f830185611258565b61188c6020830184611230565b9392505050565b7f5472616e7366657220746f2073656c6c6572206661696c6564000000000000005f82015250565b5f6118c7601983611280565b91506118d282611893565b602082019050919050565b5f6020820190508181035f8301526118f4816118bb565b9050919050565b7f4e487b71000000000000000000000000000000000000000000000000000000005f52601160045260245ffd5b5f61193282610f88565b915061193d83610f88565b9250828203905081811115611955576119546118fb565b5b92915050565b7f206572633230546f6b656e2e7472616e73666572206973206572726f720000005f82015250565b5f61198f601d83611280565b915061199a8261195b565b602082019050919050565b5f6020820190508181035f8301526119bc81611983565b905091905056fea264697066735822122049004dac83cca6393aec7741a4c82a2eaa5361dfbb81169bffc60afb1a3bb87464736f6c63430008220033",
					"opcodes": "PUSH1 0x80 PUSH1 0x40 MSTORE CALLVALUE DUP1 ISZERO PUSH2 0xF JUMPI PUSH0 PUSH0 REVERT JUMPDEST POP PUSH1 0x40 MLOAD PUSH2 0x1BA5 CODESIZE SUB DUP1 PUSH2 0x1BA5 DUP4 CODECOPY DUP2 DUP2 ADD PUSH1 0x40 MSTORE DUP2 ADD SWAP1 PUSH2 0x31 SWAP2 SWAP1 PUSH2 0x161 JUMP JUMPDEST DUP2 PUSH0 PUSH0 PUSH2 0x100 EXP DUP2 SLOAD DUP2 PUSH20 0xFFFFFFFFFFFFFFFFFFFFFFFFFFFFFFFFFFFFFFFF MUL NOT AND SWAP1 DUP4 PUSH20 0xFFFFFFFFFFFFFFFFFFFFFFFFFFFFFFFFFFFFFFFF AND MUL OR SWAP1 SSTORE POP DUP1 PUSH1 0x1 PUSH0 PUSH2 0x100 EXP DUP2 SLOAD DUP2 PUSH20 0xFFFFFFFFFFFFFFFFFFFFFFFFFFFFFFFFFFFFFFFF MUL NOT AND SWAP1 DUP4 PUSH20 0xFFFFFFFFFFFFFFFFFFFFFFFFFFFFFFFFFFFFFFFF AND MUL OR SWAP1 SSTORE POP POP POP PUSH2 0x19F JUMP JUMPDEST PUSH0 PUSH0 REVERT JUMPDEST PUSH0 PUSH20 0xFFFFFFFFFFFFFFFFFFFFFFFFFFFFFFFFFFFFFFFF DUP3 AND SWAP1 POP SWAP2 SWAP1 POP JUMP JUMPDEST PUSH0 PUSH2 0xE4 DUP3 PUSH2 0xBB JUMP JUMPDEST SWAP1 POP SWAP2 SWAP1 POP JUMP JUMPDEST PUSH0 PUSH2 0xF5 DUP3 PUSH2 0xDA JUMP JUMPDEST SWAP1 POP SWAP2 SWAP1 POP JUMP JUMPDEST PUSH2 0x105 DUP2 PUSH2 0xEB JUMP JUMPDEST DUP2 EQ PUSH2 0x10F JUMPI PUSH0 PUSH0 REVERT JUMPDEST POP JUMP JUMPDEST PUSH0 DUP2 MLOAD SWAP1 POP PUSH2 0x120 DUP2 PUSH2 0xFC JUMP JUMPDEST SWAP3 SWAP2 POP POP JUMP JUMPDEST PUSH0 PUSH2 0x130 DUP3 PUSH2 0xDA JUMP JUMPDEST SWAP1 POP SWAP2 SWAP1 POP JUMP JUMPDEST PUSH2 0x140 DUP2 PUSH2 0x126 JUMP JUMPDEST DUP2 EQ PUSH2 0x14A JUMPI PUSH0 PUSH0 REVERT JUMPDEST POP JUMP JUMPDEST PUSH0 DUP2 MLOAD SWAP1 POP PUSH2 0x15B DUP2 PUSH2 0x137 JUMP JUMPDEST SWAP3 SWAP2 POP POP JUMP JUMPDEST PUSH0 PUSH0 PUSH1 0x40 DUP4 DUP6 SUB SLT ISZERO PUSH2 0x177 JUMPI PUSH2 0x176 PUSH2 0xB7 JUMP JUMPDEST JUMPDEST PUSH0 PUSH2 0x184 DUP6 DUP3 DUP7 ADD PUSH2 0x112 JUMP JUMPDEST SWAP3 POP POP PUSH1 0x20 PUSH2 0x195 DUP6 DUP3 DUP7 ADD PUSH2 0x14D JUMP JUMPDEST SWAP2 POP POP SWAP3 POP SWAP3 SWAP1 POP JUMP JUMPDEST PUSH2 0x19F9 DUP1 PUSH2 0x1AC PUSH0 CODECOPY PUSH0 RETURN INVALID PUSH1 0x80 PUSH1 0x40 MSTORE CALLVALUE DUP1 ISZERO PUSH2 0xF JUMPI PUSH0 PUSH0 REVERT JUMPDEST POP PUSH1 0x4 CALLDATASIZE LT PUSH2 0x7B JUMPI PUSH0 CALLDATALOAD PUSH1 0xE0 SHR DUP1 PUSH4 0x8A13EEA7 GT PUSH2 0x59 JUMPI DUP1 PUSH4 0x8A13EEA7 EQ PUSH2 0xFD JUMPI DUP1 PUSH4 0xD0314263 EQ PUSH2 0x11B JUMPI DUP1 PUSH4 0xD4DDCE8A EQ PUSH2 0x14B JUMPI DUP1 PUSH4 0xFA34D82F EQ PUSH2 0x17B JUMPI PUSH2 0x7B JUMP JUMPDEST DUP1 PUSH4 0x1D85BF03 EQ PUSH2 0x7F JUMPI DUP1 PUSH4 0x50FD7367 EQ PUSH2 0xAF JUMPI DUP1 PUSH4 0x5F2D6BCD EQ PUSH2 0xDF JUMPI JUMPDEST PUSH0 PUSH0 REVERT JUMPDEST PUSH2 0x99 PUSH1 0x4 DUP1 CALLDATASIZE SUB DUP2 ADD SWAP1 PUSH2 0x94 SWAP2 SWAP1 PUSH2 0xFBB JUMP JUMPDEST PUSH2 0x1AB JUMP JUMPDEST PUSH1 0x40 MLOAD PUSH2 0xA6 SWAP2 SWAP1 PUSH2 0x1013 JUMP JUMPDEST PUSH1 0x40 MLOAD DUP1 SWAP2 SUB SWAP1 RETURN JUMPDEST PUSH2 0xC9 PUSH1 0x4 DUP1 CALLDATASIZE SUB DUP2 ADD SWAP1 PUSH2 0xC4 SWAP2 SWAP1 PUSH2 0xFBB JUMP JUMPDEST PUSH2 0x53E JUMP JUMPDEST PUSH1 0x40 MLOAD PUSH2 0xD6 SWAP2 SWAP1 PUSH2 0x1013 JUMP JUMPDEST PUSH1 0x40 MLOAD DUP1 SWAP2 SUB SWAP1 RETURN JUMPDEST PUSH2 0xE7 PUSH2 0x938 JUMP JUMPDEST PUSH1 0x40 MLOAD PUSH2 0xF4 SWAP2 SWAP1 PUSH2 0x10A6 JUMP JUMPDEST PUSH1 0x40 MLOAD DUP1 SWAP2 SUB SWAP1 RETURN JUMPDEST PUSH2 0x105 PUSH2 0x95D JUMP JUMPDEST PUSH1 0x40 MLOAD PUSH2 0x112 SWAP2 SWAP1 PUSH2 0x10DF JUMP JUMPDEST PUSH1 0x40 MLOAD DUP1 SWAP2 SUB SWAP1 RETURN JUMPDEST PUSH2 0x135 PUSH1 0x4 DUP1 CALLDATASIZE SUB DUP2 ADD SWAP1 PUSH2 0x130 SWAP2 SWAP1 PUSH2 0x1194 JUMP JUMPDEST PUSH2 0x981 JUMP JUMPDEST PUSH1 0x40 MLOAD PUSH2 0x142 SWAP2 SWAP1 PUSH2 0x1013 JUMP JUMPDEST PUSH1 0x40 MLOAD DUP1 SWAP2 SUB SWAP1 RETURN JUMPDEST PUSH2 0x165 PUSH1 0x4 DUP1 CALLDATASIZE SUB DUP2 ADD SWAP1 PUSH2 0x160 SWAP2 SWAP1 PUSH2 0x1205 JUMP JUMPDEST PUSH2 0xF3B JUMP JUMPDEST PUSH1 0x40 MLOAD PUSH2 0x172 SWAP2 SWAP1 PUSH2 0x123F JUMP JUMPDEST PUSH1 0x40 MLOAD DUP1 SWAP2 SUB SWAP1 RETURN JUMPDEST PUSH2 0x195 PUSH1 0x4 DUP1 CALLDATASIZE SUB DUP2 ADD SWAP1 PUSH2 0x190 SWAP2 SWAP1 PUSH2 0x1205 JUMP JUMPDEST PUSH2 0xF50 JUMP JUMPDEST PUSH1 0x40 MLOAD PUSH2 0x1A2 SWAP2 SWAP1 PUSH2 0x1267 JUMP JUMPDEST PUSH1 0x40 MLOAD DUP1 SWAP2 SUB SWAP1 RETURN JUMPDEST PUSH0 PUSH0 DUP4 EQ ISZERO DUP1 ISZERO PUSH2 0x1CC JUMPI POP PUSH1 0x2 PUSH0 DUP5 DUP2 MSTORE PUSH1 0x20 ADD SWAP1 DUP2 MSTORE PUSH1 0x20 ADD PUSH0 KECCAK256 SLOAD DUP3 EQ JUMPDEST PUSH2 0x20B JUMPI PUSH1 0x40 MLOAD PUSH32 0x8C379A000000000000000000000000000000000000000000000000000000000 DUP2 MSTORE PUSH1 0x4 ADD PUSH2 0x202 SWAP1 PUSH2 0x1300 JUMP JUMPDEST PUSH1 0x40 MLOAD DUP1 SWAP2 SUB SWAP1 REVERT JUMPDEST PUSH0 PUSH1 0x1 PUSH0 SWAP1 SLOAD SWAP1 PUSH2 0x100 EXP SWAP1 DIV PUSH20 0xFFFFFFFFFFFFFFFFFFFFFFFFFFFFFFFFFFFFFFFF AND PUSH20 0xFFFFFFFFFFFFFFFFFFFFFFFFFFFFFFFFFFFFFFFF AND PUSH4 0x6352211E DUP6 PUSH1 0x40 MLOAD DUP3 PUSH4 0xFFFFFFFF AND PUSH1 0xE0 SHL DUP2 MSTORE PUSH1 0x4 ADD PUSH2 0x266 SWAP2 SWAP1 PUSH2 0x123F JUMP JUMPDEST PUSH1 0x20 PUSH1 0x40 MLOAD DUP1 DUP4 SUB DUP2 DUP7 GAS STATICCALL ISZERO DUP1 ISZERO PUSH2 0x281 JUMPI RETURNDATASIZE PUSH0 PUSH0 RETURNDATACOPY RETURNDATASIZE PUSH0 REVERT JUMPDEST POP POP POP POP PUSH1 0x40 MLOAD RETURNDATASIZE PUSH1 0x1F NOT PUSH1 0x1F DUP3 ADD AND DUP3 ADD DUP1 PUSH1 0x40 MSTORE POP DUP2 ADD SWAP1 PUSH2 0x2A5 SWAP2 SWAP1 PUSH2 0x1332 JUMP JUMPDEST SWAP1 POP PUSH1 0x3 PUSH0 DUP6 DUP2 MSTORE PUSH1 0x20 ADD SWAP1 DUP2 MSTORE PUSH1 0x20 ADD PUSH0 KECCAK256 PUSH0 SWAP1 SLOAD SWAP1 PUSH2 0x100 EXP SWAP1 DIV PUSH20 0xFFFFFFFFFFFFFFFFFFFFFFFFFFFFFFFFFFFFFFFF AND PUSH20 0xFFFFFFFFFFFFFFFFFFFFFFFFFFFFFFFFFFFFFFFF AND DUP2 PUSH20 0xFFFFFFFFFFFFFFFFFFFFFFFFFFFFFFFFFFFFFFFF AND EQ PUSH2 0x345 JUMPI PUSH1 0x40 MLOAD PUSH32 0x8C379A000000000000000000000000000000000000000000000000000000000 DUP2 MSTORE PUSH1 0x4 ADD PUSH2 0x33C SWAP1 PUSH2 0x13CD JUMP JUMPDEST PUSH1 0x40 MLOAD DUP1 SWAP2 SUB SWAP1 REVERT JUMPDEST PUSH1 0x2 PUSH0 DUP6 DUP2 MSTORE PUSH1 0x20 ADD SWAP1 DUP2 MSTORE PUSH1 0x20 ADD PUSH0 KECCAK256 PUSH0 SWAP1 SSTORE PUSH1 0x3 PUSH0 DUP6 DUP2 MSTORE PUSH1 0x20 ADD SWAP1 DUP2 MSTORE PUSH1 0x20 ADD PUSH0 KECCAK256 PUSH0 PUSH2 0x100 EXP DUP2 SLOAD SWAP1 PUSH20 0xFFFFFFFFFFFFFFFFFFFFFFFFFFFFFFFFFFFFFFFF MUL NOT AND SWAP1 SSTORE PUSH0 PUSH0 PUSH0 SWAP1 SLOAD SWAP1 PUSH2 0x100 EXP SWAP1 DIV PUSH20 0xFFFFFFFFFFFFFFFFFFFFFFFFFFFFFFFFFFFFFFFF AND PUSH20 0xFFFFFFFFFFFFFFFFFFFFFFFFFFFFFFFFFFFFFFFF AND PUSH4 0x23B872DD CALLER DUP5 DUP8 PUSH1 0x40 MLOAD DUP5 PUSH4 0xFFFFFFFF AND PUSH1 0xE0 SHL DUP2 MSTORE PUSH1 0x4 ADD PUSH2 0x3EA SWAP4 SWAP3 SWAP2 SWAP1 PUSH2 0x13EB JUMP JUMPDEST PUSH1 0x20 PUSH1 0x40 MLOAD DUP1 DUP4 SUB DUP2 PUSH0 DUP8 GAS CALL ISZERO DUP1 ISZERO PUSH2 0x406 JUMPI RETURNDATASIZE PUSH0 PUSH0 RETURNDATACOPY RETURNDATASIZE PUSH0 REVERT JUMPDEST POP POP POP POP PUSH1 0x40 MLOAD RETURNDATASIZE PUSH1 0x1F NOT PUSH1 0x1F DUP3 ADD AND DUP3 ADD DUP1 PUSH1 0x40 MSTORE POP DUP2 ADD SWAP1 PUSH2 0x42A SWAP2 SWAP1 PUSH2 0x144A JUMP JUMPDEST SWAP1 POP DUP1 PUSH2 0x46C JUMPI PUSH1 0x40 MLOAD PUSH32 0x8C379A000000000000000000000000000000000000000000000000000000000 DUP2 MSTORE PUSH1 0x4 ADD PUSH2 0x463 SWAP1 PUSH2 0x14BF JUMP JUMPDEST PUSH1 0x40 MLOAD DUP1 SWAP2 SUB SWAP1 REVERT JUMPDEST PUSH1 0x1 PUSH0 SWAP1 SLOAD SWAP1 PUSH2 0x100 EXP SWAP1 DIV PUSH20 0xFFFFFFFFFFFFFFFFFFFFFFFFFFFFFFFFFFFFFFFF AND PUSH20 0xFFFFFFFFFFFFFFFFFFFFFFFFFFFFFFFFFFFFFFFF AND PUSH4 0x42842E0E DUP4 CALLER DUP9 PUSH1 0x40 MLOAD DUP5 PUSH4 0xFFFFFFFF AND PUSH1 0xE0 SHL DUP2 MSTORE PUSH1 0x4 ADD PUSH2 0x4CA SWAP4 SWAP3 SWAP2 SWAP1 PUSH2 0x13EB JUMP JUMPDEST PUSH0 PUSH1 0x40 MLOAD DUP1 DUP4 SUB DUP2 PUSH0 DUP8 DUP1 EXTCODESIZE ISZERO DUP1 ISZERO PUSH2 0x4E1 JUMPI PUSH0 PUSH0 REVERT JUMPDEST POP GAS CALL ISZERO DUP1 ISZERO PUSH2 0x4F3 JUMPI RETURNDATASIZE PUSH0 PUSH0 RETURNDATACOPY RETURNDATASIZE PUSH0 REVERT JUMPDEST POP POP POP POP PUSH32 0x5D963241241CFE9E161D13500D628058954B3FEBFDE03E4B1F4071370E72FE2B CALLER DUP7 DUP7 PUSH1 0x40 MLOAD PUSH2 0x52A SWAP4 SWAP3 SWAP2 SWAP1 PUSH2 0x14DD JUMP JUMPDEST PUSH1 0x40 MLOAD DUP1 SWAP2 SUB SWAP1 LOG1 PUSH1 0x1 SWAP3 POP POP POP SWAP3 SWAP2 POP POP JUMP JUMPDEST PUSH0 PUSH0 DUP4 EQ ISZERO DUP1 ISZERO PUSH2 0x54E JUMPI POP PUSH0 DUP3 GT JUMPDEST PUSH2 0x58D JUMPI PUSH1 0x40 MLOAD PUSH32 0x8C379A000000000000000000000000000000000000000000000000000000000 DUP2 MSTORE PUSH1 0x4 ADD PUSH2 0x584 SWAP1 PUSH2 0x155C JUMP JUMPDEST PUSH1 0x40 MLOAD DUP1 SWAP2 SUB SWAP1 REVERT JUMPDEST CALLER PUSH20 0xFFFFFFFFFFFFFFFFFFFFFFFFFFFFFFFFFFFFFFFF AND PUSH1 0x1 PUSH0 SWAP1 SLOAD SWAP1 PUSH2 0x100 EXP SWAP1 DIV PUSH20 0xFFFFFFFFFFFFFFFFFFFFFFFFFFFFFFFFFFFFFFFF AND PUSH20 0xFFFFFFFFFFFFFFFFFFFFFFFFFFFFFFFFFFFFFFFF AND PUSH4 0x6352211E DUP6 PUSH1 0x40 MLOAD DUP3 PUSH4 0xFFFFFFFF AND PUSH1 0xE0 SHL DUP2 MSTORE PUSH1 0x4 ADD PUSH2 0x5FE SWAP2 SWAP1 PUSH2 0x123F JUMP JUMPDEST PUSH1 0x20 PUSH1 0x40 MLOAD DUP1 DUP4 SUB DUP2 DUP7 GAS STATICCALL ISZERO DUP1 ISZERO PUSH2 0x619 JUMPI RETURNDATASIZE PUSH0 PUSH0 RETURNDATACOPY RETURNDATASIZE PUSH0 REVERT JUMPDEST POP POP POP POP PUSH1 0x40 MLOAD RETURNDATASIZE PUSH1 0x1F NOT PUSH1 0x1F DUP3 ADD AND DUP3 ADD DUP1 PUSH1 0x40 MSTORE POP DUP2 ADD SWAP1 PUSH2 0x63D SWAP2 SWAP1 PUSH2 0x1332 JUMP JUMPDEST PUSH20 0xFFFFFFFFFFFFFFFFFFFFFFFFFFFFFFFFFFFFFFFF AND EQ PUSH2 0x693 JUMPI PUSH1 0x40 MLOAD PUSH32 0x8C379A000000000000000000000000000000000000000000000000000000000 DUP2 MSTORE PUSH1 0x4 ADD PUSH2 0x68A SWAP1 PUSH2 0x15C4 JUMP JUMPDEST PUSH1 0x40 MLOAD DUP1 SWAP2 SUB SWAP1 REVERT JUMPDEST PUSH0 PUSH1 0x2 PUSH0 DUP6 DUP2 MSTORE PUSH1 0x20 ADD SWAP1 DUP2 MSTORE PUSH1 0x20 ADD PUSH0 KECCAK256 SLOAD EQ PUSH2 0x6E6 JUMPI PUSH1 0x40 MLOAD PUSH32 0x8C379A000000000000000000000000000000000000000000000000000000000 DUP2 MSTORE PUSH1 0x4 ADD PUSH2 0x6DD SWAP1 PUSH2 0x162C JUMP JUMPDEST PUSH1 0x40 MLOAD DUP1 SWAP2 SUB SWAP1 REVERT JUMPDEST ADDRESS PUSH20 0xFFFFFFFFFFFFFFFFFFFFFFFFFFFFFFFFFFFFFFFF AND PUSH1 0x1 PUSH0 SWAP1 SLOAD SWAP1 PUSH2 0x100 EXP SWAP1 DIV PUSH20 0xFFFFFFFFFFFFFFFFFFFFFFFFFFFFFFFFFFFFFFFF AND PUSH20 0xFFFFFFFFFFFFFFFFFFFFFFFFFFFFFFFFFFFFFFFF AND PUSH4 0x81812FC DUP6 PUSH1 0x40 MLOAD DUP3 PUSH4 0xFFFFFFFF AND PUSH1 0xE0 SHL DUP2 MSTORE PUSH1 0x4 ADD PUSH2 0x757 SWAP2 SWAP1 PUSH2 0x123F JUMP JUMPDEST PUSH1 0x20 PUSH1 0x40 MLOAD DUP1 DUP4 SUB DUP2 DUP7 GAS STATICCALL ISZERO DUP1 ISZERO PUSH2 0x772 JUMPI RETURNDATASIZE PUSH0 PUSH0 RETURNDATACOPY RETURNDATASIZE PUSH0 REVERT JUMPDEST POP POP POP POP PUSH1 0x40 MLOAD RETURNDATASIZE PUSH1 0x1F NOT PUSH1 0x1F DUP3 ADD AND DUP3 ADD DUP1 PUSH1 0x40 MSTORE POP DUP2 ADD SWAP1 PUSH2 0x796 SWAP2 SWAP1 PUSH2 0x1332 JUMP JUMPDEST PUSH20 0xFFFFFFFFFFFFFFFFFFFFFFFFFFFFFFFFFFFFFFFF AND EQ DUP1 PUSH2 0x84F JUMPI POP PUSH1 0x1 PUSH0 SWAP1 SLOAD SWAP1 PUSH2 0x100 EXP SWAP1 DIV PUSH20 0xFFFFFFFFFFFFFFFFFFFFFFFFFFFFFFFFFFFFFFFF AND PUSH20 0xFFFFFFFFFFFFFFFFFFFFFFFFFFFFFFFFFFFFFFFF AND PUSH4 0xE985E9C5 CALLER ADDRESS PUSH1 0x40 MLOAD DUP4 PUSH4 0xFFFFFFFF AND PUSH1 0xE0 SHL DUP2 MSTORE PUSH1 0x4 ADD PUSH2 0x80F SWAP3 SWAP2 SWAP1 PUSH2 0x164A JUMP JUMPDEST PUSH1 0x20 PUSH1 0x40 MLOAD DUP1 DUP4 SUB DUP2 DUP7 GAS STATICCALL ISZERO DUP1 ISZERO PUSH2 0x82A JUMPI RETURNDATASIZE PUSH0 PUSH0 RETURNDATACOPY RETURNDATASIZE PUSH0 REVERT JUMPDEST POP POP POP POP PUSH1 0x40 MLOAD RETURNDATASIZE PUSH1 0x1F NOT PUSH1 0x1F DUP3 ADD AND DUP3 ADD DUP1 PUSH1 0x40 MSTORE POP DUP2 ADD SWAP1 PUSH2 0x84E SWAP2 SWAP1 PUSH2 0x144A JUMP JUMPDEST JUMPDEST PUSH2 0x88E JUMPI PUSH1 0x40 MLOAD PUSH32 0x8C379A000000000000000000000000000000000000000000000000000000000 DUP2 MSTORE PUSH1 0x4 ADD PUSH2 0x885 SWAP1 PUSH2 0x16BB JUMP JUMPDEST PUSH1 0x40 MLOAD DUP1 SWAP2 SUB SWAP1 REVERT JUMPDEST DUP2 PUSH1 0x2 PUSH0 DUP6 DUP2 MSTORE PUSH1 0x20 ADD SWAP1 DUP2 MSTORE PUSH1 0x20 ADD PUSH0 KECCAK256 DUP2 SWAP1 SSTORE POP CALLER PUSH1 0x3 PUSH0 DUP6 DUP2 MSTORE PUSH1 0x20 ADD SWAP1 DUP2 MSTORE PUSH1 0x20 ADD PUSH0 KECCAK256 PUSH0 PUSH2 0x100 EXP DUP2 SLOAD DUP2 PUSH20 0xFFFFFFFFFFFFFFFFFFFFFFFFFFFFFFFFFFFFFFFF MUL NOT AND SWAP1 DUP4 PUSH20 0xFFFFFFFFFFFFFFFFFFFFFFFFFFFFFFFFFFFFFFFF AND MUL OR SWAP1 SSTORE POP PUSH32 0x656FEA2AEB2AF9841F5B2D9A77BE15564D1A00F76FFF68C5435AEC927EB4D5D6 DUP4 CALLER DUP5 PUSH1 0x40 MLOAD PUSH2 0x926 SWAP4 SWAP3 SWAP2 SWAP1 PUSH2 0x16D9 JUMP JUMPDEST PUSH1 0x40 MLOAD DUP1 SWAP2 SUB SWAP1 LOG1 PUSH1 0x1 SWAP1 POP SWAP3 SWAP2 POP POP JUMP JUMPDEST PUSH1 0x1 PUSH0 SWAP1 SLOAD SWAP1 PUSH2 0x100 EXP SWAP1 DIV PUSH20 0xFFFFFFFFFFFFFFFFFFFFFFFFFFFFFFFFFFFFFFFF AND DUP2 JUMP JUMPDEST PUSH0 PUSH0 SWAP1 SLOAD SWAP1 PUSH2 0x100 EXP SWAP1 DIV PUSH20 0xFFFFFFFFFFFFFFFFFFFFFFFFFFFFFFFFFFFFFFFF AND DUP2 JUMP JUMPDEST PUSH0 PUSH0 PUSH0 SWAP1 SLOAD SWAP1 PUSH2 0x100 EXP SWAP1 DIV PUSH20 0xFFFFFFFFFFFFFFFFFFFFFFFFFFFFFFFFFFFFFFFF AND PUSH20 0xFFFFFFFFFFFFFFFFFFFFFFFFFFFFFFFFFFFFFFFF AND CALLER PUSH20 0xFFFFFFFFFFFFFFFFFFFFFFFFFFFFFFFFFFFFFFFF AND EQ PUSH2 0xA10 JUMPI PUSH1 0x40 MLOAD PUSH32 0x8C379A000000000000000000000000000000000000000000000000000000000 DUP2 MSTORE PUSH1 0x4 ADD PUSH2 0xA07 SWAP1 PUSH2 0x177E JUMP JUMPDEST PUSH1 0x40 MLOAD DUP1 SWAP2 SUB SWAP1 REVERT JUMPDEST PUSH0 DUP4 DUP4 DUP2 ADD SWAP1 PUSH2 0xA20 SWAP2 SWAP1 PUSH2 0x1205 JUMP JUMPDEST SWAP1 POP PUSH0 PUSH1 0x2 PUSH0 DUP4 DUP2 MSTORE PUSH1 0x20 ADD SWAP1 DUP2 MSTORE PUSH1 0x20 ADD PUSH0 KECCAK256 SLOAD SUB PUSH2 0xA75 JUMPI PUSH1 0x40 MLOAD PUSH32 0x8C379A000000000000000000000000000000000000000000000000000000000 DUP2 MSTORE PUSH1 0x4 ADD PUSH2 0xA6C SWAP1 PUSH2 0x17E6 JUMP JUMPDEST PUSH1 0x40 MLOAD DUP1 SWAP2 SUB SWAP1 REVERT JUMPDEST PUSH1 0x2 PUSH0 DUP3 DUP2 MSTORE PUSH1 0x20 ADD SWAP1 DUP2 MSTORE PUSH1 0x20 ADD PUSH0 KECCAK256 SLOAD DUP6 LT ISZERO PUSH2 0xAC9 JUMPI PUSH1 0x40 MLOAD PUSH32 0x8C379A000000000000000000000000000000000000000000000000000000000 DUP2 MSTORE PUSH1 0x4 ADD PUSH2 0xAC0 SWAP1 PUSH2 0x184E JUMP JUMPDEST PUSH1 0x40 MLOAD DUP1 SWAP2 SUB SWAP1 REVERT JUMPDEST PUSH0 PUSH1 0x1 PUSH0 SWAP1 SLOAD SWAP1 PUSH2 0x100 EXP SWAP1 DIV PUSH20 0xFFFFFFFFFFFFFFFFFFFFFFFFFFFFFFFFFFFFFFFF AND PUSH20 0xFFFFFFFFFFFFFFFFFFFFFFFFFFFFFFFFFFFFFFFF AND PUSH4 0x6352211E DUP4 PUSH1 0x40 MLOAD DUP3 PUSH4 0xFFFFFFFF AND PUSH1 0xE0 SHL DUP2 MSTORE PUSH1 0x4 ADD PUSH2 0xB24 SWAP2 SWAP1 PUSH2 0x123F JUMP JUMPDEST PUSH1 0x20 PUSH1 0x40 MLOAD DUP1 DUP4 SUB DUP2 DUP7 GAS STATICCALL ISZERO DUP1 ISZERO PUSH2 0xB3F JUMPI RETURNDATASIZE PUSH0 PUSH0 RETURNDATACOPY RETURNDATASIZE PUSH0 REVERT JUMPDEST POP POP POP POP PUSH1 0x40 MLOAD RETURNDATASIZE PUSH1 0x1F NOT PUSH1 0x1F DUP3 ADD AND DUP3 ADD DUP1 PUSH1 0x40 MSTORE POP DUP2 ADD SWAP1 PUSH2 0xB63 SWAP2 SWAP1 PUSH2 0x1332 JUMP JUMPDEST SWAP1 POP PUSH1 0x3 PUSH0 DUP4 DUP2 MSTORE PUSH1 0x20 ADD SWAP1 DUP2 MSTORE PUSH1 0x20 ADD PUSH0 KECCAK256 PUSH0 SWAP1 SLOAD SWAP1 PUSH2 0x100 EXP SWAP1 DIV PUSH20 0xFFFFFFFFFFFFFFFFFFFFFFFFFFFFFFFFFFFFFFFF AND PUSH20 0xFFFFFFFFFFFFFFFFFFFFFFFFFFFFFFFFFFFFFFFF AND DUP2 PUSH20 0xFFFFFFFFFFFFFFFFFFFFFFFFFFFFFFFFFFFFFFFF AND EQ PUSH2 0xC03 JUMPI PUSH1 0x40 MLOAD PUSH32 0x8C379A000000000000000000000000000000000000000000000000000000000 DUP2 MSTORE PUSH1 0x4 ADD PUSH2 0xBFA SWAP1 PUSH2 0x13CD JUMP JUMPDEST PUSH1 0x40 MLOAD DUP1 SWAP2 SUB SWAP1 REVERT JUMPDEST PUSH0 PUSH1 0x2 PUSH0 DUP5 DUP2 MSTORE PUSH1 0x20 ADD SWAP1 DUP2 MSTORE PUSH1 0x20 ADD PUSH0 KECCAK256 SLOAD SWAP1 POP PUSH0 PUSH1 0x3 PUSH0 DUP6 DUP2 MSTORE PUSH1 0x20 ADD SWAP1 DUP2 MSTORE PUSH1 0x20 ADD PUSH0 KECCAK256 PUSH0 SWAP1 SLOAD SWAP1 PUSH2 0x100 EXP SWAP1 DIV PUSH20 0xFFFFFFFFFFFFFFFFFFFFFFFFFFFFFFFFFFFFFFFF AND SWAP1 POP PUSH1 0x2 PUSH0 DUP6 DUP2 MSTORE PUSH1 0x20 ADD SWAP1 DUP2 MSTORE PUSH1 0x20 ADD PUSH0 KECCAK256 PUSH0 SWAP1 SSTORE PUSH1 0x3 PUSH0 DUP6 DUP2 MSTORE PUSH1 0x20 ADD SWAP1 DUP2 MSTORE PUSH1 0x20 ADD PUSH0 KECCAK256 PUSH0 PUSH2 0x100 EXP DUP2 SLOAD SWAP1 PUSH20 0xFFFFFFFFFFFFFFFFFFFFFFFFFFFFFFFFFFFFFFFF MUL NOT AND SWAP1 SSTORE PUSH0 PUSH0 PUSH0 SWAP1 SLOAD SWAP1 PUSH2 0x100 EXP SWAP1 DIV PUSH20 0xFFFFFFFFFFFFFFFFFFFFFFFFFFFFFFFFFFFFFFFF AND PUSH20 0xFFFFFFFFFFFFFFFFFFFFFFFFFFFFFFFFFFFFFFFF AND PUSH4 0xA9059CBB DUP4 DUP6 PUSH1 0x40 MLOAD DUP4 PUSH4 0xFFFFFFFF AND PUSH1 0xE0 SHL DUP2 MSTORE PUSH1 0x4 ADD PUSH2 0xCEF SWAP3 SWAP2 SWAP1 PUSH2 0x186C JUMP JUMPDEST PUSH1 0x20 PUSH1 0x40 MLOAD DUP1 DUP4 SUB DUP2 PUSH0 DUP8 GAS CALL ISZERO DUP1 ISZERO PUSH2 0xD0B JUMPI RETURNDATASIZE PUSH0 PUSH0 RETURNDATACOPY RETURNDATASIZE PUSH0 REVERT JUMPDEST POP POP POP POP PUSH1 0x40 MLOAD RETURNDATASIZE PUSH1 0x1F NOT PUSH1 0x1F DUP3 ADD AND DUP3 ADD DUP1 PUSH1 0x40 MSTORE POP DUP2 ADD SWAP1 PUSH2 0xD2F SWAP2 SWAP1 PUSH2 0x144A JUMP JUMPDEST SWAP1 POP DUP1 PUSH2 0xD71 JUMPI PUSH1 0x40 MLOAD PUSH32 0x8C379A000000000000000000000000000000000000000000000000000000000 DUP2 MSTORE PUSH1 0x4 ADD PUSH2 0xD68 SWAP1 PUSH2 0x18DD JUMP JUMPDEST PUSH1 0x40 MLOAD DUP1 SWAP2 SUB SWAP1 REVERT JUMPDEST DUP3 DUP10 GT ISZERO PUSH2 0xE64 JUMPI PUSH0 PUSH0 PUSH0 SWAP1 SLOAD SWAP1 PUSH2 0x100 EXP SWAP1 DIV PUSH20 0xFFFFFFFFFFFFFFFFFFFFFFFFFFFFFFFFFFFFFFFF AND PUSH20 0xFFFFFFFFFFFFFFFFFFFFFFFFFFFFFFFFFFFFFFFF AND PUSH4 0xA9059CBB DUP13 DUP7 DUP14 PUSH2 0xDC3 SWAP2 SWAP1 PUSH2 0x1928 JUMP JUMPDEST PUSH1 0x40 MLOAD DUP4 PUSH4 0xFFFFFFFF AND PUSH1 0xE0 SHL DUP2 MSTORE PUSH1 0x4 ADD PUSH2 0xDE0 SWAP3 SWAP2 SWAP1 PUSH2 0x186C JUMP JUMPDEST PUSH1 0x20 PUSH1 0x40 MLOAD DUP1 DUP4 SUB DUP2 PUSH0 DUP8 GAS CALL ISZERO DUP1 ISZERO PUSH2 0xDFC JUMPI RETURNDATASIZE PUSH0 PUSH0 RETURNDATACOPY RETURNDATASIZE PUSH0 REVERT JUMPDEST POP POP POP POP PUSH1 0x40 MLOAD RETURNDATASIZE PUSH1 0x1F NOT PUSH1 0x1F DUP3 ADD AND DUP3 ADD DUP1 PUSH1 0x40 MSTORE POP DUP2 ADD SWAP1 PUSH2 0xE20 SWAP2 SWAP1 PUSH2 0x144A JUMP JUMPDEST SWAP1 POP DUP1 PUSH2 0xE62 JUMPI PUSH1 0x40 MLOAD PUSH32 0x8C379A000000000000000000000000000000000000000000000000000000000 DUP2 MSTORE PUSH1 0x4 ADD PUSH2 0xE59 SWAP1 PUSH2 0x19A5 JUMP JUMPDEST PUSH1 0x40 MLOAD DUP1 SWAP2 SUB SWAP1 REVERT JUMPDEST POP JUMPDEST PUSH1 0x1 PUSH0 SWAP1 SLOAD SWAP1 PUSH2 0x100 EXP SWAP1 DIV PUSH20 0xFFFFFFFFFFFFFFFFFFFFFFFFFFFFFFFFFFFFFFFF AND PUSH20 0xFFFFFFFFFFFFFFFFFFFFFFFFFFFFFFFFFFFFFFFF AND PUSH4 0x42842E0E DUP4 DUP13 DUP9 PUSH1 0x40 MLOAD DUP5 PUSH4 0xFFFFFFFF AND PUSH1 0xE0 SHL DUP2 MSTORE PUSH1 0x4 ADD PUSH2 0xEC2 SWAP4 SWAP3 SWAP2 SWAP1 PUSH2 0x13EB JUMP JUMPDEST PUSH0 PUSH1 0x40 MLOAD DUP1 DUP4 SUB DUP2 PUSH0 DUP8 DUP1 EXTCODESIZE ISZERO DUP1 ISZERO PUSH2 0xED9 JUMPI PUSH0 PUSH0 REVERT JUMPDEST POP GAS CALL ISZERO DUP1 ISZERO PUSH2 0xEEB JUMPI RETURNDATASIZE PUSH0 PUSH0 RETURNDATACOPY RETURNDATASIZE PUSH0 REVERT JUMPDEST POP POP POP POP PUSH32 0x5D963241241CFE9E161D13500D628058954B3FEBFDE03E4B1F4071370E72FE2B DUP11 DUP7 DUP12 PUSH1 0x40 MLOAD PUSH2 0xF22 SWAP4 SWAP3 SWAP2 SWAP1 PUSH2 0x14DD JUMP JUMPDEST PUSH1 0x40 MLOAD DUP1 SWAP2 SUB SWAP1 LOG1 PUSH1 0x1 SWAP6 POP POP POP POP POP POP SWAP5 SWAP4 POP POP POP POP JUMP JUMPDEST PUSH1 0x2 PUSH1 0x20 MSTORE DUP1 PUSH0 MSTORE PUSH1 0x40 PUSH0 KECCAK256 PUSH0 SWAP2 POP SWAP1 POP SLOAD DUP2 JUMP JUMPDEST PUSH1 0x3 PUSH1 0x20 MSTORE DUP1 PUSH0 MSTORE PUSH1 0x40 PUSH0 KECCAK256 PUSH0 SWAP2 POP SLOAD SWAP1 PUSH2 0x100 EXP SWAP1 DIV PUSH20 0xFFFFFFFFFFFFFFFFFFFFFFFFFFFFFFFFFFFFFFFF AND DUP2 JUMP JUMPDEST PUSH0 PUSH0 REVERT JUMPDEST PUSH0 PUSH0 REVERT JUMPDEST PUSH0 DUP2 SWAP1 POP SWAP2 SWAP1 POP JUMP JUMPDEST PUSH2 0xF9A DUP2 PUSH2 0xF88 JUMP JUMPDEST DUP2 EQ PUSH2 0xFA4 JUMPI PUSH0 PUSH0 REVERT JUMPDEST POP JUMP JUMPDEST PUSH0 DUP2 CALLDATALOAD SWAP1 POP PUSH2 0xFB5 DUP2 PUSH2 0xF91 JUMP JUMPDEST SWAP3 SWAP2 POP POP JUMP JUMPDEST PUSH0 PUSH0 PUSH1 0x40 DUP4 DUP6 SUB SLT ISZERO PUSH2 0xFD1 JUMPI PUSH2 0xFD0 PUSH2 0xF80 JUMP JUMPDEST JUMPDEST PUSH0 PUSH2 0xFDE DUP6 DUP3 DUP7 ADD PUSH2 0xFA7 JUMP JUMPDEST SWAP3 POP POP PUSH1 0x20 PUSH2 0xFEF DUP6 DUP3 DUP7 ADD PUSH2 0xFA7 JUMP JUMPDEST SWAP2 POP POP SWAP3 POP SWAP3 SWAP1 POP JUMP JUMPDEST PUSH0 DUP2 ISZERO ISZERO SWAP1 POP SWAP2 SWAP1 POP JUMP JUMPDEST PUSH2 0x100D DUP2 PUSH2 0xFF9 JUMP JUMPDEST DUP3 MSTORE POP POP JUMP JUMPDEST PUSH0 PUSH1 0x20 DUP3 ADD SWAP1 POP PUSH2 0x1026 PUSH0 DUP4 ADD DUP5 PUSH2 0x1004 JUMP JUMPDEST SWAP3 SWAP2 POP POP JUMP JUMPDEST PUSH0 PUSH20 0xFFFFFFFFFFFFFFFFFFFFFFFFFFFFFFFFFFFFFFFF DUP3 AND SWAP1 POP SWAP2 SWAP1 POP JUMP JUMPDEST PUSH0 DUP2 SWAP1 POP SWAP2 SWAP1 POP JUMP JUMPDEST PUSH0 PUSH2 0x106E PUSH2 0x1069 PUSH2 0x1064 DUP5 PUSH2 0x102C JUMP JUMPDEST PUSH2 0x104B JUMP JUMPDEST PUSH2 0x102C JUMP JUMPDEST SWAP1 POP SWAP2 SWAP1 POP JUMP JUMPDEST PUSH0 PUSH2 0x107F DUP3 PUSH2 0x1054 JUMP JUMPDEST SWAP1 POP SWAP2 SWAP1 POP JUMP JUMPDEST PUSH0 PUSH2 0x1090 DUP3 PUSH2 0x1075 JUMP JUMPDEST SWAP1 POP SWAP2 SWAP1 POP JUMP JUMPDEST PUSH2 0x10A0 DUP2 PUSH2 0x1086 JUMP JUMPDEST DUP3 MSTORE POP POP JUMP JUMPDEST PUSH0 PUSH1 0x20 DUP3 ADD SWAP1 POP PUSH2 0x10B9 PUSH0 DUP4 ADD DUP5 PUSH2 0x1097 JUMP JUMPDEST SWAP3 SWAP2 POP POP JUMP JUMPDEST PUSH0 PUSH2 0x10C9 DUP3 PUSH2 0x1075 JUMP JUMPDEST SWAP1 POP SWAP2 SWAP1 POP JUMP JUMPDEST PUSH2 0x10D9 DUP2 PUSH2 0x10BF JUMP JUMPDEST DUP3 MSTORE POP POP JUMP JUMPDEST PUSH0 PUSH1 0x20 DUP3 ADD SWAP1 POP PUSH2 0x10F2 PUSH0 DUP4 ADD DUP5 PUSH2 0x10D0 JUMP JUMPDEST SWAP3 SWAP2 POP POP JUMP JUMPDEST PUSH0 PUSH2 0x1102 DUP3 PUSH2 0x102C JUMP JUMPDEST SWAP1 POP SWAP2 SWAP1 POP JUMP JUMPDEST PUSH2 0x1112 DUP2 PUSH2 0x10F8 JUMP JUMPDEST DUP2 EQ PUSH2 0x111C JUMPI PUSH0 PUSH0 REVERT JUMPDEST POP JUMP JUMPDEST PUSH0 DUP2 CALLDATALOAD SWAP1 POP PUSH2 0x112D DUP2 PUSH2 0x1109 JUMP JUMPDEST SWAP3 SWAP2 POP POP JUMP JUMPDEST PUSH0 PUSH0 REVERT JUMPDEST PUSH0 PUSH0 REVERT JUMPDEST PUSH0 PUSH0 REVERT JUMPDEST PUSH0 PUSH0 DUP4 PUSH1 0x1F DUP5 ADD SLT PUSH2 0x1154 JUMPI PUSH2 0x1153 PUSH2 0x1133 JUMP JUMPDEST JUMPDEST DUP3 CALLDATALOAD SWAP1 POP PUSH8 0xFFFFFFFFFFFFFFFF DUP2 GT ISZERO PUSH2 0x1171 JUMPI PUSH2 0x1170 PUSH2 0x1137 JUMP JUMPDEST JUMPDEST PUSH1 0x20 DUP4 ADD SWAP2 POP DUP4 PUSH1 0x1 DUP3 MUL DUP4 ADD GT ISZERO PUSH2 0x118D JUMPI PUSH2 0x118C PUSH2 0x113B JUMP JUMPDEST JUMPDEST SWAP3 POP SWAP3 SWAP1 POP JUMP JUMPDEST PUSH0 PUSH0 PUSH0 PUSH0 PUSH1 0x60 DUP6 DUP8 SUB SLT ISZERO PUSH2 0x11AC JUMPI PUSH2 0x11AB PUSH2 0xF80 JUMP JUMPDEST JUMPDEST PUSH0 PUSH2 0x11B9 DUP8 DUP3 DUP9 ADD PUSH2 0x111F JUMP JUMPDEST SWAP5 POP POP PUSH1 0x20 PUSH2 0x11CA DUP8 DUP3 DUP9 ADD PUSH2 0xFA7 JUMP JUMPDEST SWAP4 POP POP PUSH1 0x40 DUP6 ADD CALLDATALOAD PUSH8 0xFFFFFFFFFFFFFFFF DUP2 GT ISZERO PUSH2 0x11EB JUMPI PUSH2 0x11EA PUSH2 0xF84 JUMP JUMPDEST JUMPDEST PUSH2 0x11F7 DUP8 DUP3 DUP9 ADD PUSH2 0x113F JUMP JUMPDEST SWAP3 POP SWAP3 POP POP SWAP3 SWAP6 SWAP2 SWAP5 POP SWAP3 POP JUMP JUMPDEST PUSH0 PUSH1 0x20 DUP3 DUP5 SUB SLT ISZERO PUSH2 0x121A JUMPI PUSH2 0x1219 PUSH2 0xF80 JUMP JUMPDEST JUMPDEST PUSH0 PUSH2 0x1227 DUP5 DUP3 DUP6 ADD PUSH2 0xFA7 JUMP JUMPDEST SWAP2 POP POP SWAP3 SWAP2 POP POP JUMP JUMPDEST PUSH2 0x1239 DUP2 PUSH2 0xF88 JUMP JUMPDEST DUP3 MSTORE POP POP JUMP JUMPDEST PUSH0 PUSH1 0x20 DUP3 ADD SWAP1 POP PUSH2 0x1252 PUSH0 DUP4 ADD DUP5 PUSH2 0x1230 JUMP JUMPDEST SWAP3 SWAP2 POP POP JUMP JUMPDEST PUSH2 0x1261 DUP2 PUSH2 0x10F8 JUMP JUMPDEST DUP3 MSTORE POP POP JUMP JUMPDEST PUSH0 PUSH1 0x20 DUP3 ADD SWAP1 POP PUSH2 0x127A PUSH0 DUP4 ADD DUP5 PUSH2 0x1258 JUMP JUMPDEST SWAP3 SWAP2 POP POP JUMP JUMPDEST PUSH0 DUP3 DUP3 MSTORE PUSH1 0x20 DUP3 ADD SWAP1 POP SWAP3 SWAP2 POP POP JUMP JUMPDEST PUSH32 0x746F6B656E4964206D75737420213D302C20616D6F756E74206D757374203D3D PUSH0 DUP3 ADD MSTORE PUSH32 0x20746F6B656E50726963655B746F6B656E49445D000000000000000000000000 PUSH1 0x20 DUP3 ADD MSTORE POP JUMP JUMPDEST PUSH0 PUSH2 0x12EA PUSH1 0x34 DUP4 PUSH2 0x1280 JUMP JUMPDEST SWAP2 POP PUSH2 0x12F5 DUP3 PUSH2 0x1290 JUMP JUMPDEST PUSH1 0x40 DUP3 ADD SWAP1 POP SWAP2 SWAP1 POP JUMP JUMPDEST PUSH0 PUSH1 0x20 DUP3 ADD SWAP1 POP DUP2 DUP2 SUB PUSH0 DUP4 ADD MSTORE PUSH2 0x1317 DUP2 PUSH2 0x12DE JUMP JUMPDEST SWAP1 POP SWAP2 SWAP1 POP JUMP JUMPDEST PUSH0 DUP2 MLOAD SWAP1 POP PUSH2 0x132C DUP2 PUSH2 0x1109 JUMP JUMPDEST SWAP3 SWAP2 POP POP JUMP JUMPDEST PUSH0 PUSH1 0x20 DUP3 DUP5 SUB SLT ISZERO PUSH2 0x1347 JUMPI PUSH2 0x1346 PUSH2 0xF80 JUMP JUMPDEST JUMPDEST PUSH0 PUSH2 0x1354 DUP5 DUP3 DUP6 ADD PUSH2 0x131E JUMP JUMPDEST SWAP2 POP POP SWAP3 SWAP2 POP POP JUMP JUMPDEST PUSH32 0x5468652073656C6C65727320617265206E6F74207468652073616D6520616464 PUSH0 DUP3 ADD MSTORE PUSH32 0x7265737300000000000000000000000000000000000000000000000000000000 PUSH1 0x20 DUP3 ADD MSTORE POP JUMP JUMPDEST PUSH0 PUSH2 0x13B7 PUSH1 0x24 DUP4 PUSH2 0x1280 JUMP JUMPDEST SWAP2 POP PUSH2 0x13C2 DUP3 PUSH2 0x135D JUMP JUMPDEST PUSH1 0x40 DUP3 ADD SWAP1 POP SWAP2 SWAP1 POP JUMP JUMPDEST PUSH0 PUSH1 0x20 DUP3 ADD SWAP1 POP DUP2 DUP2 SUB PUSH0 DUP4 ADD MSTORE PUSH2 0x13E4 DUP2 PUSH2 0x13AB JUMP JUMPDEST SWAP1 POP SWAP2 SWAP1 POP JUMP JUMPDEST PUSH0 PUSH1 0x60 DUP3 ADD SWAP1 POP PUSH2 0x13FE PUSH0 DUP4 ADD DUP7 PUSH2 0x1258 JUMP JUMPDEST PUSH2 0x140B PUSH1 0x20 DUP4 ADD DUP6 PUSH2 0x1258 JUMP JUMPDEST PUSH2 0x1418 PUSH1 0x40 DUP4 ADD DUP5 PUSH2 0x1230 JUMP JUMPDEST SWAP5 SWAP4 POP POP POP POP JUMP JUMPDEST PUSH2 0x1429 DUP2 PUSH2 0xFF9 JUMP JUMPDEST DUP2 EQ PUSH2 0x1433 JUMPI PUSH0 PUSH0 REVERT JUMPDEST POP JUMP JUMPDEST PUSH0 DUP2 MLOAD SWAP1 POP PUSH2 0x1444 DUP2 PUSH2 0x1420 JUMP JUMPDEST SWAP3 SWAP2 POP POP JUMP JUMPDEST PUSH0 PUSH1 0x20 DUP3 DUP5 SUB SLT ISZERO PUSH2 0x145F JUMPI PUSH2 0x145E PUSH2 0xF80 JUMP JUMPDEST JUMPDEST PUSH0 PUSH2 0x146C DUP5 DUP3 DUP6 ADD PUSH2 0x1436 JUMP JUMPDEST SWAP2 POP POP SWAP3 SWAP2 POP POP JUMP JUMPDEST PUSH32 0x7472616E7366657246726F6D206572726F720000000000000000000000000000 PUSH0 DUP3 ADD MSTORE POP JUMP JUMPDEST PUSH0 PUSH2 0x14A9 PUSH1 0x12 DUP4 PUSH2 0x1280 JUMP JUMPDEST SWAP2 POP PUSH2 0x14B4 DUP3 PUSH2 0x1475 JUMP JUMPDEST PUSH1 0x20 DUP3 ADD SWAP1 POP SWAP2 SWAP1 POP JUMP JUMPDEST PUSH0 PUSH1 0x20 DUP3 ADD SWAP1 POP DUP2 DUP2 SUB PUSH0 DUP4 ADD MSTORE PUSH2 0x14D6 DUP2 PUSH2 0x149D JUMP JUMPDEST SWAP1 POP SWAP2 SWAP1 POP JUMP JUMPDEST PUSH0 PUSH1 0x60 DUP3 ADD SWAP1 POP PUSH2 0x14F0 PUSH0 DUP4 ADD DUP7 PUSH2 0x1258 JUMP JUMPDEST PUSH2 0x14FD PUSH1 0x20 DUP4 ADD DUP6 PUSH2 0x1230 JUMP JUMPDEST PUSH2 0x150A PUSH1 0x40 DUP4 ADD DUP5 PUSH2 0x1230 JUMP JUMPDEST SWAP5 SWAP4 POP POP POP POP JUMP JUMPDEST PUSH32 0x746F6B656E4964206D75737420213D302C20616D6F756E74206D757374203E30 PUSH0 DUP3 ADD MSTORE POP JUMP JUMPDEST PUSH0 PUSH2 0x1546 PUSH1 0x20 DUP4 PUSH2 0x1280 JUMP JUMPDEST SWAP2 POP PUSH2 0x1551 DUP3 PUSH2 0x1512 JUMP JUMPDEST PUSH1 0x20 DUP3 ADD SWAP1 POP SWAP2 SWAP1 POP JUMP JUMPDEST PUSH0 PUSH1 0x20 DUP3 ADD SWAP1 POP DUP2 DUP2 SUB PUSH0 DUP4 ADD MSTORE PUSH2 0x1573 DUP2 PUSH2 0x153A JUMP JUMPDEST SWAP1 POP SWAP2 SWAP1 POP JUMP JUMPDEST PUSH32 0x796F7520617265206E6F74206F776E6572000000000000000000000000000000 PUSH0 DUP3 ADD MSTORE POP JUMP JUMPDEST PUSH0 PUSH2 0x15AE PUSH1 0x11 DUP4 PUSH2 0x1280 JUMP JUMPDEST SWAP2 POP PUSH2 0x15B9 DUP3 PUSH2 0x157A JUMP JUMPDEST PUSH1 0x20 DUP3 ADD SWAP1 POP SWAP2 SWAP1 POP JUMP JUMPDEST PUSH0 PUSH1 0x20 DUP3 ADD SWAP1 POP DUP2 DUP2 SUB PUSH0 DUP4 ADD MSTORE PUSH2 0x15DB DUP2 PUSH2 0x15A2 JUMP JUMPDEST SWAP1 POP SWAP2 SWAP1 POP JUMP JUMPDEST PUSH32 0x616C7265616479206C6973746564000000000000000000000000000000000000 PUSH0 DUP3 ADD MSTORE POP JUMP JUMPDEST PUSH0 PUSH2 0x1616 PUSH1 0xE DUP4 PUSH2 0x1280 JUMP JUMPDEST SWAP2 POP PUSH2 0x1621 DUP3 PUSH2 0x15E2 JUMP JUMPDEST PUSH1 0x20 DUP3 ADD SWAP1 POP SWAP2 SWAP1 POP JUMP JUMPDEST PUSH0 PUSH1 0x20 DUP3 ADD SWAP1 POP DUP2 DUP2 SUB PUSH0 DUP4 ADD MSTORE PUSH2 0x1643 DUP2 PUSH2 0x160A JUMP JUMPDEST SWAP1 POP SWAP2 SWAP1 POP JUMP JUMPDEST PUSH0 PUSH1 0x40 DUP3 ADD SWAP1 POP PUSH2 0x165D PUSH0 DUP4 ADD DUP6 PUSH2 0x1258 JUMP JUMPDEST PUSH2 0x166A PUSH1 0x20 DUP4 ADD DUP5 PUSH2 0x1258 JUMP JUMPDEST SWAP4 SWAP3 POP POP POP JUMP JUMPDEST PUSH32 0x4E46544D61726B65743A206E6F7420617070726F766564000000000000000000 PUSH0 DUP3 ADD MSTORE POP JUMP JUMPDEST PUSH0 PUSH2 0x16A5 PUSH1 0x17 DUP4 PUSH2 0x1280 JUMP JUMPDEST SWAP2 POP PUSH2 0x16B0 DUP3 PUSH2 0x1671 JUMP JUMPDEST PUSH1 0x20 DUP3 ADD SWAP1 POP SWAP2 SWAP1 POP JUMP JUMPDEST PUSH0 PUSH1 0x20 DUP3 ADD SWAP1 POP DUP2 DUP2 SUB PUSH0 DUP4 ADD MSTORE PUSH2 0x16D2 DUP2 PUSH2 0x1699 JUMP JUMPDEST SWAP1 POP SWAP2 SWAP1 POP JUMP JUMPDEST PUSH0 PUSH1 0x60 DUP3 ADD SWAP1 POP PUSH2 0x16EC PUSH0 DUP4 ADD DUP7 PUSH2 0x1230 JUMP JUMPDEST PUSH2 0x16F9 PUSH1 0x20 DUP4 ADD DUP6 PUSH2 0x1258 JUMP JUMPDEST PUSH2 0x1706 PUSH1 0x40 DUP4 ADD DUP5 PUSH2 0x1230 JUMP JUMPDEST SWAP5 SWAP4 POP POP POP POP JUMP JUMPDEST PUSH32 0x6F6E6C79206572633230546F6B656E2063616E2063616C6C2074686973206675 PUSH0 DUP3 ADD MSTORE PUSH32 0x6E6374696F6E0000000000000000000000000000000000000000000000000000 PUSH1 0x20 DUP3 ADD MSTORE POP JUMP JUMPDEST PUSH0 PUSH2 0x1768 PUSH1 0x26 DUP4 PUSH2 0x1280 JUMP JUMPDEST SWAP2 POP PUSH2 0x1773 DUP3 PUSH2 0x170E JUMP JUMPDEST PUSH1 0x40 DUP3 ADD SWAP1 POP SWAP2 SWAP1 POP JUMP JUMPDEST PUSH0 PUSH1 0x20 DUP3 ADD SWAP1 POP DUP2 DUP2 SUB PUSH0 DUP4 ADD MSTORE PUSH2 0x1795 DUP2 PUSH2 0x175C JUMP JUMPDEST SWAP1 POP SWAP2 SWAP1 POP JUMP JUMPDEST PUSH32 0x4D61726B65743A20746F6B656E206E6F7420666F722073616C65000000000000 PUSH0 DUP3 ADD MSTORE POP JUMP JUMPDEST PUSH0 PUSH2 0x17D0 PUSH1 0x1A DUP4 PUSH2 0x1280 JUMP JUMPDEST SWAP2 POP PUSH2 0x17DB DUP3 PUSH2 0x179C JUMP JUMPDEST PUSH1 0x20 DUP3 ADD SWAP1 POP SWAP2 SWAP1 POP JUMP JUMPDEST PUSH0 PUSH1 0x20 DUP3 ADD SWAP1 POP DUP2 DUP2 SUB PUSH0 DUP4 ADD MSTORE PUSH2 0x17FD DUP2 PUSH2 0x17C4 JUMP JUMPDEST SWAP1 POP SWAP2 SWAP1 POP JUMP JUMPDEST PUSH32 0x204D61726B65743A20696E73756666696369656E7420616D6F756E7400000000 PUSH0 DUP3 ADD MSTORE POP JUMP JUMPDEST PUSH0 PUSH2 0x1838 PUSH1 0x1C DUP4 PUSH2 0x1280 JUMP JUMPDEST SWAP2 POP PUSH2 0x1843 DUP3 PUSH2 0x1804 JUMP JUMPDEST PUSH1 0x20 DUP3 ADD SWAP1 POP SWAP2 SWAP1 POP JUMP JUMPDEST PUSH0 PUSH1 0x20 DUP3 ADD SWAP1 POP DUP2 DUP2 SUB PUSH0 DUP4 ADD MSTORE PUSH2 0x1865 DUP2 PUSH2 0x182C JUMP JUMPDEST SWAP1 POP SWAP2 SWAP1 POP JUMP JUMPDEST PUSH0 PUSH1 0x40 DUP3 ADD SWAP1 POP PUSH2 0x187F PUSH0 DUP4 ADD DUP6 PUSH2 0x1258 JUMP JUMPDEST PUSH2 0x188C PUSH1 0x20 DUP4 ADD DUP5 PUSH2 0x1230 JUMP JUMPDEST SWAP4 SWAP3 POP POP POP JUMP JUMPDEST PUSH32 0x5472616E7366657220746F2073656C6C6572206661696C656400000000000000 PUSH0 DUP3 ADD MSTORE POP JUMP JUMPDEST PUSH0 PUSH2 0x18C7 PUSH1 0x19 DUP4 PUSH2 0x1280 JUMP JUMPDEST SWAP2 POP PUSH2 0x18D2 DUP3 PUSH2 0x1893 JUMP JUMPDEST PUSH1 0x20 DUP3 ADD SWAP1 POP SWAP2 SWAP1 POP JUMP JUMPDEST PUSH0 PUSH1 0x20 DUP3 ADD SWAP1 POP DUP2 DUP2 SUB PUSH0 DUP4 ADD MSTORE PUSH2 0x18F4 DUP2 PUSH2 0x18BB JUMP JUMPDEST SWAP1 POP SWAP2 SWAP1 POP JUMP JUMPDEST PUSH32 0x4E487B7100000000000000000000000000000000000000000000000000000000 PUSH0 MSTORE PUSH1 0x11 PUSH1 0x4 MSTORE PUSH1 0x24 PUSH0 REVERT JUMPDEST PUSH0 PUSH2 0x1932 DUP3 PUSH2 0xF88 JUMP JUMPDEST SWAP2 POP PUSH2 0x193D DUP4 PUSH2 0xF88 JUMP JUMPDEST SWAP3 POP DUP3 DUP3 SUB SWAP1 POP DUP2 DUP2 GT ISZERO PUSH2 0x1955 JUMPI PUSH2 0x1954 PUSH2 0x18FB JUMP JUMPDEST JUMPDEST SWAP3 SWAP2 POP POP JUMP JUMPDEST PUSH32 0x206572633230546F6B656E2E7472616E73666572206973206572726F72000000 PUSH0 DUP3 ADD MSTORE POP JUMP JUMPDEST PUSH0 PUSH2 0x198F PUSH1 0x1D DUP4 PUSH2 0x1280 JUMP JUMPDEST SWAP2 POP PUSH2 0x199A DUP3 PUSH2 0x195B JUMP JUMPDEST PUSH1 0x20 DUP3 ADD SWAP1 POP SWAP2 SWAP1 POP JUMP JUMPDEST PUSH0 PUSH1 0x20 DUP3 ADD SWAP1 POP DUP2 DUP2 SUB PUSH0 DUP4 ADD MSTORE PUSH2 0x19BC DUP2 PUSH2 0x1983 JUMP JUMPDEST SWAP1 POP SWAP2 SWAP1 POP JUMP INVALID LOG2 PUSH5 0x6970667358 0x22 SLT KECCAK256 BLOBHASH STOP 0x4D 0xAC DUP4 0xCC 0xA6 CODECOPY GASPRICE EOFCREATE 0x77 COINBASE LOG4 0xC8 0x2A 0x2E 0xAA MSTORE8 PUSH2 0xDFBB DUP2 AND SWAP12 SELFDESTRUCT 0xC6 EXP EXTSTATICCALL BYTE EXTCODESIZE 0xB8 PUSH21 0x64736F6C6343000822003300000000000000000000 "
				},
				"gasEstimates": {
					"creation": {
						"codeDepositCost": "1329800",
						"executionCost": "infinite",
						"totalCost": "infinite"
					},
					"external": {
						"buyNFT(uint256,uint256)": "infinite",
						"erc20Token()": "infinite",
						"erc721Token()": "infinite",
						"list(uint256,uint256)": "infinite",
						"tokenPrice(uint256)": "infinite",
						"tokenSeller(uint256)": "2893",
						"tokensReceived(address,uint256,bytes)": "infinite"
					}
				},
				"methodIdentifiers": {
					"buyNFT(uint256,uint256)": "1d85bf03",
					"erc20Token()": "8a13eea7",
					"erc721Token()": "5f2d6bcd",
					"list(uint256,uint256)": "50fd7367",
					"tokenPrice(uint256)": "d4ddce8a",
					"tokenSeller(uint256)": "fa34d82f",
					"tokensReceived(address,uint256,bytes)": "d0314263"
				}
			},
			"storageLayout": {
				"storage": [
					{
						"astId": 201,
						"contract": "contracts/NFTMarket.sol:NFTMarket",
						"label": "erc20Token",
						"offset": 0,
						"slot": "0",
						"type": "t_contract(IERC20)56"
					},
					{
						"astId": 204,
						"contract": "contracts/NFTMarket.sol:NFTMarket",
						"label": "erc721Token",
						"offset": 0,
						"slot": "1",
						"type": "t_contract(IERC721)194"
					},
					{
						"astId": 224,
						"contract": "contracts/NFTMarket.sol:NFTMarket",
						"label": "tokenPrice",
						"offset": 0,
						"slot": "2",
						"type": "t_mapping(t_uint256,t_uint256)"
					},
					{
						"astId": 228,
						"contract": "contracts/NFTMarket.sol:NFTMarket",
						"label": "tokenSeller",
						"offset": 0,
						"slot": "3",
						"type": "t_mapping(t_uint256,t_address)"
					}
				],
				"types": {
					"t_address": {
						"encoding": "inplace",
						"label": "address",
						"numberOfBytes": "20"
					},
					"t_contract(IERC20)56": {
						"encoding": "inplace",
						"label": "contract IERC20",
						"numberOfBytes": "20"
					},
					"t_contract(IERC721)194": {
						"encoding": "inplace",
						"label": "contract IERC721",
						"numberOfBytes": "20"
					},
					"t_mapping(t_uint256,t_address)": {
						"encoding": "mapping",
						"key": "t_uint256",
						"label": "mapping(uint256 => address)",
						"numberOfBytes": "32",
						"value": "t_address"
					},
					"t_mapping(t_uint256,t_uint256)": {
						"encoding": "mapping",
						"key": "t_uint256",
						"label": "mapping(uint256 => uint256)",
						"numberOfBytes": "32",
						"value": "t_uint256"
					},
					"t_uint256": {
						"encoding": "inplace",
						"label": "uint256",
						"numberOfBytes": "32"
					}
				}
			},
			"userdoc": {
				"kind": "user",
				"methods": {},
				"version": 1
			}
		}
	}
}