{
	"contracts/NFTMarket.sol": {
		"NFTMarket": {
			"abi": [
				{
					"inputs": [
						{
							"internalType": "contract IERC20",
							"name": "erc20",
							"type": "address"
						},
						{
							"internalType": "contract IERC721",
							"name": "erc721",
							"type": "address"
						}
					],
					"stateMutability": "nonpayable",
					"type": "constructor"
				},
				{
					"anonymous": false,
					"inputs": [
						{
							"indexed": false,
							"internalType": "address",
							"name": "buyer",
							"type": "address"
						},
						{
							"indexed": false,
							"internalType": "uint256",
							"name": "tokenID",
							"type": "uint256"
						},
						{
							"indexed": false,
							"internalType": "uint256",
							"name": "amount",
							"type": "uint256"
						}
					],
					"name": "BuyNFT",
					"type": "event"
				},
				{
					"anonymous": false,
					"inputs": [
						{
							"indexed": false,
							"internalType": "uint256",
							"name": "tokenId",
							"type": "uint256"
						},
						{
							"indexed": false,
							"internalType": "address",
							"name": "sellPeople",
							"type": "address"
						},
						{
							"indexed": false,
							"internalType": "uint256",
							"name": "amount",
							"type": "uint256"
						}
					],
					"name": "List",
					"type": "event"
				},
				{
					"inputs": [
						{
							"internalType": "uint256",
							"name": "tokenID",
							"type": "uint256"
						},
						{
							"internalType": "uint256",
							"name": "amount",
							"type": "uint256"
						}
					],
					"name": "buyNFT",
					"outputs": [
						{
							"internalType": "bool",
							"name": "",
							"type": "bool"
						}
					],
					"stateMutability": "nonpayable",
					"type": "function"
				},
				{
					"inputs": [],
					"name": "erc20Token",
					"outputs": [
						{
							"internalType": "contract IERC20",
							"name": "",
							"type": "address"
						}
					],
					"stateMutability": "view",
					"type": "function"
				},
				{
					"inputs": [],
					"name": "erc721Token",
					"outputs": [
						{
							"internalType": "contract IERC721",
							"name": "",
							"type": "address"
						}
					],
					"stateMutability": "view",
					"type": "function"
				},
				{
					"inputs": [
						{
							"internalType": "uint256",
							"name": "tokenId",
							"type": "uint256"
						},
						{
							"internalType": "uint256",
							"name": "amount",
							"type": "uint256"
						}
					],
					"name": "list",
					"outputs": [
						{
							"internalType": "bool",
							"name": "",
							"type": "bool"
						}
					],
					"stateMutability": "nonpayable",
					"type": "function"
				},
				{
					"inputs": [
						{
							"internalType": "uint256",
							"name": "",
							"type": "uint256"
						}
					],
					"name": "tokenPrice",
					"outputs": [
						{
							"internalType": "uint256",
							"name": "",
							"type": "uint256"
						}
					],
					"stateMutability": "view",
					"type": "function"
				},
				{
					"inputs": [
						{
							"internalType": "address",
							"name": "from",
							"type": "address"
						},
						{
							"internalType": "uint256",
							"name": "amount",
							"type": "uint256"
						},
						{
							"internalType": "bytes",
							"name": "data",
							"type": "bytes"
						}
					],
					"name": "tokensReceived",
					"outputs": [
						{
							"internalType": "bool",
							"name": "",
							"type": "bool"
						}
					],
					"stateMutability": "nonpayable",
					"type": "function"
				}
			],
			"devdoc": {
				"kind": "dev",
				"methods": {},
				"version": 1
			},
			"evm": {
				"assembly": "    /* \"contracts/NFTMarket.sol\":145:2853  contract NFTMarket{... */\n  mstore(0x40, 0x80)\n    /* \"contracts/NFTMarket.sol\":439:550  constructor(IERC20 erc20,IERC721 erc721){... */\n  callvalue\n  dup1\n  iszero\n  tag_1\n  jumpi\n  revert(0x00, 0x00)\ntag_1:\n  pop\n  mload(0x40)\n  sub(codesize, bytecodeSize)\n  dup1\n  bytecodeSize\n  dup4\n  codecopy\n  dup2\n  dup2\n  add\n  0x40\n  mstore\n  dup2\n  add\n  swap1\n  tag_2\n  swap2\n  swap1\n  tag_3\n  jump\t// in\ntag_2:\n    /* \"contracts/NFTMarket.sol\":504:509  erc20 */\n  dup2\n    /* \"contracts/NFTMarket.sol\":491:501  erc20Token */\n  0x00\n  0x00\n    /* \"contracts/NFTMarket.sol\":491:509  erc20Token = erc20 */\n  0x0100\n  exp\n  dup2\n  sload\n  dup2\n  0xffffffffffffffffffffffffffffffffffffffff\n  mul\n  not\n  and\n  swap1\n  dup4\n  0xffffffffffffffffffffffffffffffffffffffff\n  and\n  mul\n  or\n  swap1\n  sstore\n  pop\n    /* \"contracts/NFTMarket.sol\":535:541  erc721 */\n  dup1\n    /* \"contracts/NFTMarket.sol\":521:532  erc721Token */\n  0x01\n  0x00\n    /* \"contracts/NFTMarket.sol\":521:541  erc721Token = erc721 */\n  0x0100\n  exp\n  dup2\n  sload\n  dup2\n  0xffffffffffffffffffffffffffffffffffffffff\n  mul\n  not\n  and\n  swap1\n  dup4\n  0xffffffffffffffffffffffffffffffffffffffff\n  and\n  mul\n  or\n  swap1\n  sstore\n  pop\n    /* \"contracts/NFTMarket.sol\":439:550  constructor(IERC20 erc20,IERC721 erc721){... */\n  pop\n  pop\n    /* \"contracts/NFTMarket.sol\":145:2853  contract NFTMarket{... */\n  jump(tag_6)\n    /* \"#utility.yul\":88:205   */\ntag_8:\n    /* \"#utility.yul\":197:198   */\n  0x00\n    /* \"#utility.yul\":194:195   */\n  0x00\n    /* \"#utility.yul\":187:199   */\n  revert\n    /* \"#utility.yul\":334:460   */\ntag_10:\n    /* \"#utility.yul\":371:378   */\n  0x00\n    /* \"#utility.yul\":411:453   */\n  0xffffffffffffffffffffffffffffffffffffffff\n    /* \"#utility.yul\":404:409   */\n  dup3\n    /* \"#utility.yul\":400:454   */\n  and\n    /* \"#utility.yul\":389:454   */\n  swap1\n  pop\n    /* \"#utility.yul\":334:460   */\n  swap2\n  swap1\n  pop\n  jump\t// out\n    /* \"#utility.yul\":466:562   */\ntag_11:\n    /* \"#utility.yul\":503:510   */\n  0x00\n    /* \"#utility.yul\":532:556   */\n  tag_24\n    /* \"#utility.yul\":550:555   */\n  dup3\n    /* \"#utility.yul\":532:556   */\n  tag_10\n  jump\t// in\ntag_24:\n    /* \"#utility.yul\":521:556   */\n  swap1\n  pop\n    /* \"#utility.yul\":466:562   */\n  swap2\n  swap1\n  pop\n  jump\t// out\n    /* \"#utility.yul\":568:677   */\ntag_12:\n    /* \"#utility.yul\":618:625   */\n  0x00\n    /* \"#utility.yul\":647:671   */\n  tag_26\n    /* \"#utility.yul\":665:670   */\n  dup3\n    /* \"#utility.yul\":647:671   */\n  tag_11\n  jump\t// in\ntag_26:\n    /* \"#utility.yul\":636:671   */\n  swap1\n  pop\n    /* \"#utility.yul\":568:677   */\n  swap2\n  swap1\n  pop\n  jump\t// out\n    /* \"#utility.yul\":683:831   */\ntag_13:\n    /* \"#utility.yul\":769:806   */\n  tag_28\n    /* \"#utility.yul\":800:805   */\n  dup2\n    /* \"#utility.yul\":769:806   */\n  tag_12\n  jump\t// in\ntag_28:\n    /* \"#utility.yul\":762:767   */\n  dup2\n    /* \"#utility.yul\":759:807   */\n  eq\n    /* \"#utility.yul\":749:825   */\n  tag_29\n  jumpi\n    /* \"#utility.yul\":821:822   */\n  0x00\n    /* \"#utility.yul\":818:819   */\n  0x00\n    /* \"#utility.yul\":811:823   */\n  revert\n    /* \"#utility.yul\":749:825   */\ntag_29:\n    /* \"#utility.yul\":683:831   */\n  pop\n  jump\t// out\n    /* \"#utility.yul\":837:1006   */\ntag_14:\n    /* \"#utility.yul\":907:912   */\n  0x00\n    /* \"#utility.yul\":938:944   */\n  dup2\n    /* \"#utility.yul\":932:945   */\n  mload\n    /* \"#utility.yul\":923:945   */\n  swap1\n  pop\n    /* \"#utility.yul\":954:1000   */\n  tag_31\n    /* \"#utility.yul\":994:999   */\n  dup2\n    /* \"#utility.yul\":954:1000   */\n  tag_13\n  jump\t// in\ntag_31:\n    /* \"#utility.yul\":837:1006   */\n  swap3\n  swap2\n  pop\n  pop\n  jump\t// out\n    /* \"#utility.yul\":1012:1123   */\ntag_15:\n    /* \"#utility.yul\":1064:1071   */\n  0x00\n    /* \"#utility.yul\":1093:1117   */\n  tag_33\n    /* \"#utility.yul\":1111:1116   */\n  dup3\n    /* \"#utility.yul\":1093:1117   */\n  tag_11\n  jump\t// in\ntag_33:\n    /* \"#utility.yul\":1082:1117   */\n  swap1\n  pop\n    /* \"#utility.yul\":1012:1123   */\n  swap2\n  swap1\n  pop\n  jump\t// out\n    /* \"#utility.yul\":1129:1281   */\ntag_16:\n    /* \"#utility.yul\":1217:1256   */\n  tag_35\n    /* \"#utility.yul\":1250:1255   */\n  dup2\n    /* \"#utility.yul\":1217:1256   */\n  tag_15\n  jump\t// in\ntag_35:\n    /* \"#utility.yul\":1210:1215   */\n  dup2\n    /* \"#utility.yul\":1207:1257   */\n  eq\n    /* \"#utility.yul\":1197:1275   */\n  tag_36\n  jumpi\n    /* \"#utility.yul\":1271:1272   */\n  0x00\n    /* \"#utility.yul\":1268:1269   */\n  0x00\n    /* \"#utility.yul\":1261:1273   */\n  revert\n    /* \"#utility.yul\":1197:1275   */\ntag_36:\n    /* \"#utility.yul\":1129:1281   */\n  pop\n  jump\t// out\n    /* \"#utility.yul\":1287:1460   */\ntag_17:\n    /* \"#utility.yul\":1359:1364   */\n  0x00\n    /* \"#utility.yul\":1390:1396   */\n  dup2\n    /* \"#utility.yul\":1384:1397   */\n  mload\n    /* \"#utility.yul\":1375:1397   */\n  swap1\n  pop\n    /* \"#utility.yul\":1406:1454   */\n  tag_38\n    /* \"#utility.yul\":1448:1453   */\n  dup2\n    /* \"#utility.yul\":1406:1454   */\n  tag_16\n  jump\t// in\ntag_38:\n    /* \"#utility.yul\":1287:1460   */\n  swap3\n  swap2\n  pop\n  pop\n  jump\t// out\n    /* \"#utility.yul\":1466:2029   */\ntag_3:\n    /* \"#utility.yul\":1573:1579   */\n  0x00\n    /* \"#utility.yul\":1581:1587   */\n  0x00\n    /* \"#utility.yul\":1630:1632   */\n  0x40\n    /* \"#utility.yul\":1618:1627   */\n  dup4\n    /* \"#utility.yul\":1609:1616   */\n  dup6\n    /* \"#utility.yul\":1605:1628   */\n  sub\n    /* \"#utility.yul\":1601:1633   */\n  slt\n    /* \"#utility.yul\":1598:1717   */\n  iszero\n  tag_40\n  jumpi\n    /* \"#utility.yul\":1636:1715   */\n  tag_41\n  tag_8\n  jump\t// in\ntag_41:\n    /* \"#utility.yul\":1598:1717   */\ntag_40:\n    /* \"#utility.yul\":1756:1757   */\n  0x00\n    /* \"#utility.yul\":1781:1858   */\n  tag_42\n    /* \"#utility.yul\":1850:1857   */\n  dup6\n    /* \"#utility.yul\":1841:1847   */\n  dup3\n    /* \"#utility.yul\":1830:1839   */\n  dup7\n    /* \"#utility.yul\":1826:1848   */\n  add\n    /* \"#utility.yul\":1781:1858   */\n  tag_14\n  jump\t// in\ntag_42:\n    /* \"#utility.yul\":1771:1858   */\n  swap3\n  pop\n    /* \"#utility.yul\":1727:1868   */\n  pop\n    /* \"#utility.yul\":1907:1909   */\n  0x20\n    /* \"#utility.yul\":1933:2012   */\n  tag_43\n    /* \"#utility.yul\":2004:2011   */\n  dup6\n    /* \"#utility.yul\":1995:2001   */\n  dup3\n    /* \"#utility.yul\":1984:1993   */\n  dup7\n    /* \"#utility.yul\":1980:2002   */\n  add\n    /* \"#utility.yul\":1933:2012   */\n  tag_17\n  jump\t// in\ntag_43:\n    /* \"#utility.yul\":1923:2012   */\n  swap2\n  pop\n    /* \"#utility.yul\":1878:2022   */\n  pop\n    /* \"#utility.yul\":1466:2029   */\n  swap3\n  pop\n  swap3\n  swap1\n  pop\n  jump\t// out\n    /* \"contracts/NFTMarket.sol\":145:2853  contract NFTMarket{... */\ntag_6:\n  dataSize(sub_0)\n  dup1\n  dataOffset(sub_0)\n  0x00\n  codecopy\n  0x00\n  return\nstop\n\nsub_0: assembly {\n        /* \"contracts/NFTMarket.sol\":145:2853  contract NFTMarket{... */\n      mstore(0x40, 0x80)\n      callvalue\n      dup1\n      iszero\n      tag_1\n      jumpi\n      revert(0x00, 0x00)\n    tag_1:\n      pop\n      jumpi(tag_2, lt(calldatasize, 0x04))\n      shr(0xe0, calldataload(0x00))\n      dup1\n      0x1d85bf03\n      eq\n      tag_3\n      jumpi\n      dup1\n      0x50fd7367\n      eq\n      tag_4\n      jumpi\n      dup1\n      0x5f2d6bcd\n      eq\n      tag_5\n      jumpi\n      dup1\n      0x8a13eea7\n      eq\n      tag_6\n      jumpi\n      dup1\n      0xd0314263\n      eq\n      tag_7\n      jumpi\n      dup1\n      0xd4ddce8a\n      eq\n      tag_8\n      jumpi\n    tag_2:\n      revert(0x00, 0x00)\n        /* \"contracts/NFTMarket.sol\":949:1614  function buyNFT(uint tokenID, uint amount) external returns (bool){... */\n    tag_3:\n      tag_9\n      0x04\n      dup1\n      calldatasize\n      sub\n      dup2\n      add\n      swap1\n      tag_10\n      swap2\n      swap1\n      tag_11\n      jump\t// in\n    tag_10:\n      tag_12\n      jump\t// in\n    tag_9:\n      mload(0x40)\n      tag_13\n      swap2\n      swap1\n      tag_14\n      jump\t// in\n    tag_13:\n      mload(0x40)\n      dup1\n      swap2\n      sub\n      swap1\n      return\n        /* \"contracts/NFTMarket.sol\":578:918  function list(uint tokenId,uint amount) external  returns (bool){... */\n    tag_4:\n      tag_15\n      0x04\n      dup1\n      calldatasize\n      sub\n      dup2\n      add\n      swap1\n      tag_16\n      swap2\n      swap1\n      tag_11\n      jump\t// in\n    tag_16:\n      tag_17\n      jump\t// in\n    tag_15:\n      mload(0x40)\n      tag_18\n      swap2\n      swap1\n      tag_14\n      jump\t// in\n    tag_18:\n      mload(0x40)\n      dup1\n      swap2\n      sub\n      swap1\n      return\n        /* \"contracts/NFTMarket.sol\":203:229  IERC721 public erc721Token */\n    tag_5:\n      tag_19\n      tag_20\n      jump\t// in\n    tag_19:\n      mload(0x40)\n      tag_21\n      swap2\n      swap1\n      tag_22\n      jump\t// in\n    tag_21:\n      mload(0x40)\n      dup1\n      swap2\n      sub\n      swap1\n      return\n        /* \"contracts/NFTMarket.sol\":172:196  IERC20 public erc20Token */\n    tag_6:\n      tag_23\n      tag_24\n      jump\t// in\n    tag_23:\n      mload(0x40)\n      tag_25\n      swap2\n      swap1\n      tag_26\n      jump\t// in\n    tag_25:\n      mload(0x40)\n      dup1\n      swap2\n      sub\n      swap1\n      return\n        /* \"contracts/NFTMarket.sol\":1852:2850  function tokensReceived(address from,uint amount,bytes calldata data) external returns (bool){... */\n    tag_7:\n      tag_27\n      0x04\n      dup1\n      calldatasize\n      sub\n      dup2\n      add\n      swap1\n      tag_28\n      swap2\n      swap1\n      tag_29\n      jump\t// in\n    tag_28:\n      tag_30\n      jump\t// in\n    tag_27:\n      mload(0x40)\n      tag_31\n      swap2\n      swap1\n      tag_14\n      jump\t// in\n    tag_31:\n      mload(0x40)\n      dup1\n      swap2\n      sub\n      swap1\n      return\n        /* \"contracts/NFTMarket.sol\":391:429  mapping (uint =>uint)public tokenPrice */\n    tag_8:\n      tag_32\n      0x04\n      dup1\n      calldatasize\n      sub\n      dup2\n      add\n      swap1\n      tag_33\n      swap2\n      swap1\n      tag_34\n      jump\t// in\n    tag_33:\n      tag_35\n      jump\t// in\n    tag_32:\n      mload(0x40)\n      tag_36\n      swap2\n      swap1\n      tag_37\n      jump\t// in\n    tag_36:\n      mload(0x40)\n      dup1\n      swap2\n      sub\n      swap1\n      return\n        /* \"contracts/NFTMarket.sol\":949:1614  function buyNFT(uint tokenID, uint amount) external returns (bool){... */\n    tag_12:\n        /* \"contracts/NFTMarket.sol\":1010:1014  bool */\n      0x00\n        /* \"contracts/NFTMarket.sol\":1043:1044  0 */\n      0x00\n        /* \"contracts/NFTMarket.sol\":1034:1041  tokenID */\n      dup4\n        /* \"contracts/NFTMarket.sol\":1034:1044  tokenID!=0 */\n      eq\n      iszero\n        /* \"contracts/NFTMarket.sol\":1034:1057  tokenID!=0 && amount >0 */\n      dup1\n      iszero\n      tag_39\n      jumpi\n      pop\n        /* \"contracts/NFTMarket.sol\":1056:1057  0 */\n      0x00\n        /* \"contracts/NFTMarket.sol\":1048:1054  amount */\n      dup3\n        /* \"contracts/NFTMarket.sol\":1048:1057  amount >0 */\n      gt\n        /* \"contracts/NFTMarket.sol\":1034:1057  tokenID!=0 && amount >0 */\n    tag_39:\n        /* \"contracts/NFTMarket.sol\":1026:1093  require(tokenID!=0 && amount >0,\"tokenId must !=0, amount must >0\") */\n      tag_40\n      jumpi\n      mload(0x40)\n      0x08c379a000000000000000000000000000000000000000000000000000000000\n      dup2\n      mstore\n      0x04\n      add\n      tag_41\n      swap1\n      tag_42\n      jump\t// in\n    tag_41:\n      mload(0x40)\n      dup1\n      swap2\n      sub\n      swap1\n      revert\n    tag_40:\n        /* \"contracts/NFTMarket.sol\":1104:1122  address NFTOwnerOf */\n      0x00\n        /* \"contracts/NFTMarket.sol\":1125:1136  erc721Token */\n      0x01\n      0x00\n      swap1\n      sload\n      swap1\n      0x0100\n      exp\n      swap1\n      div\n      0xffffffffffffffffffffffffffffffffffffffff\n      and\n        /* \"contracts/NFTMarket.sol\":1125:1144  erc721Token.ownerOf */\n      0xffffffffffffffffffffffffffffffffffffffff\n      and\n      0x6352211e\n        /* \"contracts/NFTMarket.sol\":1145:1152  tokenID */\n      dup6\n        /* \"contracts/NFTMarket.sol\":1125:1153  erc721Token.ownerOf(tokenID) */\n      mload(0x40)\n      dup3\n      0xffffffff\n      and\n      0xe0\n      shl\n      dup2\n      mstore\n      0x04\n      add\n      tag_43\n      swap2\n      swap1\n      tag_37\n      jump\t// in\n    tag_43:\n      0x20\n      mload(0x40)\n      dup1\n      dup4\n      sub\n      dup2\n      dup7\n      gas\n      staticcall\n      iszero\n      dup1\n      iszero\n      tag_45\n      jumpi\n      returndatacopy(0x00, 0x00, returndatasize)\n      revert(0x00, returndatasize)\n    tag_45:\n      pop\n      pop\n      pop\n      pop\n      mload(0x40)\n      returndatasize\n      not(0x1f)\n      0x1f\n      dup3\n      add\n      and\n      dup3\n      add\n      dup1\n      0x40\n      mstore\n      pop\n      dup2\n      add\n      swap1\n      tag_46\n      swap2\n      swap1\n      tag_47\n      jump\t// in\n    tag_46:\n        /* \"contracts/NFTMarket.sol\":1104:1153  address NFTOwnerOf = erc721Token.ownerOf(tokenID) */\n      swap1\n      pop\n        /* \"contracts/NFTMarket.sol\":1206:1217  bool result */\n      0x00\n        /* \"contracts/NFTMarket.sol\":1220:1230  erc20Token */\n      0x00\n      0x00\n      swap1\n      sload\n      swap1\n      0x0100\n      exp\n      swap1\n      div\n      0xffffffffffffffffffffffffffffffffffffffff\n      and\n        /* \"contracts/NFTMarket.sol\":1220:1243  erc20Token.transferFrom */\n      0xffffffffffffffffffffffffffffffffffffffff\n      and\n      0x23b872dd\n        /* \"contracts/NFTMarket.sol\":1244:1254  msg.sender */\n      caller\n        /* \"contracts/NFTMarket.sol\":1256:1266  NFTOwnerOf */\n      dup5\n        /* \"contracts/NFTMarket.sol\":1268:1274  amount */\n      dup8\n        /* \"contracts/NFTMarket.sol\":1220:1275  erc20Token.transferFrom(msg.sender, NFTOwnerOf, amount) */\n      mload(0x40)\n      dup5\n      0xffffffff\n      and\n      0xe0\n      shl\n      dup2\n      mstore\n      0x04\n      add\n      tag_48\n      swap4\n      swap3\n      swap2\n      swap1\n      tag_49\n      jump\t// in\n    tag_48:\n      0x20\n      mload(0x40)\n      dup1\n      dup4\n      sub\n      dup2\n      0x00\n      dup8\n      gas\n      call\n      iszero\n      dup1\n      iszero\n      tag_51\n      jumpi\n      returndatacopy(0x00, 0x00, returndatasize)\n      revert(0x00, returndatasize)\n    tag_51:\n      pop\n      pop\n      pop\n      pop\n      mload(0x40)\n      returndatasize\n      not(0x1f)\n      0x1f\n      dup3\n      add\n      and\n      dup3\n      add\n      dup1\n      0x40\n      mstore\n      pop\n      dup2\n      add\n      swap1\n      tag_52\n      swap2\n      swap1\n      tag_53\n      jump\t// in\n    tag_52:\n        /* \"contracts/NFTMarket.sol\":1206:1275  bool result = erc20Token.transferFrom(msg.sender, NFTOwnerOf, amount) */\n      swap1\n      pop\n        /* \"contracts/NFTMarket.sol\":1291:1297  result */\n      dup1\n        /* \"contracts/NFTMarket.sol\":1286:1353  if (!result){... */\n      tag_54\n      jumpi\n        /* \"contracts/NFTMarket.sol\":1313:1341  revert(\"transferFrom error\") */\n      mload(0x40)\n      0x08c379a000000000000000000000000000000000000000000000000000000000\n      dup2\n      mstore\n      0x04\n      add\n      tag_55\n      swap1\n      tag_56\n      jump\t// in\n    tag_55:\n      mload(0x40)\n      dup1\n      swap2\n      sub\n      swap1\n      revert\n        /* \"contracts/NFTMarket.sol\":1286:1353  if (!result){... */\n    tag_54:\n        /* \"contracts/NFTMarket.sol\":1405:1416  erc721Token */\n      0x01\n      0x00\n      swap1\n      sload\n      swap1\n      0x0100\n      exp\n      swap1\n      div\n      0xffffffffffffffffffffffffffffffffffffffff\n      and\n        /* \"contracts/NFTMarket.sol\":1405:1434  erc721Token. safeTransferFrom */\n      0xffffffffffffffffffffffffffffffffffffffff\n      and\n      0x42842e0e\n        /* \"contracts/NFTMarket.sol\":1435:1445  NFTOwnerOf */\n      dup4\n        /* \"contracts/NFTMarket.sol\":1447:1457  msg.sender */\n      caller\n        /* \"contracts/NFTMarket.sol\":1459:1466  tokenID */\n      dup9\n        /* \"contracts/NFTMarket.sol\":1405:1467  erc721Token. safeTransferFrom(NFTOwnerOf, msg.sender, tokenID) */\n      mload(0x40)\n      dup5\n      0xffffffff\n      and\n      0xe0\n      shl\n      dup2\n      mstore\n      0x04\n      add\n      tag_57\n      swap4\n      swap3\n      swap2\n      swap1\n      tag_49\n      jump\t// in\n    tag_57:\n      0x00\n      mload(0x40)\n      dup1\n      dup4\n      sub\n      dup2\n      0x00\n      dup8\n      dup1\n      extcodesize\n      iszero\n      dup1\n      iszero\n      tag_58\n      jumpi\n      revert(0x00, 0x00)\n    tag_58:\n      pop\n      gas\n      call\n      iszero\n      dup1\n      iszero\n      tag_60\n      jumpi\n      returndatacopy(0x00, 0x00, returndatasize)\n      revert(0x00, returndatasize)\n    tag_60:\n      pop\n      pop\n      pop\n      pop\n        /* \"contracts/NFTMarket.sol\":1513:1523  tokenPrice */\n      0x02\n        /* \"contracts/NFTMarket.sol\":1513:1532  tokenPrice[tokenID] */\n      0x00\n        /* \"contracts/NFTMarket.sol\":1524:1531  tokenID */\n      dup7\n        /* \"contracts/NFTMarket.sol\":1513:1532  tokenPrice[tokenID] */\n      dup2\n      mstore\n      0x20\n      add\n      swap1\n      dup2\n      mstore\n      0x20\n      add\n      0x00\n      keccak256\n        /* \"contracts/NFTMarket.sol\":1506:1532  delete tokenPrice[tokenID] */\n      0x00\n      swap1\n      sstore\n        /* \"contracts/NFTMarket.sol\":1548:1581  BuyNFT(msg.sender,tokenID,amount) */\n      0x5d963241241cfe9e161d13500d628058954b3febfde03e4b1f4071370e72fe2b\n        /* \"contracts/NFTMarket.sol\":1555:1565  msg.sender */\n      caller\n        /* \"contracts/NFTMarket.sol\":1566:1573  tokenID */\n      dup7\n        /* \"contracts/NFTMarket.sol\":1574:1580  amount */\n      dup7\n        /* \"contracts/NFTMarket.sol\":1548:1581  BuyNFT(msg.sender,tokenID,amount) */\n      mload(0x40)\n      tag_61\n      swap4\n      swap3\n      swap2\n      swap1\n      tag_62\n      jump\t// in\n    tag_61:\n      mload(0x40)\n      dup1\n      swap2\n      sub\n      swap1\n      log1\n        /* \"contracts/NFTMarket.sol\":1601:1605  true */\n      0x01\n        /* \"contracts/NFTMarket.sol\":1594:1605  return true */\n      swap3\n      pop\n      pop\n      pop\n        /* \"contracts/NFTMarket.sol\":949:1614  function buyNFT(uint tokenID, uint amount) external returns (bool){... */\n      swap3\n      swap2\n      pop\n      pop\n      jump\t// out\n        /* \"contracts/NFTMarket.sol\":578:918  function list(uint tokenId,uint amount) external  returns (bool){... */\n    tag_17:\n        /* \"contracts/NFTMarket.sol\":637:641  bool */\n      0x00\n        /* \"contracts/NFTMarket.sol\":670:671  0 */\n      0x00\n        /* \"contracts/NFTMarket.sol\":661:668  tokenId */\n      dup4\n        /* \"contracts/NFTMarket.sol\":661:671  tokenId!=0 */\n      eq\n      iszero\n        /* \"contracts/NFTMarket.sol\":661:684  tokenId!=0 && amount >0 */\n      dup1\n      iszero\n      tag_64\n      jumpi\n      pop\n        /* \"contracts/NFTMarket.sol\":683:684  0 */\n      0x00\n        /* \"contracts/NFTMarket.sol\":675:681  amount */\n      dup3\n        /* \"contracts/NFTMarket.sol\":675:684  amount >0 */\n      gt\n        /* \"contracts/NFTMarket.sol\":661:684  tokenId!=0 && amount >0 */\n    tag_64:\n        /* \"contracts/NFTMarket.sol\":653:720  require(tokenId!=0 && amount >0,\"tokenId must !=0, amount must >0\") */\n      tag_65\n      jumpi\n      mload(0x40)\n      0x08c379a000000000000000000000000000000000000000000000000000000000\n      dup2\n      mstore\n      0x04\n      add\n      tag_66\n      swap1\n      tag_42\n      jump\t// in\n    tag_66:\n      mload(0x40)\n      dup1\n      swap2\n      sub\n      swap1\n      revert\n    tag_65:\n        /* \"contracts/NFTMarket.sol\":769:779  msg.sender */\n      caller\n        /* \"contracts/NFTMarket.sol\":739:779  erc721Token.ownerOf(tokenId)==msg.sender */\n      0xffffffffffffffffffffffffffffffffffffffff\n      and\n        /* \"contracts/NFTMarket.sol\":739:750  erc721Token */\n      0x01\n      0x00\n      swap1\n      sload\n      swap1\n      0x0100\n      exp\n      swap1\n      div\n      0xffffffffffffffffffffffffffffffffffffffff\n      and\n        /* \"contracts/NFTMarket.sol\":739:758  erc721Token.ownerOf */\n      0xffffffffffffffffffffffffffffffffffffffff\n      and\n      0x6352211e\n        /* \"contracts/NFTMarket.sol\":759:766  tokenId */\n      dup6\n        /* \"contracts/NFTMarket.sol\":739:767  erc721Token.ownerOf(tokenId) */\n      mload(0x40)\n      dup3\n      0xffffffff\n      and\n      0xe0\n      shl\n      dup2\n      mstore\n      0x04\n      add\n      tag_67\n      swap2\n      swap1\n      tag_37\n      jump\t// in\n    tag_67:\n      0x20\n      mload(0x40)\n      dup1\n      dup4\n      sub\n      dup2\n      dup7\n      gas\n      staticcall\n      iszero\n      dup1\n      iszero\n      tag_69\n      jumpi\n      returndatacopy(0x00, 0x00, returndatasize)\n      revert(0x00, returndatasize)\n    tag_69:\n      pop\n      pop\n      pop\n      pop\n      mload(0x40)\n      returndatasize\n      not(0x1f)\n      0x1f\n      dup3\n      add\n      and\n      dup3\n      add\n      dup1\n      0x40\n      mstore\n      pop\n      dup2\n      add\n      swap1\n      tag_70\n      swap2\n      swap1\n      tag_47\n      jump\t// in\n    tag_70:\n        /* \"contracts/NFTMarket.sol\":739:779  erc721Token.ownerOf(tokenId)==msg.sender */\n      0xffffffffffffffffffffffffffffffffffffffff\n      and\n      eq\n        /* \"contracts/NFTMarket.sol\":731:800  require(erc721Token.ownerOf(tokenId)==msg.sender,\"you are not owner\") */\n      tag_71\n      jumpi\n      mload(0x40)\n      0x08c379a000000000000000000000000000000000000000000000000000000000\n      dup2\n      mstore\n      0x04\n      add\n      tag_72\n      swap1\n      tag_73\n      jump\t// in\n    tag_72:\n      mload(0x40)\n      dup1\n      swap2\n      sub\n      swap1\n      revert\n    tag_71:\n        /* \"contracts/NFTMarket.sol\":833:839  amount */\n      dup2\n        /* \"contracts/NFTMarket.sol\":811:821  tokenPrice */\n      0x02\n        /* \"contracts/NFTMarket.sol\":811:830  tokenPrice[tokenId] */\n      0x00\n        /* \"contracts/NFTMarket.sol\":822:829  tokenId */\n      dup6\n        /* \"contracts/NFTMarket.sol\":811:830  tokenPrice[tokenId] */\n      dup2\n      mstore\n      0x20\n      add\n      swap1\n      dup2\n      mstore\n      0x20\n      add\n      0x00\n      keccak256\n        /* \"contracts/NFTMarket.sol\":811:839  tokenPrice[tokenId] = amount */\n      dup2\n      swap1\n      sstore\n      pop\n        /* \"contracts/NFTMarket.sol\":855:887  List(tokenId,msg.sender, amount) */\n      0x656fea2aeb2af9841f5b2d9a77be15564d1a00f76fff68c5435aec927eb4d5d6\n        /* \"contracts/NFTMarket.sol\":860:867  tokenId */\n      dup4\n        /* \"contracts/NFTMarket.sol\":868:878  msg.sender */\n      caller\n        /* \"contracts/NFTMarket.sol\":880:886  amount */\n      dup5\n        /* \"contracts/NFTMarket.sol\":855:887  List(tokenId,msg.sender, amount) */\n      mload(0x40)\n      tag_74\n      swap4\n      swap3\n      swap2\n      swap1\n      tag_75\n      jump\t// in\n    tag_74:\n      mload(0x40)\n      dup1\n      swap2\n      sub\n      swap1\n      log1\n        /* \"contracts/NFTMarket.sol\":905:909  true */\n      0x01\n        /* \"contracts/NFTMarket.sol\":898:909  return true */\n      swap1\n      pop\n        /* \"contracts/NFTMarket.sol\":578:918  function list(uint tokenId,uint amount) external  returns (bool){... */\n      swap3\n      swap2\n      pop\n      pop\n      jump\t// out\n        /* \"contracts/NFTMarket.sol\":203:229  IERC721 public erc721Token */\n    tag_20:\n      0x01\n      0x00\n      swap1\n      sload\n      swap1\n      0x0100\n      exp\n      swap1\n      div\n      0xffffffffffffffffffffffffffffffffffffffff\n      and\n      dup2\n      jump\t// out\n        /* \"contracts/NFTMarket.sol\":172:196  IERC20 public erc20Token */\n    tag_24:\n      0x00\n      0x00\n      swap1\n      sload\n      swap1\n      0x0100\n      exp\n      swap1\n      div\n      0xffffffffffffffffffffffffffffffffffffffff\n      and\n      dup2\n      jump\t// out\n        /* \"contracts/NFTMarket.sol\":1852:2850  function tokensReceived(address from,uint amount,bytes calldata data) external returns (bool){... */\n    tag_30:\n        /* \"contracts/NFTMarket.sol\":1940:1944  bool */\n      0x00\n        /* \"contracts/NFTMarket.sol\":1986:1996  erc20Token */\n      0x00\n      0x00\n      swap1\n      sload\n      swap1\n      0x0100\n      exp\n      swap1\n      div\n      0xffffffffffffffffffffffffffffffffffffffff\n      and\n        /* \"contracts/NFTMarket.sol\":1964:1997  msg.sender == address(erc20Token) */\n      0xffffffffffffffffffffffffffffffffffffffff\n      and\n        /* \"contracts/NFTMarket.sol\":1964:1974  msg.sender */\n      caller\n        /* \"contracts/NFTMarket.sol\":1964:1997  msg.sender == address(erc20Token) */\n      0xffffffffffffffffffffffffffffffffffffffff\n      and\n      eq\n        /* \"contracts/NFTMarket.sol\":1956:2040  require(msg.sender == address(erc20Token), \"only erc20Token can call this function\") */\n      tag_77\n      jumpi\n      mload(0x40)\n      0x08c379a000000000000000000000000000000000000000000000000000000000\n      dup2\n      mstore\n      0x04\n      add\n      tag_78\n      swap1\n      tag_79\n      jump\t// in\n    tag_78:\n      mload(0x40)\n      dup1\n      swap2\n      sub\n      swap1\n      revert\n    tag_77:\n        /* \"contracts/NFTMarket.sol\":2103:2118  uint256 tokenId */\n      0x00\n        /* \"contracts/NFTMarket.sol\":2132:2136  data */\n      dup4\n      dup4\n        /* \"contracts/NFTMarket.sol\":2121:2148  abi.decode(data, (uint256)) */\n      dup2\n      add\n      swap1\n      tag_80\n      swap2\n      swap1\n      tag_34\n      jump\t// in\n    tag_80:\n        /* \"contracts/NFTMarket.sol\":2103:2148  uint256 tokenId = abi.decode(data, (uint256)) */\n      swap1\n      pop\n        /* \"contracts/NFTMarket.sol\":2188:2189  0 */\n      0x00\n        /* \"contracts/NFTMarket.sol\":2167:2177  tokenPrice */\n      0x02\n        /* \"contracts/NFTMarket.sol\":2167:2186  tokenPrice[tokenId] */\n      0x00\n        /* \"contracts/NFTMarket.sol\":2178:2185  tokenId */\n      dup4\n        /* \"contracts/NFTMarket.sol\":2167:2186  tokenPrice[tokenId] */\n      dup2\n      mstore\n      0x20\n      add\n      swap1\n      dup2\n      mstore\n      0x20\n      add\n      0x00\n      keccak256\n      sload\n        /* \"contracts/NFTMarket.sol\":2167:2189  tokenPrice[tokenId]!=0 */\n      sub\n        /* \"contracts/NFTMarket.sol\":2159:2219  require(tokenPrice[tokenId]!=0,\"Market: token not for sale\") */\n      tag_81\n      jumpi\n      mload(0x40)\n      0x08c379a000000000000000000000000000000000000000000000000000000000\n      dup2\n      mstore\n      0x04\n      add\n      tag_82\n      swap1\n      tag_83\n      jump\t// in\n    tag_82:\n      mload(0x40)\n      dup1\n      swap2\n      sub\n      swap1\n      revert\n    tag_81:\n        /* \"contracts/NFTMarket.sol\":2246:2256  tokenPrice */\n      0x02\n        /* \"contracts/NFTMarket.sol\":2246:2265  tokenPrice[tokenId] */\n      0x00\n        /* \"contracts/NFTMarket.sol\":2257:2264  tokenId */\n      dup3\n        /* \"contracts/NFTMarket.sol\":2246:2265  tokenPrice[tokenId] */\n      dup2\n      mstore\n      0x20\n      add\n      swap1\n      dup2\n      mstore\n      0x20\n      add\n      0x00\n      keccak256\n      sload\n        /* \"contracts/NFTMarket.sol\":2238:2244  amount */\n      dup6\n        /* \"contracts/NFTMarket.sol\":2238:2265  amount>=tokenPrice[tokenId] */\n      lt\n      iszero\n        /* \"contracts/NFTMarket.sol\":2230:2297  require(amount>=tokenPrice[tokenId],\" Market: insufficient amount\") */\n      tag_84\n      jumpi\n      mload(0x40)\n      0x08c379a000000000000000000000000000000000000000000000000000000000\n      dup2\n      mstore\n      0x04\n      add\n      tag_85\n      swap1\n      tag_86\n      jump\t// in\n    tag_85:\n      mload(0x40)\n      dup1\n      swap2\n      sub\n      swap1\n      revert\n    tag_84:\n        /* \"contracts/NFTMarket.sol\":2327:2341  address seller */\n      0x00\n        /* \"contracts/NFTMarket.sol\":2344:2355  erc721Token */\n      0x01\n      0x00\n      swap1\n      sload\n      swap1\n      0x0100\n      exp\n      swap1\n      div\n      0xffffffffffffffffffffffffffffffffffffffff\n      and\n        /* \"contracts/NFTMarket.sol\":2344:2363  erc721Token.ownerOf */\n      0xffffffffffffffffffffffffffffffffffffffff\n      and\n      0x6352211e\n        /* \"contracts/NFTMarket.sol\":2364:2371  tokenId */\n      dup4\n        /* \"contracts/NFTMarket.sol\":2344:2372  erc721Token.ownerOf(tokenId) */\n      mload(0x40)\n      dup3\n      0xffffffff\n      and\n      0xe0\n      shl\n      dup2\n      mstore\n      0x04\n      add\n      tag_87\n      swap2\n      swap1\n      tag_37\n      jump\t// in\n    tag_87:\n      0x20\n      mload(0x40)\n      dup1\n      dup4\n      sub\n      dup2\n      dup7\n      gas\n      staticcall\n      iszero\n      dup1\n      iszero\n      tag_89\n      jumpi\n      returndatacopy(0x00, 0x00, returndatasize)\n      revert(0x00, returndatasize)\n    tag_89:\n      pop\n      pop\n      pop\n      pop\n      mload(0x40)\n      returndatasize\n      not(0x1f)\n      0x1f\n      dup3\n      add\n      and\n      dup3\n      add\n      dup1\n      0x40\n      mstore\n      pop\n      dup2\n      add\n      swap1\n      tag_90\n      swap2\n      swap1\n      tag_47\n      jump\t// in\n    tag_90:\n        /* \"contracts/NFTMarket.sol\":2327:2372  address seller = erc721Token.ownerOf(tokenId) */\n      swap1\n      pop\n        /* \"contracts/NFTMarket.sol\":2422:2432  erc20Token */\n      0x00\n      0x00\n      swap1\n      sload\n      swap1\n      0x0100\n      exp\n      swap1\n      div\n      0xffffffffffffffffffffffffffffffffffffffff\n      and\n        /* \"contracts/NFTMarket.sol\":2422:2441  erc20Token.transfer */\n      0xffffffffffffffffffffffffffffffffffffffff\n      and\n      0xa9059cbb\n        /* \"contracts/NFTMarket.sol\":2442:2448  seller */\n      dup3\n        /* \"contracts/NFTMarket.sol\":2449:2459  tokenPrice */\n      0x02\n        /* \"contracts/NFTMarket.sol\":2449:2468  tokenPrice[tokenId] */\n      0x00\n        /* \"contracts/NFTMarket.sol\":2460:2467  tokenId */\n      dup7\n        /* \"contracts/NFTMarket.sol\":2449:2468  tokenPrice[tokenId] */\n      dup2\n      mstore\n      0x20\n      add\n      swap1\n      dup2\n      mstore\n      0x20\n      add\n      0x00\n      keccak256\n      sload\n        /* \"contracts/NFTMarket.sol\":2422:2469  erc20Token.transfer(seller,tokenPrice[tokenId]) */\n      mload(0x40)\n      dup4\n      0xffffffff\n      and\n      0xe0\n      shl\n      dup2\n      mstore\n      0x04\n      add\n      tag_91\n      swap3\n      swap2\n      swap1\n      tag_92\n      jump\t// in\n    tag_91:\n      0x20\n      mload(0x40)\n      dup1\n      dup4\n      sub\n      dup2\n      0x00\n      dup8\n      gas\n      call\n      iszero\n      dup1\n      iszero\n      tag_94\n      jumpi\n      returndatacopy(0x00, 0x00, returndatasize)\n      revert(0x00, returndatasize)\n    tag_94:\n      pop\n      pop\n      pop\n      pop\n      mload(0x40)\n      returndatasize\n      not(0x1f)\n      0x1f\n      dup3\n      add\n      and\n      dup3\n      add\n      dup1\n      0x40\n      mstore\n      pop\n      dup2\n      add\n      swap1\n      tag_95\n      swap2\n      swap1\n      tag_53\n      jump\t// in\n    tag_95:\n      pop\n        /* \"contracts/NFTMarket.sol\":2528:2538  tokenPrice */\n      0x02\n        /* \"contracts/NFTMarket.sol\":2528:2547  tokenPrice[tokenId] */\n      0x00\n        /* \"contracts/NFTMarket.sol\":2539:2546  tokenId */\n      dup4\n        /* \"contracts/NFTMarket.sol\":2528:2547  tokenPrice[tokenId] */\n      dup2\n      mstore\n      0x20\n      add\n      swap1\n      dup2\n      mstore\n      0x20\n      add\n      0x00\n      keccak256\n      sload\n        /* \"contracts/NFTMarket.sol\":2521:2527  amount */\n      dup7\n        /* \"contracts/NFTMarket.sol\":2521:2547  amount>tokenPrice[tokenId] */\n      gt\n        /* \"contracts/NFTMarket.sol\":2517:2627  if (amount>tokenPrice[tokenId]){... */\n      iszero\n      tag_96\n      jumpi\n        /* \"contracts/NFTMarket.sol\":2563:2573  erc20Token */\n      0x00\n      0x00\n      swap1\n      sload\n      swap1\n      0x0100\n      exp\n      swap1\n      div\n      0xffffffffffffffffffffffffffffffffffffffff\n      and\n        /* \"contracts/NFTMarket.sol\":2563:2582  erc20Token.transfer */\n      0xffffffffffffffffffffffffffffffffffffffff\n      and\n      0xa9059cbb\n        /* \"contracts/NFTMarket.sol\":2583:2587  from */\n      dup9\n        /* \"contracts/NFTMarket.sol\":2595:2605  tokenPrice */\n      0x02\n        /* \"contracts/NFTMarket.sol\":2595:2614  tokenPrice[tokenId] */\n      0x00\n        /* \"contracts/NFTMarket.sol\":2606:2613  tokenId */\n      dup7\n        /* \"contracts/NFTMarket.sol\":2595:2614  tokenPrice[tokenId] */\n      dup2\n      mstore\n      0x20\n      add\n      swap1\n      dup2\n      mstore\n      0x20\n      add\n      0x00\n      keccak256\n      sload\n        /* \"contracts/NFTMarket.sol\":2588:2594  amount */\n      dup10\n        /* \"contracts/NFTMarket.sol\":2588:2614  amount-tokenPrice[tokenId] */\n      tag_97\n      swap2\n      swap1\n      tag_98\n      jump\t// in\n    tag_97:\n        /* \"contracts/NFTMarket.sol\":2563:2615  erc20Token.transfer(from,amount-tokenPrice[tokenId]) */\n      mload(0x40)\n      dup4\n      0xffffffff\n      and\n      0xe0\n      shl\n      dup2\n      mstore\n      0x04\n      add\n      tag_99\n      swap3\n      swap2\n      swap1\n      tag_92\n      jump\t// in\n    tag_99:\n      0x20\n      mload(0x40)\n      dup1\n      dup4\n      sub\n      dup2\n      0x00\n      dup8\n      gas\n      call\n      iszero\n      dup1\n      iszero\n      tag_101\n      jumpi\n      returndatacopy(0x00, 0x00, returndatasize)\n      revert(0x00, returndatasize)\n    tag_101:\n      pop\n      pop\n      pop\n      pop\n      mload(0x40)\n      returndatasize\n      not(0x1f)\n      0x1f\n      dup3\n      add\n      and\n      dup3\n      add\n      dup1\n      0x40\n      mstore\n      pop\n      dup2\n      add\n      swap1\n      tag_102\n      swap2\n      swap1\n      tag_53\n      jump\t// in\n    tag_102:\n      pop\n        /* \"contracts/NFTMarket.sol\":2517:2627  if (amount>tokenPrice[tokenId]){... */\n    tag_96:\n        /* \"contracts/NFTMarket.sol\":2660:2671  erc721Token */\n      0x01\n      0x00\n      swap1\n      sload\n      swap1\n      0x0100\n      exp\n      swap1\n      div\n      0xffffffffffffffffffffffffffffffffffffffff\n      and\n        /* \"contracts/NFTMarket.sol\":2660:2688  erc721Token.safeTransferFrom */\n      0xffffffffffffffffffffffffffffffffffffffff\n      and\n      0x42842e0e\n        /* \"contracts/NFTMarket.sol\":2689:2695  seller */\n      dup3\n        /* \"contracts/NFTMarket.sol\":2696:2700  from */\n      dup10\n        /* \"contracts/NFTMarket.sol\":2701:2708  tokenId */\n      dup6\n        /* \"contracts/NFTMarket.sol\":2660:2709  erc721Token.safeTransferFrom(seller,from,tokenId) */\n      mload(0x40)\n      dup5\n      0xffffffff\n      and\n      0xe0\n      shl\n      dup2\n      mstore\n      0x04\n      add\n      tag_103\n      swap4\n      swap3\n      swap2\n      swap1\n      tag_49\n      jump\t// in\n    tag_103:\n      0x00\n      mload(0x40)\n      dup1\n      dup4\n      sub\n      dup2\n      0x00\n      dup8\n      dup1\n      extcodesize\n      iszero\n      dup1\n      iszero\n      tag_104\n      jumpi\n      revert(0x00, 0x00)\n    tag_104:\n      pop\n      gas\n      call\n      iszero\n      dup1\n      iszero\n      tag_106\n      jumpi\n      returndatacopy(0x00, 0x00, returndatasize)\n      revert(0x00, returndatasize)\n    tag_106:\n      pop\n      pop\n      pop\n      pop\n        /* \"contracts/NFTMarket.sol\":2757:2767  tokenPrice */\n      0x02\n        /* \"contracts/NFTMarket.sol\":2757:2776  tokenPrice[tokenId] */\n      0x00\n        /* \"contracts/NFTMarket.sol\":2768:2775  tokenId */\n      dup4\n        /* \"contracts/NFTMarket.sol\":2757:2776  tokenPrice[tokenId] */\n      dup2\n      mstore\n      0x20\n      add\n      swap1\n      dup2\n      mstore\n      0x20\n      add\n      0x00\n      keccak256\n        /* \"contracts/NFTMarket.sol\":2750:2776  delete tokenPrice[tokenId] */\n      0x00\n      swap1\n      sstore\n        /* \"contracts/NFTMarket.sol\":2792:2819  BuyNFT(from,tokenId,amount) */\n      0x5d963241241cfe9e161d13500d628058954b3febfde03e4b1f4071370e72fe2b\n        /* \"contracts/NFTMarket.sol\":2799:2803  from */\n      dup8\n        /* \"contracts/NFTMarket.sol\":2804:2811  tokenId */\n      dup4\n        /* \"contracts/NFTMarket.sol\":2812:2818  amount */\n      dup9\n        /* \"contracts/NFTMarket.sol\":2792:2819  BuyNFT(from,tokenId,amount) */\n      mload(0x40)\n      tag_107\n      swap4\n      swap3\n      swap2\n      swap1\n      tag_62\n      jump\t// in\n    tag_107:\n      mload(0x40)\n      dup1\n      swap2\n      sub\n      swap1\n      log1\n        /* \"contracts/NFTMarket.sol\":2837:2841  true */\n      0x01\n        /* \"contracts/NFTMarket.sol\":2830:2841  return true */\n      swap3\n      pop\n      pop\n      pop\n        /* \"contracts/NFTMarket.sol\":1852:2850  function tokensReceived(address from,uint amount,bytes calldata data) external returns (bool){... */\n      swap5\n      swap4\n      pop\n      pop\n      pop\n      pop\n      jump\t// out\n        /* \"contracts/NFTMarket.sol\":391:429  mapping (uint =>uint)public tokenPrice */\n    tag_35:\n      mstore(0x20, 0x02)\n      dup1\n      0x00\n      mstore\n      keccak256(0x00, 0x40)\n      0x00\n      swap2\n      pop\n      swap1\n      pop\n      sload\n      dup2\n      jump\t// out\n        /* \"#utility.yul\":88:205   */\n    tag_109:\n        /* \"#utility.yul\":197:198   */\n      0x00\n        /* \"#utility.yul\":194:195   */\n      0x00\n        /* \"#utility.yul\":187:199   */\n      revert\n        /* \"#utility.yul\":211:328   */\n    tag_110:\n        /* \"#utility.yul\":320:321   */\n      0x00\n        /* \"#utility.yul\":317:318   */\n      0x00\n        /* \"#utility.yul\":310:322   */\n      revert\n        /* \"#utility.yul\":334:411   */\n    tag_111:\n        /* \"#utility.yul\":371:378   */\n      0x00\n        /* \"#utility.yul\":400:405   */\n      dup2\n        /* \"#utility.yul\":389:405   */\n      swap1\n      pop\n        /* \"#utility.yul\":334:411   */\n      swap2\n      swap1\n      pop\n      jump\t// out\n        /* \"#utility.yul\":417:539   */\n    tag_112:\n        /* \"#utility.yul\":490:514   */\n      tag_156\n        /* \"#utility.yul\":508:513   */\n      dup2\n        /* \"#utility.yul\":490:514   */\n      tag_111\n      jump\t// in\n    tag_156:\n        /* \"#utility.yul\":483:488   */\n      dup2\n        /* \"#utility.yul\":480:515   */\n      eq\n        /* \"#utility.yul\":470:533   */\n      tag_157\n      jumpi\n        /* \"#utility.yul\":529:530   */\n      0x00\n        /* \"#utility.yul\":526:527   */\n      0x00\n        /* \"#utility.yul\":519:531   */\n      revert\n        /* \"#utility.yul\":470:533   */\n    tag_157:\n        /* \"#utility.yul\":417:539   */\n      pop\n      jump\t// out\n        /* \"#utility.yul\":545:684   */\n    tag_113:\n        /* \"#utility.yul\":591:596   */\n      0x00\n        /* \"#utility.yul\":629:635   */\n      dup2\n        /* \"#utility.yul\":616:636   */\n      calldataload\n        /* \"#utility.yul\":607:636   */\n      swap1\n      pop\n        /* \"#utility.yul\":645:678   */\n      tag_159\n        /* \"#utility.yul\":672:677   */\n      dup2\n        /* \"#utility.yul\":645:678   */\n      tag_112\n      jump\t// in\n    tag_159:\n        /* \"#utility.yul\":545:684   */\n      swap3\n      swap2\n      pop\n      pop\n      jump\t// out\n        /* \"#utility.yul\":690:1164   */\n    tag_11:\n        /* \"#utility.yul\":758:764   */\n      0x00\n        /* \"#utility.yul\":766:772   */\n      0x00\n        /* \"#utility.yul\":815:817   */\n      0x40\n        /* \"#utility.yul\":803:812   */\n      dup4\n        /* \"#utility.yul\":794:801   */\n      dup6\n        /* \"#utility.yul\":790:813   */\n      sub\n        /* \"#utility.yul\":786:818   */\n      slt\n        /* \"#utility.yul\":783:902   */\n      iszero\n      tag_161\n      jumpi\n        /* \"#utility.yul\":821:900   */\n      tag_162\n      tag_109\n      jump\t// in\n    tag_162:\n        /* \"#utility.yul\":783:902   */\n    tag_161:\n        /* \"#utility.yul\":941:942   */\n      0x00\n        /* \"#utility.yul\":966:1019   */\n      tag_163\n        /* \"#utility.yul\":1011:1018   */\n      dup6\n        /* \"#utility.yul\":1002:1008   */\n      dup3\n        /* \"#utility.yul\":991:1000   */\n      dup7\n        /* \"#utility.yul\":987:1009   */\n      add\n        /* \"#utility.yul\":966:1019   */\n      tag_113\n      jump\t// in\n    tag_163:\n        /* \"#utility.yul\":956:1019   */\n      swap3\n      pop\n        /* \"#utility.yul\":912:1029   */\n      pop\n        /* \"#utility.yul\":1068:1070   */\n      0x20\n        /* \"#utility.yul\":1094:1147   */\n      tag_164\n        /* \"#utility.yul\":1139:1146   */\n      dup6\n        /* \"#utility.yul\":1130:1136   */\n      dup3\n        /* \"#utility.yul\":1119:1128   */\n      dup7\n        /* \"#utility.yul\":1115:1137   */\n      add\n        /* \"#utility.yul\":1094:1147   */\n      tag_113\n      jump\t// in\n    tag_164:\n        /* \"#utility.yul\":1084:1147   */\n      swap2\n      pop\n        /* \"#utility.yul\":1039:1157   */\n      pop\n        /* \"#utility.yul\":690:1164   */\n      swap3\n      pop\n      swap3\n      swap1\n      pop\n      jump\t// out\n        /* \"#utility.yul\":1170:1260   */\n    tag_114:\n        /* \"#utility.yul\":1204:1211   */\n      0x00\n        /* \"#utility.yul\":1247:1252   */\n      dup2\n        /* \"#utility.yul\":1240:1253   */\n      iszero\n        /* \"#utility.yul\":1233:1254   */\n      iszero\n        /* \"#utility.yul\":1222:1254   */\n      swap1\n      pop\n        /* \"#utility.yul\":1170:1260   */\n      swap2\n      swap1\n      pop\n      jump\t// out\n        /* \"#utility.yul\":1266:1375   */\n    tag_115:\n        /* \"#utility.yul\":1347:1368   */\n      tag_167\n        /* \"#utility.yul\":1362:1367   */\n      dup2\n        /* \"#utility.yul\":1347:1368   */\n      tag_114\n      jump\t// in\n    tag_167:\n        /* \"#utility.yul\":1342:1345   */\n      dup3\n        /* \"#utility.yul\":1335:1369   */\n      mstore\n        /* \"#utility.yul\":1266:1375   */\n      pop\n      pop\n      jump\t// out\n        /* \"#utility.yul\":1381:1591   */\n    tag_14:\n        /* \"#utility.yul\":1468:1472   */\n      0x00\n        /* \"#utility.yul\":1506:1508   */\n      0x20\n        /* \"#utility.yul\":1495:1504   */\n      dup3\n        /* \"#utility.yul\":1491:1509   */\n      add\n        /* \"#utility.yul\":1483:1509   */\n      swap1\n      pop\n        /* \"#utility.yul\":1519:1584   */\n      tag_169\n        /* \"#utility.yul\":1581:1582   */\n      0x00\n        /* \"#utility.yul\":1570:1579   */\n      dup4\n        /* \"#utility.yul\":1566:1583   */\n      add\n        /* \"#utility.yul\":1557:1563   */\n      dup5\n        /* \"#utility.yul\":1519:1584   */\n      tag_115\n      jump\t// in\n    tag_169:\n        /* \"#utility.yul\":1381:1591   */\n      swap3\n      swap2\n      pop\n      pop\n      jump\t// out\n        /* \"#utility.yul\":1597:1723   */\n    tag_116:\n        /* \"#utility.yul\":1634:1641   */\n      0x00\n        /* \"#utility.yul\":1674:1716   */\n      0xffffffffffffffffffffffffffffffffffffffff\n        /* \"#utility.yul\":1667:1672   */\n      dup3\n        /* \"#utility.yul\":1663:1717   */\n      and\n        /* \"#utility.yul\":1652:1717   */\n      swap1\n      pop\n        /* \"#utility.yul\":1597:1723   */\n      swap2\n      swap1\n      pop\n      jump\t// out\n        /* \"#utility.yul\":1729:1789   */\n    tag_117:\n        /* \"#utility.yul\":1757:1760   */\n      0x00\n        /* \"#utility.yul\":1778:1783   */\n      dup2\n        /* \"#utility.yul\":1771:1783   */\n      swap1\n      pop\n        /* \"#utility.yul\":1729:1789   */\n      swap2\n      swap1\n      pop\n      jump\t// out\n        /* \"#utility.yul\":1795:1937   */\n    tag_118:\n        /* \"#utility.yul\":1845:1854   */\n      0x00\n        /* \"#utility.yul\":1878:1931   */\n      tag_173\n        /* \"#utility.yul\":1896:1930   */\n      tag_174\n        /* \"#utility.yul\":1905:1929   */\n      tag_175\n        /* \"#utility.yul\":1923:1928   */\n      dup5\n        /* \"#utility.yul\":1905:1929   */\n      tag_116\n      jump\t// in\n    tag_175:\n        /* \"#utility.yul\":1896:1930   */\n      tag_117\n      jump\t// in\n    tag_174:\n        /* \"#utility.yul\":1878:1931   */\n      tag_116\n      jump\t// in\n    tag_173:\n        /* \"#utility.yul\":1865:1931   */\n      swap1\n      pop\n        /* \"#utility.yul\":1795:1937   */\n      swap2\n      swap1\n      pop\n      jump\t// out\n        /* \"#utility.yul\":1943:2069   */\n    tag_119:\n        /* \"#utility.yul\":1993:2002   */\n      0x00\n        /* \"#utility.yul\":2026:2063   */\n      tag_177\n        /* \"#utility.yul\":2057:2062   */\n      dup3\n        /* \"#utility.yul\":2026:2063   */\n      tag_118\n      jump\t// in\n    tag_177:\n        /* \"#utility.yul\":2013:2063   */\n      swap1\n      pop\n        /* \"#utility.yul\":1943:2069   */\n      swap2\n      swap1\n      pop\n      jump\t// out\n        /* \"#utility.yul\":2075:2216   */\n    tag_120:\n        /* \"#utility.yul\":2140:2149   */\n      0x00\n        /* \"#utility.yul\":2173:2210   */\n      tag_179\n        /* \"#utility.yul\":2204:2209   */\n      dup3\n        /* \"#utility.yul\":2173:2210   */\n      tag_119\n      jump\t// in\n    tag_179:\n        /* \"#utility.yul\":2160:2210   */\n      swap1\n      pop\n        /* \"#utility.yul\":2075:2216   */\n      swap2\n      swap1\n      pop\n      jump\t// out\n        /* \"#utility.yul\":2222:2383   */\n    tag_121:\n        /* \"#utility.yul\":2324:2376   */\n      tag_181\n        /* \"#utility.yul\":2370:2375   */\n      dup2\n        /* \"#utility.yul\":2324:2376   */\n      tag_120\n      jump\t// in\n    tag_181:\n        /* \"#utility.yul\":2319:2322   */\n      dup3\n        /* \"#utility.yul\":2312:2377   */\n      mstore\n        /* \"#utility.yul\":2222:2383   */\n      pop\n      pop\n      jump\t// out\n        /* \"#utility.yul\":2389:2641   */\n    tag_22:\n        /* \"#utility.yul\":2497:2501   */\n      0x00\n        /* \"#utility.yul\":2535:2537   */\n      0x20\n        /* \"#utility.yul\":2524:2533   */\n      dup3\n        /* \"#utility.yul\":2520:2538   */\n      add\n        /* \"#utility.yul\":2512:2538   */\n      swap1\n      pop\n        /* \"#utility.yul\":2548:2634   */\n      tag_183\n        /* \"#utility.yul\":2631:2632   */\n      0x00\n        /* \"#utility.yul\":2620:2629   */\n      dup4\n        /* \"#utility.yul\":2616:2633   */\n      add\n        /* \"#utility.yul\":2607:2613   */\n      dup5\n        /* \"#utility.yul\":2548:2634   */\n      tag_121\n      jump\t// in\n    tag_183:\n        /* \"#utility.yul\":2389:2641   */\n      swap3\n      swap2\n      pop\n      pop\n      jump\t// out\n        /* \"#utility.yul\":2647:2786   */\n    tag_122:\n        /* \"#utility.yul\":2710:2719   */\n      0x00\n        /* \"#utility.yul\":2743:2780   */\n      tag_185\n        /* \"#utility.yul\":2774:2779   */\n      dup3\n        /* \"#utility.yul\":2743:2780   */\n      tag_119\n      jump\t// in\n    tag_185:\n        /* \"#utility.yul\":2730:2780   */\n      swap1\n      pop\n        /* \"#utility.yul\":2647:2786   */\n      swap2\n      swap1\n      pop\n      jump\t// out\n        /* \"#utility.yul\":2792:2949   */\n    tag_123:\n        /* \"#utility.yul\":2892:2942   */\n      tag_187\n        /* \"#utility.yul\":2936:2941   */\n      dup2\n        /* \"#utility.yul\":2892:2942   */\n      tag_122\n      jump\t// in\n    tag_187:\n        /* \"#utility.yul\":2887:2890   */\n      dup3\n        /* \"#utility.yul\":2880:2943   */\n      mstore\n        /* \"#utility.yul\":2792:2949   */\n      pop\n      pop\n      jump\t// out\n        /* \"#utility.yul\":2955:3203   */\n    tag_26:\n        /* \"#utility.yul\":3061:3065   */\n      0x00\n        /* \"#utility.yul\":3099:3101   */\n      0x20\n        /* \"#utility.yul\":3088:3097   */\n      dup3\n        /* \"#utility.yul\":3084:3102   */\n      add\n        /* \"#utility.yul\":3076:3102   */\n      swap1\n      pop\n        /* \"#utility.yul\":3112:3196   */\n      tag_189\n        /* \"#utility.yul\":3193:3194   */\n      0x00\n        /* \"#utility.yul\":3182:3191   */\n      dup4\n        /* \"#utility.yul\":3178:3195   */\n      add\n        /* \"#utility.yul\":3169:3175   */\n      dup5\n        /* \"#utility.yul\":3112:3196   */\n      tag_123\n      jump\t// in\n    tag_189:\n        /* \"#utility.yul\":2955:3203   */\n      swap3\n      swap2\n      pop\n      pop\n      jump\t// out\n        /* \"#utility.yul\":3209:3305   */\n    tag_124:\n        /* \"#utility.yul\":3246:3253   */\n      0x00\n        /* \"#utility.yul\":3275:3299   */\n      tag_191\n        /* \"#utility.yul\":3293:3298   */\n      dup3\n        /* \"#utility.yul\":3275:3299   */\n      tag_116\n      jump\t// in\n    tag_191:\n        /* \"#utility.yul\":3264:3299   */\n      swap1\n      pop\n        /* \"#utility.yul\":3209:3305   */\n      swap2\n      swap1\n      pop\n      jump\t// out\n        /* \"#utility.yul\":3311:3433   */\n    tag_125:\n        /* \"#utility.yul\":3384:3408   */\n      tag_193\n        /* \"#utility.yul\":3402:3407   */\n      dup2\n        /* \"#utility.yul\":3384:3408   */\n      tag_124\n      jump\t// in\n    tag_193:\n        /* \"#utility.yul\":3377:3382   */\n      dup2\n        /* \"#utility.yul\":3374:3409   */\n      eq\n        /* \"#utility.yul\":3364:3427   */\n      tag_194\n      jumpi\n        /* \"#utility.yul\":3423:3424   */\n      0x00\n        /* \"#utility.yul\":3420:3421   */\n      0x00\n        /* \"#utility.yul\":3413:3425   */\n      revert\n        /* \"#utility.yul\":3364:3427   */\n    tag_194:\n        /* \"#utility.yul\":3311:3433   */\n      pop\n      jump\t// out\n        /* \"#utility.yul\":3439:3578   */\n    tag_126:\n        /* \"#utility.yul\":3485:3490   */\n      0x00\n        /* \"#utility.yul\":3523:3529   */\n      dup2\n        /* \"#utility.yul\":3510:3530   */\n      calldataload\n        /* \"#utility.yul\":3501:3530   */\n      swap1\n      pop\n        /* \"#utility.yul\":3539:3572   */\n      tag_196\n        /* \"#utility.yul\":3566:3571   */\n      dup2\n        /* \"#utility.yul\":3539:3572   */\n      tag_125\n      jump\t// in\n    tag_196:\n        /* \"#utility.yul\":3439:3578   */\n      swap3\n      swap2\n      pop\n      pop\n      jump\t// out\n        /* \"#utility.yul\":3584:3701   */\n    tag_127:\n        /* \"#utility.yul\":3693:3694   */\n      0x00\n        /* \"#utility.yul\":3690:3691   */\n      0x00\n        /* \"#utility.yul\":3683:3695   */\n      revert\n        /* \"#utility.yul\":3707:3824   */\n    tag_128:\n        /* \"#utility.yul\":3816:3817   */\n      0x00\n        /* \"#utility.yul\":3813:3814   */\n      0x00\n        /* \"#utility.yul\":3806:3818   */\n      revert\n        /* \"#utility.yul\":3830:3947   */\n    tag_129:\n        /* \"#utility.yul\":3939:3940   */\n      0x00\n        /* \"#utility.yul\":3936:3937   */\n      0x00\n        /* \"#utility.yul\":3929:3941   */\n      revert\n        /* \"#utility.yul\":3966:4518   */\n    tag_130:\n        /* \"#utility.yul\":4023:4031   */\n      0x00\n        /* \"#utility.yul\":4033:4039   */\n      0x00\n        /* \"#utility.yul\":4083:4086   */\n      dup4\n        /* \"#utility.yul\":4076:4080   */\n      0x1f\n        /* \"#utility.yul\":4068:4074   */\n      dup5\n        /* \"#utility.yul\":4064:4081   */\n      add\n        /* \"#utility.yul\":4060:4087   */\n      slt\n        /* \"#utility.yul\":4050:4172   */\n      tag_201\n      jumpi\n        /* \"#utility.yul\":4091:4170   */\n      tag_202\n      tag_127\n      jump\t// in\n    tag_202:\n        /* \"#utility.yul\":4050:4172   */\n    tag_201:\n        /* \"#utility.yul\":4204:4210   */\n      dup3\n        /* \"#utility.yul\":4191:4211   */\n      calldataload\n        /* \"#utility.yul\":4181:4211   */\n      swap1\n      pop\n        /* \"#utility.yul\":4234:4252   */\n      0xffffffffffffffff\n        /* \"#utility.yul\":4226:4232   */\n      dup2\n        /* \"#utility.yul\":4223:4253   */\n      gt\n        /* \"#utility.yul\":4220:4337   */\n      iszero\n      tag_203\n      jumpi\n        /* \"#utility.yul\":4256:4335   */\n      tag_204\n      tag_128\n      jump\t// in\n    tag_204:\n        /* \"#utility.yul\":4220:4337   */\n    tag_203:\n        /* \"#utility.yul\":4370:4374   */\n      0x20\n        /* \"#utility.yul\":4362:4368   */\n      dup4\n        /* \"#utility.yul\":4358:4375   */\n      add\n        /* \"#utility.yul\":4346:4375   */\n      swap2\n      pop\n        /* \"#utility.yul\":4424:4427   */\n      dup4\n        /* \"#utility.yul\":4416:4420   */\n      0x01\n        /* \"#utility.yul\":4408:4414   */\n      dup3\n        /* \"#utility.yul\":4404:4421   */\n      mul\n        /* \"#utility.yul\":4394:4402   */\n      dup4\n        /* \"#utility.yul\":4390:4422   */\n      add\n        /* \"#utility.yul\":4387:4428   */\n      gt\n        /* \"#utility.yul\":4384:4512   */\n      iszero\n      tag_205\n      jumpi\n        /* \"#utility.yul\":4431:4510   */\n      tag_206\n      tag_129\n      jump\t// in\n    tag_206:\n        /* \"#utility.yul\":4384:4512   */\n    tag_205:\n        /* \"#utility.yul\":3966:4518   */\n      swap3\n      pop\n      swap3\n      swap1\n      pop\n      jump\t// out\n        /* \"#utility.yul\":4524:5341   */\n    tag_29:\n        /* \"#utility.yul\":4612:4618   */\n      0x00\n        /* \"#utility.yul\":4620:4626   */\n      0x00\n        /* \"#utility.yul\":4628:4634   */\n      0x00\n        /* \"#utility.yul\":4636:4642   */\n      0x00\n        /* \"#utility.yul\":4685:4687   */\n      0x60\n        /* \"#utility.yul\":4673:4682   */\n      dup6\n        /* \"#utility.yul\":4664:4671   */\n      dup8\n        /* \"#utility.yul\":4660:4683   */\n      sub\n        /* \"#utility.yul\":4656:4688   */\n      slt\n        /* \"#utility.yul\":4653:4772   */\n      iszero\n      tag_208\n      jumpi\n        /* \"#utility.yul\":4691:4770   */\n      tag_209\n      tag_109\n      jump\t// in\n    tag_209:\n        /* \"#utility.yul\":4653:4772   */\n    tag_208:\n        /* \"#utility.yul\":4811:4812   */\n      0x00\n        /* \"#utility.yul\":4836:4889   */\n      tag_210\n        /* \"#utility.yul\":4881:4888   */\n      dup8\n        /* \"#utility.yul\":4872:4878   */\n      dup3\n        /* \"#utility.yul\":4861:4870   */\n      dup9\n        /* \"#utility.yul\":4857:4879   */\n      add\n        /* \"#utility.yul\":4836:4889   */\n      tag_126\n      jump\t// in\n    tag_210:\n        /* \"#utility.yul\":4826:4889   */\n      swap5\n      pop\n        /* \"#utility.yul\":4782:4899   */\n      pop\n        /* \"#utility.yul\":4938:4940   */\n      0x20\n        /* \"#utility.yul\":4964:5017   */\n      tag_211\n        /* \"#utility.yul\":5009:5016   */\n      dup8\n        /* \"#utility.yul\":5000:5006   */\n      dup3\n        /* \"#utility.yul\":4989:4998   */\n      dup9\n        /* \"#utility.yul\":4985:5007   */\n      add\n        /* \"#utility.yul\":4964:5017   */\n      tag_113\n      jump\t// in\n    tag_211:\n        /* \"#utility.yul\":4954:5017   */\n      swap4\n      pop\n        /* \"#utility.yul\":4909:5027   */\n      pop\n        /* \"#utility.yul\":5094:5096   */\n      0x40\n        /* \"#utility.yul\":5083:5092   */\n      dup6\n        /* \"#utility.yul\":5079:5097   */\n      add\n        /* \"#utility.yul\":5066:5098   */\n      calldataload\n        /* \"#utility.yul\":5125:5143   */\n      0xffffffffffffffff\n        /* \"#utility.yul\":5117:5123   */\n      dup2\n        /* \"#utility.yul\":5114:5144   */\n      gt\n        /* \"#utility.yul\":5111:5228   */\n      iszero\n      tag_212\n      jumpi\n        /* \"#utility.yul\":5147:5226   */\n      tag_213\n      tag_110\n      jump\t// in\n    tag_213:\n        /* \"#utility.yul\":5111:5228   */\n    tag_212:\n        /* \"#utility.yul\":5260:5324   */\n      tag_214\n        /* \"#utility.yul\":5316:5323   */\n      dup8\n        /* \"#utility.yul\":5307:5313   */\n      dup3\n        /* \"#utility.yul\":5296:5305   */\n      dup9\n        /* \"#utility.yul\":5292:5314   */\n      add\n        /* \"#utility.yul\":5260:5324   */\n      tag_130\n      jump\t// in\n    tag_214:\n        /* \"#utility.yul\":5242:5324   */\n      swap3\n      pop\n      swap3\n      pop\n        /* \"#utility.yul\":5037:5334   */\n      pop\n        /* \"#utility.yul\":4524:5341   */\n      swap3\n      swap6\n      swap2\n      swap5\n      pop\n      swap3\n      pop\n      jump\t// out\n        /* \"#utility.yul\":5347:5676   */\n    tag_34:\n        /* \"#utility.yul\":5406:5412   */\n      0x00\n        /* \"#utility.yul\":5455:5457   */\n      0x20\n        /* \"#utility.yul\":5443:5452   */\n      dup3\n        /* \"#utility.yul\":5434:5441   */\n      dup5\n        /* \"#utility.yul\":5430:5453   */\n      sub\n        /* \"#utility.yul\":5426:5458   */\n      slt\n        /* \"#utility.yul\":5423:5542   */\n      iszero\n      tag_216\n      jumpi\n        /* \"#utility.yul\":5461:5540   */\n      tag_217\n      tag_109\n      jump\t// in\n    tag_217:\n        /* \"#utility.yul\":5423:5542   */\n    tag_216:\n        /* \"#utility.yul\":5581:5582   */\n      0x00\n        /* \"#utility.yul\":5606:5659   */\n      tag_218\n        /* \"#utility.yul\":5651:5658   */\n      dup5\n        /* \"#utility.yul\":5642:5648   */\n      dup3\n        /* \"#utility.yul\":5631:5640   */\n      dup6\n        /* \"#utility.yul\":5627:5649   */\n      add\n        /* \"#utility.yul\":5606:5659   */\n      tag_113\n      jump\t// in\n    tag_218:\n        /* \"#utility.yul\":5596:5659   */\n      swap2\n      pop\n        /* \"#utility.yul\":5552:5669   */\n      pop\n        /* \"#utility.yul\":5347:5676   */\n      swap3\n      swap2\n      pop\n      pop\n      jump\t// out\n        /* \"#utility.yul\":5682:5800   */\n    tag_131:\n        /* \"#utility.yul\":5769:5793   */\n      tag_220\n        /* \"#utility.yul\":5787:5792   */\n      dup2\n        /* \"#utility.yul\":5769:5793   */\n      tag_111\n      jump\t// in\n    tag_220:\n        /* \"#utility.yul\":5764:5767   */\n      dup3\n        /* \"#utility.yul\":5757:5794   */\n      mstore\n        /* \"#utility.yul\":5682:5800   */\n      pop\n      pop\n      jump\t// out\n        /* \"#utility.yul\":5806:6028   */\n    tag_37:\n        /* \"#utility.yul\":5899:5903   */\n      0x00\n        /* \"#utility.yul\":5937:5939   */\n      0x20\n        /* \"#utility.yul\":5926:5935   */\n      dup3\n        /* \"#utility.yul\":5922:5940   */\n      add\n        /* \"#utility.yul\":5914:5940   */\n      swap1\n      pop\n        /* \"#utility.yul\":5950:6021   */\n      tag_222\n        /* \"#utility.yul\":6018:6019   */\n      0x00\n        /* \"#utility.yul\":6007:6016   */\n      dup4\n        /* \"#utility.yul\":6003:6020   */\n      add\n        /* \"#utility.yul\":5994:6000   */\n      dup5\n        /* \"#utility.yul\":5950:6021   */\n      tag_131\n      jump\t// in\n    tag_222:\n        /* \"#utility.yul\":5806:6028   */\n      swap3\n      swap2\n      pop\n      pop\n      jump\t// out\n        /* \"#utility.yul\":6034:6203   */\n    tag_132:\n        /* \"#utility.yul\":6118:6129   */\n      0x00\n        /* \"#utility.yul\":6152:6158   */\n      dup3\n        /* \"#utility.yul\":6147:6150   */\n      dup3\n        /* \"#utility.yul\":6140:6159   */\n      mstore\n        /* \"#utility.yul\":6192:6196   */\n      0x20\n        /* \"#utility.yul\":6187:6190   */\n      dup3\n        /* \"#utility.yul\":6183:6197   */\n      add\n        /* \"#utility.yul\":6168:6197   */\n      swap1\n      pop\n        /* \"#utility.yul\":6034:6203   */\n      swap3\n      swap2\n      pop\n      pop\n      jump\t// out\n        /* \"#utility.yul\":6209:6391   */\n    tag_133:\n        /* \"#utility.yul\":6349:6383   */\n      0x746f6b656e4964206d75737420213d302c20616d6f756e74206d757374203e30\n        /* \"#utility.yul\":6345:6346   */\n      0x00\n        /* \"#utility.yul\":6337:6343   */\n      dup3\n        /* \"#utility.yul\":6333:6347   */\n      add\n        /* \"#utility.yul\":6326:6384   */\n      mstore\n        /* \"#utility.yul\":6209:6391   */\n      pop\n      jump\t// out\n        /* \"#utility.yul\":6397:6763   */\n    tag_134:\n        /* \"#utility.yul\":6539:6542   */\n      0x00\n        /* \"#utility.yul\":6560:6627   */\n      tag_226\n        /* \"#utility.yul\":6624:6626   */\n      0x20\n        /* \"#utility.yul\":6619:6622   */\n      dup4\n        /* \"#utility.yul\":6560:6627   */\n      tag_132\n      jump\t// in\n    tag_226:\n        /* \"#utility.yul\":6553:6627   */\n      swap2\n      pop\n        /* \"#utility.yul\":6636:6729   */\n      tag_227\n        /* \"#utility.yul\":6725:6728   */\n      dup3\n        /* \"#utility.yul\":6636:6729   */\n      tag_133\n      jump\t// in\n    tag_227:\n        /* \"#utility.yul\":6754:6756   */\n      0x20\n        /* \"#utility.yul\":6749:6752   */\n      dup3\n        /* \"#utility.yul\":6745:6757   */\n      add\n        /* \"#utility.yul\":6738:6757   */\n      swap1\n      pop\n        /* \"#utility.yul\":6397:6763   */\n      swap2\n      swap1\n      pop\n      jump\t// out\n        /* \"#utility.yul\":6769:7188   */\n    tag_42:\n        /* \"#utility.yul\":6935:6939   */\n      0x00\n        /* \"#utility.yul\":6973:6975   */\n      0x20\n        /* \"#utility.yul\":6962:6971   */\n      dup3\n        /* \"#utility.yul\":6958:6976   */\n      add\n        /* \"#utility.yul\":6950:6976   */\n      swap1\n      pop\n        /* \"#utility.yul\":7022:7031   */\n      dup2\n        /* \"#utility.yul\":7016:7020   */\n      dup2\n        /* \"#utility.yul\":7012:7032   */\n      sub\n        /* \"#utility.yul\":7008:7009   */\n      0x00\n        /* \"#utility.yul\":6997:7006   */\n      dup4\n        /* \"#utility.yul\":6993:7010   */\n      add\n        /* \"#utility.yul\":6986:7033   */\n      mstore\n        /* \"#utility.yul\":7050:7181   */\n      tag_229\n        /* \"#utility.yul\":7176:7180   */\n      dup2\n        /* \"#utility.yul\":7050:7181   */\n      tag_134\n      jump\t// in\n    tag_229:\n        /* \"#utility.yul\":7042:7181   */\n      swap1\n      pop\n        /* \"#utility.yul\":6769:7188   */\n      swap2\n      swap1\n      pop\n      jump\t// out\n        /* \"#utility.yul\":7194:7337   */\n    tag_135:\n        /* \"#utility.yul\":7251:7256   */\n      0x00\n        /* \"#utility.yul\":7282:7288   */\n      dup2\n        /* \"#utility.yul\":7276:7289   */\n      mload\n        /* \"#utility.yul\":7267:7289   */\n      swap1\n      pop\n        /* \"#utility.yul\":7298:7331   */\n      tag_231\n        /* \"#utility.yul\":7325:7330   */\n      dup2\n        /* \"#utility.yul\":7298:7331   */\n      tag_125\n      jump\t// in\n    tag_231:\n        /* \"#utility.yul\":7194:7337   */\n      swap3\n      swap2\n      pop\n      pop\n      jump\t// out\n        /* \"#utility.yul\":7343:7694   */\n    tag_47:\n        /* \"#utility.yul\":7413:7419   */\n      0x00\n        /* \"#utility.yul\":7462:7464   */\n      0x20\n        /* \"#utility.yul\":7450:7459   */\n      dup3\n        /* \"#utility.yul\":7441:7448   */\n      dup5\n        /* \"#utility.yul\":7437:7460   */\n      sub\n        /* \"#utility.yul\":7433:7465   */\n      slt\n        /* \"#utility.yul\":7430:7549   */\n      iszero\n      tag_233\n      jumpi\n        /* \"#utility.yul\":7468:7547   */\n      tag_234\n      tag_109\n      jump\t// in\n    tag_234:\n        /* \"#utility.yul\":7430:7549   */\n    tag_233:\n        /* \"#utility.yul\":7588:7589   */\n      0x00\n        /* \"#utility.yul\":7613:7677   */\n      tag_235\n        /* \"#utility.yul\":7669:7676   */\n      dup5\n        /* \"#utility.yul\":7660:7666   */\n      dup3\n        /* \"#utility.yul\":7649:7658   */\n      dup6\n        /* \"#utility.yul\":7645:7667   */\n      add\n        /* \"#utility.yul\":7613:7677   */\n      tag_135\n      jump\t// in\n    tag_235:\n        /* \"#utility.yul\":7603:7677   */\n      swap2\n      pop\n        /* \"#utility.yul\":7559:7687   */\n      pop\n        /* \"#utility.yul\":7343:7694   */\n      swap3\n      swap2\n      pop\n      pop\n      jump\t// out\n        /* \"#utility.yul\":7700:7818   */\n    tag_136:\n        /* \"#utility.yul\":7787:7811   */\n      tag_237\n        /* \"#utility.yul\":7805:7810   */\n      dup2\n        /* \"#utility.yul\":7787:7811   */\n      tag_124\n      jump\t// in\n    tag_237:\n        /* \"#utility.yul\":7782:7785   */\n      dup3\n        /* \"#utility.yul\":7775:7812   */\n      mstore\n        /* \"#utility.yul\":7700:7818   */\n      pop\n      pop\n      jump\t// out\n        /* \"#utility.yul\":7824:8266   */\n    tag_49:\n        /* \"#utility.yul\":7973:7977   */\n      0x00\n        /* \"#utility.yul\":8011:8013   */\n      0x60\n        /* \"#utility.yul\":8000:8009   */\n      dup3\n        /* \"#utility.yul\":7996:8014   */\n      add\n        /* \"#utility.yul\":7988:8014   */\n      swap1\n      pop\n        /* \"#utility.yul\":8024:8095   */\n      tag_239\n        /* \"#utility.yul\":8092:8093   */\n      0x00\n        /* \"#utility.yul\":8081:8090   */\n      dup4\n        /* \"#utility.yul\":8077:8094   */\n      add\n        /* \"#utility.yul\":8068:8074   */\n      dup7\n        /* \"#utility.yul\":8024:8095   */\n      tag_136\n      jump\t// in\n    tag_239:\n        /* \"#utility.yul\":8105:8177   */\n      tag_240\n        /* \"#utility.yul\":8173:8175   */\n      0x20\n        /* \"#utility.yul\":8162:8171   */\n      dup4\n        /* \"#utility.yul\":8158:8176   */\n      add\n        /* \"#utility.yul\":8149:8155   */\n      dup6\n        /* \"#utility.yul\":8105:8177   */\n      tag_136\n      jump\t// in\n    tag_240:\n        /* \"#utility.yul\":8187:8259   */\n      tag_241\n        /* \"#utility.yul\":8255:8257   */\n      0x40\n        /* \"#utility.yul\":8244:8253   */\n      dup4\n        /* \"#utility.yul\":8240:8258   */\n      add\n        /* \"#utility.yul\":8231:8237   */\n      dup5\n        /* \"#utility.yul\":8187:8259   */\n      tag_131\n      jump\t// in\n    tag_241:\n        /* \"#utility.yul\":7824:8266   */\n      swap5\n      swap4\n      pop\n      pop\n      pop\n      pop\n      jump\t// out\n        /* \"#utility.yul\":8272:8388   */\n    tag_137:\n        /* \"#utility.yul\":8342:8363   */\n      tag_243\n        /* \"#utility.yul\":8357:8362   */\n      dup2\n        /* \"#utility.yul\":8342:8363   */\n      tag_114\n      jump\t// in\n    tag_243:\n        /* \"#utility.yul\":8335:8340   */\n      dup2\n        /* \"#utility.yul\":8332:8364   */\n      eq\n        /* \"#utility.yul\":8322:8382   */\n      tag_244\n      jumpi\n        /* \"#utility.yul\":8378:8379   */\n      0x00\n        /* \"#utility.yul\":8375:8376   */\n      0x00\n        /* \"#utility.yul\":8368:8380   */\n      revert\n        /* \"#utility.yul\":8322:8382   */\n    tag_244:\n        /* \"#utility.yul\":8272:8388   */\n      pop\n      jump\t// out\n        /* \"#utility.yul\":8394:8531   */\n    tag_138:\n        /* \"#utility.yul\":8448:8453   */\n      0x00\n        /* \"#utility.yul\":8479:8485   */\n      dup2\n        /* \"#utility.yul\":8473:8486   */\n      mload\n        /* \"#utility.yul\":8464:8486   */\n      swap1\n      pop\n        /* \"#utility.yul\":8495:8525   */\n      tag_246\n        /* \"#utility.yul\":8519:8524   */\n      dup2\n        /* \"#utility.yul\":8495:8525   */\n      tag_137\n      jump\t// in\n    tag_246:\n        /* \"#utility.yul\":8394:8531   */\n      swap3\n      swap2\n      pop\n      pop\n      jump\t// out\n        /* \"#utility.yul\":8537:8882   */\n    tag_53:\n        /* \"#utility.yul\":8604:8610   */\n      0x00\n        /* \"#utility.yul\":8653:8655   */\n      0x20\n        /* \"#utility.yul\":8641:8650   */\n      dup3\n        /* \"#utility.yul\":8632:8639   */\n      dup5\n        /* \"#utility.yul\":8628:8651   */\n      sub\n        /* \"#utility.yul\":8624:8656   */\n      slt\n        /* \"#utility.yul\":8621:8740   */\n      iszero\n      tag_248\n      jumpi\n        /* \"#utility.yul\":8659:8738   */\n      tag_249\n      tag_109\n      jump\t// in\n    tag_249:\n        /* \"#utility.yul\":8621:8740   */\n    tag_248:\n        /* \"#utility.yul\":8779:8780   */\n      0x00\n        /* \"#utility.yul\":8804:8865   */\n      tag_250\n        /* \"#utility.yul\":8857:8864   */\n      dup5\n        /* \"#utility.yul\":8848:8854   */\n      dup3\n        /* \"#utility.yul\":8837:8846   */\n      dup6\n        /* \"#utility.yul\":8833:8855   */\n      add\n        /* \"#utility.yul\":8804:8865   */\n      tag_138\n      jump\t// in\n    tag_250:\n        /* \"#utility.yul\":8794:8865   */\n      swap2\n      pop\n        /* \"#utility.yul\":8750:8875   */\n      pop\n        /* \"#utility.yul\":8537:8882   */\n      swap3\n      swap2\n      pop\n      pop\n      jump\t// out\n        /* \"#utility.yul\":8888:9056   */\n    tag_139:\n        /* \"#utility.yul\":9028:9048   */\n      0x7472616e7366657246726f6d206572726f720000000000000000000000000000\n        /* \"#utility.yul\":9024:9025   */\n      0x00\n        /* \"#utility.yul\":9016:9022   */\n      dup3\n        /* \"#utility.yul\":9012:9026   */\n      add\n        /* \"#utility.yul\":9005:9049   */\n      mstore\n        /* \"#utility.yul\":8888:9056   */\n      pop\n      jump\t// out\n        /* \"#utility.yul\":9062:9428   */\n    tag_140:\n        /* \"#utility.yul\":9204:9207   */\n      0x00\n        /* \"#utility.yul\":9225:9292   */\n      tag_253\n        /* \"#utility.yul\":9289:9291   */\n      0x12\n        /* \"#utility.yul\":9284:9287   */\n      dup4\n        /* \"#utility.yul\":9225:9292   */\n      tag_132\n      jump\t// in\n    tag_253:\n        /* \"#utility.yul\":9218:9292   */\n      swap2\n      pop\n        /* \"#utility.yul\":9301:9394   */\n      tag_254\n        /* \"#utility.yul\":9390:9393   */\n      dup3\n        /* \"#utility.yul\":9301:9394   */\n      tag_139\n      jump\t// in\n    tag_254:\n        /* \"#utility.yul\":9419:9421   */\n      0x20\n        /* \"#utility.yul\":9414:9417   */\n      dup3\n        /* \"#utility.yul\":9410:9422   */\n      add\n        /* \"#utility.yul\":9403:9422   */\n      swap1\n      pop\n        /* \"#utility.yul\":9062:9428   */\n      swap2\n      swap1\n      pop\n      jump\t// out\n        /* \"#utility.yul\":9434:9853   */\n    tag_56:\n        /* \"#utility.yul\":9600:9604   */\n      0x00\n        /* \"#utility.yul\":9638:9640   */\n      0x20\n        /* \"#utility.yul\":9627:9636   */\n      dup3\n        /* \"#utility.yul\":9623:9641   */\n      add\n        /* \"#utility.yul\":9615:9641   */\n      swap1\n      pop\n        /* \"#utility.yul\":9687:9696   */\n      dup2\n        /* \"#utility.yul\":9681:9685   */\n      dup2\n        /* \"#utility.yul\":9677:9697   */\n      sub\n        /* \"#utility.yul\":9673:9674   */\n      0x00\n        /* \"#utility.yul\":9662:9671   */\n      dup4\n        /* \"#utility.yul\":9658:9675   */\n      add\n        /* \"#utility.yul\":9651:9698   */\n      mstore\n        /* \"#utility.yul\":9715:9846   */\n      tag_256\n        /* \"#utility.yul\":9841:9845   */\n      dup2\n        /* \"#utility.yul\":9715:9846   */\n      tag_140\n      jump\t// in\n    tag_256:\n        /* \"#utility.yul\":9707:9846   */\n      swap1\n      pop\n        /* \"#utility.yul\":9434:9853   */\n      swap2\n      swap1\n      pop\n      jump\t// out\n        /* \"#utility.yul\":9859:10301   */\n    tag_62:\n        /* \"#utility.yul\":10008:10012   */\n      0x00\n        /* \"#utility.yul\":10046:10048   */\n      0x60\n        /* \"#utility.yul\":10035:10044   */\n      dup3\n        /* \"#utility.yul\":10031:10049   */\n      add\n        /* \"#utility.yul\":10023:10049   */\n      swap1\n      pop\n        /* \"#utility.yul\":10059:10130   */\n      tag_258\n        /* \"#utility.yul\":10127:10128   */\n      0x00\n        /* \"#utility.yul\":10116:10125   */\n      dup4\n        /* \"#utility.yul\":10112:10129   */\n      add\n        /* \"#utility.yul\":10103:10109   */\n      dup7\n        /* \"#utility.yul\":10059:10130   */\n      tag_136\n      jump\t// in\n    tag_258:\n        /* \"#utility.yul\":10140:10212   */\n      tag_259\n        /* \"#utility.yul\":10208:10210   */\n      0x20\n        /* \"#utility.yul\":10197:10206   */\n      dup4\n        /* \"#utility.yul\":10193:10211   */\n      add\n        /* \"#utility.yul\":10184:10190   */\n      dup6\n        /* \"#utility.yul\":10140:10212   */\n      tag_131\n      jump\t// in\n    tag_259:\n        /* \"#utility.yul\":10222:10294   */\n      tag_260\n        /* \"#utility.yul\":10290:10292   */\n      0x40\n        /* \"#utility.yul\":10279:10288   */\n      dup4\n        /* \"#utility.yul\":10275:10293   */\n      add\n        /* \"#utility.yul\":10266:10272   */\n      dup5\n        /* \"#utility.yul\":10222:10294   */\n      tag_131\n      jump\t// in\n    tag_260:\n        /* \"#utility.yul\":9859:10301   */\n      swap5\n      swap4\n      pop\n      pop\n      pop\n      pop\n      jump\t// out\n        /* \"#utility.yul\":10307:10474   */\n    tag_141:\n        /* \"#utility.yul\":10447:10466   */\n      0x796f7520617265206e6f74206f776e6572000000000000000000000000000000\n        /* \"#utility.yul\":10443:10444   */\n      0x00\n        /* \"#utility.yul\":10435:10441   */\n      dup3\n        /* \"#utility.yul\":10431:10445   */\n      add\n        /* \"#utility.yul\":10424:10467   */\n      mstore\n        /* \"#utility.yul\":10307:10474   */\n      pop\n      jump\t// out\n        /* \"#utility.yul\":10480:10846   */\n    tag_142:\n        /* \"#utility.yul\":10622:10625   */\n      0x00\n        /* \"#utility.yul\":10643:10710   */\n      tag_263\n        /* \"#utility.yul\":10707:10709   */\n      0x11\n        /* \"#utility.yul\":10702:10705   */\n      dup4\n        /* \"#utility.yul\":10643:10710   */\n      tag_132\n      jump\t// in\n    tag_263:\n        /* \"#utility.yul\":10636:10710   */\n      swap2\n      pop\n        /* \"#utility.yul\":10719:10812   */\n      tag_264\n        /* \"#utility.yul\":10808:10811   */\n      dup3\n        /* \"#utility.yul\":10719:10812   */\n      tag_141\n      jump\t// in\n    tag_264:\n        /* \"#utility.yul\":10837:10839   */\n      0x20\n        /* \"#utility.yul\":10832:10835   */\n      dup3\n        /* \"#utility.yul\":10828:10840   */\n      add\n        /* \"#utility.yul\":10821:10840   */\n      swap1\n      pop\n        /* \"#utility.yul\":10480:10846   */\n      swap2\n      swap1\n      pop\n      jump\t// out\n        /* \"#utility.yul\":10852:11271   */\n    tag_73:\n        /* \"#utility.yul\":11018:11022   */\n      0x00\n        /* \"#utility.yul\":11056:11058   */\n      0x20\n        /* \"#utility.yul\":11045:11054   */\n      dup3\n        /* \"#utility.yul\":11041:11059   */\n      add\n        /* \"#utility.yul\":11033:11059   */\n      swap1\n      pop\n        /* \"#utility.yul\":11105:11114   */\n      dup2\n        /* \"#utility.yul\":11099:11103   */\n      dup2\n        /* \"#utility.yul\":11095:11115   */\n      sub\n        /* \"#utility.yul\":11091:11092   */\n      0x00\n        /* \"#utility.yul\":11080:11089   */\n      dup4\n        /* \"#utility.yul\":11076:11093   */\n      add\n        /* \"#utility.yul\":11069:11116   */\n      mstore\n        /* \"#utility.yul\":11133:11264   */\n      tag_266\n        /* \"#utility.yul\":11259:11263   */\n      dup2\n        /* \"#utility.yul\":11133:11264   */\n      tag_142\n      jump\t// in\n    tag_266:\n        /* \"#utility.yul\":11125:11264   */\n      swap1\n      pop\n        /* \"#utility.yul\":10852:11271   */\n      swap2\n      swap1\n      pop\n      jump\t// out\n        /* \"#utility.yul\":11277:11719   */\n    tag_75:\n        /* \"#utility.yul\":11426:11430   */\n      0x00\n        /* \"#utility.yul\":11464:11466   */\n      0x60\n        /* \"#utility.yul\":11453:11462   */\n      dup3\n        /* \"#utility.yul\":11449:11467   */\n      add\n        /* \"#utility.yul\":11441:11467   */\n      swap1\n      pop\n        /* \"#utility.yul\":11477:11548   */\n      tag_268\n        /* \"#utility.yul\":11545:11546   */\n      0x00\n        /* \"#utility.yul\":11534:11543   */\n      dup4\n        /* \"#utility.yul\":11530:11547   */\n      add\n        /* \"#utility.yul\":11521:11527   */\n      dup7\n        /* \"#utility.yul\":11477:11548   */\n      tag_131\n      jump\t// in\n    tag_268:\n        /* \"#utility.yul\":11558:11630   */\n      tag_269\n        /* \"#utility.yul\":11626:11628   */\n      0x20\n        /* \"#utility.yul\":11615:11624   */\n      dup4\n        /* \"#utility.yul\":11611:11629   */\n      add\n        /* \"#utility.yul\":11602:11608   */\n      dup6\n        /* \"#utility.yul\":11558:11630   */\n      tag_136\n      jump\t// in\n    tag_269:\n        /* \"#utility.yul\":11640:11712   */\n      tag_270\n        /* \"#utility.yul\":11708:11710   */\n      0x40\n        /* \"#utility.yul\":11697:11706   */\n      dup4\n        /* \"#utility.yul\":11693:11711   */\n      add\n        /* \"#utility.yul\":11684:11690   */\n      dup5\n        /* \"#utility.yul\":11640:11712   */\n      tag_131\n      jump\t// in\n    tag_270:\n        /* \"#utility.yul\":11277:11719   */\n      swap5\n      swap4\n      pop\n      pop\n      pop\n      pop\n      jump\t// out\n        /* \"#utility.yul\":11725:11950   */\n    tag_143:\n        /* \"#utility.yul\":11865:11899   */\n      0x6f6e6c79206572633230546f6b656e2063616e2063616c6c2074686973206675\n        /* \"#utility.yul\":11861:11862   */\n      0x00\n        /* \"#utility.yul\":11853:11859   */\n      dup3\n        /* \"#utility.yul\":11849:11863   */\n      add\n        /* \"#utility.yul\":11842:11900   */\n      mstore\n        /* \"#utility.yul\":11934:11942   */\n      0x6e6374696f6e0000000000000000000000000000000000000000000000000000\n        /* \"#utility.yul\":11929:11931   */\n      0x20\n        /* \"#utility.yul\":11921:11927   */\n      dup3\n        /* \"#utility.yul\":11917:11932   */\n      add\n        /* \"#utility.yul\":11910:11943   */\n      mstore\n        /* \"#utility.yul\":11725:11950   */\n      pop\n      jump\t// out\n        /* \"#utility.yul\":11956:12322   */\n    tag_144:\n        /* \"#utility.yul\":12098:12101   */\n      0x00\n        /* \"#utility.yul\":12119:12186   */\n      tag_273\n        /* \"#utility.yul\":12183:12185   */\n      0x26\n        /* \"#utility.yul\":12178:12181   */\n      dup4\n        /* \"#utility.yul\":12119:12186   */\n      tag_132\n      jump\t// in\n    tag_273:\n        /* \"#utility.yul\":12112:12186   */\n      swap2\n      pop\n        /* \"#utility.yul\":12195:12288   */\n      tag_274\n        /* \"#utility.yul\":12284:12287   */\n      dup3\n        /* \"#utility.yul\":12195:12288   */\n      tag_143\n      jump\t// in\n    tag_274:\n        /* \"#utility.yul\":12313:12315   */\n      0x40\n        /* \"#utility.yul\":12308:12311   */\n      dup3\n        /* \"#utility.yul\":12304:12316   */\n      add\n        /* \"#utility.yul\":12297:12316   */\n      swap1\n      pop\n        /* \"#utility.yul\":11956:12322   */\n      swap2\n      swap1\n      pop\n      jump\t// out\n        /* \"#utility.yul\":12328:12747   */\n    tag_79:\n        /* \"#utility.yul\":12494:12498   */\n      0x00\n        /* \"#utility.yul\":12532:12534   */\n      0x20\n        /* \"#utility.yul\":12521:12530   */\n      dup3\n        /* \"#utility.yul\":12517:12535   */\n      add\n        /* \"#utility.yul\":12509:12535   */\n      swap1\n      pop\n        /* \"#utility.yul\":12581:12590   */\n      dup2\n        /* \"#utility.yul\":12575:12579   */\n      dup2\n        /* \"#utility.yul\":12571:12591   */\n      sub\n        /* \"#utility.yul\":12567:12568   */\n      0x00\n        /* \"#utility.yul\":12556:12565   */\n      dup4\n        /* \"#utility.yul\":12552:12569   */\n      add\n        /* \"#utility.yul\":12545:12592   */\n      mstore\n        /* \"#utility.yul\":12609:12740   */\n      tag_276\n        /* \"#utility.yul\":12735:12739   */\n      dup2\n        /* \"#utility.yul\":12609:12740   */\n      tag_144\n      jump\t// in\n    tag_276:\n        /* \"#utility.yul\":12601:12740   */\n      swap1\n      pop\n        /* \"#utility.yul\":12328:12747   */\n      swap2\n      swap1\n      pop\n      jump\t// out\n        /* \"#utility.yul\":12753:12929   */\n    tag_145:\n        /* \"#utility.yul\":12893:12921   */\n      0x4d61726b65743a20746f6b656e206e6f7420666f722073616c65000000000000\n        /* \"#utility.yul\":12889:12890   */\n      0x00\n        /* \"#utility.yul\":12881:12887   */\n      dup3\n        /* \"#utility.yul\":12877:12891   */\n      add\n        /* \"#utility.yul\":12870:12922   */\n      mstore\n        /* \"#utility.yul\":12753:12929   */\n      pop\n      jump\t// out\n        /* \"#utility.yul\":12935:13301   */\n    tag_146:\n        /* \"#utility.yul\":13077:13080   */\n      0x00\n        /* \"#utility.yul\":13098:13165   */\n      tag_279\n        /* \"#utility.yul\":13162:13164   */\n      0x1a\n        /* \"#utility.yul\":13157:13160   */\n      dup4\n        /* \"#utility.yul\":13098:13165   */\n      tag_132\n      jump\t// in\n    tag_279:\n        /* \"#utility.yul\":13091:13165   */\n      swap2\n      pop\n        /* \"#utility.yul\":13174:13267   */\n      tag_280\n        /* \"#utility.yul\":13263:13266   */\n      dup3\n        /* \"#utility.yul\":13174:13267   */\n      tag_145\n      jump\t// in\n    tag_280:\n        /* \"#utility.yul\":13292:13294   */\n      0x20\n        /* \"#utility.yul\":13287:13290   */\n      dup3\n        /* \"#utility.yul\":13283:13295   */\n      add\n        /* \"#utility.yul\":13276:13295   */\n      swap1\n      pop\n        /* \"#utility.yul\":12935:13301   */\n      swap2\n      swap1\n      pop\n      jump\t// out\n        /* \"#utility.yul\":13307:13726   */\n    tag_83:\n        /* \"#utility.yul\":13473:13477   */\n      0x00\n        /* \"#utility.yul\":13511:13513   */\n      0x20\n        /* \"#utility.yul\":13500:13509   */\n      dup3\n        /* \"#utility.yul\":13496:13514   */\n      add\n        /* \"#utility.yul\":13488:13514   */\n      swap1\n      pop\n        /* \"#utility.yul\":13560:13569   */\n      dup2\n        /* \"#utility.yul\":13554:13558   */\n      dup2\n        /* \"#utility.yul\":13550:13570   */\n      sub\n        /* \"#utility.yul\":13546:13547   */\n      0x00\n        /* \"#utility.yul\":13535:13544   */\n      dup4\n        /* \"#utility.yul\":13531:13548   */\n      add\n        /* \"#utility.yul\":13524:13571   */\n      mstore\n        /* \"#utility.yul\":13588:13719   */\n      tag_282\n        /* \"#utility.yul\":13714:13718   */\n      dup2\n        /* \"#utility.yul\":13588:13719   */\n      tag_146\n      jump\t// in\n    tag_282:\n        /* \"#utility.yul\":13580:13719   */\n      swap1\n      pop\n        /* \"#utility.yul\":13307:13726   */\n      swap2\n      swap1\n      pop\n      jump\t// out\n        /* \"#utility.yul\":13732:13910   */\n    tag_147:\n        /* \"#utility.yul\":13872:13902   */\n      0x204d61726b65743a20696e73756666696369656e7420616d6f756e7400000000\n        /* \"#utility.yul\":13868:13869   */\n      0x00\n        /* \"#utility.yul\":13860:13866   */\n      dup3\n        /* \"#utility.yul\":13856:13870   */\n      add\n        /* \"#utility.yul\":13849:13903   */\n      mstore\n        /* \"#utility.yul\":13732:13910   */\n      pop\n      jump\t// out\n        /* \"#utility.yul\":13916:14282   */\n    tag_148:\n        /* \"#utility.yul\":14058:14061   */\n      0x00\n        /* \"#utility.yul\":14079:14146   */\n      tag_285\n        /* \"#utility.yul\":14143:14145   */\n      0x1c\n        /* \"#utility.yul\":14138:14141   */\n      dup4\n        /* \"#utility.yul\":14079:14146   */\n      tag_132\n      jump\t// in\n    tag_285:\n        /* \"#utility.yul\":14072:14146   */\n      swap2\n      pop\n        /* \"#utility.yul\":14155:14248   */\n      tag_286\n        /* \"#utility.yul\":14244:14247   */\n      dup3\n        /* \"#utility.yul\":14155:14248   */\n      tag_147\n      jump\t// in\n    tag_286:\n        /* \"#utility.yul\":14273:14275   */\n      0x20\n        /* \"#utility.yul\":14268:14271   */\n      dup3\n        /* \"#utility.yul\":14264:14276   */\n      add\n        /* \"#utility.yul\":14257:14276   */\n      swap1\n      pop\n        /* \"#utility.yul\":13916:14282   */\n      swap2\n      swap1\n      pop\n      jump\t// out\n        /* \"#utility.yul\":14288:14707   */\n    tag_86:\n        /* \"#utility.yul\":14454:14458   */\n      0x00\n        /* \"#utility.yul\":14492:14494   */\n      0x20\n        /* \"#utility.yul\":14481:14490   */\n      dup3\n        /* \"#utility.yul\":14477:14495   */\n      add\n        /* \"#utility.yul\":14469:14495   */\n      swap1\n      pop\n        /* \"#utility.yul\":14541:14550   */\n      dup2\n        /* \"#utility.yul\":14535:14539   */\n      dup2\n        /* \"#utility.yul\":14531:14551   */\n      sub\n        /* \"#utility.yul\":14527:14528   */\n      0x00\n        /* \"#utility.yul\":14516:14525   */\n      dup4\n        /* \"#utility.yul\":14512:14529   */\n      add\n        /* \"#utility.yul\":14505:14552   */\n      mstore\n        /* \"#utility.yul\":14569:14700   */\n      tag_288\n        /* \"#utility.yul\":14695:14699   */\n      dup2\n        /* \"#utility.yul\":14569:14700   */\n      tag_148\n      jump\t// in\n    tag_288:\n        /* \"#utility.yul\":14561:14700   */\n      swap1\n      pop\n        /* \"#utility.yul\":14288:14707   */\n      swap2\n      swap1\n      pop\n      jump\t// out\n        /* \"#utility.yul\":14713:15045   */\n    tag_92:\n        /* \"#utility.yul\":14834:14838   */\n      0x00\n        /* \"#utility.yul\":14872:14874   */\n      0x40\n        /* \"#utility.yul\":14861:14870   */\n      dup3\n        /* \"#utility.yul\":14857:14875   */\n      add\n        /* \"#utility.yul\":14849:14875   */\n      swap1\n      pop\n        /* \"#utility.yul\":14885:14956   */\n      tag_290\n        /* \"#utility.yul\":14953:14954   */\n      0x00\n        /* \"#utility.yul\":14942:14951   */\n      dup4\n        /* \"#utility.yul\":14938:14955   */\n      add\n        /* \"#utility.yul\":14929:14935   */\n      dup6\n        /* \"#utility.yul\":14885:14956   */\n      tag_136\n      jump\t// in\n    tag_290:\n        /* \"#utility.yul\":14966:15038   */\n      tag_291\n        /* \"#utility.yul\":15034:15036   */\n      0x20\n        /* \"#utility.yul\":15023:15032   */\n      dup4\n        /* \"#utility.yul\":15019:15037   */\n      add\n        /* \"#utility.yul\":15010:15016   */\n      dup5\n        /* \"#utility.yul\":14966:15038   */\n      tag_131\n      jump\t// in\n    tag_291:\n        /* \"#utility.yul\":14713:15045   */\n      swap4\n      swap3\n      pop\n      pop\n      pop\n      jump\t// out\n        /* \"#utility.yul\":15051:15231   */\n    tag_149:\n        /* \"#utility.yul\":15099:15176   */\n      0x4e487b7100000000000000000000000000000000000000000000000000000000\n        /* \"#utility.yul\":15096:15097   */\n      0x00\n        /* \"#utility.yul\":15089:15177   */\n      mstore\n        /* \"#utility.yul\":15196:15200   */\n      0x11\n        /* \"#utility.yul\":15193:15194   */\n      0x04\n        /* \"#utility.yul\":15186:15201   */\n      mstore\n        /* \"#utility.yul\":15220:15224   */\n      0x24\n        /* \"#utility.yul\":15217:15218   */\n      0x00\n        /* \"#utility.yul\":15210:15225   */\n      revert\n        /* \"#utility.yul\":15237:15431   */\n    tag_98:\n        /* \"#utility.yul\":15277:15281   */\n      0x00\n        /* \"#utility.yul\":15297:15317   */\n      tag_294\n        /* \"#utility.yul\":15315:15316   */\n      dup3\n        /* \"#utility.yul\":15297:15317   */\n      tag_111\n      jump\t// in\n    tag_294:\n        /* \"#utility.yul\":15292:15317   */\n      swap2\n      pop\n        /* \"#utility.yul\":15331:15351   */\n      tag_295\n        /* \"#utility.yul\":15349:15350   */\n      dup4\n        /* \"#utility.yul\":15331:15351   */\n      tag_111\n      jump\t// in\n    tag_295:\n        /* \"#utility.yul\":15326:15351   */\n      swap3\n      pop\n        /* \"#utility.yul\":15375:15376   */\n      dup3\n        /* \"#utility.yul\":15372:15373   */\n      dup3\n        /* \"#utility.yul\":15368:15377   */\n      sub\n        /* \"#utility.yul\":15360:15377   */\n      swap1\n      pop\n        /* \"#utility.yul\":15399:15400   */\n      dup2\n        /* \"#utility.yul\":15393:15397   */\n      dup2\n        /* \"#utility.yul\":15390:15401   */\n      gt\n        /* \"#utility.yul\":15387:15424   */\n      iszero\n      tag_296\n      jumpi\n        /* \"#utility.yul\":15404:15422   */\n      tag_297\n      tag_149\n      jump\t// in\n    tag_297:\n        /* \"#utility.yul\":15387:15424   */\n    tag_296:\n        /* \"#utility.yul\":15237:15431   */\n      swap3\n      swap2\n      pop\n      pop\n      jump\t// out\n\n    auxdata: 0xa2646970667358221220808199377ebac8c412a00d32b582c3493d5f12ecc3bfa5744f5eaa78b6abf19c64736f6c63430008220033\n}\n",
				"bytecode": {
					"linkReferences": {},
					"object": "608060405234801561000f575f5ffd5b5060405161139338038061139383398181016040528101906100319190610161565b815f5f6101000a81548173ffffffffffffffffffffffffffffffffffffffff021916908373ffffffffffffffffffffffffffffffffffffffff1602179055508060015f6101000a81548173ffffffffffffffffffffffffffffffffffffffff021916908373ffffffffffffffffffffffffffffffffffffffff160217905550505061019f565b5f5ffd5b5f73ffffffffffffffffffffffffffffffffffffffff82169050919050565b5f6100e4826100bb565b9050919050565b5f6100f5826100da565b9050919050565b610105816100eb565b811461010f575f5ffd5b50565b5f81519050610120816100fc565b92915050565b5f610130826100da565b9050919050565b61014081610126565b811461014a575f5ffd5b50565b5f8151905061015b81610137565b92915050565b5f5f60408385031215610177576101766100b7565b5b5f61018485828601610112565b92505060206101958582860161014d565b9150509250929050565b6111e7806101ac5f395ff3fe608060405234801561000f575f5ffd5b5060043610610060575f3560e01c80631d85bf031461006457806350fd7367146100945780635f2d6bcd146100c45780638a13eea7146100e2578063d031426314610100578063d4ddce8a14610130575b5f5ffd5b61007e60048036038101906100799190610aa5565b610160565b60405161008b9190610afd565b60405180910390f35b6100ae60048036038101906100a99190610aa5565b610411565b6040516100bb9190610afd565b60405180910390f35b6100cc6105c1565b6040516100d99190610b90565b60405180910390f35b6100ea6105e6565b6040516100f79190610bc9565b60405180910390f35b61011a60048036038101906101159190610c7e565b61060a565b6040516101279190610afd565b60405180910390f35b61014a60048036038101906101459190610cef565b610a55565b6040516101579190610d29565b60405180910390f35b5f5f831415801561017057505f82115b6101af576040517f08c379a00000000000000000000000000000000000000000000000000000000081526004016101a690610d9c565b60405180910390fd5b5f60015f9054906101000a900473ffffffffffffffffffffffffffffffffffffffff1673ffffffffffffffffffffffffffffffffffffffff16636352211e856040518263ffffffff1660e01b815260040161020a9190610d29565b602060405180830381865afa158015610225573d5f5f3e3d5ffd5b505050506040513d601f19601f820116820180604052508101906102499190610dce565b90505f5f5f9054906101000a900473ffffffffffffffffffffffffffffffffffffffff1673ffffffffffffffffffffffffffffffffffffffff166323b872dd3384876040518463ffffffff1660e01b81526004016102a993929190610e08565b6020604051808303815f875af11580156102c5573d5f5f3e3d5ffd5b505050506040513d601f19601f820116820180604052508101906102e99190610e67565b90508061032b576040517f08c379a000000000000000000000000000000000000000000000000000000000815260040161032290610edc565b60405180910390fd5b60015f9054906101000a900473ffffffffffffffffffffffffffffffffffffffff1673ffffffffffffffffffffffffffffffffffffffff166342842e0e8333886040518463ffffffff1660e01b815260040161038993929190610e08565b5f604051808303815f87803b1580156103a0575f5ffd5b505af11580156103b2573d5f5f3e3d5ffd5b5050505060025f8681526020019081526020015f205f90557f5d963241241cfe9e161d13500d628058954b3febfde03e4b1f4071370e72fe2b3386866040516103fd93929190610efa565b60405180910390a160019250505092915050565b5f5f831415801561042157505f82115b610460576040517f08c379a000000000000000000000000000000000000000000000000000000000815260040161045790610d9c565b60405180910390fd5b3373ffffffffffffffffffffffffffffffffffffffff1660015f9054906101000a900473ffffffffffffffffffffffffffffffffffffffff1673ffffffffffffffffffffffffffffffffffffffff16636352211e856040518263ffffffff1660e01b81526004016104d19190610d29565b602060405180830381865afa1580156104ec573d5f5f3e3d5ffd5b505050506040513d601f19601f820116820180604052508101906105109190610dce565b73ffffffffffffffffffffffffffffffffffffffff1614610566576040517f08c379a000000000000000000000000000000000000000000000000000000000815260040161055d90610f79565b60405180910390fd5b8160025f8581526020019081526020015f20819055507f656fea2aeb2af9841f5b2d9a77be15564d1a00f76fff68c5435aec927eb4d5d68333846040516105af93929190610f97565b60405180910390a16001905092915050565b60015f9054906101000a900473ffffffffffffffffffffffffffffffffffffffff1681565b5f5f9054906101000a900473ffffffffffffffffffffffffffffffffffffffff1681565b5f5f5f9054906101000a900473ffffffffffffffffffffffffffffffffffffffff1673ffffffffffffffffffffffffffffffffffffffff163373ffffffffffffffffffffffffffffffffffffffff1614610699576040517f08c379a00000000000000000000000000000000000000000000000000000000081526004016106909061103c565b60405180910390fd5b5f83838101906106a99190610cef565b90505f60025f8381526020019081526020015f2054036106fe576040517f08c379a00000000000000000000000000000000000000000000000000000000081526004016106f5906110a4565b60405180910390fd5b60025f8281526020019081526020015f2054851015610752576040517f08c379a00000000000000000000000000000000000000000000000000000000081526004016107499061110c565b60405180910390fd5b5f60015f9054906101000a900473ffffffffffffffffffffffffffffffffffffffff1673ffffffffffffffffffffffffffffffffffffffff16636352211e836040518263ffffffff1660e01b81526004016107ad9190610d29565b602060405180830381865afa1580156107c8573d5f5f3e3d5ffd5b505050506040513d601f19601f820116820180604052508101906107ec9190610dce565b90505f5f9054906101000a900473ffffffffffffffffffffffffffffffffffffffff1673ffffffffffffffffffffffffffffffffffffffff1663a9059cbb8260025f8681526020019081526020015f20546040518363ffffffff1660e01b815260040161085a92919061112a565b6020604051808303815f875af1158015610876573d5f5f3e3d5ffd5b505050506040513d601f19601f8201168201806040525081019061089a9190610e67565b5060025f8381526020019081526020015f205486111561096d575f5f9054906101000a900473ffffffffffffffffffffffffffffffffffffffff1673ffffffffffffffffffffffffffffffffffffffff1663a9059cbb8860025f8681526020019081526020015f20548961090e919061117e565b6040518363ffffffff1660e01b815260040161092b92919061112a565b6020604051808303815f875af1158015610947573d5f5f3e3d5ffd5b505050506040513d601f19601f8201168201806040525081019061096b9190610e67565b505b60015f9054906101000a900473ffffffffffffffffffffffffffffffffffffffff1673ffffffffffffffffffffffffffffffffffffffff166342842e0e8289856040518463ffffffff1660e01b81526004016109cb93929190610e08565b5f604051808303815f87803b1580156109e2575f5ffd5b505af11580156109f4573d5f5f3e3d5ffd5b5050505060025f8381526020019081526020015f205f90557f5d963241241cfe9e161d13500d628058954b3febfde03e4b1f4071370e72fe2b878388604051610a3f93929190610efa565b60405180910390a1600192505050949350505050565b6002602052805f5260405f205f915090505481565b5f5ffd5b5f5ffd5b5f819050919050565b610a8481610a72565b8114610a8e575f5ffd5b50565b5f81359050610a9f81610a7b565b92915050565b5f5f60408385031215610abb57610aba610a6a565b5b5f610ac885828601610a91565b9250506020610ad985828601610a91565b9150509250929050565b5f8115159050919050565b610af781610ae3565b82525050565b5f602082019050610b105f830184610aee565b92915050565b5f73ffffffffffffffffffffffffffffffffffffffff82169050919050565b5f819050919050565b5f610b58610b53610b4e84610b16565b610b35565b610b16565b9050919050565b5f610b6982610b3e565b9050919050565b5f610b7a82610b5f565b9050919050565b610b8a81610b70565b82525050565b5f602082019050610ba35f830184610b81565b92915050565b5f610bb382610b5f565b9050919050565b610bc381610ba9565b82525050565b5f602082019050610bdc5f830184610bba565b92915050565b5f610bec82610b16565b9050919050565b610bfc81610be2565b8114610c06575f5ffd5b50565b5f81359050610c1781610bf3565b92915050565b5f5ffd5b5f5ffd5b5f5ffd5b5f5f83601f840112610c3e57610c3d610c1d565b5b8235905067ffffffffffffffff811115610c5b57610c5a610c21565b5b602083019150836001820283011115610c7757610c76610c25565b5b9250929050565b5f5f5f5f60608587031215610c9657610c95610a6a565b5b5f610ca387828801610c09565b9450506020610cb487828801610a91565b935050604085013567ffffffffffffffff811115610cd557610cd4610a6e565b5b610ce187828801610c29565b925092505092959194509250565b5f60208284031215610d0457610d03610a6a565b5b5f610d1184828501610a91565b91505092915050565b610d2381610a72565b82525050565b5f602082019050610d3c5f830184610d1a565b92915050565b5f82825260208201905092915050565b7f746f6b656e4964206d75737420213d302c20616d6f756e74206d757374203e305f82015250565b5f610d86602083610d42565b9150610d9182610d52565b602082019050919050565b5f6020820190508181035f830152610db381610d7a565b9050919050565b5f81519050610dc881610bf3565b92915050565b5f60208284031215610de357610de2610a6a565b5b5f610df084828501610dba565b91505092915050565b610e0281610be2565b82525050565b5f606082019050610e1b5f830186610df9565b610e286020830185610df9565b610e356040830184610d1a565b949350505050565b610e4681610ae3565b8114610e50575f5ffd5b50565b5f81519050610e6181610e3d565b92915050565b5f60208284031215610e7c57610e7b610a6a565b5b5f610e8984828501610e53565b91505092915050565b7f7472616e7366657246726f6d206572726f7200000000000000000000000000005f82015250565b5f610ec6601283610d42565b9150610ed182610e92565b602082019050919050565b5f6020820190508181035f830152610ef381610eba565b9050919050565b5f606082019050610f0d5f830186610df9565b610f1a6020830185610d1a565b610f276040830184610d1a565b949350505050565b7f796f7520617265206e6f74206f776e65720000000000000000000000000000005f82015250565b5f610f63601183610d42565b9150610f6e82610f2f565b602082019050919050565b5f6020820190508181035f830152610f9081610f57565b9050919050565b5f606082019050610faa5f830186610d1a565b610fb76020830185610df9565b610fc46040830184610d1a565b949350505050565b7f6f6e6c79206572633230546f6b656e2063616e2063616c6c20746869732066755f8201527f6e6374696f6e0000000000000000000000000000000000000000000000000000602082015250565b5f611026602683610d42565b915061103182610fcc565b604082019050919050565b5f6020820190508181035f8301526110538161101a565b9050919050565b7f4d61726b65743a20746f6b656e206e6f7420666f722073616c650000000000005f82015250565b5f61108e601a83610d42565b91506110998261105a565b602082019050919050565b5f6020820190508181035f8301526110bb81611082565b9050919050565b7f204d61726b65743a20696e73756666696369656e7420616d6f756e74000000005f82015250565b5f6110f6601c83610d42565b9150611101826110c2565b602082019050919050565b5f6020820190508181035f830152611123816110ea565b9050919050565b5f60408201905061113d5f830185610df9565b61114a6020830184610d1a565b9392505050565b7f4e487b71000000000000000000000000000000000000000000000000000000005f52601160045260245ffd5b5f61118882610a72565b915061119383610a72565b92508282039050818111156111ab576111aa611151565b5b9291505056fea2646970667358221220808199377ebac8c412a00d32b582c3493d5f12ecc3bfa5744f5eaa78b6abf19c64736f6c63430008220033",
					"opcodes": "PUSH1 0x80 PUSH1 0x40 MSTORE CALLVALUE DUP1 ISZERO PUSH2 0xF JUMPI PUSH0 PUSH0 REVERT JUMPDEST POP PUSH1 0x40 MLOAD PUSH2 0x1393 CODESIZE SUB DUP1 PUSH2 0x1393 DUP4 CODECOPY DUP2 DUP2 ADD PUSH1 0x40 MSTORE DUP2 ADD SWAP1 PUSH2 0x31 SWAP2 SWAP1 PUSH2 0x161 JUMP JUMPDEST DUP2 PUSH0 PUSH0 PUSH2 0x100 EXP DUP2 SLOAD DUP2 PUSH20 0xFFFFFFFFFFFFFFFFFFFFFFFFFFFFFFFFFFFFFFFF MUL NOT AND SWAP1 DUP4 PUSH20 0xFFFFFFFFFFFFFFFFFFFFFFFFFFFFFFFFFFFFFFFF AND MUL OR SWAP1 SSTORE POP DUP1 PUSH1 0x1 PUSH0 PUSH2 0x100 EXP DUP2 SLOAD DUP2 PUSH20 0xFFFFFFFFFFFFFFFFFFFFFFFFFFFFFFFFFFFFFFFF MUL NOT AND SWAP1 DUP4 PUSH20 0xFFFFFFFFFFFFFFFFFFFFFFFFFFFFFFFFFFFFFFFF AND MUL OR SWAP1 SSTORE POP POP POP PUSH2 0x19F JUMP JUMPDEST PUSH0 PUSH0 REVERT JUMPDEST PUSH0 PUSH20 0xFFFFFFFFFFFFFFFFFFFFFFFFFFFFFFFFFFFFFFFF DUP3 AND SWAP1 POP SWAP2 SWAP1 POP JUMP JUMPDEST PUSH0 PUSH2 0xE4 DUP3 PUSH2 0xBB JUMP JUMPDEST SWAP1 POP SWAP2 SWAP1 POP JUMP JUMPDEST PUSH0 PUSH2 0xF5 DUP3 PUSH2 0xDA JUMP JUMPDEST SWAP1 POP SWAP2 SWAP1 POP JUMP JUMPDEST PUSH2 0x105 DUP2 PUSH2 0xEB JUMP JUMPDEST DUP2 EQ PUSH2 0x10F JUMPI PUSH0 PUSH0 REVERT JUMPDEST POP JUMP JUMPDEST PUSH0 DUP2 MLOAD SWAP1 POP PUSH2 0x120 DUP2 PUSH2 0xFC JUMP JUMPDEST SWAP3 SWAP2 POP POP JUMP JUMPDEST PUSH0 PUSH2 0x130 DUP3 PUSH2 0xDA JUMP JUMPDEST SWAP1 POP SWAP2 SWAP1 POP JUMP JUMPDEST PUSH2 0x140 DUP2 PUSH2 0x126 JUMP JUMPDEST DUP2 EQ PUSH2 0x14A JUMPI PUSH0 PUSH0 REVERT JUMPDEST POP JUMP JUMPDEST PUSH0 DUP2 MLOAD SWAP1 POP PUSH2 0x15B DUP2 PUSH2 0x137 JUMP JUMPDEST SWAP3 SWAP2 POP POP JUMP JUMPDEST PUSH0 PUSH0 PUSH1 0x40 DUP4 DUP6 SUB SLT ISZERO PUSH2 0x177 JUMPI PUSH2 0x176 PUSH2 0xB7 JUMP JUMPDEST JUMPDEST PUSH0 PUSH2 0x184 DUP6 DUP3 DUP7 ADD PUSH2 0x112 JUMP JUMPDEST SWAP3 POP POP PUSH1 0x20 PUSH2 0x195 DUP6 DUP3 DUP7 ADD PUSH2 0x14D JUMP JUMPDEST SWAP2 POP POP SWAP3 POP SWAP3 SWAP1 POP JUMP JUMPDEST PUSH2 0x11E7 DUP1 PUSH2 0x1AC PUSH0 CODECOPY PUSH0 RETURN INVALID PUSH1 0x80 PUSH1 0x40 MSTORE CALLVALUE DUP1 ISZERO PUSH2 0xF JUMPI PUSH0 PUSH0 REVERT JUMPDEST POP PUSH1 0x4 CALLDATASIZE LT PUSH2 0x60 JUMPI PUSH0 CALLDATALOAD PUSH1 0xE0 SHR DUP1 PUSH4 0x1D85BF03 EQ PUSH2 0x64 JUMPI DUP1 PUSH4 0x50FD7367 EQ PUSH2 0x94 JUMPI DUP1 PUSH4 0x5F2D6BCD EQ PUSH2 0xC4 JUMPI DUP1 PUSH4 0x8A13EEA7 EQ PUSH2 0xE2 JUMPI DUP1 PUSH4 0xD0314263 EQ PUSH2 0x100 JUMPI DUP1 PUSH4 0xD4DDCE8A EQ PUSH2 0x130 JUMPI JUMPDEST PUSH0 PUSH0 REVERT JUMPDEST PUSH2 0x7E PUSH1 0x4 DUP1 CALLDATASIZE SUB DUP2 ADD SWAP1 PUSH2 0x79 SWAP2 SWAP1 PUSH2 0xAA5 JUMP JUMPDEST PUSH2 0x160 JUMP JUMPDEST PUSH1 0x40 MLOAD PUSH2 0x8B SWAP2 SWAP1 PUSH2 0xAFD JUMP JUMPDEST PUSH1 0x40 MLOAD DUP1 SWAP2 SUB SWAP1 RETURN JUMPDEST PUSH2 0xAE PUSH1 0x4 DUP1 CALLDATASIZE SUB DUP2 ADD SWAP1 PUSH2 0xA9 SWAP2 SWAP1 PUSH2 0xAA5 JUMP JUMPDEST PUSH2 0x411 JUMP JUMPDEST PUSH1 0x40 MLOAD PUSH2 0xBB SWAP2 SWAP1 PUSH2 0xAFD JUMP JUMPDEST PUSH1 0x40 MLOAD DUP1 SWAP2 SUB SWAP1 RETURN JUMPDEST PUSH2 0xCC PUSH2 0x5C1 JUMP JUMPDEST PUSH1 0x40 MLOAD PUSH2 0xD9 SWAP2 SWAP1 PUSH2 0xB90 JUMP JUMPDEST PUSH1 0x40 MLOAD DUP1 SWAP2 SUB SWAP1 RETURN JUMPDEST PUSH2 0xEA PUSH2 0x5E6 JUMP JUMPDEST PUSH1 0x40 MLOAD PUSH2 0xF7 SWAP2 SWAP1 PUSH2 0xBC9 JUMP JUMPDEST PUSH1 0x40 MLOAD DUP1 SWAP2 SUB SWAP1 RETURN JUMPDEST PUSH2 0x11A PUSH1 0x4 DUP1 CALLDATASIZE SUB DUP2 ADD SWAP1 PUSH2 0x115 SWAP2 SWAP1 PUSH2 0xC7E JUMP JUMPDEST PUSH2 0x60A JUMP JUMPDEST PUSH1 0x40 MLOAD PUSH2 0x127 SWAP2 SWAP1 PUSH2 0xAFD JUMP JUMPDEST PUSH1 0x40 MLOAD DUP1 SWAP2 SUB SWAP1 RETURN JUMPDEST PUSH2 0x14A PUSH1 0x4 DUP1 CALLDATASIZE SUB DUP2 ADD SWAP1 PUSH2 0x145 SWAP2 SWAP1 PUSH2 0xCEF JUMP JUMPDEST PUSH2 0xA55 JUMP JUMPDEST PUSH1 0x40 MLOAD PUSH2 0x157 SWAP2 SWAP1 PUSH2 0xD29 JUMP JUMPDEST PUSH1 0x40 MLOAD DUP1 SWAP2 SUB SWAP1 RETURN JUMPDEST PUSH0 PUSH0 DUP4 EQ ISZERO DUP1 ISZERO PUSH2 0x170 JUMPI POP PUSH0 DUP3 GT JUMPDEST PUSH2 0x1AF JUMPI PUSH1 0x40 MLOAD PUSH32 0x8C379A000000000000000000000000000000000000000000000000000000000 DUP2 MSTORE PUSH1 0x4 ADD PUSH2 0x1A6 SWAP1 PUSH2 0xD9C JUMP JUMPDEST PUSH1 0x40 MLOAD DUP1 SWAP2 SUB SWAP1 REVERT JUMPDEST PUSH0 PUSH1 0x1 PUSH0 SWAP1 SLOAD SWAP1 PUSH2 0x100 EXP SWAP1 DIV PUSH20 0xFFFFFFFFFFFFFFFFFFFFFFFFFFFFFFFFFFFFFFFF AND PUSH20 0xFFFFFFFFFFFFFFFFFFFFFFFFFFFFFFFFFFFFFFFF AND PUSH4 0x6352211E DUP6 PUSH1 0x40 MLOAD DUP3 PUSH4 0xFFFFFFFF AND PUSH1 0xE0 SHL DUP2 MSTORE PUSH1 0x4 ADD PUSH2 0x20A SWAP2 SWAP1 PUSH2 0xD29 JUMP JUMPDEST PUSH1 0x20 PUSH1 0x40 MLOAD DUP1 DUP4 SUB DUP2 DUP7 GAS STATICCALL ISZERO DUP1 ISZERO PUSH2 0x225 JUMPI RETURNDATASIZE PUSH0 PUSH0 RETURNDATACOPY RETURNDATASIZE PUSH0 REVERT JUMPDEST POP POP POP POP PUSH1 0x40 MLOAD RETURNDATASIZE PUSH1 0x1F NOT PUSH1 0x1F DUP3 ADD AND DUP3 ADD DUP1 PUSH1 0x40 MSTORE POP DUP2 ADD SWAP1 PUSH2 0x249 SWAP2 SWAP1 PUSH2 0xDCE JUMP JUMPDEST SWAP1 POP PUSH0 PUSH0 PUSH0 SWAP1 SLOAD SWAP1 PUSH2 0x100 EXP SWAP1 DIV PUSH20 0xFFFFFFFFFFFFFFFFFFFFFFFFFFFFFFFFFFFFFFFF AND PUSH20 0xFFFFFFFFFFFFFFFFFFFFFFFFFFFFFFFFFFFFFFFF AND PUSH4 0x23B872DD CALLER DUP5 DUP8 PUSH1 0x40 MLOAD DUP5 PUSH4 0xFFFFFFFF AND PUSH1 0xE0 SHL DUP2 MSTORE PUSH1 0x4 ADD PUSH2 0x2A9 SWAP4 SWAP3 SWAP2 SWAP1 PUSH2 0xE08 JUMP JUMPDEST PUSH1 0x20 PUSH1 0x40 MLOAD DUP1 DUP4 SUB DUP2 PUSH0 DUP8 GAS CALL ISZERO DUP1 ISZERO PUSH2 0x2C5 JUMPI RETURNDATASIZE PUSH0 PUSH0 RETURNDATACOPY RETURNDATASIZE PUSH0 REVERT JUMPDEST POP POP POP POP PUSH1 0x40 MLOAD RETURNDATASIZE PUSH1 0x1F NOT PUSH1 0x1F DUP3 ADD AND DUP3 ADD DUP1 PUSH1 0x40 MSTORE POP DUP2 ADD SWAP1 PUSH2 0x2E9 SWAP2 SWAP1 PUSH2 0xE67 JUMP JUMPDEST SWAP1 POP DUP1 PUSH2 0x32B JUMPI PUSH1 0x40 MLOAD PUSH32 0x8C379A000000000000000000000000000000000000000000000000000000000 DUP2 MSTORE PUSH1 0x4 ADD PUSH2 0x322 SWAP1 PUSH2 0xEDC JUMP JUMPDEST PUSH1 0x40 MLOAD DUP1 SWAP2 SUB SWAP1 REVERT JUMPDEST PUSH1 0x1 PUSH0 SWAP1 SLOAD SWAP1 PUSH2 0x100 EXP SWAP1 DIV PUSH20 0xFFFFFFFFFFFFFFFFFFFFFFFFFFFFFFFFFFFFFFFF AND PUSH20 0xFFFFFFFFFFFFFFFFFFFFFFFFFFFFFFFFFFFFFFFF AND PUSH4 0x42842E0E DUP4 CALLER DUP9 PUSH1 0x40 MLOAD DUP5 PUSH4 0xFFFFFFFF AND PUSH1 0xE0 SHL DUP2 MSTORE PUSH1 0x4 ADD PUSH2 0x389 SWAP4 SWAP3 SWAP2 SWAP1 PUSH2 0xE08 JUMP JUMPDEST PUSH0 PUSH1 0x40 MLOAD DUP1 DUP4 SUB DUP2 PUSH0 DUP8 DUP1 EXTCODESIZE ISZERO DUP1 ISZERO PUSH2 0x3A0 JUMPI PUSH0 PUSH0 REVERT JUMPDEST POP GAS CALL ISZERO DUP1 ISZERO PUSH2 0x3B2 JUMPI RETURNDATASIZE PUSH0 PUSH0 RETURNDATACOPY RETURNDATASIZE PUSH0 REVERT JUMPDEST POP POP POP POP PUSH1 0x2 PUSH0 DUP7 DUP2 MSTORE PUSH1 0x20 ADD SWAP1 DUP2 MSTORE PUSH1 0x20 ADD PUSH0 KECCAK256 PUSH0 SWAP1 SSTORE PUSH32 0x5D963241241CFE9E161D13500D628058954B3FEBFDE03E4B1F4071370E72FE2B CALLER DUP7 DUP7 PUSH1 0x40 MLOAD PUSH2 0x3FD SWAP4 SWAP3 SWAP2 SWAP1 PUSH2 0xEFA JUMP JUMPDEST PUSH1 0x40 MLOAD DUP1 SWAP2 SUB SWAP1 LOG1 PUSH1 0x1 SWAP3 POP POP POP SWAP3 SWAP2 POP POP JUMP JUMPDEST PUSH0 PUSH0 DUP4 EQ ISZERO DUP1 ISZERO PUSH2 0x421 JUMPI POP PUSH0 DUP3 GT JUMPDEST PUSH2 0x460 JUMPI PUSH1 0x40 MLOAD PUSH32 0x8C379A000000000000000000000000000000000000000000000000000000000 DUP2 MSTORE PUSH1 0x4 ADD PUSH2 0x457 SWAP1 PUSH2 0xD9C JUMP JUMPDEST PUSH1 0x40 MLOAD DUP1 SWAP2 SUB SWAP1 REVERT JUMPDEST CALLER PUSH20 0xFFFFFFFFFFFFFFFFFFFFFFFFFFFFFFFFFFFFFFFF AND PUSH1 0x1 PUSH0 SWAP1 SLOAD SWAP1 PUSH2 0x100 EXP SWAP1 DIV PUSH20 0xFFFFFFFFFFFFFFFFFFFFFFFFFFFFFFFFFFFFFFFF AND PUSH20 0xFFFFFFFFFFFFFFFFFFFFFFFFFFFFFFFFFFFFFFFF AND PUSH4 0x6352211E DUP6 PUSH1 0x40 MLOAD DUP3 PUSH4 0xFFFFFFFF AND PUSH1 0xE0 SHL DUP2 MSTORE PUSH1 0x4 ADD PUSH2 0x4D1 SWAP2 SWAP1 PUSH2 0xD29 JUMP JUMPDEST PUSH1 0x20 PUSH1 0x40 MLOAD DUP1 DUP4 SUB DUP2 DUP7 GAS STATICCALL ISZERO DUP1 ISZERO PUSH2 0x4EC JUMPI RETURNDATASIZE PUSH0 PUSH0 RETURNDATACOPY RETURNDATASIZE PUSH0 REVERT JUMPDEST POP POP POP POP PUSH1 0x40 MLOAD RETURNDATASIZE PUSH1 0x1F NOT PUSH1 0x1F DUP3 ADD AND DUP3 ADD DUP1 PUSH1 0x40 MSTORE POP DUP2 ADD SWAP1 PUSH2 0x510 SWAP2 SWAP1 PUSH2 0xDCE JUMP JUMPDEST PUSH20 0xFFFFFFFFFFFFFFFFFFFFFFFFFFFFFFFFFFFFFFFF AND EQ PUSH2 0x566 JUMPI PUSH1 0x40 MLOAD PUSH32 0x8C379A000000000000000000000000000000000000000000000000000000000 DUP2 MSTORE PUSH1 0x4 ADD PUSH2 0x55D SWAP1 PUSH2 0xF79 JUMP JUMPDEST PUSH1 0x40 MLOAD DUP1 SWAP2 SUB SWAP1 REVERT JUMPDEST DUP2 PUSH1 0x2 PUSH0 DUP6 DUP2 MSTORE PUSH1 0x20 ADD SWAP1 DUP2 MSTORE PUSH1 0x20 ADD PUSH0 KECCAK256 DUP2 SWAP1 SSTORE POP PUSH32 0x656FEA2AEB2AF9841F5B2D9A77BE15564D1A00F76FFF68C5435AEC927EB4D5D6 DUP4 CALLER DUP5 PUSH1 0x40 MLOAD PUSH2 0x5AF SWAP4 SWAP3 SWAP2 SWAP1 PUSH2 0xF97 JUMP JUMPDEST PUSH1 0x40 MLOAD DUP1 SWAP2 SUB SWAP1 LOG1 PUSH1 0x1 SWAP1 POP SWAP3 SWAP2 POP POP JUMP JUMPDEST PUSH1 0x1 PUSH0 SWAP1 SLOAD SWAP1 PUSH2 0x100 EXP SWAP1 DIV PUSH20 0xFFFFFFFFFFFFFFFFFFFFFFFFFFFFFFFFFFFFFFFF AND DUP2 JUMP JUMPDEST PUSH0 PUSH0 SWAP1 SLOAD SWAP1 PUSH2 0x100 EXP SWAP1 DIV PUSH20 0xFFFFFFFFFFFFFFFFFFFFFFFFFFFFFFFFFFFFFFFF AND DUP2 JUMP JUMPDEST PUSH0 PUSH0 PUSH0 SWAP1 SLOAD SWAP1 PUSH2 0x100 EXP SWAP1 DIV PUSH20 0xFFFFFFFFFFFFFFFFFFFFFFFFFFFFFFFFFFFFFFFF AND PUSH20 0xFFFFFFFFFFFFFFFFFFFFFFFFFFFFFFFFFFFFFFFF AND CALLER PUSH20 0xFFFFFFFFFFFFFFFFFFFFFFFFFFFFFFFFFFFFFFFF AND EQ PUSH2 0x699 JUMPI PUSH1 0x40 MLOAD PUSH32 0x8C379A000000000000000000000000000000000000000000000000000000000 DUP2 MSTORE PUSH1 0x4 ADD PUSH2 0x690 SWAP1 PUSH2 0x103C JUMP JUMPDEST PUSH1 0x40 MLOAD DUP1 SWAP2 SUB SWAP1 REVERT JUMPDEST PUSH0 DUP4 DUP4 DUP2 ADD SWAP1 PUSH2 0x6A9 SWAP2 SWAP1 PUSH2 0xCEF JUMP JUMPDEST SWAP1 POP PUSH0 PUSH1 0x2 PUSH0 DUP4 DUP2 MSTORE PUSH1 0x20 ADD SWAP1 DUP2 MSTORE PUSH1 0x20 ADD PUSH0 KECCAK256 SLOAD SUB PUSH2 0x6FE JUMPI PUSH1 0x40 MLOAD PUSH32 0x8C379A000000000000000000000000000000000000000000000000000000000 DUP2 MSTORE PUSH1 0x4 ADD PUSH2 0x6F5 SWAP1 PUSH2 0x10A4 JUMP JUMPDEST PUSH1 0x40 MLOAD DUP1 SWAP2 SUB SWAP1 REVERT JUMPDEST PUSH1 0x2 PUSH0 DUP3 DUP2 MSTORE PUSH1 0x20 ADD SWAP1 DUP2 MSTORE PUSH1 0x20 ADD PUSH0 KECCAK256 SLOAD DUP6 LT ISZERO PUSH2 0x752 JUMPI PUSH1 0x40 MLOAD PUSH32 0x8C379A000000000000000000000000000000000000000000000000000000000 DUP2 MSTORE PUSH1 0x4 ADD PUSH2 0x749 SWAP1 PUSH2 0x110C JUMP JUMPDEST PUSH1 0x40 MLOAD DUP1 SWAP2 SUB SWAP1 REVERT JUMPDEST PUSH0 PUSH1 0x1 PUSH0 SWAP1 SLOAD SWAP1 PUSH2 0x100 EXP SWAP1 DIV PUSH20 0xFFFFFFFFFFFFFFFFFFFFFFFFFFFFFFFFFFFFFFFF AND PUSH20 0xFFFFFFFFFFFFFFFFFFFFFFFFFFFFFFFFFFFFFFFF AND PUSH4 0x6352211E DUP4 PUSH1 0x40 MLOAD DUP3 PUSH4 0xFFFFFFFF AND PUSH1 0xE0 SHL DUP2 MSTORE PUSH1 0x4 ADD PUSH2 0x7AD SWAP2 SWAP1 PUSH2 0xD29 JUMP JUMPDEST PUSH1 0x20 PUSH1 0x40 MLOAD DUP1 DUP4 SUB DUP2 DUP7 GAS STATICCALL ISZERO DUP1 ISZERO PUSH2 0x7C8 JUMPI RETURNDATASIZE PUSH0 PUSH0 RETURNDATACOPY RETURNDATASIZE PUSH0 REVERT JUMPDEST POP POP POP POP PUSH1 0x40 MLOAD RETURNDATASIZE PUSH1 0x1F NOT PUSH1 0x1F DUP3 ADD AND DUP3 ADD DUP1 PUSH1 0x40 MSTORE POP DUP2 ADD SWAP1 PUSH2 0x7EC SWAP2 SWAP1 PUSH2 0xDCE JUMP JUMPDEST SWAP1 POP PUSH0 PUSH0 SWAP1 SLOAD SWAP1 PUSH2 0x100 EXP SWAP1 DIV PUSH20 0xFFFFFFFFFFFFFFFFFFFFFFFFFFFFFFFFFFFFFFFF AND PUSH20 0xFFFFFFFFFFFFFFFFFFFFFFFFFFFFFFFFFFFFFFFF AND PUSH4 0xA9059CBB DUP3 PUSH1 0x2 PUSH0 DUP7 DUP2 MSTORE PUSH1 0x20 ADD SWAP1 DUP2 MSTORE PUSH1 0x20 ADD PUSH0 KECCAK256 SLOAD PUSH1 0x40 MLOAD DUP4 PUSH4 0xFFFFFFFF AND PUSH1 0xE0 SHL DUP2 MSTORE PUSH1 0x4 ADD PUSH2 0x85A SWAP3 SWAP2 SWAP1 PUSH2 0x112A JUMP JUMPDEST PUSH1 0x20 PUSH1 0x40 MLOAD DUP1 DUP4 SUB DUP2 PUSH0 DUP8 GAS CALL ISZERO DUP1 ISZERO PUSH2 0x876 JUMPI RETURNDATASIZE PUSH0 PUSH0 RETURNDATACOPY RETURNDATASIZE PUSH0 REVERT JUMPDEST POP POP POP POP PUSH1 0x40 MLOAD RETURNDATASIZE PUSH1 0x1F NOT PUSH1 0x1F DUP3 ADD AND DUP3 ADD DUP1 PUSH1 0x40 MSTORE POP DUP2 ADD SWAP1 PUSH2 0x89A SWAP2 SWAP1 PUSH2 0xE67 JUMP JUMPDEST POP PUSH1 0x2 PUSH0 DUP4 DUP2 MSTORE PUSH1 0x20 ADD SWAP1 DUP2 MSTORE PUSH1 0x20 ADD PUSH0 KECCAK256 SLOAD DUP7 GT ISZERO PUSH2 0x96D JUMPI PUSH0 PUSH0 SWAP1 SLOAD SWAP1 PUSH2 0x100 EXP SWAP1 DIV PUSH20 0xFFFFFFFFFFFFFFFFFFFFFFFFFFFFFFFFFFFFFFFF AND PUSH20 0xFFFFFFFFFFFFFFFFFFFFFFFFFFFFFFFFFFFFFFFF AND PUSH4 0xA9059CBB DUP9 PUSH1 0x2 PUSH0 DUP7 DUP2 MSTORE PUSH1 0x20 ADD SWAP1 DUP2 MSTORE PUSH1 0x20 ADD PUSH0 KECCAK256 SLOAD DUP10 PUSH2 0x90E SWAP2 SWAP1 PUSH2 0x117E JUMP JUMPDEST PUSH1 0x40 MLOAD DUP4 PUSH4 0xFFFFFFFF AND PUSH1 0xE0 SHL DUP2 MSTORE PUSH1 0x4 ADD PUSH2 0x92B SWAP3 SWAP2 SWAP1 PUSH2 0x112A JUMP JUMPDEST PUSH1 0x20 PUSH1 0x40 MLOAD DUP1 DUP4 SUB DUP2 PUSH0 DUP8 GAS CALL ISZERO DUP1 ISZERO PUSH2 0x947 JUMPI RETURNDATASIZE PUSH0 PUSH0 RETURNDATACOPY RETURNDATASIZE PUSH0 REVERT JUMPDEST POP POP POP POP PUSH1 0x40 MLOAD RETURNDATASIZE PUSH1 0x1F NOT PUSH1 0x1F DUP3 ADD AND DUP3 ADD DUP1 PUSH1 0x40 MSTORE POP DUP2 ADD SWAP1 PUSH2 0x96B SWAP2 SWAP1 PUSH2 0xE67 JUMP JUMPDEST POP JUMPDEST PUSH1 0x1 PUSH0 SWAP1 SLOAD SWAP1 PUSH2 0x100 EXP SWAP1 DIV PUSH20 0xFFFFFFFFFFFFFFFFFFFFFFFFFFFFFFFFFFFFFFFF AND PUSH20 0xFFFFFFFFFFFFFFFFFFFFFFFFFFFFFFFFFFFFFFFF AND PUSH4 0x42842E0E DUP3 DUP10 DUP6 PUSH1 0x40 MLOAD DUP5 PUSH4 0xFFFFFFFF AND PUSH1 0xE0 SHL DUP2 MSTORE PUSH1 0x4 ADD PUSH2 0x9CB SWAP4 SWAP3 SWAP2 SWAP1 PUSH2 0xE08 JUMP JUMPDEST PUSH0 PUSH1 0x40 MLOAD DUP1 DUP4 SUB DUP2 PUSH0 DUP8 DUP1 EXTCODESIZE ISZERO DUP1 ISZERO PUSH2 0x9E2 JUMPI PUSH0 PUSH0 REVERT JUMPDEST POP GAS CALL ISZERO DUP1 ISZERO PUSH2 0x9F4 JUMPI RETURNDATASIZE PUSH0 PUSH0 RETURNDATACOPY RETURNDATASIZE PUSH0 REVERT JUMPDEST POP POP POP POP PUSH1 0x2 PUSH0 DUP4 DUP2 MSTORE PUSH1 0x20 ADD SWAP1 DUP2 MSTORE PUSH1 0x20 ADD PUSH0 KECCAK256 PUSH0 SWAP1 SSTORE PUSH32 0x5D963241241CFE9E161D13500D628058954B3FEBFDE03E4B1F4071370E72FE2B DUP8 DUP4 DUP9 PUSH1 0x40 MLOAD PUSH2 0xA3F SWAP4 SWAP3 SWAP2 SWAP1 PUSH2 0xEFA JUMP JUMPDEST PUSH1 0x40 MLOAD DUP1 SWAP2 SUB SWAP1 LOG1 PUSH1 0x1 SWAP3 POP POP POP SWAP5 SWAP4 POP POP POP POP JUMP JUMPDEST PUSH1 0x2 PUSH1 0x20 MSTORE DUP1 PUSH0 MSTORE PUSH1 0x40 PUSH0 KECCAK256 PUSH0 SWAP2 POP SWAP1 POP SLOAD DUP2 JUMP JUMPDEST PUSH0 PUSH0 REVERT JUMPDEST PUSH0 PUSH0 REVERT JUMPDEST PUSH0 DUP2 SWAP1 POP SWAP2 SWAP1 POP JUMP JUMPDEST PUSH2 0xA84 DUP2 PUSH2 0xA72 JUMP JUMPDEST DUP2 EQ PUSH2 0xA8E JUMPI PUSH0 PUSH0 REVERT JUMPDEST POP JUMP JUMPDEST PUSH0 DUP2 CALLDATALOAD SWAP1 POP PUSH2 0xA9F DUP2 PUSH2 0xA7B JUMP JUMPDEST SWAP3 SWAP2 POP POP JUMP JUMPDEST PUSH0 PUSH0 PUSH1 0x40 DUP4 DUP6 SUB SLT ISZERO PUSH2 0xABB JUMPI PUSH2 0xABA PUSH2 0xA6A JUMP JUMPDEST JUMPDEST PUSH0 PUSH2 0xAC8 DUP6 DUP3 DUP7 ADD PUSH2 0xA91 JUMP JUMPDEST SWAP3 POP POP PUSH1 0x20 PUSH2 0xAD9 DUP6 DUP3 DUP7 ADD PUSH2 0xA91 JUMP JUMPDEST SWAP2 POP POP SWAP3 POP SWAP3 SWAP1 POP JUMP JUMPDEST PUSH0 DUP2 ISZERO ISZERO SWAP1 POP SWAP2 SWAP1 POP JUMP JUMPDEST PUSH2 0xAF7 DUP2 PUSH2 0xAE3 JUMP JUMPDEST DUP3 MSTORE POP POP JUMP JUMPDEST PUSH0 PUSH1 0x20 DUP3 ADD SWAP1 POP PUSH2 0xB10 PUSH0 DUP4 ADD DUP5 PUSH2 0xAEE JUMP JUMPDEST SWAP3 SWAP2 POP POP JUMP JUMPDEST PUSH0 PUSH20 0xFFFFFFFFFFFFFFFFFFFFFFFFFFFFFFFFFFFFFFFF DUP3 AND SWAP1 POP SWAP2 SWAP1 POP JUMP JUMPDEST PUSH0 DUP2 SWAP1 POP SWAP2 SWAP1 POP JUMP JUMPDEST PUSH0 PUSH2 0xB58 PUSH2 0xB53 PUSH2 0xB4E DUP5 PUSH2 0xB16 JUMP JUMPDEST PUSH2 0xB35 JUMP JUMPDEST PUSH2 0xB16 JUMP JUMPDEST SWAP1 POP SWAP2 SWAP1 POP JUMP JUMPDEST PUSH0 PUSH2 0xB69 DUP3 PUSH2 0xB3E JUMP JUMPDEST SWAP1 POP SWAP2 SWAP1 POP JUMP JUMPDEST PUSH0 PUSH2 0xB7A DUP3 PUSH2 0xB5F JUMP JUMPDEST SWAP1 POP SWAP2 SWAP1 POP JUMP JUMPDEST PUSH2 0xB8A DUP2 PUSH2 0xB70 JUMP JUMPDEST DUP3 MSTORE POP POP JUMP JUMPDEST PUSH0 PUSH1 0x20 DUP3 ADD SWAP1 POP PUSH2 0xBA3 PUSH0 DUP4 ADD DUP5 PUSH2 0xB81 JUMP JUMPDEST SWAP3 SWAP2 POP POP JUMP JUMPDEST PUSH0 PUSH2 0xBB3 DUP3 PUSH2 0xB5F JUMP JUMPDEST SWAP1 POP SWAP2 SWAP1 POP JUMP JUMPDEST PUSH2 0xBC3 DUP2 PUSH2 0xBA9 JUMP JUMPDEST DUP3 MSTORE POP POP JUMP JUMPDEST PUSH0 PUSH1 0x20 DUP3 ADD SWAP1 POP PUSH2 0xBDC PUSH0 DUP4 ADD DUP5 PUSH2 0xBBA JUMP JUMPDEST SWAP3 SWAP2 POP POP JUMP JUMPDEST PUSH0 PUSH2 0xBEC DUP3 PUSH2 0xB16 JUMP JUMPDEST SWAP1 POP SWAP2 SWAP1 POP JUMP JUMPDEST PUSH2 0xBFC DUP2 PUSH2 0xBE2 JUMP JUMPDEST DUP2 EQ PUSH2 0xC06 JUMPI PUSH0 PUSH0 REVERT JUMPDEST POP JUMP JUMPDEST PUSH0 DUP2 CALLDATALOAD SWAP1 POP PUSH2 0xC17 DUP2 PUSH2 0xBF3 JUMP JUMPDEST SWAP3 SWAP2 POP POP JUMP JUMPDEST PUSH0 PUSH0 REVERT JUMPDEST PUSH0 PUSH0 REVERT JUMPDEST PUSH0 PUSH0 REVERT JUMPDEST PUSH0 PUSH0 DUP4 PUSH1 0x1F DUP5 ADD SLT PUSH2 0xC3E JUMPI PUSH2 0xC3D PUSH2 0xC1D JUMP JUMPDEST JUMPDEST DUP3 CALLDATALOAD SWAP1 POP PUSH8 0xFFFFFFFFFFFFFFFF DUP2 GT ISZERO PUSH2 0xC5B JUMPI PUSH2 0xC5A PUSH2 0xC21 JUMP JUMPDEST JUMPDEST PUSH1 0x20 DUP4 ADD SWAP2 POP DUP4 PUSH1 0x1 DUP3 MUL DUP4 ADD GT ISZERO PUSH2 0xC77 JUMPI PUSH2 0xC76 PUSH2 0xC25 JUMP JUMPDEST JUMPDEST SWAP3 POP SWAP3 SWAP1 POP JUMP JUMPDEST PUSH0 PUSH0 PUSH0 PUSH0 PUSH1 0x60 DUP6 DUP8 SUB SLT ISZERO PUSH2 0xC96 JUMPI PUSH2 0xC95 PUSH2 0xA6A JUMP JUMPDEST JUMPDEST PUSH0 PUSH2 0xCA3 DUP8 DUP3 DUP9 ADD PUSH2 0xC09 JUMP JUMPDEST SWAP5 POP POP PUSH1 0x20 PUSH2 0xCB4 DUP8 DUP3 DUP9 ADD PUSH2 0xA91 JUMP JUMPDEST SWAP4 POP POP PUSH1 0x40 DUP6 ADD CALLDATALOAD PUSH8 0xFFFFFFFFFFFFFFFF DUP2 GT ISZERO PUSH2 0xCD5 JUMPI PUSH2 0xCD4 PUSH2 0xA6E JUMP JUMPDEST JUMPDEST PUSH2 0xCE1 DUP8 DUP3 DUP9 ADD PUSH2 0xC29 JUMP JUMPDEST SWAP3 POP SWAP3 POP POP SWAP3 SWAP6 SWAP2 SWAP5 POP SWAP3 POP JUMP JUMPDEST PUSH0 PUSH1 0x20 DUP3 DUP5 SUB SLT ISZERO PUSH2 0xD04 JUMPI PUSH2 0xD03 PUSH2 0xA6A JUMP JUMPDEST JUMPDEST PUSH0 PUSH2 0xD11 DUP5 DUP3 DUP6 ADD PUSH2 0xA91 JUMP JUMPDEST SWAP2 POP POP SWAP3 SWAP2 POP POP JUMP JUMPDEST PUSH2 0xD23 DUP2 PUSH2 0xA72 JUMP JUMPDEST DUP3 MSTORE POP POP JUMP JUMPDEST PUSH0 PUSH1 0x20 DUP3 ADD SWAP1 POP PUSH2 0xD3C PUSH0 DUP4 ADD DUP5 PUSH2 0xD1A JUMP JUMPDEST SWAP3 SWAP2 POP POP JUMP JUMPDEST PUSH0 DUP3 DUP3 MSTORE PUSH1 0x20 DUP3 ADD SWAP1 POP SWAP3 SWAP2 POP POP JUMP JUMPDEST PUSH32 0x746F6B656E4964206D75737420213D302C20616D6F756E74206D757374203E30 PUSH0 DUP3 ADD MSTORE POP JUMP JUMPDEST PUSH0 PUSH2 0xD86 PUSH1 0x20 DUP4 PUSH2 0xD42 JUMP JUMPDEST SWAP2 POP PUSH2 0xD91 DUP3 PUSH2 0xD52 JUMP JUMPDEST PUSH1 0x20 DUP3 ADD SWAP1 POP SWAP2 SWAP1 POP JUMP JUMPDEST PUSH0 PUSH1 0x20 DUP3 ADD SWAP1 POP DUP2 DUP2 SUB PUSH0 DUP4 ADD MSTORE PUSH2 0xDB3 DUP2 PUSH2 0xD7A JUMP JUMPDEST SWAP1 POP SWAP2 SWAP1 POP JUMP JUMPDEST PUSH0 DUP2 MLOAD SWAP1 POP PUSH2 0xDC8 DUP2 PUSH2 0xBF3 JUMP JUMPDEST SWAP3 SWAP2 POP POP JUMP JUMPDEST PUSH0 PUSH1 0x20 DUP3 DUP5 SUB SLT ISZERO PUSH2 0xDE3 JUMPI PUSH2 0xDE2 PUSH2 0xA6A JUMP JUMPDEST JUMPDEST PUSH0 PUSH2 0xDF0 DUP5 DUP3 DUP6 ADD PUSH2 0xDBA JUMP JUMPDEST SWAP2 POP POP SWAP3 SWAP2 POP POP JUMP JUMPDEST PUSH2 0xE02 DUP2 PUSH2 0xBE2 JUMP JUMPDEST DUP3 MSTORE POP POP JUMP JUMPDEST PUSH0 PUSH1 0x60 DUP3 ADD SWAP1 POP PUSH2 0xE1B PUSH0 DUP4 ADD DUP7 PUSH2 0xDF9 JUMP JUMPDEST PUSH2 0xE28 PUSH1 0x20 DUP4 ADD DUP6 PUSH2 0xDF9 JUMP JUMPDEST PUSH2 0xE35 PUSH1 0x40 DUP4 ADD DUP5 PUSH2 0xD1A JUMP JUMPDEST SWAP5 SWAP4 POP POP POP POP JUMP JUMPDEST PUSH2 0xE46 DUP2 PUSH2 0xAE3 JUMP JUMPDEST DUP2 EQ PUSH2 0xE50 JUMPI PUSH0 PUSH0 REVERT JUMPDEST POP JUMP JUMPDEST PUSH0 DUP2 MLOAD SWAP1 POP PUSH2 0xE61 DUP2 PUSH2 0xE3D JUMP JUMPDEST SWAP3 SWAP2 POP POP JUMP JUMPDEST PUSH0 PUSH1 0x20 DUP3 DUP5 SUB SLT ISZERO PUSH2 0xE7C JUMPI PUSH2 0xE7B PUSH2 0xA6A JUMP JUMPDEST JUMPDEST PUSH0 PUSH2 0xE89 DUP5 DUP3 DUP6 ADD PUSH2 0xE53 JUMP JUMPDEST SWAP2 POP POP SWAP3 SWAP2 POP POP JUMP JUMPDEST PUSH32 0x7472616E7366657246726F6D206572726F720000000000000000000000000000 PUSH0 DUP3 ADD MSTORE POP JUMP JUMPDEST PUSH0 PUSH2 0xEC6 PUSH1 0x12 DUP4 PUSH2 0xD42 JUMP JUMPDEST SWAP2 POP PUSH2 0xED1 DUP3 PUSH2 0xE92 JUMP JUMPDEST PUSH1 0x20 DUP3 ADD SWAP1 POP SWAP2 SWAP1 POP JUMP JUMPDEST PUSH0 PUSH1 0x20 DUP3 ADD SWAP1 POP DUP2 DUP2 SUB PUSH0 DUP4 ADD MSTORE PUSH2 0xEF3 DUP2 PUSH2 0xEBA JUMP JUMPDEST SWAP1 POP SWAP2 SWAP1 POP JUMP JUMPDEST PUSH0 PUSH1 0x60 DUP3 ADD SWAP1 POP PUSH2 0xF0D PUSH0 DUP4 ADD DUP7 PUSH2 0xDF9 JUMP JUMPDEST PUSH2 0xF1A PUSH1 0x20 DUP4 ADD DUP6 PUSH2 0xD1A JUMP JUMPDEST PUSH2 0xF27 PUSH1 0x40 DUP4 ADD DUP5 PUSH2 0xD1A JUMP JUMPDEST SWAP5 SWAP4 POP POP POP POP JUMP JUMPDEST PUSH32 0x796F7520617265206E6F74206F776E6572000000000000000000000000000000 PUSH0 DUP3 ADD MSTORE POP JUMP JUMPDEST PUSH0 PUSH2 0xF63 PUSH1 0x11 DUP4 PUSH2 0xD42 JUMP JUMPDEST SWAP2 POP PUSH2 0xF6E DUP3 PUSH2 0xF2F JUMP JUMPDEST PUSH1 0x20 DUP3 ADD SWAP1 POP SWAP2 SWAP1 POP JUMP JUMPDEST PUSH0 PUSH1 0x20 DUP3 ADD SWAP1 POP DUP2 DUP2 SUB PUSH0 DUP4 ADD MSTORE PUSH2 0xF90 DUP2 PUSH2 0xF57 JUMP JUMPDEST SWAP1 POP SWAP2 SWAP1 POP JUMP JUMPDEST PUSH0 PUSH1 0x60 DUP3 ADD SWAP1 POP PUSH2 0xFAA PUSH0 DUP4 ADD DUP7 PUSH2 0xD1A JUMP JUMPDEST PUSH2 0xFB7 PUSH1 0x20 DUP4 ADD DUP6 PUSH2 0xDF9 JUMP JUMPDEST PUSH2 0xFC4 PUSH1 0x40 DUP4 ADD DUP5 PUSH2 0xD1A JUMP JUMPDEST SWAP5 SWAP4 POP POP POP POP JUMP JUMPDEST PUSH32 0x6F6E6C79206572633230546F6B656E2063616E2063616C6C2074686973206675 PUSH0 DUP3 ADD MSTORE PUSH32 0x6E6374696F6E0000000000000000000000000000000000000000000000000000 PUSH1 0x20 DUP3 ADD MSTORE POP JUMP JUMPDEST PUSH0 PUSH2 0x1026 PUSH1 0x26 DUP4 PUSH2 0xD42 JUMP JUMPDEST SWAP2 POP PUSH2 0x1031 DUP3 PUSH2 0xFCC JUMP JUMPDEST PUSH1 0x40 DUP3 ADD SWAP1 POP SWAP2 SWAP1 POP JUMP JUMPDEST PUSH0 PUSH1 0x20 DUP3 ADD SWAP1 POP DUP2 DUP2 SUB PUSH0 DUP4 ADD MSTORE PUSH2 0x1053 DUP2 PUSH2 0x101A JUMP JUMPDEST SWAP1 POP SWAP2 SWAP1 POP JUMP JUMPDEST PUSH32 0x4D61726B65743A20746F6B656E206E6F7420666F722073616C65000000000000 PUSH0 DUP3 ADD MSTORE POP JUMP JUMPDEST PUSH0 PUSH2 0x108E PUSH1 0x1A DUP4 PUSH2 0xD42 JUMP JUMPDEST SWAP2 POP PUSH2 0x1099 DUP3 PUSH2 0x105A JUMP JUMPDEST PUSH1 0x20 DUP3 ADD SWAP1 POP SWAP2 SWAP1 POP JUMP JUMPDEST PUSH0 PUSH1 0x20 DUP3 ADD SWAP1 POP DUP2 DUP2 SUB PUSH0 DUP4 ADD MSTORE PUSH2 0x10BB DUP2 PUSH2 0x1082 JUMP JUMPDEST SWAP1 POP SWAP2 SWAP1 POP JUMP JUMPDEST PUSH32 0x204D61726B65743A20696E73756666696369656E7420616D6F756E7400000000 PUSH0 DUP3 ADD MSTORE POP JUMP JUMPDEST PUSH0 PUSH2 0x10F6 PUSH1 0x1C DUP4 PUSH2 0xD42 JUMP JUMPDEST SWAP2 POP PUSH2 0x1101 DUP3 PUSH2 0x10C2 JUMP JUMPDEST PUSH1 0x20 DUP3 ADD SWAP1 POP SWAP2 SWAP1 POP JUMP JUMPDEST PUSH0 PUSH1 0x20 DUP3 ADD SWAP1 POP DUP2 DUP2 SUB PUSH0 DUP4 ADD MSTORE PUSH2 0x1123 DUP2 PUSH2 0x10EA JUMP JUMPDEST SWAP1 POP SWAP2 SWAP1 POP JUMP JUMPDEST PUSH0 PUSH1 0x40 DUP3 ADD SWAP1 POP PUSH2 0x113D PUSH0 DUP4 ADD DUP6 PUSH2 0xDF9 JUMP JUMPDEST PUSH2 0x114A PUSH1 0x20 DUP4 ADD DUP5 PUSH2 0xD1A JUMP JUMPDEST SWAP4 SWAP3 POP POP POP JUMP JUMPDEST PUSH32 0x4E487B7100000000000000000000000000000000000000000000000000000000 PUSH0 MSTORE PUSH1 0x11 PUSH1 0x4 MSTORE PUSH1 0x24 PUSH0 REVERT JUMPDEST PUSH0 PUSH2 0x1188 DUP3 PUSH2 0xA72 JUMP JUMPDEST SWAP2 POP PUSH2 0x1193 DUP4 PUSH2 0xA72 JUMP JUMPDEST SWAP3 POP DUP3 DUP3 SUB SWAP1 POP DUP2 DUP2 GT ISZERO PUSH2 0x11AB JUMPI PUSH2 0x11AA PUSH2 0x1151 JUMP JUMPDEST JUMPDEST SWAP3 SWAP2 POP POP JUMP INVALID LOG2 PUSH5 0x6970667358 0x22 SLT KECCAK256 DUP1 DUP2 SWAP10 CALLDATACOPY PUSH31 0xBAC8C412A00D32B582C3493D5F12ECC3BFA5744F5EAA78B6ABF19C64736F6C PUSH4 0x43000822 STOP CALLER "
				},
				"gasEstimates": {
					"creation": {
						"codeDepositCost": "916600",
						"executionCost": "infinite",
						"totalCost": "infinite"
					},
					"external": {
						"buyNFT(uint256,uint256)": "infinite",
						"erc20Token()": "infinite",
						"erc721Token()": "infinite",
						"list(uint256,uint256)": "infinite",
						"tokenPrice(uint256)": "infinite",
						"tokensReceived(address,uint256,bytes)": "infinite"
					}
				},
				"methodIdentifiers": {
					"buyNFT(uint256,uint256)": "1d85bf03",
					"erc20Token()": "8a13eea7",
					"erc721Token()": "5f2d6bcd",
					"list(uint256,uint256)": "50fd7367",
					"tokenPrice(uint256)": "d4ddce8a",
					"tokensReceived(address,uint256,bytes)": "d0314263"
				}
			},
			"storageLayout": {
				"storage": [
					{
						"astId": 201,
						"contract": "contracts/NFTMarket.sol:NFTMarket",
						"label": "erc20Token",
						"offset": 0,
						"slot": "0",
						"type": "t_contract(IERC20)56"
					},
					{
						"astId": 204,
						"contract": "contracts/NFTMarket.sol:NFTMarket",
						"label": "erc721Token",
						"offset": 0,
						"slot": "1",
						"type": "t_contract(IERC721)194"
					},
					{
						"astId": 224,
						"contract": "contracts/NFTMarket.sol:NFTMarket",
						"label": "tokenPrice",
						"offset": 0,
						"slot": "2",
						"type": "t_mapping(t_uint256,t_uint256)"
					}
				],
				"types": {
					"t_contract(IERC20)56": {
						"encoding": "inplace",
						"label": "contract IERC20",
						"numberOfBytes": "20"
					},
					"t_contract(IERC721)194": {
						"encoding": "inplace",
						"label": "contract IERC721",
						"numberOfBytes": "20"
					},
					"t_mapping(t_uint256,t_uint256)": {
						"encoding": "mapping",
						"key": "t_uint256",
						"label": "mapping(uint256 => uint256)",
						"numberOfBytes": "32",
						"value": "t_uint256"
					},
					"t_uint256": {
						"encoding": "inplace",
						"label": "uint256",
						"numberOfBytes": "32"
					}
				}
			},
			"userdoc": {
				"kind": "user",
				"methods": {},
				"version": 1
			}
		}
	}
}